:020000040800F2
:10000000809601205D020008675D000853450008E6
:10001000655D0008750F0008D56A00080000000043
:100020000000000000000000000000009D0100082A
:100030009910000800000000F90100081161000893
:1000400077020008770200087702000877020008AC
:10005000770200087702000877020008770200089C
:10006000770200087702000877020008770200088C
:10007000770200087702000877020008A10F000845
:10008000AD0F0008B90F0008750C000877020008D2
:10009000770200087702000877020008770200085C
:1000A000D1610008ED6100087702000877020008BE
:1000B000770200087702000877020008770200083C
:1000C000770200087702000877020008095E00083E
:1000D000155E000839690008C96A0008770200083F
:1000E000770200087702000877020008770200080C
:1000F00077020008770200087702000877020008FC
:1001000077020008770200080962000877020008F9
:1001100077020008770200087702000877020008DB
:10012000C50F000877020008D10F0008DD0F000896
:1001300077020008770200087702000877020008BB
:1001400077020008770200087702000877020008AB
:100150007702000877020008E90F0008770200081C
:10016000770200087702000877020008770200088B
:1001700077020008770200087702000800000000FC
:100180007702000877020008DFF80CD000F0E8FBE7
:1001900000480047E15F0208809601202C4B196857
:1001A0000868B0E8F04F80F30988BFF36F8F4FF015
:1001B000000080F3118870470000000008480068C4
:1001C000006880F308884FF0000080F3148862B65E
:1001D00061B6BFF34F8FBFF36F8F00DF00BF00BF6B
:1001E00008ED00E0DFF80C00016841F470010160E7
:1001F000704700BF88ED00E0EFF30980BFF36F8F19
:10020000134B1A681EF0100F08BF20ED108A20E96A
:10021000F04F106009B44FF0500080F31188BFF325
:100220004F8FBFF36F8F2CF059FB4FF0000080F31E
:10023000118809BC19680868B0E8F04F1EF0100F6B
:1002400008BFB0EC108A80F30988BFF36F8F704746
:1002500030000020EFF3058070470000064880471B
:1002600006480047FEE7FEE7FEE7FEE7FEE7FEE79B
:10027000FEE7FEE7FEE7FEE7C1610008890100082E
:100280002DE9F05F0546002092469B4688460646CB
:10029000814640241BE0284641464746224600F05E
:1002A00090FA53465A46C01A914110D31146184647
:1002B000224600F077FA2D1A67EB01084F462246D6
:1002C0000120002100F06EFA17EB00094E41201EBC
:1002D000A4F10104DFDC484631462A464346BDE826
:1002E000F09F10B5431A934209D28318881803E08F
:1002F00010F8011D03F8011D521EF9D210BD40EA8D
:1003000001039B0703D009E008C9121F08C0042A93
:10031000FAD203E011F8013B00F8013B521EF9D27A
:1003200010BDD2B201E000F8012B491EFBD270478C
:100330000022F6E710B513460A4604461946FFF7B1
:10034000F0FF204610BD421C10F8011B0029FBD114
:10035000801A704710B5002200E0521C835C8C5C50
:10036000A34201D1002BF8D1D8B2E1B2401A10BD9E
:1003700030B504460020034600E05B1C934203D2E4
:10038000E05CCD5C401BF8D030BD034611F8012B7A
:1003900000F8012B002AF9D1184670472DE9FE4FCD
:1003A000804681EA0300C00F0C46009021F0004116
:1003B00023F00045B8EB0200A94105D24046214692
:1003C00090461C460B46024623F00040104347D09F
:1003D000270DC7F30A00C3F30A510290401A019097
:1003E00040286BDAC3F3130040F4801B0098924658
:1003F00020B10023D2EB030A63EB0B0B01985946A3
:10040000C0F14002504600F0CDF906460D46504678
:100410005946019A00F0E5F910EB0800614100240B
:1004200087EA115284EAE7731A4340D0009A62B314
:10043000019A012A4FEA075215DC001B61EB020109
:100440004FF0004202EA0752CDE90042001C41F59C
:10045000801132462B4600F01CFA03B0BDE8F08F45
:1004600040462146F9E7001B61EB0201001C41F503
:10047000801300185B412018A2F5001747EB030119
:1004800040EAD570B6196D4111E06D084FEA3606A5
:1004900045EAC0754FEA0752001B61EB0201001CE0
:1004A00041F5801149084FEA3000001951413246A8
:1004B0002B4603B0BDE8F04F00F0DCB900980122F4
:1004C00040000023D0EB020263EBE073009821466A
:1004D0004FEAE074B8EB000061EB0401E9E783F058
:1004E00000435BE781F0004158E72DE9FE4F81EAC8
:1004F000030404F0004421F0004100944FF0000B8D
:1005000023F0004350EA01045ED052EA03045BD0BA
:10051000C3F30A54C1F30A552C44A4F2F3340194F2
:10052000A0FB0254C1F3130141F48011C3F3130380
:1005300043F4801301FB024400FB034E840A970A34
:1005400044EA815447EA8357A4FB076802958D0A61
:1005500005FB07854FEA932C04FB0C542705029DED
:100560004FEA065847EA1637B5EB08056EEB070C5D
:10057000870E920E47EA811742EA8312A7FB020117
:10058000B6EB0B0164EB00042B0D43EA0C335E1851
:1005900044EB1C50DA465146E7FB0201C5F3130455
:1005A0004FEA0B3343EA14534FEA0432019C43EA07
:1005B0000603A4F10C040294009CCDE900B400F001
:1005C00068F903B0BDE8F08F00200146F9E72DE996
:1005D000F04D81EA030404F0004B21F0004514467D
:1005E0004FF0000A23F0004150EA050220D054EAFF
:1005F00001021DD0C5F30A570246C5F31303C1F328
:100600001300C1F30A5640F4801543F48013A7EB9E
:100610000608101BD64608F2FD3873EB050002D31E
:1006200008F1010801E092185B41B8F1000F03DA0C
:1006300000200146BDE8F08D00204FF480110646F1
:1006400084460EE0171B73EB050705D3121B63EB03
:10065000050306434CEA010C49084FEA30009218A2
:100660005B4150EA0107EDD152EA030012D082EA61
:10067000040083EA0501084305D0101BAB4106D2F4
:100680000122002306E000224FF0004302E06FF059
:10069000010253101AEB06004CEB085110EB0A0054
:1006A00041EB0B01BDE8F04D00F0E4B80EB5C10F11
:1006B00080EAE0700844CA07002140F233438DE825
:1006C0000E000A460B4600F0E4F803B000BD0EB57C
:1006D00040F2334102910021CDE900110A460B4658
:1006E00000F0D7F803B000BD00F0004230F0004049
:1006F0000AD0C10D01F56071C0F3160042EA015144
:10070000C2084007114370470020014670470000AF
:1007100030B5041E71F1000404DB4FF00044404288
:1007200064EB0101141E73F1000405DB1C464FF05D
:100730000043524263EB0403994208BF904230BD2C
:1007400001F0004330B421F0004150EA010206D02C
:100750000A0DA2F56072C1F31301002A02DC30BC5D
:1007600000207047440F44EAC104C100E01830BCC7
:1007700000EBC25000F047B830B50B4601460020F0
:100780002022012409E021FA02F59D4205D303FA53
:1007900002F5491B04FA02F52844151EA2F10102D4
:1007A000F1DC30BD202A04DB203A00FA02F10020FF
:1007B00070479140C2F1200320FA03F3194390409F
:1007C0007047202A04DB203A21FA02F0002170470A
:1007D00021FA02F3D040C2F12002914008431946A9
:1007E0007047202A06DBCB17203A41FA02F043EA91
:1007F000E07306E041FA02F3D040C2F120029140DA
:100800000843194670470029A8BF7047401C49009B
:1008100008BF20F00100704710B4B0FA80FC00FA65
:100820000CF050EA010404BF10BC704749B1CCF190
:10083000200421FA04F411FA0CF118BF012121431C
:100840000843A3EB0C01CB1D4FEA00614FEA1020D7
:1008500042BF002010BC704700EBC3501044002979
:10086000A4BF10BC7047401C490008BF20F0010025
:1008700010BC704710B5141E73F1000408DA401C58
:1008800041F1000192185B411A4301D120F00100AF
:1008900010BD2DE9F04D92469B4611B1B1FA81F29F
:1008A00002E0B0FA80F220329046FFF77BFF044668
:1008B0000F4640EA0A0041EA0B0153465A460843F4
:1008C00013D0114653EA010019D0C8F14002504636
:1008D000FFF777FF05460E46504659464246FFF75A
:1008E00061FF084305D0012004E020463946BDE8F9
:1008F000F08D0020054346EAE0762C4337430A9802
:100900006305E40AA0EB08000022FD0A44EA47540C
:100910000A3002D500200146E9E7010510196941B6
:10092000DDE9084500196941BDE8F04DA2E7C1F3D2
:100930000A52C1F3130140F2FF3341F480119A428D
:1009400002DA00200146704740F233439A42A2F295
:10095000334202DC5242FFF734BFFFF723BF0000EF
:10096000064C074D06E0E06840F0010394E80700FC
:1009700098471034AC42F6D3FFF70AFC98350308C9
:10098000D83503082DE9F04D00231A461B1A8A4179
:1009900003DB00200146BDE8F08DC1F30A52C1F32C
:1009A000130141F480154FF0000BD10702D100185C
:1009B0006D41521E0027044640F2FF11384601EBFC
:1009C000620A3E468046024600204FF48011FFF73F
:1009D000F8FEC2197141BB1846EB0100B4EB030CE1
:1009E00075EB000C04D3E41A65EB000517460E46C0
:1009F000241908F101006D4180463428E3DDF9191E
:100A000046EB0600091BA84103D24FF0FF32134604
:100A100001E0002213461BEB070046EB0A51BDE83C
:100A2000F04DFFF727BF70B5C1F30A5201F0004542
:100A30000024C1F3130140F2FF3341F480119A42C4
:100A400001DA002070BD40F233439A42A2F23342F1
:100A500003DC5242FFF7B5FE00E090402C43F1D09A
:100A6000404270BD70B58C1810F8015B15F007039B
:100A700001D110F8013B2A1106D110F8012B03E037
:100A800010F8016B01F8016B5B1EF9D12B0705D43F
:100A90000023521E0DD401F8013BFAE710F8013B88
:100AA000CB1A921C03E013F8015B01F8015B521EA4
:100AB000F9D5A142D8D3002070BD00009FED221AC5
:100AC0009FED222A20EE010AB5EE001A30EE010A4F
:100AD000BDEEC01A11EE100AB5EE400AF1EE10FAA2
:100AE000B8BF013801EE100AB8EEC11A30EE410A63
:100AF00020EE020ABDEEC01A9FED152A11EE100A73
:100B0000002130EE021AB1EB502F42F694511CBF77
:100B10000020B0EE410AC0F6030101EE100A01EB1D
:100B20008001B8EE411A30EE410A91ED001A91EDC4
:100B3000012AB7EE003A33EE403A23EE011A20EED6
:100B4000020A31EE000A704783F9223E0000004499
:100B5000000000C49FED201A9FED202A20EE010A1C
:100B6000BDEEC01A11EE100AB5EE400AF1EE10FA11
:100B7000B8BF013801EE100AB8EEC11A30EE410AD2
:100B800020EE020ABDEEC01A9FED152A11EE100AE2
:100B9000002130EE021AB1EB502F42F694511CBFE7
:100BA0000020B0EE410AC0F6030101EE100A01EB8D
:100BB0008001B8EE411A30EE410A91ED001A91ED34
:100BC000012AB7EE003A33EE403A23EE011A20EE46
:100BD000020A31EE000A704783F9223E0000004409
:100BE000000000C410B50146806B026C12F0500F7B
:100BF00005D0026CD20626D500F0BBFC10BD016CFE
:100C000041F40071016401688A6812F0405F17D1F5
:100C1000027EAAB9CA6A12F4700F02D08A6852051D
:100C20000ED44A6822F020024A60016C21F48071DF
:100C30000164016CC90403D4016C41F00101016439
:100C400000F03EFC10BD806BC26CBDE81040084651
:100C5000104710B5806B40210164416C41F00401E4
:100C6000416400F086FC10BD10B5806B00F080FC84
:100C700010BD000010B5044800F07CFCBDE8104039
:100C8000024800F077BC0000F0C1012038C201200A
:100C9000464910B54A6822F440324A604A684368BF
:100CA0001A434A6001684A6822F480724A60016807
:100CB0004A68036942EA03224A6001684A6822F0EE
:100CC00040724A6001684A6883681A434A60016852
:100CD0008A6822F400628A6001688A68C3681A43DD
:100CE0008A60816A6FF07062D14201688A6822F07E
:100CF00070628A6001688A680CD0836A1A438A60CD
:100D000001688A6822F040528A6001688A68C36A72
:100D10001A4301E022F040528A6001688A6822F09A
:100D200002028A6001688A68037E42EA43028A609E
:100D300090F82010002901684A680FD042F4006240
:100D40004A6001684A6822F460424A6001684A6861
:100D5000174C436A04EB43331A4301E022F4006268
:100D60004A600168CA6A22F47002CA620168CA6AEB
:100D7000838B104C04EB03531A43CA6201688A68E0
:100D800022F400728A6001688A6890F8303042EA82
:100D900043228A6001688A6822F480628A6001685E
:100DA0008A68406942EA8020886010BD00230140C3
:100DB00000E0FFFF0000F0FF10B500F025F8FFF79E
:100DC00086FC9FED0B1B53EC112BFFF78EFB9FED69
:100DD0000A1B53EC112BFFF788FB9FED091B53EC0B
:100DE000112BFFF7F4FBFFF7ABFC00EE100A10BD70
:100DF000000000000080B63F00000060FB210940B9
:100E000000000000008066401CB504460C208DF8F0
:100E10000400012301AA6C21206805F069FE022369
:100E20006A466C21206805F057FEBDF8000040BA04
:100E30001CBD000070B5044685688069281AFFF75C
:100E400046FC9FED161B53EC112BFFF74EFBFFF7F3
:100E500077FC00EE900AF5EEC00AF1EE10FA01D828
:100E6000DFED100A94ED031A94ED040AD4ED011A93
:100E7000DFED0D2A31EE402A94ED050AC4ED051A86
:100E800084ED041A31EEC00AA56120EE220ADFEDDE
:100E9000072A00EE222A82EE200A70BDFCA9F1D2B8
:100EA0004D62503F6F12833A00008039DB0FC9401A
:100EB00010B5FFF7BFFFDFED020A20EE200A10BDDC
:100EC000EFC9184170B50D460446FFF79DFF00EECF
:100ED000100A25600020F8EE400AB8EE400AC4ED82
:100EE000010ADFED050AA060C4ED030AC4ED040A9F
:100EF00084ED050AA06170BD0000000010B5044635
:100F00002DED028BFFF780FF00EE100AF8EE408A0D
:100F100094ED010A38EEC08A01F00CFAB5EEC08AF1
:100F2000A060F1EE10FA02DDB0EE480A01E0B1EE89
:100F3000480A10EE100A0C4988420FDB94ED030AB0
:100F4000B5EEC08AF1EE10FA02DDDFED080A01E02D
:100F5000DFED070A30EE200A84ED030AC4ED018AB2
:100F6000BDEC028B10BD0000CDCC4C45DB0FC9C0E1
:100F7000DB0FC940FEE70000D0ED000AF0EE001ADA
:100F8000C1ED000A9FED050AD0EC020A41EE210AEC
:100F900020EE800A81ED010A704700003ACD133F30
:100FA000014800F041BF000040050020014800F06A
:100FB0003BBF000078C50120014800F035BF0000AC
:100FC000D8C50120014800F02FBF000080C20120D9
:100FD000014800F029BF000018C50120014800F0B9
:100FE00023BF0000E0040020014800F01DBF000006
:100FF000B8C4012001681823CAB2103AB2FBF3F258
:10100000054B6FF30901032A9B5CC36500D9091DD9
:10101000816508467047000038D8020810B50146BF
:1010200000208B698A6A4FF0C07453B1B3F5005F3A
:1010300015D072B1012A0CD0022A0AD0032A09D194
:1010400004E01AB1012A06D0022A03D1C96AC901F3
:1010500000D5012010BDC96AA142FAD010BD002AF6
:10106000F7D0012AF2D0022AF3D0032AF3D010BD20
:1010700030B50468256825F4802525600468636020
:101080008368402B036803D099600068C26030BD5C
:101090009A600068C16030BD704772B6FEE700001C
:1010A00070B590F83C20694D012A19D0012280F8D2
:1010B0003C200A6807230468092A13D9E6680A3A1B
:1010C00002EB420293409E43E6600A788B680A3A3C
:1010D00002EB420293400268D4682343D36010E0DD
:1010E000022070BD266902EB420293409E432661B6
:1010F0000A788B6802EB420293400268146923432A
:1011000013610268936B23F4401393630268936B3B
:101110000C8A4F4E06EB0454234393630A790B7CED
:10112000D21AD21C02EB82021F2393400268946BF6
:101130009C4394630A790B7CD21AD21C02EB820383
:101140000A8892B29A4003689C6B22439A638A6928
:10115000AA420268936823F470239360026893683C
:101160000CD08C69234393600268936823F4401386
:10117000936002689368CC69234301E023F4401331
:1011800093604A7D002A0268536802D043F480636A
:1011900001E023F4806353600A7D002A02685368EB
:1011A00002D043F4805301E023F4805353604A6833
:1011B000012A16D0022A1FD0032A026827D0136AF8
:1011C0006FF30B0313620268136ACC682343136244
:1011D000214B04681F4A9C4227D10C68122C20D056
:1011E00023E0026853696FF30B035361026853698C
:1011F000CC6823435361EBE7026893696FF30B03F9
:10120000936102689369CC6823439361E0E7D369F3
:101210006FF30B03D3610268D369CC682343D361B6
:10122000D6E7546844F48004546004689C4208D1B2
:101230000968102901D0112903D1516841F4000136
:101240005160002180F83C10084670BD01000F007D
:101250000000F0FF0023014000200140704708B566
:10126000002200920368521F1A60012911D002293E
:101270000CD0032906D0042901D0009808BD0068CD
:10128000806C01E00068406C009008BD0068006C54
:10129000FAE70068C06BF7E718B50021009190F8F5
:1012A0003C20012A07D0012280F83C200268936884
:1012B000DB0702D011E0022018BD936843F0010360
:1012C0009360284A284B1268B2FBF3F202EB420209
:1012D00000E0521E0092002AFBD102689368DB07EF
:1012E00035D0036C42F20104A34343F480530364FA
:1012F000036CDB0500D4416480F83C106FF00401FE
:1013000011601A4949680068C906816801F44011F2
:101310000FD0D1B100224168154B41F38021491C07
:1013200098421CD1DAB1D1B1816841F48001816069
:1013300015E041B10021426842F38022521C71B194
:10134000002AF1D10BE00121F5E70122E3E7016C6E
:1013500041F010010164416C41F001014164002041
:1013600018BD000054C0012040420F00002301407E
:101370000020014078B50024009490F83C20012A18
:1013800019D0012280F83C200A6807230568092A41
:1013900013D9EE680A3A02EB420293409E43EE6094
:1013A0000B788A680A3B03EB43039A400368DD68C5
:1013B0002A43DA6010E0022078BD2E6902EB420277
:1013C00093409E432E610B788A6803EB43039A4057
:1013D00003681D692A431A614A681F23072A13D22A
:1013E00005686E6B521E02EB820293409E436E6351
:1013F0000B790A885B1E92B203EB83039A40036861
:101400005D6B2A435A6327E005680D2A12D22E6BC2
:10141000D21F02EB820293409E432E630B790A880F
:10142000DB1F92B203EB83039A4003681D6B2A43D0
:101430001A6311E0EE6A0D3A02EB820293409E437A
:10144000EE620B790A880D3B92B203EB83039A405C
:101450000368DD6A2A43DA62164B0568144A9D4226
:1014600006D10D68122D03D1556845F480055560ED
:1014700005689D4218D10B68102B01D0112B13D198
:10148000536843F400035360096810290CD10A49DA
:101490000A4A0968B1FBF2F101EB8101490000E061
:1014A000491E00910029FBD180F83C40002078BD06
:1014B000002301400020014054C0012040420F00A1
:1014C00010B500682349884243D101212248FFF723
:1014D000C6FE224C022120801F48FFF7C0FE60801C
:1014E00003211D48FFF7BBFE81B2A1802088DFEDFC
:1014F0001C0A00EE100A9FED1B1A1C48B8EE400AA9
:1015000060EE201A9FED180AB0EE402A11EE812AF3
:10151000F1EE001A22EE212A80ED002A628802EE06
:10152000102AB8EE422A62EE202AB0EE402A12EECD
:10153000812A22EE212A80ED012A02EE101AB8EE4D
:10154000422A62EE200A10EE810A20EE210A80ED86
:10155000020A10BD00200140F0C1012028C0012076
:1015600033335340000080393333D33F38020020F7
:101570007047704770B5044600680668456816F005
:10158000020F05F020012AD049B3216CC90603D40B
:10159000216C41F400712164816811F0405F17D122
:1015A000217EA9B9C16A11F4700F02D08168490582
:1015B0000ED4416821F020014160206C20F480703D
:1015C0002064206CC00403D4206C40F0010020642F
:1015D0002046FFF775FF21686FF01200086016F0D3
:1015E000040F05F0800132D089B3206CC00603D40B
:1015F000206C40F4005020642068816811F4401F82
:101600001ED1816B11F4401F02D08168490517D4A7
:101610004168490514D4816811F0405F10D1217EE2
:1016200071B9416821F080014160206C20F4805044
:101630002064206CC00503D4206C40F001002064BD
:101640002046FFF70BFE21686FF00C00086016F0D3
:10165000010F05F040010FD071B120680068C0078C
:101660000AD0206C40F480302064204600F043F81B
:1016700021686FF00100086016F0200F05F080610E
:101680000ED000290CD0606C40F00200606420682D
:101690006FF0200505602046FFF76BFF20680560AE
:1016A00070BD70B504004FF0000503D0206C00261B
:1016B00010B107E0012070BD204600F01DF86664FF
:1016C00084F83C60206CC00610D4206C20F4885054
:1016D00040F0020020642046FFF7DAFA6664206CCE
:1016E00020F0020040F00100206400E0012584F8B1
:1016F0003C60284670BD704770B586B00646142120
:101700006846FEF715FE2F492D4C336800252D48FD
:1017100014390322A3422FD1036843F4807303607A
:10172000006800F480700590086840F001000860CF
:101730000868694600F0010005903C208DE825000E
:10174000214800F0F5FC224C2048C4E900050015B2
:10175000A560C4E90350400060618000A0614011B1
:10176000C4E907052046656200F02EFC08B1FFF7CA
:1017700094FCB463A66319E0164CA3421ED103681F
:1017800043F400730360006800F40070059008687B
:1017900040F0040008600868694600F00400059005
:1017A00033208DE825000C4800F0C2FC0022052102
:1017B000122001F03BF9122001F02AF906B070BDA9
:1017C0000020014044380240000002401064024002
:1017D00080C2012000210140000802402DE9F041B3
:1017E000044600680D4681684FF0000749050BD597
:1017F0008068C00508D5206C40F02000206484F883
:101800003C700120BDE8F08100F094FD064613E035
:10181000681C11D025B100F08DFD801BA8420BD9AA
:1018200020680068800707D4206C40F00400206422
:1018300084F83C700320E5E7206800688007E7D55E
:1018400021686FF012000860206C40F40070206482
:101850002068816811F0405F13D1217E89B9C16A87
:1018600011F4700F02D0806840050AD4206C20F477
:1018700080702064206CC00403D4206C40F0010010
:1018800020640020BEE7000018B50021009190F808
:101890003C20012A07D0012280F83C20026893688E
:1018A000DB0702D011E0022018BD936843F001036A
:1018B00093602E4A2E4B1268B2FBF3F202EB420207
:1018C00000E0521E0092002AFBD102689368DB07F9
:1018D00042D0036C40F20164A34343F48073036479
:1018E00053685B0505D5036C23F4005343F4805320
:1018F0000364036CDB0404D5436C23F006034364E8
:1019000000E0416480F83C101A496FF02203136034
:1019100049680068CA06184906D0884224D18168FF
:1019200011F0405F13D01FE08842F8D0134A904274
:1019300003D1D1F80423D206F1D0114A904213D139
:10194000D1F8041301F01F011029E8D30CE08168DD
:1019500041F08041816007E0016C41F010010164B9
:10196000416C41F001014164002018BD54C00120C8
:1019700040420F00002301400020014000210140AF
:1019800000220140F8B50E4600210446009190F86F
:101990003C0013460A46012807D0012084F83C0089
:1019A00020688568ED0702D011E00220F8BD856847
:1019B00045F0010585604048404D0068B0FBF5F0FA
:1019C00000EB400000E0401E00900028FBD12068A2
:1019D0008568ED0503D5856825F4807585602068E8
:1019E0008568ED075DD0226C40F20165AA4342F4A0
:1019F000807222644068400505D5206C20F40050B8
:101A000040F480502064206CC00404D5606C20F049
:101A10000600606400E0616484F83C10A16B294812
:101A2000274DC863A16B28480864A16B2748C86488
:101A300021686FF0220008602068416841F08061F1
:101A400041602068816841F480718160216832467C
:101A50004C31A06B00F022FB024668681C49C006AE
:101A6000206806D0884224D1816811F0405F13D0ED
:101A70001FE08842F8D0174B984203D1D1F80433C5
:101A8000DB06F1D0144B984213D1D1F8041301F0C6
:101A90001F011029E8D30CE0816841F0804181608A
:101AA00007E0206C40F010002064606C40F0010002
:101AB00060641046F8BD000054C0012040420F0091
:101AC00000230140E50B0008690C0008530C0008D6
:101AD00000200140002101400022014018B50021F2
:101AE000009190F83C20012A07D0012280F83C2088
:101AF00002689368DB0702D011E0022018BD9368EA
:101B000043F001039360314A314B1268B2FBF3F2A8
:101B100002EB420200E0521E0092002AFBD1026852
:101B20009368DB0747D0036C40F20164A34343F49E
:101B30008073036453685B0505D5036C23F400537D
:101B400043F480530364036CDB0404D5436C23F03B
:101B50000603436400E0416480F83C101D4B6FF0C5
:101B60002201116001684A681B4C22434A6059688F
:101B70000068CA06194906D0884224D1816811F04C
:101B8000405F13D01FE08842F8D0154A904203D13D
:101B9000D1F80423D206F1D0124A904213D1D1F8E1
:101BA000041301F01F011029E8D30CE0816841F013
:101BB0008041816007E0016C41F010010164416CDB
:101BC00041F001014164002018BD000054C0012013
:101BD00040420F000023014020000004002001408B
:101BE000002101400022014070B5040003D094F8A8
:101BF000200010B104E0012070BD204600F082F802
:101C00002068016841F00101016000F093FB054686
:101C1000052604E000F08EFB401B0A2811D820683E
:101C20004068C007F6D02068016821F00201016019
:101C300000F080FB05460BE000F07CFB401B0A280F
:101C400006D9606A40F40030606284F82060D2E710
:101C5000206840688007EFD4207E01282068016852
:101C60003DD021F080010160607E0128206801687C
:101C700038D021F040010160A07E01282068016871
:101C800033D021F020010160E07E01282068016846
:101C90002ED041F010010160207F012820680168EA
:101CA00029D021F008010160607F012820680168C7
:101CB00024D021F004010160D4E902010843D4E9F1
:101CC0000412114308436168491E08432168C86132
:101CD00000206062012084F82000002070BD41F0E7
:101CE0008001C0E741F04001C5E741F02001CAE7AB
:101CF00021F01001CFE741F00801D4E741F00401E1
:101D0000D9E7000010B586B0044614216846FEF7F6
:101D10000FFB14492068884221D113480021026832
:101D200042F000720260006800F0007005900E48FA
:101D30001038026842F001020260006800F0010001
:101D400005904FF4C05000900220CDE9010103201E
:101D50000390092004906946044800F0E9F906B0B0
:101D600010BD000000640040403802400000024006
:101D70002DE9F0410446876D00F0DCFA064694F840
:101D800035000025022806D08020606584F8345094
:101D90000120BDE8F0812068016821F01601016092
:101DA0002068416921F080014161206C08B9A06C74
:101DB00020B12068016821F00801016020680168F5
:101DC00021F0010101600CE000F0B4FA801B05284D
:101DD00007D920206065032084F8350084F834504A
:101DE000D7E720680068C007EED194F85C103F2068
:101DF0008840B860012084F8350084F83450002011
:101E0000C7E790F83510022903D0802141650120F1
:101E10007047052180F835100068016821F0010144
:101E200001600020704700002DE9F84304464FF0A0
:101E30000009CDF8009063484FF41651A56D006875
:101E4000B0FBF1F72E6894F85C10082000FA01F15D
:101E500031420FD021680A6852070BD50A6822F078
:101E600004020A6094F85C108840A860606D40F03D
:101E70000100606594F85C104FF0010808FA01F069
:101E8000304208D021684969090604D5A860606D10
:101E900040F00200606594F85C10042088403042F5
:101EA00008D021680968890704D5A860606D40F0F2
:101EB0000400606594F85C1010208840304218D00F
:101EC00021680968090714D5A860206801684903DA
:101ED00004D50068000308D5A16C07E00168C905B6
:101EE00003D4016821F008010160216C09B120468A
:101EF000884794F85C1020208840304231D0216817
:101F00000968C9062DD5A86094F835000528206811
:101F1000016806D0490347D5006800031DD4616CF1
:101F20001CE021F0160101602068416921F0800168
:101F30004161206C08B9A06C20B12068016821F0D3
:101F40000801016094F85C103F208840A86084F884
:101F5000358084F83490216D1FE0E16B09B1204693
:101F60008847606D00282BD0606DC00714D0052015
:101F700084F835002068016821F0010101600098B3
:101F8000401C0090B84203D820680068C007F6D112
:101F900084F8358084F83490E16C002910D001B0C9
:101FA0002046BDE8F04308470168C905D5D401685B
:101FB00021F01001016084F8358084F83490CCE77A
:101FC000BDE8F88354C001202DE9F041044600F03B
:101FD000B1F906465CB1022084F83500002584F88A
:101FE00034502068016821F0010101600DE00120FA
:101FF000BDE8F08100F09EF9801B052805D920205E
:102000006065032084F83500F2E720680068C007A7
:10201000F0D12268116820480140D4E90103184337
:10202000D4E903363343184363691843A36918435B
:10203000E3691843236A18430843616A042903D1FA
:10204000D4E90B1319430843106020684069666A9D
:1020500020F0070130460E43012704280CD1A06A66
:102060000643E06A40B12046FEF7D8FF20B1402089
:10207000606584F83570BAE7206846612046FEF74F
:10208000B9FF94F85C203F2191408160656584F838
:1020900035700020ACE700003F8010F02DE9F041E2
:1020A0000446866D90F83400002501280DD00120EB
:1020B00084F8340094F835700020012F07D084F89C
:1020C000340002252846BDE8F0810220FBE7022704
:1020D00084F8357060652046FEF7CAFF94F85C10FE
:1020E0003F208840B0602068016841F0160101601F
:1020F000206C20B12068016841F00801016020686F
:10210000016841F001010160DCE7000070B50446A0
:1021100000F010F90546601C02D004480078044421
:1021200000F008F9401BA042FAD370BD2400002043
:102130002DE9F84FDFF8BCA10022012503264FF05E
:102140000F090AF1040BAAF1040E00BF0B6805FA8F
:1021500002F42340A34270D10F7907F00307012F47
:1021600001D0022F16D187684FEA420806FA08FC10
:1021700027EA0C07D1F80CC00CFA08FC4CEA070C53
:10218000C0F808C04768A7430C79C4F30014944012
:102190003C4344600C79E443A4070AD0C4684FEA86
:1021A000420C06FA0CF7BC438F6807FA0CF727437A
:1021B000C7600C7904F00304022C12D1D40800EBA0
:1021C000840CDCF820405707FF0E09FA07F824EAD0
:1021D0000804D1F8108008FA07F848EA0408CCF897
:1021E000208004684FEA420C06FA0CF7BC430F79D2
:1021F00007F0030707FA0CF7274307604C6814F44D
:10220000403F70D03C4C276847F4804727602468E3
:1022100022F0030704F480440094384C07EB040CCC
:10222000DCF8084897074FEA177809FA08F7BC4323
:10223000334FB84202D1002724E054E0314FB84276
:1022400001D101271EE0304FB84201D1022719E029
:102250002E4FB84201D1032714E02D4FB84201D1CF
:1022600004270FE02B4FB84201D105270AE02A4F7F
:10227000B84201D1062705E0284FB84201D107270F
:1022800000E0082707FA08F72743CCF80878DAF8BF
:1022900000405746D1F804C09C435FEACC2C00D5DF
:1022A0001C433C60DBF800405F46D1F804C09C430F
:1022B0005FEA8C2C00D51C433C60DEF8004077467A
:1022C000D1F804C09C435FEA8C3C00D51C433C60C1
:1022D000084F083F3C68D1F804C09C435FEACC3CFF
:1022E00000D51C433C60521C102AFFF42FAFBDE800
:1022F000F88F0000083C01404438024000300140A3
:10230000000002400004024000080240000C0240AD
:10231000001002400014024000180240001C02405D
:102320000069084000D0012070470AB18161704700
:102330000904FBE701488068704700002400002082
:1023400070B5040025D094F83D00002520B984F82C
:102350003C50204600F046FA242084F83D002068D6
:10236000016821F0010101602068016841F4004129
:1023700001602068016821F40041016000F042FC26
:102380004D4A6168914201D84C4900E04C4988426D
:1023900001D2012070BD4B492368B0FBF1F15E68AA
:1023A00026F03F060E435E606368934206D94FF401
:1023B000967359434FF47A73B1FBF3F12368491CC8
:1023C0001E6A26F03F06314319626168914210D8B7
:1023D0004900401EB0FBF1F2521CC2F30B02042A6A
:1023E00001D2042022E0B0FBF1F0401CC0F30B004E
:1023F0001CE0A268F2B301EBC10303EB0116431E1C
:10240000B3FBF6F35B1C43F480431B0549D092B346
:1024100001EBC10202EB0111401EB0FBF1F0401CC8
:10242000C0F30B0040F4804040F400402168CA69CA
:102430004CF6FF739A431043C861D4E90710014377
:102440002068026822F0C00211430160D4E9030150
:1024500001432068826848F2FF339A431143816048
:10246000D4E9050108432168CA6822F0FF0210433D
:10247000C86001E00EE016E02068016841F001014B
:1024800001602564202084F83D00256384F83E50D7
:10249000002070BD01EB4106431EB3FBF6F35B1C4D
:1024A000B3E70120C2E701EB4101401EB0FBF1F0B0
:1024B000401CC0F30B00B7E7A086010080841E001B
:1024C00000093D0040420F002DE9F84F1F4690469D
:1024D0008A460446DDF82890FFF72CFF054694F85D
:1024E0003D00202871D11923012270492046009512
:1024F00002F038F90028F5D194F83C00012864D0A6
:10250000012084F83C0020680168C90703D10168F4
:1025100041F0010101602068016821F4006101605F
:10252000222084F83D00102084F83E000026266416
:10253000C4F824806785608D20855D48E0622B4665
:102540004A465146204602F01DF8002876D1208DDB
:10255000584F68B1012814D002282068016816D0AD
:1025600041F48061016020684169806900908EE0DB
:102570002068416981690091016841F4007101603E
:1025800085E02068016821F480610160F0E721F4B2
:10259000806101602068016841F40061E2E703287E
:1025A00046D801280AD0022810D04B4600223946CE
:1025B0002046009502F0D6F8C8BB25E02A464946D9
:1025C000204602F075F990BB54E06CE04B460022C7
:1025D00039462046009502F0C5F840BB20680168E6
:1025E00041F40071016020680069616A0870606AE6
:1025F000401C6062218D491E2185618D491E6185C7
:1026000021680969017039E02068016821F480615E
:10261000016020680069616A0870606A401C60623D
:10262000208D401E2085608D401E6085CEE705E030
:102630002A464946204602F03BF910B10120BDE888
:10264000F88F20680069616A0870606A401C6062E7
:10265000208D401E81B22185608D401E60852068DE
:102660004269D243520712D4032903D1016821F4ED
:102670008061016020680069616A0870606A401CBE
:102680006062208D401E2085608D401E6085208DFB
:10269000002884D1202084F83D0084F83E6084F82E
:1026A0003C600020CBE70220C9E7000002001000D8
:1026B0000000FFFF040001002DE9F84F1F4690467F
:1026C0008A460446DDF82890FFF734FE054694F864
:1026D0003D0020287FD11923012240492046009542
:1026E00002F040F8002876D194F83C00012872D01E
:1026F000012084F83C0020680168C90703D1016803
:1027000041F0010101602068016821F4006101606D
:10271000212084F83D00102084F83E000026266425
:10272000C4F824806785608D20852D48E0622B46A3
:102730004A465146204601F09BFF90B92068416906
:102740008069009036E02A464946204602F0E8F8C3
:1027500050B1206C042804D12068016841F4007154
:1027600001600120BDE8F88F606A21680078086187
:10277000606A401C6062618D491E6185218D491E21
:1027800089B2218522685369DB435B070BD451B1C1
:1027900000781061606A401C6062608D401E608538
:1027A000208D401E20852A464946204601F0AEFF76
:1027B0000028CED1208D0028C5D154F83D0B0168EA
:1027C00041F400710160202004F81E09E677667765
:1027D0000020C7E7FFE70220C4E700000200100066
:1027E0000000FFFF2DE9F04186B004461421684641
:1027F000FDF79EFD22683A4C384B002138481226DE
:102800000325042710349A4219D1026842F00202CB
:102810000260006802AA00F00200059082E8A200AF
:10282000C020CDE9000669462E48FFF781FC2068EC
:1028300040F400102060206800F400101AE02A4BD9
:102840009A421BD1026842F020020260006802AA8C
:1028500000F020000590CDE9005682E8A20069460C
:102860002248FFF765FC206840F480002060206863
:1028700000F48000059006B0BDE8F0811C4B9A4240
:10288000F9D18846016841F004010160016801F056
:1028900004010591016841F0010101600068694689
:1028A00000F00100059050158DE84101CDE9035776
:1028B0001048FFF73DFC4FF480708DE84101CDE9F1
:1028C000035769460C48FFF733FC206840F40000CA
:1028D0002060206800F40000CCE7000000540040B5
:1028E000303802400004024000580040001402400A
:1028F000005C00400008024000000240024881687D
:102900000278114481607047240000200B4810B504
:10291000016841F400710160016841F48061016067
:10292000016841F480710160032000F09FF80F20DE
:1029300000F006F800F050F8002010BD003C024006
:1029400030B505461F4887B00024016841F00801F2
:102950000160006806A900F00800009001A800F0DE
:1029600031F90498A8B100F04DF940001649174A12
:10297000B0FBF1F11648491E026040F2E732C0E9AF
:102980000324C0E90114846100F0B2FD040003D007
:1029900015E000F037F9E9E70D4800F039FE0400D2
:1029A0000DD1322000F034F8102D07D20022294634
:1029B000322000F03BF80748056000E0012407B032
:1029C000204630BD4038024040420F00000C00401D
:1029D00038C60120280000200C4882B0016841F46C
:1029E00080410160006800F4804000900748001FAB
:1029F000016841F0805101600068002200F08050C1
:102A000000900F21901E02B000F010B84438024030
:102A1000002809DB00F01F020121914040098000DD
:102A200000F1E020C0F8001170470000F0B40E4B38
:102A30001B680C46C3F30223C3F10705042D00D91C
:102A40000425191D072901D2002300E0DB1E012601
:102A500006FA05F1491E214099409E40761E164017
:102A60003143F0BC04F076B80CED00E0064900F00C
:102A7000070208684FF6FF03184040EA0220034AA5
:102A800010430860704700000CED00E00000FA05FC
:102A90002DE9F0470E46050065D0DFF81481D8F81F
:102AA0000000F7B200F00700B04207D288F80070CB
:102AB000D8F8000000F00700B04254D128683D4C1F
:102AC000810712D5400703D5206840F4E05020600C
:102AD0002878000703D5206840F460402060206813
:102AE000A96820F0F000084320602878C0072DD0A6
:102AF000304968680839012812D0022813D0032809
:102B000011D00968890700292DDA216821F0030115
:102B100001432160FFF70EFC814641F2883A0EE046
:102B200009688903EFE709688901ECE7FFF702FC10
:102B3000A0EB0901514502D90320BDE8F0872068C8
:102B4000696800F00C00B0EB810FEFD1D8F80010ED
:102B5000404601F00701B14207D90770006800F054
:102B60000700B04201D00120E7E72878400705D5EB
:102B70002068E96820F4E0500843206028780007C6
:102B800006D52068296920F4604040EAC100206031
:102B900000F058F82168084AC1F30311515CC8409D
:102BA0000649086006480068FFF7CAFE0020C4E72F
:102BB000003C02400838024040D8020854C00120BE
:102BC000280000200F2202600C4A136803F0030360
:102BD0004360136803F0F0038360136803F4E05369
:102BE000C36012684FF4E05303EAD2020261044862
:102BF000006800F0070008607047000008380240D5
:102C0000003C02400448054900680968044AC1F3D1
:102C10008221515CC840704754C0012008380240EE
:102C200050D802080448054900680968044AC1F3FD
:102C30004231515CC840704754C0012008380240FE
:102C400050D80208154810B5006810F00C0214485E
:102C500013D01449042A0FD0082A0ED10F4C241F78
:102C60002268236802F03F025B0207D52068C0F3A8
:102C70008810A0FB010106E0084610BD2168C1F3E1
:102C80008811A1FB00010023FDF7FAFA2168C1F3C6
:102C90000141491C4900B0FBF1F010BD0838024069
:102CA0000024F40040787D012DE9F84F04006ED037
:102CB0002078DFF84C93C007A9F104054AD009F148
:102CC00004000168C1F38101012908D00068C0F344
:102CD000810002280AD1D9F80000400206D52868F0
:102CE000800337D560680028E1D033E06068B0F534
:102CF000803F10D0B0F5A02F286810D020F480308D
:102D00002860286820F4802028606068A8B1FFF758
:102D100011FB06460DE0286840F48030F4E740F4EB
:102D200080202860F7E700BFFFF704FB801B6428C2
:102D300073D828688003F7D50CE0FFF7FBFA064646
:102D400005E000BFFFF7F6FA801B6428F0D828687A
:102D50008003F7D42078DFF8AC8280074FF0000AB8
:102D60003ED5A748001D016811F00C0F08D000687F
:102D7000C0F3810002280BD1D9F80000400207D42B
:102D80002868800716D5E068012800D112E033E1F9
:102D9000E068B8B10120C8F80000FFF7CBFA06469A
:102DA00005E000BFFFF7C6FA801B0228C0D82868DC
:102DB0008007F7D52868216920F0F80040EAC100B3
:102DC00028600DE0C8F800A0FFF7B4FA064604E05A
:102DD000FFF7B0FA801B02281FD828688007F7D4B5
:102DE0002078000722D5864F87486169703771B116
:102DF00001210160FFF79EFA064604E0FFF79AFA08
:102E0000801B022809D838688007F7D50EE0C0F883
:102E100000A0FFF78FFA064605E082E0FFF78AFA86
:102E2000801B02287DD838688007F7D420784007B7
:102E300068D5DFF8CCB100270BF13C0BDBF80000C4
:102E4000C0000BD4DBF8001041F08051CBF800102B
:102E5000DBF80000012700F0805000906B4E3068D6
:102E6000C00510D4306840F480703060FFF762FA1B
:102E7000009005E0FFF75EFA0099401A022850D84A
:102E80003068C005F6D55E4EA0686C3601280FD0BC
:102E90000528306810D020F001003060306820F044
:102EA00004003060A068B8B1FFF744FA00900FE06A
:102EB000306840F00100F4E740F004003060F7E7CC
:102EC000FFF738FA0099411A41F28830814266D8FA
:102ED00030688007F4D50EE0FFF72CFA009007E089
:102EE000FFF728FA0099411A41F28830814256D8FA
:102EF00030688007F4D42FB1DBF8001021F0805146
:102F0000CBF80010A069C8B33D49091D0968C1F399
:102F1000810102294AD00228504607D0C8F8600033
:102F200000E03CE0FFF706FA04463BE04746C8F8FD
:102F30006000FFF7FFF9064605E000BFFFF7FAF96A
:102F4000801B02282BD828688001F7D4D4E9070118
:102F50000843A16A2E4A490802EB0141626A41EA2C
:102F60008211084394F82C1040EA0161C9F800105E
:102F700001203866FFF7DEF9044606E03EE000BFB8
:102F8000FFF7D8F9001B022809D828688001F7D577
:102F900034E000BFFFF7CEF9001B022802D903205E
:102FA000BDE8F88F28688001F4D427E00128F7D025
:102FB000D9F80000E26900F4800191421CD1226A34
:102FC00000F03F01914217D147F6C071626A01409B
:102FD000B1EB821F10D1A26A4FF0FF3300F44031F1
:102FE00003EB5202B1EB024F06D194F82C1000F023
:102FF0007060B0EB016F01D00120D1E70020CFE776
:103000000438024000004742800E474200700040F2
:103010000000FFFF704790F85100704738B5016815
:1030200004464A688868C043430606D5C30704D1EE
:10303000D3435B0601D4216C05E0830708D4D34356
:103040001B0605D4616C01B02046BDE8304008473E
:10305000830603D5430601D5C30551D4D3439B064C
:103060004ED443060AD494F85130032B49D0636DF3
:1030700043F004036365CB688B680093830609D42F
:10308000636D43F0010363658B6800930B6823F065
:1030900040030B60C00506D4606D40F00800606519
:1030A000206880680090606D002829D02068416801
:1030B00021F0E0014160012084F85100900701D423
:1030C000D00722D02068416821F003014160114DF2
:1030D000E06C40B10565E06CFEF793FE18B1606DE1
:1030E00040F040006065A06C002809D00565A06C28
:1030F000FEF787FE002803D0606D40F04000606559
:1031000038BDC8688868009038BD2046FFF782FF48
:1031100038BD0000215E000870B5040009D0606A67
:10312000002540B125616561A56294F8510040B168
:103130000CE0012070BD6068B0F5827FF4D0E561DD
:10314000F2E784F85050204600F044F8022084F85A
:1031500051002068016821F040010160A0882189A8
:1031600000F4827001F404410843A18901F4006174
:103170000843217C01F002010843217D01F0010197
:103180000843218B01F400710843217F01F03801CD
:10319000084394F8201001F080010843218D01F4C8
:1031A0000051084321680860A069042101EA104029
:1031B00094F8241001F01001084321684860206849
:1031C000C16921F40061C1616565012084F8510085
:1031D000002070BD2DE9F04F87B0064614216846E7
:1031E000FDF7A6F84C4B316800244C480225032714
:1031F00005224FF040094FF4806A4FF4003B99429A
:1032000037D1464914310B6843F480530B60096889
:1032100001F480510591016841F0020101600068EC
:10322000029400F0020005903820CDE90005CDE9B8
:10323000037269463A48FEF77BFF3B4D39482860E8
:1032400078066860C5E90294C5E904A4AC61C5E9E3
:10325000074B28466C62FEF7B7FE08B1FDF71DFF6D
:10326000B564002205212320AE63FFF7DFFB232096
:103270004CE02E4B99424BD1284910310B6843F456
:1032800080430B60096801F480410591016841F0B9
:1032900004010160016801F004010591016841F039
:1032A00002010160006802AB00F0020005900C20F2
:1032B000CDE90005904683E8900169461C48FEF779
:1032C00037FF4FF40050CDE9000502AB694683E8B3
:1032D00090011348FEF72CFF134D1648603585E822
:1032E0001102C5E9034A6C61AC61C5E9074B284688
:1032F0006C62FEF769FE08B1FDF7CFFEB5640022EF
:1033000005212420AE63FFF791FB2420FFF780FB0B
:1033100007B0BDE8F08F00000030014030380240B7
:103320000004024058640240E004002000380040DD
:10333000000802407060024070B5044690F85100E9
:1033400001281CD1C9B1C2B194F85000012816D08F
:10335000012084F85000032084F8510000256565A1
:103360002163A286E286A56365642564A587E58757
:10337000A068B0F5004F04D00DE0012070BD022020
:1033800070BD2068016821F040010160206801687B
:1033900041F480410160A16C17480864A16C174892
:1033A000C863A16C1648C864A06C0565E38E2268EA
:1033B000216B0C32A06CFEF771FE30B1606D40F0F5
:1033C0001000606584F85050D7E72068016849060E
:1033D00003D4016841F04001016084F85050206836
:1033E000416841F0200141602068416841F00201DC
:1033F0004160002070BD0000535E00085D5E000863
:10340000315E0008704770477047704710B590F8FC
:103410003C20012A22D0012280F83C20CA688C6816
:1034200022F4407222434C6822F4806222430C68EA
:1034300022F4006222430C6922F4805222434C6938
:1034400022F400522243C969002322F480420A4335
:1034500001684A6480F83C30002010BD022010BD95
:1034600070B590F83C20012A32D0012480F83C400D
:10347000022280F83D2003685A689D6822F0700699
:103480000A6832435A60134B02689A4214D0B2F170
:10349000804F11D0104B9A420ED0104B9A420BD055
:1034A0000F4B9A4208D00F4B9A4205D00E4B9A42CE
:1034B00002D00E4B9A4204D1496825F0800319438B
:1034C000916080F83D40002180F83C10084670BDB6
:1034D000022070BD000001400004004000080040D0
:1034E000000C004000040140004001400018004072
:1034F00010B5040003D094F83D0010B107E001209E
:1035000010BD002084F83C00204600F01FF8022087
:1035100084F83D00211D206802F07CFE012084F823
:10352000460084F83E0084F83F0084F8400084F8A8
:10353000410084F8420084F8430084F8440084F891
:10354000450084F83D00002010BD000008B52B4A5E
:1035500001682B48914210D1016841F001010160DE
:103560000068002200F00100009005211820FFF7FC
:103570005DFA1820FFF74CFA35E0214A121FB1F12D
:10358000804F0BD01F4B994210D1106840F00200C1
:103590001060106800F00200009008BD106840F054
:1035A00001001060106800F00100F5E7164A914232
:1035B0000ED1016841F4803101600068002200F4FE
:1035C0008030009005211820FFF730FA182010E015
:1035D0000E4A9142E1D1016841F400310160006876
:1035E00000F400300090002205211920FFF71EFA98
:1035F0001920BDE80840FFF70BBA000000000140A9
:1036000044380240000400400040014000440140B2
:1036100090F83D10012901D001207047022180F867
:103620003D100168CA6842F00102CA600068114991
:10363000884214D0B0F1804F11D00F4988420ED08B
:103640000E4988420BD00E49884208D00D49884265
:1036500005D00D49884202D00C49884204D18168C6
:1036600001F00701062903D0016841F00101016062
:1036700000207047000001400004004000080040A6
:10368000000C0040000401400040014000180040D0
:1036900070B5044690F83C000025012817D001269B
:1036A00084F83C60022084F83D002068826822F0A3
:1036B000770222F47F4282600868502838D00DDCFF
:1036C00020284FD005DC90B3102811D14AE0022009
:1036D00070BD302846D040280AD13BE060282FD06A
:1036E00070280DD0B0F5805F03D0B0F5005F12D028
:1036F000012584F83D60002084F83C00284670BD18
:10370000CB68D1E90121206802F0F9FD20688168C9
:1037100041F0770109E0CB68D1E90121206802F08E
:10372000EEFD2068816841F480418160E1E719E0A5
:10373000CA684968206802F0B7FE5021206806E098
:10374000CA684968206802F0C0FE6021206802F063
:10375000E0FDCEE7CA684968206802F0A5FE402176
:103760002068F4E7226801461046F0E770472DE92B
:10377000F04104460068C66805694FF00007A907D4
:1037800013D5B10711D5F91E0161012020772068FA
:1037900080698007204602D0FFF7E8FF04E000F0D0
:1037A000FFF8204600F091F92777680716D57007D3
:1037B00014D521686FF0040008610220207720688A
:1037C000806910F4407F204602D0FFF7CFFF04E06D
:1037D00000F0E6F8204600F078F92777280715D59D
:1037E000300713D521686FF00800086104202077A6
:1037F0002068C0698007204602D0FFF7B7FF04E0C9
:1038000000F0CEF8204600F060F92777E80616D5DC
:10381000F00614D521686FF01000086108202077A9
:103820002068C06910F4407F204602D0FFF79EFF59
:1038300004E000F0B5F8204600F047F92777E807E4
:1038400008D0F00706D021686FF00100086120461B
:1038500000F0A0F9280608D5300606D521686FF0DB
:10386000800008612046FFF7CFFD680608D5700686
:1038700006D521686FF040000861204600F0F0FA9C
:10388000A8060AD5B00608D521686FF020000861A7
:103890002046BDE8F041FFF7B8BDBDE8F08100006B
:1038A000F0B587B0044614216846FCF741FD364A5E
:1038B00023680024354802250121934211D1026872
:1038C00042F010020260006800F0100005904FF412
:1038D000D4400090CDE90154CDE9034169462C481C
:1038E0004DE003262B4A2C4FB3F1804F24D02B49B7
:1038F0008B4246D1016841F001010160016801F08D
:1039000001010591016841F002010160006869460A
:1039100000F002000590C0200090CDE9015410464F
:10392000CDE90345FEF704FC0096CDE90154694654
:103930003846CDE9034522E0036843F00103036004
:10394000036803F001030593036843F00203036077
:1039500000680096CDE901540E4600F00200CDE962
:103960000460694603941046FEF7E2FB4FF44060A2
:103970000090CDE90154CDE9034669463846FEF78B
:10398000D7FB07B0F0BD0000000001403038024016
:103990000010024000000240000402400004004009
:1039A000704770B5044690F83C0000260D4601288B
:1039B0000FD0012084F83C006AB1042A1DD0082AE7
:1039C0002FD00C2A3FD00126002084F83C0030463E
:1039D00070BD022070BD206802F0A4FC20688169DF
:1039E00041F0080181612068816921F00401816151
:1039F000206881692A69114311E0206802F0C2FC45
:103A00002068816941F4006181612068816921F445
:103A100080618161206881692A6941EA02218161AE
:103A2000D2E7206802F0E4FC2068C16941F0080197
:103A3000C1612068C16921F00401C1612068C169C8
:103A40002A69114311E0206802F006FD2068C1696F
:103A500041F40061C1612068C16921F48061C161E4
:103A60002068C1692A6941EA0221C161ACE710B549
:103A7000040003D094F83D0010B107E0012010BD10
:103A8000002084F83C00204600F01EF8022084F854
:103A90003D00211D206802F0BDFB012084F8460096
:103AA00084F83E0084F83F0084F8400084F8410028
:103AB00084F8420084F8430084F8440084F8450008
:103AC00084F83D00002010BD7047704710B50446D3
:103AD000022249B104290ED0082913D094F84100DC
:103AE000012816D0012010BD94F83E000128F9D11C
:103AF00084F83E200FE094F83F000128F2D184F8CA
:103B00003F2008E094F840000128EBD184F84020E1
:103B100001E084F841200122206802F0E3FB16490D
:103B20002068164A884201D0904203D1436C43F486
:103B3000004343642068884213D0B0F1804F10D016
:103B40000F4988420DD00F4988420AD00E49884259
:103B500007D0904205D00D49884202D00C498842D6
:103B600004D1816801F00701062903D0016841F002
:103B700001010160002010BD00000140000401406F
:103B80000004004000080040000C004000400140DC
:103B9000001800402DE9F04F814600689849DFF891
:103BA00064B289B04FF0000A88427CD1DBF80C0087
:103BB0005C46401CCBF80C00052874D39248C4F82E
:103BC0000CA0FDF79BF99048FDF7F6F8F1EE0C0A12
:103BD00084ED000A20EE200A8B4884ED010AFDF7EF
:103BE00067F9894884ED020A0BF13C014838FDF77A
:103BF000C3F90BF13C0194ED010A01F1080002F058
:103C0000DBF894ED050ADFED810A814930EE200AE8
:103C100010EE100A84ED050A884203DD9FED7D0A4F
:103C200084ED050A7749A346343194ED010AA1F1E8
:103C3000080011F087F97349734834313C3827F094
:103C4000FDF97049704834313C3802F0CDF9DFF8A5
:103C5000B881A8F13C08D8ED090A9FED6F0A60EE23
:103C6000800AFCEEE00A10EE900AD8ED080A82B253
:103C700060EE800AFCEEE00A10EE900AD8ED070A2A
:103C800081B220EE800ABCEEC00A10EE100A80B2AB
:103C900002F086F8D8F82400FCF726FD06460F4609
:103CA000D8F8200000E01BE0FCF71EFD04460D469E
:103CB000D8F81C00FCF718FD41EC100B08F1B0001F
:103CC0000DF11008427E017CC079DBF8103088E8E5
:103CD0000F008DE8F00053EC102B50A002F012FF03
:103CE0005C49D9F8000088427CD100F0ABFEDBF8DB
:103CF00010005946401CCBF81000B0F57A7F01D374
:103D0000C1F810A040487430027A9FED530A012A8E
:103D100005D1D1ED060A70EE800AC1ED060A427C9B
:103D2000012A02D09BED060A05E0D1ED060A30EE2D
:103D3000C00A81ED060A344900244831032581ED8B
:103D4000000A2C39012381ED000A042604EBC40289
:103D500011184F79012F09D081F806A0875C052F33
:103D60003CD2DFE807F0070F171F36008F797F1C62
:103D70008F71F3E74F7817B181F808A02EE08354D4
:103D80004B712BE08F79052F28D94978F9B9022199
:103D9000815423E04F78012F20D18979C8291DD281
:103DA00085541BE04F7817B1012F07D016E08654D9
:103DB00081F805A00B71CD710D720FE08F79962FF0
:103DC0000CD3865481F805A08B70CB710B7205E083
:103DD00008E04978012901D100F802A0641CE4B28E
:103DE000032CB3D31D49D9F80000884204D109B08F
:103DF000BDE8F04FFEF782BD09B0BDE8F08F0000CE
:103E00000040014004C00120800200200AD7233D69
:103E1000DB0FC940000000000000524574613A7495
:103E2000623A74633A6B6579313A6B6579323A6B11
:103E30006579333A252E34662C252E34662C252EB2
:103E400034662C25642C25642C25642C256C750A7D
:103E500000000000004401406F12833A000C004053
:103E60007047704710B504460068406994F84110E7
:103E7000C0F3C010212911D180B12068143050E85E
:103E8000001F21F0800140E80012002AF5D1A06B4C
:103E900008B1FDF76DFF204602F0CEFB20684069B7
:103EA00094F84210C0F38010222911D180B120680B
:103EB000143050E8001F21F0400140E80012002AB1
:103EC000F5D1E06B08B1FDF753FF204602F08DFB02
:103ED000002010BD70470000F8B50168044608686E
:103EE000CA684B6910F00F0F4FF0000559D003F06E
:103EF000010602F49077374365D0C10705D0D1059C
:103F000003D5616C41F001016164410705D5D90712
:103F100003D0616C41F002016164810705D5D907C6
:103F200003D0616C41F004016164010707D502F020
:103F30002001314303D0616C41F008016164616C80
:103F400000293AD0800604D5900602D5204602F01A
:103F500081FB20684069616CC0F38010090700D4C0
:103F600060B3204602F041FB20684069400621D53D
:103F70002068143050E8001F21F0400140E8001292
:103F8000002AF5D1E06BA8B172490165E06BFDF73D
:103F900038FF002811D0E06B016D01B0BDE8F040A2
:103FA000084783060FD593060DD52046BDE8F84097
:103FB00002F050BB2046FFF78DFFF8BD2046FFF70B
:103FC00089FF6564F8BD266B2023012E7ED1C606CD
:103FD0007CD5D6067AD508684868009048694FF0C5
:103FE000020640064DD5E26B106840684FF48077BA
:103FF0000004000C3AD0A18D814237D9E085D06908
:10400000B8422DD020680C3050E8001F21F4807198
:1040100040E80012002AF5D12068143050E8001F53
:1040200021F0010140E80012002AF5D12068143087
:1040300050E8001F21F0400140E80012002AF5D1AD
:1040400084F84230256320680C3050E8001F21F0CE
:10405000100140E80012002AF5D1E06BFDF788FE60
:104060006663A08DE18D401A81B206E0A18D814288
:10407000A8D1D069B842A5D166632046FFF7F1FE0A
:10408000F8BDA08DE18D401A81B2E08D0028F7D0F7
:104090000029F5D020680C3050E8002F22F49072EF
:1040A00040E80027002FF5D12068143050E8002F99
:1040B00022F0010240E80027002FF5D184F84230B9
:1040C000256320680C3050E8002F00E006E022F065
:1040D000100240E80023002BF3D1CDE705062BD5D5
:1040E000150629D594F841002128C9D1A068B0F55A
:1040F000805F01D12069B0B1206A411C2162216832
:1041000000784860E08C401E0004000CE084B7D1C9
:104110002068C16821F08001C1602068C16841F059
:104120004001C160F8BD206A0088C0F30800486003
:10413000206A801C2062E5E74006F3D55006F1D5E1
:10414000CA68204622F04002CA6084F8413000F07C
:10415000FFF9F8BDEF64000870B5040004D094F8CE
:104160004100002510B106E0012070BD84F84050E8
:10417000204600F023F8242084F841002068C1681C
:1041800021F40051C160204602F0C6FA206801699E
:1041900021F4904101612068416921F02A014161C7
:1041A0002068C16841F40051C1606564202084F832
:1041B000410084F842006563002070BD2DE9F04F96
:1041C00087B0044614216846FCF7B2F8A248A1491A
:1041D000D4F800C0A04A1038022603279F4B0025C0
:1041E0004FF008088C4516D1116841F40021116088
:1041F000116801F400210591016841F0040101609A
:104200000068694600F004000590B802CDE9000698
:10421000184602AC2AE092498C452ED1116841F42F
:1042200080111160116801F480110591016841F05D
:1042300004010160016801F004010591016841F089
:1042400008010160006802AC00F0080005904FF41E
:104250008050CDE9000684E8A00169461846FDF7C4
:1042600067FF0420CDE900067E48694684E8A00186
:10427000FDF75EFF07B0BDE8F08F7B4BDFF8D8910C
:10428000072109F104094FF0006A4FF4806B9C4547
:1042900051D1D9F8003043F01003C9F80030D9F8F3
:1042A000002002F010020592026842F00102026052
:1042B0000068029500F001000590CDE903714FF40C
:1042C000C060CDE9000669466848FDF731FF694ED8
:1042D0006748D846E6E8020A4020A6E8210157468A
:1042E00046F814596348B561F56135627562FDF7AA
:1042F0006BFE08B1FCF7D1FEA663B4635D4E5C486B
:10430000603678383060C6E90175C6E903587561D2
:10431000B561F561356230467562FDF755FE08B14D
:10432000FCF7BBFEE663002205212520B463FEF7FF
:104330007DFB25204EE0504B9C454ED1136843F445
:1043400000331360126802F400320592026842F0F2
:10435000080202600068029500F008000590CDE9AF
:1043600003716020CDE9000669463E48FDF7E0FE96
:10437000404E4248C036D0463060C6E901A5C6E985
:10438000035B7561B561F56135625F463046756204
:10439000FDF71AFE08B1FCF780FEE663B463374808
:1043A000374E1830E6E802084020A1C6344846F8E7
:1043B0001459B561F56135627562FDF705FE08B106
:1043C000FCF76BFEA663002205212620B463FEF7EE
:1043D0002DFB2620FEF71CFB4CE72A4B9C4519D1F0
:1043E000136843F480231360126802F4802205925C
:1043F000026842F0080202600068029500F00800BE
:104400000590CDE903714FF44070CDE9000669468F
:1044100014482DE71C498C45DED1D9F8002042F024
:104420002002C9F80020D9F8001001F02001059100
:10443000016841F040010160006802AA00F04000FC
:1044400005904FF48440CDE9000682E8A00169465A
:104450000E480DE7004C0040403802400008024082
:1044600000500040000C02400010014000000240DB
:10447000B8640240B8C40120004400408860024093
:10448000D8C5012000480040001401400018024037
:1044900090F84230202B01D00220704721B11AB190
:1044A0000023036302F0BEB90120704770477047D4
:1044B0002DE9F843044690F84100984616460D460B
:1044C000202802D00220BDE8F88385B17EB100200B
:1044D0006064212084F84100FDF72CFFA68481460A
:1044E000E684A0682027B0F5805F02D003E00120B9
:1044F000E9E7206910B12E4600250EE000260CE009
:104500008021204602F0DEF9A8B9C6B116F8010BE9
:1045100021684860E08C401EE084E08C4B464FF000
:104520000002CDF800800028EAD14FF0400120467B
:1045300002F0C8F940B184F841700320C3E735F8B0
:10454000020BC0F30800E3E784F841700020BAE7EB
:104550007047FEE701684A69D24352050FD46FF4F1
:1045600080624A61002140F8301F2022427381732B
:10457000026942F0040202610173012070470020C9
:10458000704700002DE9F84F0446C06A1E46934666
:104590000D4621680A6842F480620A60082807D044
:1045A000012805D010F5803F02D0206B112804D1DE
:1045B0002068016841F4807101604FF001195B4689
:1045C000002249462046009600F0CCF84FF40078CF
:1045D00040B120680068C00501D5C4F840800320C0
:1045E000BDE8F88F2069DFF884A0B0F5804F0FD0C8
:1045F0000620216800EAD51747F0F000086133462D
:104600005A460AF10601204600F0F4F858BB03E0D0
:10461000E8B240F001001CE02168E8B208613346CE
:104620005A465146204600F0E5F8E0B92068416955
:1046300081690091016841F4807101605B4600224C
:1046400049462046009600F08DF80028C1D147F079
:10465000F1002168086133465A465146204600F071
:10466000C9F80028BCD00120BAE700000200010010
:10467000F8B50446C06A1E460D461746082807D0FE
:10468000012805D010F5803F02D0206B122804D1FC
:104690002068016841F480710160134600224FF0E8
:1046A00001112046009600F05DF840B120680068D6
:1046B000C00502D54FF4007020640320F8BD2069C6
:1046C000B0F5804F0ED00620216800EAD51040F0EA
:1046D000F000086133463A460B49204600F08AF85C
:1046E00078B902E005F0FE0000E0E8B22168086158
:1046F000054933463A46891F204600F07BF80028DA
:10470000DCD00120F8BD00000800010070B516469D
:104710000D4604461EE02046FFF71CFF08B10120AD
:1047200070BD681C16D0FDF705FE801BA84200D89E
:1047300085B920684069C04340070BD5002044F884
:10474000300F20216173A073216941F020012161A4
:104750002073E4E720684069C0434007DBD40020B1
:1047600070BD00002DE9F047984617460D460446F7
:10477000C1F30746DDF820902AE000BFB8F1FF3F03
:1047800026D0FDF7D7FDA0EB0901414502D8B8F1CD
:10479000000F1DD12068012E16D0806925EA000087
:1047A0000004000C12D00020B84211D1002044F8BF
:1047B000300F20216173A073216941F02001216134
:1047C00020730120BDE8F0874069E7E70120EBE7AF
:1047D0002068012E0AD0806925EA00000004000C40
:1047E00006D00020B842C9D00020EBE74069F3E7CB
:1047F0000120F7E72DE9F047984616460D46044696
:104800004FF000094FF0200AC1F3074723E020686A
:104810004069C043400515D42068016841F4007127
:10482000016021686FF480604861C4F8309084F8BA
:104830003DA084F83E90216C41F00401216484F88D
:104840003C9021E0701C06D0FDF774FDA0EB080041
:10485000B04203D816B1012F1FD021E02068012FEC
:1048600015D0806925EA00000004000C18D000BFB4
:1048700044F8309F84F80DA084F80E90216941F02F
:104880002001216184F80C900120BDE8F087406987
:1048900025EA00000004000CEAD12068406901E02C
:1048A0002068806925EA00000004000CAFD1ECE725
:1048B0002DE9F041002590460E460446202728E0C9
:1048C0004069C043C0060CD454F8301B6FF0100090
:1048D000486144F810596777A577206A20622577E8
:1048E00014E0FDF727FDA0EB0800B04200D886B920
:1048F00020684069C04340060BD544F8305F6773B9
:10490000A573206940F02000206125730120BDE8D7
:10491000F08120684169C9434906D1D40020F6E7F7
:1049200070B516460D4604461EE02046FFF712FEFF
:1049300008B1012070BD681C16D0FDF7FBFC801B80
:10494000A84200D885B920684069C04300060BD54D
:10495000002044F8300F20216173A073216941F0D9
:10496000200121612073E4E720684069C04300060C
:10497000DBD4002070BD000000F036FA10B118A0A2
:1049800002F0C0F84FF4B870642100F036FC10B1AA
:104990001BA002F0B7F8012000F0A6FC10B11FA088
:1049A00002F0B0F8254D264C4FF0FF362868401C29
:1049B000286000F015FC70B100F058FC58B9314681
:1049C000206822F0B5FE00F0CBFC012000F054FA84
:1049D000206822F00AFF0A2022F06EFEE6E70000BF
:1049E000556E61626C6520746F20696E69746961CF
:1049F0006C697A65204D5055393235300A00000017
:104A00004661696C656420746F20696E69746961C0
:104A10006C697A6520444D500A0000004661696C5B
:104A2000656420746F20656E61626C6520696E74C8
:104A3000657272757074730A000000002402002011
:104A4000180000202DE9F041184F04213846FDF7E9
:104A500067FC0025164C012630B104213846FDF7CD
:104A60005FFC012802D002E0657000E0667008215A
:104A70003846FDF755FC30B108213846FDF750FCAB
:104A8000012802D002E0A57200E0A672102138468B
:104A9000FDF746FC40B110213846FDF741FC0128E6
:104AA00000D1E674BDE8F081E574FBE70010024038
:104AB000F40200202DE9F04106461C4617460D463B
:104AC0002A2000F00DF9304600F0FFF8384600F0DB
:104AD000FCF82B2000F004F91435A8B200F0F5F82A
:104AE0001434A0B200F0F1F8BDE8F0412C2000F041
:104AF000F7B8000070B5674D4FF40054002221460E
:104B00002846FDF712FC642027F0ECFD0122214627
:104B10002846FDF70AFC642027F0E4FD0122114637
:104B20005D48FDF702FC642027F0DCFD112000F059
:104B3000D7F8782027F0D6FD362000F0D1F80020F5
:104B400000F0E4F83A2000F0CBF8052000F0DEF8A1
:104B5000B22000F0C5F80C2000F0D8F80C2000F0CE
:104B6000D5F8002000F0D2F8332000F0CFF8332041
:104B700000F0CCF8B72000F0B3F8352000F0C6F80C
:104B8000BB2000F0ADF8322000F0C0F8C22000F0E9
:104B9000A7F8012000F0BAF8C32000F0A1F8152012
:104BA00000F0B4F8C42000F09BF8202000F0AEF82C
:104BB000C62000F095F80F2000F0A8F8D02000F0F3
:104BC0008FF8A42000F0A2F8A12000F09FF8E020C8
:104BD00000F086F8D02000F099F8082000F096F850
:104BE0000E2000F093F8092000F090F8092000F062
:104BF0008DF8052000F08AF8312000F087F8332086
:104C000000F084F8482000F081F8172000F07EF8CA
:104C1000142000F07BF8152000F078F8312000F027
:104C200075F8342000F072F8E12000F059F8D02037
:104C300000F06CF8082000F069F80E2000F066F82B
:104C4000092000F063F8092000F060F8152000F05A
:104C50005DF8312000F05AF8332000F057F8482072
:104C600000F054F8172000F051F8142000F04EF82E
:104C7000152000F04BF8312000F048F8342000F007
:104C800045F8212000F02CF8BDE87040292000F004
:104C900027B8000000140240001802402DE9F0413E
:104CA000141A5F1A641C7F1C0025A4B2BFB2069EB2
:104CB000FFF700FF7C4304E0308800F006F86D1C2D
:104CC000B61CAC42F8D8BDE8F08110B50446000A25
:104CD00000F01CF8E0B2BDE8104000F017B800008A
:104CE00070B5094D06464FF48044002221462846FF
:104CF000FDF71BFB304600F009F821462846BDE8C9
:104D000070400122FDF711BB0014024001B50121E2
:104D1000684600F001F808BD2DE9F0410D4F0C4642
:104D200005464FF40046002231463846FDF7FDFAAD
:104D3000224629460848FEF7FFFA0748FEF76BF9B6
:104D40000128FAD131463846BDE8F0410122FDF78D
:104D5000ECBA00000014024030040020FFF7CAFE45
:104D600018F018F91EF098F91EF035FC11F068FDE6
:104D70000446282264211DF089FE1423002202210A
:104D800020461AF09DF9204618F0D6FA04460DA1E7
:104D900019F052F9002320461A4609211AF090F919
:104DA0001EF019FC18F0C8FA044609A119F044F9DC
:104DB00046230022022120461AF082F9142022F014
:104DC0007BFCFBE7436C69636B204D6500000000D2
:104DD00048656C6C6F204C56474C210020F06EFCEF
:104DE000052022F069FCF9E738B5684621F0EAFDB4
:104DF000044601460DA001F085FE0CB1204638BDE9
:104E0000012022F079F810A001F07CFE792022F038
:104E100029FA12A001F076FE00F072FA154D85ED28
:104E2000150A00F063FAA880E8E700004D505539F4
:104E300032353020696E697420726573756C743A0E
:104E40002025640A000000004D50553932353020CD
:104E5000736574206279706173730A004D5055391F
:104E6000323530207365742073656E736F72730A08
:104E700000000000C80100202DE9F041CE4C06469C
:104E80002DED0A8B1E21E06A00F048FAB0EE403AA0
:104E90001E21206B00F042FAF0EE401A1E21606BDA
:104EA00000F03CFAB0EE402A1E21A06B00F036FA6A
:104EB000F0EE402A62EE023A61EEA20AB8EE004A33
:104EC000B7EE001A41EEA13A43EE020A22EE222A80
:104ED000B0EE418AB0EE000A03EE612A60EE840A69
:104EE00003EE848A10EE900A62EE008AB0F17E5FD3
:104EF00002DDF0EE410A06E010EE900A10F1814F5B
:104F000001D9FFEE000A10EE900AFBF7EDFB41EC31
:104F1000100B01F031FE9FEDA91B51EC100B53EC6F
:104F2000112BFBF7E2FAFBF70BFC6064A046254669
:104F300018EE100AFBF7D8FB41EC190B18EE900A9B
:104F4000FBF7D2FB41EC100BB0EE491AF0EE691AF8
:104F500002F02EF951EC100BFBF7F2FBA86495ED73
:104F6000080A0446F8EEC08A95ED090AB8EEC09A20
:104F700095ED0A0A6D6CB8EEC08AFEB12846FBF7C3
:104F8000B3FB9FED90BB53EC1B2BFBF7AEFA9FEDF1
:104F90008FAB53EC1A2BFBF71AFBFBF7D1FB054643
:104FA0002046FBF7A1FB53EC1B2BFBF79EFA53ECBF
:104FB0001A2BFBF70CFBFBF7C3FB04462846FBF759
:104FC00093FB41EC100B02F04FFAB0EE40AAF0EE6A
:104FD00060AA18EE100AFBF787FB53EC1A2BFBF7BD
:104FE00084FA41EC1A0B2846FBF77EFB41EC100BD0
:104FF00002F0D6F9B0EE40BAF0EE60BA18EE900AC0
:10500000FBF772FB53EC1B2BFBF76FFA53EC1A2BDD
:10501000FBF7C4F9FBF794FB07462846FBF764FB54
:1050200041EC100B02F0BCF9B0EE40BAF0EE60BA01
:105030002046FBF759FB41EC100B02F015FAB0EEDD
:1050400040AAF0EE60AA18EE100AFBF74DFB53ECF5
:105050001A2BFBF74AFA53EC1B2BFBF746FA41ECF1
:105060001A0B2046FBF740FB41EC100B02F098F9BD
:10507000B0EE40BAF0EE60BA19EE100AFBF734FB5E
:1050800053EC1B2BFBF731FA41EC1B0B2846FBF7CB
:105090002BFB41EC100B02F0E7F9B0EE409AF0EE7A
:1050A000609A2046FBF720FB41EC100B02F0DCF984
:1050B000B0EE40CAF0EE60CA18EE900AFBF714FB9F
:1050C00053EC1C2BFBF711FA53EC192BFBF70DFAE1
:1050D00053EC1B2BFBF762F953EC1A2BFBF7FFF990
:1050E000FBF72EFB08EE100A3846FBF7FDFA41EC01
:1050F000190BB1EE480A10EE100AFBF7F5FA41EC75
:10510000100BB0EE491AF0EE691A02F051F851ECAA
:10511000100BFBF715FB44460546C8F84C00002E63
:1051200045D0606CFBF7E0FA9FED2A9B53EC192BFE
:10513000FBF7DBF9FBF704FB08EE900AC4ED118ADC
:10514000A06CFBF7D1FA53EC192BFBF7CEF9FBF768
:10515000F7FA08EE100A284684ED128AFBF7C4FA23
:1051600053EC192BFBF7C1F9FBF7EAFA00EE100A32
:10517000DFED1A0AF5EEC08A84ED130AF1EE10FA9B
:1051800003D238EEA01A84ED111AB5EEC08AF1EE02
:1051900010FA03D238EE201A84ED121AB5EEC00AC6
:1051A000F1EE10FA03D230EE200A84ED130ABDECC2
:1051B0000A8BBDE8F0810000C8010020000000005B
:1051C00000000040F1D4C853FB210940000000005A
:1051D00000806640775AF01ADCA54C400000B443CA
:1051E00008B569463A2021F087FD08B1002008BDC6
:1051F0009DF8000000F0010008BD70B504460D46A2
:1052000006F004FFF8B9600705D524F0100401206A
:1052100006F0DEFE04E0E00602D5012006F0B0FD57
:10522000A00602D5012006F0B5FE204600F014F8D5
:1052300048B915F0FF0F08D0E8B2C82800D9C82037
:1052400000F00EF818B1202070BD0120F8E7BDE88D
:105250007040012021F0E4BE40F0010006F0AEBD38
:10526000C82800D9C82006F07FBF000000B58DB067
:105270000CA90BA8CDE900010AAB06AA04A902A853
:1052800006F0CEFE10B120200DB000BDBDF92C10EF
:1052900014480A0708D5BDF910208260BDF9122014
:1052A000C260BDF9142002614A0602D5BDF908208A
:1052B00042618A0602D5BDF90A208261CA0602D57A
:1052C000BDF90C20C261C90507D50699C1620799CD
:1052D000016308994163099981630A990164002077
:1052E000D2E70000C801002024F07CB808B5684669
:1052F00021F0DAFA08B1002008BDBDF8000008BDB1
:1053000008B5684621F038FB10B19FED030A08BDCF
:105310009DED000A08BD00000000000030B500222D
:105320001346012504E000BF05FA03F422435B1C89
:105330008B42F9DB024000EE102A4B1E0222B8EE2F
:10534000401A9A4000EE102A0841B8EEC00AC1EE99
:10535000000A00EE100AB8EEC00A30EE800A30BD36
:105360001CB50A49684621F0C1FA08B120201CBDCD
:105370000648BDF9001040380162BDF902104162D3
:10538000BDF90410816200201CBD0000080200204D
:1053900070B58CB00024089409940A9420216846C2
:1053A0000B94FAF7C5FF29482749012501604FF4FE
:1053B00080310561C0E90114057680F82040244958
:1053C000C0E90A14C561C46080F830404561FCF74B
:1053D00068F908B1FBF761FE0520CDE9080508A9C9
:1053E0001A480A95FBF7C6FF08B1FBF756FE0226DE
:1053F000CDE9006503252805029607903004069044
:105400008DF8154004958DF8144069460F480394B3
:10541000FBF746FE08B1FBF740FECDE900566946B2
:105420000A48FBF73DFE08B1FBF737FE0420CDE943
:10543000000569460548FBF733FE002801D0FBF75D
:105440002CFE0CB070BD000000200140F0C1012016
:105450000100000F70B58CB00024089409940A94E0
:10546000202168460B94FAF763FF2A482849012552
:1054700001604FF480310561C0E90114057680F8C0
:1054800020402549C0E90A14C561C46080F8304055
:105490004561FCF706F908B1FBF7FFFD0F20CDE9E8
:1054A000080508A90A941B48FBF764FF08B1FBF73D
:1054B000F4FD0A20CDE9000503263005029507908A
:1054C0004FF4A02006908DF8154004968DF81440F6
:1054D000694610480394FBF7E3FD08B1FBF7DDFDD7
:1054E0000B2000900220019069460A48FBF7D8FD86
:1054F00008B1FBF7D2FD0E20CDE90006694605484C
:10550000FBF7CEFD002801D0FBF7C7FD0CB070BD46
:105510000021014038C201200100000F0D4810B5E4
:105520000B4901601021416000218160C16001616F
:105530004161017641768176C17601774177FCF74A
:1055400053FB002803D0BDE81040FBF7A6BD10BDFB
:1055500000640040E0C20120254808B5016841F41C
:1055600000110160016801F400110091016841F42B
:10557000800101600068002200F480000090052195
:105580000F20FDF753FA0F20FDF742FA0022052104
:105590001020FDF74BFA1020FDF73AFA0022052102
:1055A0001120FDF743FA1120FDF732FA0022052100
:1055B0003820FDF73BFA3820FDF72AFA00220521B2
:1055C0003A20FDF733FA3A20FDF722FA00220521AE
:1055D0003B20FDF72BFA3B20FDF71AFA00220521AC
:1055E0004620FDF723FABDE808404620FDF710BA33
:1055F0003038024010B5002022F0C3F80E4C0F4A9C
:105600000021E0600E4822F011F90C4A20616C3A4A
:1056100000210C4822F00AF9084A2060483A00218B
:10562000094822F003F9054A6060243A002107483E
:1056300022F0FCF8A06010BD0C00002014D8020875
:10564000096100085D4D0008DD4D0008794900083A
:105650002DE9F04F87B014216846FAF769FE5448E7
:105660000026016841F010010160016801F010019D
:105670000591016841F020010160016801F02001FD
:105680000591016841F004010160016801F0040125
:105690000591016841F001010160016801F001011B
:1056A0000591016841F002010160016801F0020109
:1056B0000591016841F040010160016801F040017D
:1056C0000591016841F0080101600068DFF8E4809D
:1056D00000F008004FF4604505900122294640463D
:1056E000FCF723FEDFF8D090012248F20101484682
:1056F000FCF71BFE002202214846FCF716FEDFF8ED
:10570000BCB0012281215846FCF70FFEDFF8B0A0A3
:105710004FF44077012239465046FCF706FE1C2024
:10572000CDE900060124694602945846FCF700FDC5
:10573000CDE90054032569464046CDE90245FCF712
:10574000F7FC0094694648460194CDE90245FCF710
:10575000EFFC02250095CDE90146694648460396CF
:10576000FCF7E6FC8020CDE9000469465846CDE907
:105770000245FCF7DDFCE003CDE90004694648463C
:10578000CDE90245FCF7D4FC0097CDE90145694617
:1057900050460395FCF7CCFC0094CDE901456946E1
:1057A00058460395FCF7C4FC07B0BDE8F08F000035
:1057B000303802400014024000180240001002403D
:1057C000000402400D4810B50B4901600C494160CE
:1057D00000214FF480428160C0E903124161816180
:1057E000C1610162FCF7ACFD002803D0BDE81040A8
:1057F000FBF753BC10BD00000054004034030020F0
:10580000A08601000D4810B50B4901600C494160AC
:1058100000214FF480428160C0E90312416181613F
:10582000C1610162FCF78CFD002803D0BDE8104087
:10583000FBF733BC10BD0000005800408803002077
:10584000A08601000D4810B50B4901600C4941606C
:1058500000214FF480428160C0E9031241618161FF
:10586000C1610162FCF76CFD002803D0BDE8104067
:10587000FBF713BC10BD0000005C0040DC030020FF
:10588000A08601000F4810B50D4901604FF48271E8
:10589000416000218160C1604FF400720161C0E984
:1058A0000512C1610162416281620A21C162FDF794
:1058B00033FC002803D0BDE81040FBF7EEBB10BD61
:1058C00000300140300400200F4810B50D49016040
:1058D0004FF48271416000218160C1604FF4007219
:1058E0000161C0E90512C1610162416281620A2160
:1058F000C162FDF711FC002803D0BDE81040FBF7A2
:10590000CCBB10BD00380040880400200B4810B507
:10591000094901605321416000214FF47A72C0E9C6
:10592000021201618161FDF7E3FD002803D0BDE8AB
:105930001040FBF7B2BB10BD00440140C006002080
:1059400010B596B000240F941094119412941394EF
:105950001C2168461494FAF7EBFC202107A8FAF7FB
:10596000E7FC34483249C0E900144FF6FF71C0E942
:105970000241046144618461FDF7BAFD08B1FBF79F
:105980008CFB4FF480500F900FA92A48FDF780FE42
:1059900008B1FBF782FB2748FEF769F808B1FBF76F
:1059A0007CFB139413A923481494FDF759FD08B107
:1059B000FBF773FB6020CDE9000402940394049488
:1059C0000594002269461B480694FDF7EAFF08B1DA
:1059D000FBF763FB042269461648FDF7E2FF08B1B6
:1059E000FBF75BFB082269461248FDF7DAFF08B1B6
:1059F000FBF753FB0C2269460E48FDF7D2FF08B1B6
:105A0000FBF74BFB0794089409944FF400500A9459
:105A1000CDE90B4007A907480E94FDF7F7FC08B144
:105A2000FBF73BFB0348FDF73BFF16B010BD000042
:105A300000000140A005002010B58EB0002407949E
:105A4000089409940A940B941C2168460C94FAF764
:105A50006FFC2A484FF08041C0E90014202181608A
:105A60004FF45261C0E903148461FDF741FD08B1B0
:105A7000FBF713FB4FF48050079007A91F48FDF771
:105A800007FE08B1FBF709FB1C48FDF7F0FF08B162
:105A9000FBF703FB0B940BA918480C94FDF7E0FCF3
:105AA00008B1FBF7FAFA6020CDE900040294002265
:105AB000694612480494FDF774FF08B1FBF7EDFA4C
:105AC000042269460D48FDF76CFF08B1FBF7E5FAC3
:105AD000082269460948FDF764FF08B1FBF7DDFAC3
