:020000040800F2
:10000000789401205D02000853460008C92F0008BB
:1000100051460008E50B0008934D00080000000061
:100020000000000000000000000000009D0100082A
:10003000A50C000800000000F90100083D48000878
:1000400077020008770200087702000877020008AC
:10005000770200087702000877020008770200089C
:10006000770200087702000877020008770200088C
:10007000770200087702000877020008E90B000801
:10008000770200087702000877020008770200086C
:10009000770200087702000877020008770200085C
:1000A000770200087702000877020008770200084C
:1000B000770200087702000877020008770200083C
:1000C000770200087702000877020008554600080A
:1000D00061460008770200087702000877020008EE
:1000E000770200087702000877020008770200080C
:1000F00077020008770200087702000877020008FC
:100100007702000877020008FD480008770200081F
:1001100077020008770200087702000877020008DB
:10012000770200087702000877020008F50B000844
:1001300077020008770200087702000877020008BB
:1001400077020008770200087702000877020008AB
:10015000770200087702000877020008770200089B
:10016000770200087702000877020008770200088B
:1001700077020008770200087702000800000000FC
:100180007702000877020008DFF80CD000F0E8FBE7
:100190000048004721420208789401202C4B19683E
:1001A0000868B0E8F04F80F30988BFF36F8F4FF015
:1001B000000080F3118870470000000008480068C4
:1001C000006880F308884FF0000080F3148862B65E
:1001D00061B6BFF34F8FBFF36F8F00DF00BF00BF6B
:1001E00008ED00E0DFF80C00016841F470010160E7
:1001F000704700BF88ED00E0EFF30980BFF36F8F19
:10020000134B1A681EF0100F08BF20ED108A20E96A
:10021000F04F106009B44FF0500080F31188BFF325
:100220004F8FBFF36F8F2AF0B7FA4FF0000080F3C3
:10023000118809BC19680868B0E8F04F1EF0100F6B
:1002400008BFB0EC108A80F30988BFF36F8F704746
:100250000C000020EFF3058070470000064880473F
:1002600006480047FEE7FEE7FEE7FEE7FEE7FEE79B
:10027000FEE7FEE7FEE7FEE7ED480008890100081B
:100280002DE9F05F0546002092469B4688460646CB
:10029000814640241BE0284641464746224600F05E
:1002A00090FA53465A46C01A914110D31146184647
:1002B000224600F077FA2D1A67EB01084F462246D6
:1002C0000120002100F06EFA17EB00094E41201EBC
:1002D000A4F10104DFDC484631462A464346BDE826
:1002E000F09F10B5431A934209D28318881803E08F
:1002F00010F8011D03F8011D521EF9D210BD40EA8D
:1003000001039B0703D009E008C9121F08C0042A93
:10031000FAD203E011F8013B00F8013B521EF9D27A
:1003200010BDD2B201E000F8012B491EFBD270478C
:100330000022F6E710B513460A4604461946FFF7B1
:10034000F0FF204610BD421C10F8011B0029FBD114
:10035000801A704710B5002200E0521C835C8C5C50
:10036000A34201D1002BF8D1D8B2E1B2401A10BD9E
:1003700030B504460020034600E05B1C934203D2E4
:10038000E05CCD5C401BF8D030BD034611F8012B7A
:1003900000F8012B002AF9D1184670472DE9FE4FCD
:1003A000804681EA0300C00F0C46009021F0004116
:1003B00023F00045B8EB0200A94105D24046214692
:1003C00090461C460B46024623F00040104347D09F
:1003D000270DC7F30A00C3F30A510290401A019097
:1003E00040286BDAC3F3130040F4801B0098924658
:1003F00020B10023D2EB030A63EB0B0B01985946A3
:10040000C0F14002504600F0CDF906460D46504678
:100410005946019A00F0E5F910EB0800614100240B
:1004200087EA115284EAE7731A4340D0009A62B314
:10043000019A012A4FEA075215DC001B61EB020109
:100440004FF0004202EA0752CDE90042001C41F59C
:10045000801132462B4600F01CFA03B0BDE8F08F45
:1004600040462146F9E7001B61EB0201001C41F503
:10047000801300185B412018A2F5001747EB030119
:1004800040EAD570B6196D4111E06D084FEA3606A5
:1004900045EAC0754FEA0752001B61EB0201001CE0
:1004A00041F5801149084FEA3000001951413246A8
:1004B0002B4603B0BDE8F04F00F0DCB900980122F4
:1004C00040000023D0EB020263EBE073009821466A
:1004D0004FEAE074B8EB000061EB0401E9E783F058
:1004E00000435BE781F0004158E72DE9FE4F81EAC8
:1004F000030404F0004421F0004100944FF0000B8D
:1005000023F0004350EA01045ED052EA03045BD0BA
:10051000C3F30A54C1F30A552C44A4F2F3340194F2
:10052000A0FB0254C1F3130141F48011C3F3130380
:1005300043F4801301FB024400FB034E840A970A34
:1005400044EA815447EA8357A4FB076802958D0A61
:1005500005FB07854FEA932C04FB0C542705029DED
:100560004FEA065847EA1637B5EB08056EEB070C5D
:10057000870E920E47EA811742EA8312A7FB020117
:10058000B6EB0B0164EB00042B0D43EA0C335E1851
:1005900044EB1C50DA465146E7FB0201C5F3130455
:1005A0004FEA0B3343EA14534FEA0432019C43EA07
:1005B0000603A4F10C040294009CCDE900B400F001
:1005C00068F903B0BDE8F08F00200146F9E72DE996
:1005D000F04D81EA030404F0004B21F0004514467D
:1005E0004FF0000A23F0004150EA050220D054EAFF
:1005F00001021DD0C5F30A570246C5F31303C1F328
:100600001300C1F30A5640F4801543F48013A7EB9E
:100610000608101BD64608F2FD3873EB050002D31E
:1006200008F1010801E092185B41B8F1000F03DA0C
:1006300000200146BDE8F08D00204FF480110646F1
:1006400084460EE0171B73EB050705D3121B63EB03
:10065000050306434CEA010C49084FEA30009218A2
:100660005B4150EA0107EDD152EA030012D082EA61
:10067000040083EA0501084305D0101BAB4106D2F4
:100680000122002306E000224FF0004302E06FF059
:10069000010253101AEB06004CEB085110EB0A0054
:1006A00041EB0B01BDE8F04D00F0E4B80EB5C10F11
:1006B00080EAE0700844CA07002140F233438DE825
:1006C0000E000A460B4600F0E4F803B000BD0EB57C
:1006D00040F2334102910021CDE900110A460B4658
:1006E00000F0D7F803B000BD00F0004230F0004049
:1006F0000AD0C10D01F56071C0F3160042EA015144
:10070000C2084007114370470020014670470000AF
:1007100030B5041E71F1000404DB4FF00044404288
:1007200064EB0101141E73F1000405DB1C464FF05D
:100730000043524263EB0403994208BF904230BD2C
:1007400001F0004330B421F0004150EA010206D02C
:100750000A0DA2F56072C1F31301002A02DC30BC5D
:1007600000207047440F44EAC104C100E01830BCC7
:1007700000EBC25000F047B830B50B4601460020F0
:100780002022012409E021FA02F59D4205D303FA53
:1007900002F5491B04FA02F52844151EA2F10102D4
:1007A000F1DC30BD202A04DB203A00FA02F10020FF
:1007B00070479140C2F1200320FA03F3194390409F
:1007C0007047202A04DB203A21FA02F0002170470A
:1007D00021FA02F3D040C2F12002914008431946A9
:1007E0007047202A06DBCB17203A41FA02F043EA91
:1007F000E07306E041FA02F3D040C2F120029140DA
:100800000843194670470029A8BF7047401C49009B
:1008100008BF20F00100704710B4B0FA80FC00FA65
:100820000CF050EA010404BF10BC704749B1CCF190
:10083000200421FA04F411FA0CF118BF012121431C
:100840000843A3EB0C01CB1D4FEA00614FEA1020D7
:1008500042BF002010BC704700EBC3501044002979
:10086000A4BF10BC7047401C490008BF20F0010025
:1008700010BC704710B5141E73F1000408DA401C58
:1008800041F1000192185B411A4301D120F00100AF
:1008900010BD2DE9F04D92469B4611B1B1FA81F29F
:1008A00002E0B0FA80F220329046FFF77BFF044668
:1008B0000F4640EA0A0041EA0B0153465A460843F4
:1008C00013D0114653EA010019D0C8F14002504636
:1008D000FFF777FF05460E46504659464246FFF75A
:1008E00061FF084305D0012004E020463946BDE8F9
:1008F000F08D0020054346EAE0762C4337430A9802
:100900006305E40AA0EB08000022FD0A44EA47540C
:100910000A3002D500200146E9E7010510196941B6
:10092000DDE9084500196941BDE8F04DA2E7C1F3D2
:100930000A52C1F3130140F2FF3341F480119A428D
:1009400002DA00200146704740F233439A42A2F295
:10095000334202DC5242FFF734BFFFF723BF0000EF
:10096000064C074D06E0E06840F0010394E80700FC
:1009700098471034AC42F6D3FFF70AFC6409030829
:10098000A40903082DE9F04D00231A461B1A8A41D9
:1009900003DB00200146BDE8F08DC1F30A52C1F32C
:1009A000130141F480154FF0000BD10702D100185C
:1009B0006D41521E0027044640F2FF11384601EBFC
:1009C000620A3E468046024600204FF48011FFF73F
:1009D000F8FEC2197141BB1846EB0100B4EB030CE1
:1009E00075EB000C04D3E41A65EB000517460E46C0
:1009F000241908F101006D4180463428E3DDF9191E
:100A000046EB0600091BA84103D24FF0FF32134604
:100A100001E0002213461BEB070046EB0A51BDE83C
:100A2000F04DFFF727BF70B5C1F30A5201F0004542
:100A30000024C1F3130140F2FF3341F480119A42C4
:100A400001DA002070BD40F233439A42A2F23342F1
:100A500003DC5242FFF7B5FE00E090402C43F1D09A
:100A6000404270BD70B58C1810F8015B15F007039B
:100A700001D110F8013B2A1106D110F8012B03E037
:100A800010F8016B01F8016B5B1EF9D12B0705D43F
:100A90000023521E0DD401F8013BFAE710F8013B88
:100AA000CB1A921C03E013F8015B01F8015B521EA4
:100AB000F9D5A142D8D3002070BD0000464910B539
:100AC0004A6822F440324A604A6843681A434A60DE
:100AD00001684A6822F480724A6001684A680369C2
:100AE00042EA03224A6001684A6822F040724A6082
:100AF00001684A6883681A434A6001688A6822F478
:100B000000628A6001688A68C3681A438A60816AE1
:100B10006FF07062D14201688A6822F070628A6068
:100B200001688A680CD0836A1A438A6001688A68FF
:100B300022F040528A6001688A68C36A1A4301E061
:100B400022F040528A6001688A6822F002028A60BC
:100B500001688A68037E42EA43028A6090F82010A6
:100B6000002901684A680FD042F400624A600168B7
:100B70004A6822F460424A6001684A68174C436A36
:100B800004EB43331A4301E022F400624A60016837
:100B9000CA6A22F47002CA620168CA6A838B104C66
:100BA00004EB03531A43CA6201688A6822F4007294
:100BB0008A6001688A6890F8303042EA43228A608D
:100BC00001688A6822F480628A6001688A684069E4
:100BD00042EA8020886010BD0023014000E0FFFF52
:100BE0000000F0FFFEE70000014800F053BA0000EB
:100BF0005CC30120014800F04DBA0000FCC2012096
:100C000001681823CAB2103AB2FBF3F2054B6FF336
:100C10000901032A9B5CC36500D9091D816508464B
:100C2000704700000CB4020810B5014600208B6923
:100C30008A6A4FF0C07453B1B3F5005F15D072B13A
:100C4000012A0CD0022A0AD0032A09D104E01AB1E1
:100C5000012A06D0022A03D1C96AC90100D50120A0
:100C600010BDC96AA142FAD010BD002AF7D0012AEE
:100C7000F2D0022AF3D0032AF3D010BD30B50468B5
:100C8000256825F480252560046863608368402B0F
:100C9000036803D099600068C26030BD9A60006844
:100CA000C16030BD704772B6FEE7000078B5002421
:100CB000009490F83C20012A19D0012280F83C20B1
:100CC0000A6807230568092A13D9EE680A3A02EB75
:100CD000420293409E43EE600B788A680A3B03EB26
:100CE00043039A400368DD682A43DA6010E002207B
:100CF00078BD2E6902EB420293409E432E610B7831
:100D00008A6803EB43039A4003681D692A431A610A
:100D10004A681F23072A13D205686E6B521E02EB26
:100D2000820293409E436E630B790A885B1E92B2E7
:100D300003EB83039A4003685D6B2A435A6327E001
:100D400005680D2A12D22E6BD21F02EB820293404D
:100D50009E432E630B790A88DB1F92B203EB830359
:100D60009A4003681D6B2A431A6311E0EE6A0D3A3C
:100D700002EB820293409E43EE620B790A880D3BA0
:100D800092B203EB83039A400368DD6A2A43DA6276
:100D9000164B0568144A9D4206D10D68122D03D1E9
:100DA000556845F48005556005689D4218D10B686B
:100DB000102B01D0112B13D1536843F4000353605F
:100DC000096810290CD10A490A4A0968B1FBF2F1F5
:100DD00001EB8101490000E0491E00910029FBD18F
:100DE00080F83C40002078BD0023014000200140F5
:100DF00010C0012040420F0070B504004FF0000504
:100E000003D0206C002610B107E0012070BD204601
:100E100000F01CF8666484F83C60206CC00610D4B6
:100E2000206C20F4885040F0020020642046FFF738
:100E300045FE6664206C20F0020040F00100206452
:100E400000E0012584F83C60284670BD30B587B0CD
:100E5000044614216846FFF76BFA1F4824681D4DAD
:100E600000221D4914380323AC4216D10C6844F407
:100E700080740C60096801F480710591016841F08B
:100E8000010101600068694600F0010005903C2006
:100E9000CDE900030292114818E0114DAC4217D180
:100EA0000C6844F400740C60096801F40071059149
:100EB000016841F0040101600068694600F0040027
:100EC00005903020CDE900030292064800F066FA52
:100ED00007B030BD0020014044380240000002400D
:100EE000002101400008024070B5040003D094F8CE
:100EF000200010B104E0012070BD204600F082F80F
:100F00002068016841F00101016000F045FB0546E1
:100F1000052604E000F040FB401B0A2811D8206899
:100F20004068C007F6D02068016821F00201016026
:100F300000F032FB05460BE000F02EFB401B0A28B8
:100F400006D9606A40F40030606284F82060D2E71D
:100F5000206840688007EFD4207E0128206801685F
:100F60003DD021F080010160607E01282068016889
:100F700038D021F040010160A07E0128206801687E
:100F800033D021F020010160E07E01282068016853
:100F90002ED041F010010160207F012820680168F7
:100FA00029D021F008010160607F012820680168D4
:100FB00024D021F004010160D4E902010843D4E9FE
:100FC0000412114308436168491E08432168C8613F
:100FD00000206062012084F82000002070BD41F0F4
:100FE0008001C0E741F04001C5E741F02001CAE7B8
:100FF00021F01001CFE741F00801D4E741F00401EE
:10100000D9E7000010B586B0044614216846FFF702
:101010008FF914492068884221D1134800210268C1
:1010200042F000720260006800F0007005900E4807
:101030001038026842F001020260006800F001000E
:1010400005904FF4C05000900220CDE9010103202B
:101050000390092004906946044800F09FF906B007
:1010600010BD000000640040403802400000024013
:1010700090F83510022903D0802141650120704786
:10108000052180F835100068016821F00101016038
:10109000002070472DE9F84304464FF00009CDF8D1
:1010A000009063484FF41651A56D0068B0FBF1F74E
:1010B0002E6894F85C10082000FA01F131420FD03C
:1010C00021680A6852070BD50A6822F004020A60F8
:1010D00094F85C108840A860606D40F00100606585
:1010E00094F85C104FF0010808FA01F0304208D083
:1010F00021684969090604D5A860606D40F00200C6
:10110000606594F85C1004208840304208D0216863
:101110000968890704D5A860606D40F00400606527
:1011200094F85C1010208840304218D0216809687B
:10113000090714D5A86020680168490304D5006830
:10114000000308D5A16C07E00168C90503D4016854
:1011500021F008010160216C09B12046884794F80C
:101160005C1020208840304231D021680968C906CF
:101170002DD5A86094F8350005282068016806D0B0
:10118000490347D5006800031DD4616C1CE021F0C1
:10119000160101602068416921F080014161206CE5
:1011A00008B9A06C20B12068016821F00801016035
:1011B00094F85C103F208840A86084F8358084F85B
:1011C0003490216D1FE0E16B09B120468847606DC6
:1011D00000282BD0606DC00714D0052084F835009E
:1011E0002068016821F0010101600098401C009016
:1011F000B84203D820680068C007F6D184F835806B
:1012000084F83490E16C002910D001B02046BDE88C
:10121000F04308470168C905D5D4016821F01001E1
:10122000016084F8358084F83490CCE7BDE8F88319
:1012300010C001202DE9F041044600F0ADF906464A
:101240005CB1022084F83500002584F83450206811
:10125000016821F0010101600DE00120BDE8F0818D
:1012600000F09AF9801B052805D92020606503202D
:1012700084F83500F2E720680068C007F0D12268E2
:10128000116820480140D4E901031843D4E903362A
:101290003343184363691843A3691843E369184348
:1012A000236A18430843616A042903D1D4E90B1364
:1012B00019430843106020684069666A20F00701FE
:1012C00030460E43012704280CD1A06A0643E06A89
:1012D00040B12046FFF7A8FC20B14020606584F8AB
:1012E0003570BAE7206846612046FFF789FC94F81C
:1012F0005C203F2191408160656584F83570002055
:10130000ACE700003F8010F02DE9F0410446866D07
:1013100090F83400002501280DD0012084F8340015
:1013200094F835700020012F07D084F8340002258E
:101330002846BDE8F0810220FBE7022784F83570DB
:1013400060652046FFF79AFC94F85C103F208840C7
:10135000B0602068016841F016010160206C20B186
:101360002068016841F0080101602068016841F0CF
:1013700001010160DCE7000070B5044600F00CF9E3
:101380000546601C02D004480078044400F004F9CB
:10139000401BA042FAD370BD000000202DE9F84F99
:1013A000DFF8BCA10022012503264FF00F090AF146
:1013B000040BAAF1040E00BF0B6805FA02F42340E7
:1013C000A34270D10F7907F00307012F01D0022F3C
:1013D00016D187684FEA420806FA08FC27EA0C078C
:1013E000D1F80CC00CFA08FC4CEA070CC0F808C095
:1013F0004768A7430C79C4F3001494403C4344600D
:101400000C79E443A4070AD0C4684FEA420C06FAF8
:101410000CF7BC438F6807FA0CF72743C7600C79B9
:1014200004F00304022C12D1D40800EB840CDCF885
:1014300020405707FF0E09FA07F824EA0804D1F8FC
:10144000108008FA07F848EA0408CCF820800468FD
:101450004FEA420C06FA0CF7BC430F7907F003077A
:1014600007FA0CF7274307604C6814F4403F70D02C
:101470003C4C276847F480472760246822F0030724
:1014800004F480440094384C07EB040CDCF8084862
:1014900097074FEA177809FA08F7BC43334FB84269
:1014A00002D1002724E054E0314FB84201D1012796
:1014B0001EE0304FB84201D1022719E02E4FB8424A
:1014C00001D1032714E02D4FB84201D104270FE0CA
:1014D0002B4FB84201D105270AE02A4FB84201D16B
:1014E000062705E0284FB84201D1072700E008276A
:1014F00007FA08F72743CCF80878DAF8004057468F
:10150000D1F804C09C435FEACC2C00D51C433C605E
:10151000DBF800405F46D1F804C09C435FEA8C2CA6
:1015200000D51C433C60DEF800407746D1F804C08B
:101530009C435FEA8C3C00D51C433C60084F083F4D
:101540003C68D1F804C09C435FEACC3C00D51C4306
:101550003C60521C102AFFF42FAFBDE8F88F00004A
:10156000083C014044380240003001400000024085
:101570000004024000080240000C0240001002403B
:101580000014024000180240001C02400AB18161B0
:1015900070470904FBE700000148806870470000BD
:1015A0000000002070B5040025D094F83D0000250F
:1015B00020B984F83C50204600F046FA242084F8F4
:1015C0003D002068016821F0010101602068016888
:1015D00041F4004101602068016821F4004101608C
:1015E00000F042FC4D4A6168914201D84C4900E04C
:1015F0004C49884201D2012070BD4B492368B0FBA1
:10160000F1F15E6826F03F060E435E606368934228
:1016100006D94FF4967359434FF47A73B1FBF3F143
:101620002368491C1E6A26F03F063143196261682F
:10163000914210D84900401EB0FBF1F2521CC2F397
:101640000B02042A01D2042022E0B0FBF1F0401C7E
:10165000C0F30B001CE0A268F2B301EBC10303EB83
:101660000116431EB3FBF6F35B1C43F480431B05DA
:1016700049D092B301EBC10202EB0111401EB0FB55
:10168000F1F0401CC0F30B0040F4804040F40040F7
:101690002168CA694CF6FF739A431043C861D4E9C4
:1016A000071001432068026822F0C0021143016064
:1016B000D4E9030101432068826848F2FF339A436A
:1016C00011438160D4E9050108432168CA6822F00A
:1016D000FF021043C86001E00EE016E020680168D8
:1016E00041F0010101602564202084F83D0025635C
:1016F00084F83E50002070BD01EB4106431EB3FB51
:10170000F6F35B1CB3E70120C2E701EB4101401E89
:10171000B0FBF1F0401CC0F30B00B7E7A08601005E
:1017200080841E0000093D0040420F002DE9F84F63
:101730001F4690468A460446DDF82890FFF72CFFA6
:10174000054694F83D00202871D1192301227049E3
:101750002046009501F040FD0028F5D194F83C00AA
:10176000012864D0012084F83C0020680168C90782
:1017700003D1016841F0010101602068016821F492
:1017800000610160222084F83D00102084F83E00B2
:1017900000262664C4F824806785608D20855D4816
:1017A000E0622B464A465146204601F025FC0028BF
:1017B00076D1208D584F68B1012814D002282068B6
:1017C000016816D041F48061016020684169806938
:1017D00000908EE02068416981690091016841F4C0
:1017E0000071016085E02068016821F4806101607A
:1017F000F0E721F4806101602068016841F4006134
:10180000E2E7032846D801280AD0022810D04B4628
:10181000002239462046009501F0DEFCC8BB25E0D9
:101820002A464946204601F07DFD90BB54E06CE01D
:101830004B46002239462046009501F0CDFC40BBC6
:101840002068016841F40071016020680069616AE4
:101850000870606A401C6062218D491E2185618D7F
:10186000491E618521680969017039E020680168B5
:1018700021F48061016020680069616A0870606A13
:10188000401C6062208D401E2085608D401E60855A
:10189000CEE705E02A464946204601F043FD10B157
:1018A0000120BDE8F88F20680069616A0870606AED
:1018B000401C6062208D401E81B22185608D401EDB
:1018C000608520684269D243520712D4032903D1AC
:1018D000016821F48061016020680069616A087014
:1018E000606A401C6062208D401E2085608D401E15
:1018F0006085208D002884D1202084F83D0084F864
:101900003E6084F83C600020CBE70220C9E700007D
:10191000020010000000FFFF040001002DE9F84F55
:101920001F4690468A460446DDF82890FFF734FEAD
:10193000054694F83D0020287FD119230122404913
:101940002046009501F048FC002876D194F83C0030
:10195000012872D0012084F83C0020680168C90782
:1019600003D1016841F0010101602068016821F4A0
:1019700000610160212084F83D00102084F83E00C1
:1019800000262664C4F824806785608D20852D4854
:10199000E0622B464A465146204601F0A3FB90B92F
:1019A000206841698069009036E02A464946204611
:1019B00001F0F0FC50B1206C042804D120680168CB
:1019C00041F4007101600120BDE8F88F606A216870
:1019D00000780861606A401C6062618D491E618503
:1019E000218D491E89B2218522685369DB435B073B
:1019F0000BD451B100781061606A401C6062608D48
:101A0000401E6085208D401E20852A46494620467E
:101A100001F0B6FB0028CED1208D0028C5D154F8A6
:101A20003D0B016841F400710160202004F81E099B
:101A3000E67766770020C7E7FFE70220C4E70000EB
:101A4000020010000000FFFF2DE9F04186B00446BF
:101A500014216846FEF76CFC22683A4C384B002192
:101A6000384812260325042710349A4219D10268F7
:101A700042F002020260006802AA00F00200059033
:101A800082E8A200C020CDE9000669462E48FFF793
:101A900085FC206840F400102060206800F40010ED
:101AA0001AE02A4B9A421BD1026842F020020260DF
:101AB000006802AA00F020000590CDE9005682E8F7
:101AC000A20069462248FFF769FC206840F48000C4
:101AD0002060206800F48000059006B0BDE8F08129
:101AE0001C4B9A42F9D18846016841F0040101601B
:101AF000016801F004010591016841F001010160F4
:101B00000068694600F00100059050158DE841011C
:101B1000CDE903571048FFF741FC4FF480708DE882
:101B20004101CDE9035769460C48FFF737FC2068AF
:101B300040F400002060206800F40000CCE70000C2
:101B40000054004030380240000402400058004079
:101B500000140240005C0040000802400000024007
:101B600002488168027811448160704700000020BB
:101B70000B4810B5016841F400710160016841F43F
:101B800080610160016841F480710160032000F010
:101B90009FF80F2000F006F800F050F8002010BD6C
:101BA000003C024030B505461F4887B0002401685C
:101BB00041F008010160006806A900F008000090EB
:101BC00001A800F031F90498A8B100F04DF94000E7
:101BD0001649174AB0FBF1F11648491E026040F25F
:101BE000E732C0E90324C0E90114846100F0B2FDCA
:101BF000040003D015E000F037F9E9E70D4800F0E4
:101C00000FFE04000DD1322000F034F8102D07D261
:101C100000222946322000F03BF80748056000E02A
:101C2000012407B0204630BD4038024040420F003A
:101C3000000C00406CC50120040000200C4882B05C
:101C4000016841F480410160006800F48040009028
:101C50000748001F016841F08051016000680022C0
:101C600000F0805000900F21901E02B000F010B8DC
:101C700044380240002809DB00F01F020121914096
:101C80004009800000F1E020C0F80011704700001A
:101C9000F0B40E4B1B680C46C3F30223C3F10705D7
:101CA000042D00D90425191D072901D2002300E0C5
:101CB000DB1E012606FA05F1491E214099409E408F
:101CC000761E16403143F0BC03F08CB80CED00E0FA
:101CD000064900F0070208684FF6FF03184040EA83
:101CE0000220034A10430860704700000CED00E03A
:101CF0000000FA052DE9F0470E46050065D0DFF833
:101D00001481D8F80000F7B200F00700B04207D203
:101D100088F80070D8F8000000F00700B04254D1F5
:101D200028683D4C810712D5400703D5206840F450
:101D3000E05020602878000703D5206840F4604018
:101D400020602068A96820F0F0000843206028780F
:101D5000C0072DD0304968680839012812D0022800
:101D600013D0032811D00968890700292DDA2168CA
:101D700021F0030101432160FFF70EFC814641F28F
:101D8000883A0EE009688903EFE709688901ECE702
:101D9000FFF702FCA0EB0901514502D90320BDE881
:101DA000F0872068696800F00C00B0EB810FEFD17C
:101DB000D8F80010404601F00701B14207D907707A
:101DC000006800F00700B04201D00120E7E7287862
:101DD000400705D52068E96820F4E05008432060FA
:101DE0002878000706D52068296920F4604040EA79
:101DF000C100206000F058F82168084AC1F30311BF
:101E0000515CC8400649086006480068FFF7CAFEF2
:101E10000020C4E7003C02400838024014B4020825
:101E200010C00120040000200F2202600C4A136839
:101E300003F003034360136803F0F0038360136847
:101E400003F4E053C36012684FF4E05303EAD20294
:101E500002610448006800F0070008607047000055
:101E600008380240003C02400448054900680968FF
:101E7000044AC1F38221515CC840704710C0012060
:101E80000838024024B4020804480549006809687B
:101E9000044AC1F34231515CC840704710C0012070
:101EA0000838024024B40208154810B5006810F044
:101EB0000C02144813D01449042A0FD0082A0ED15A
:101EC0000F4C241F2268236802F03F025B0207D5F3
:101ED0002068C0F38810A0FB010106E0084610BD91
:101EE0002168C1F38811A1FB00010023FEF7C8F9A6
:101EF0002168C1F30141491C4900B0FBF1F010BD5C
:101F0000083802400024F40040787D012DE9F84FA4
:101F100004006ED02078DFF84C93C007A9F10405C7
:101F20004AD009F104000168C1F38101012908D0F8
:101F30000068C0F3810002280AD1D9F800004002ED
:101F400006D52868800337D560680028E1D033E0E3
:101F50006068B0F5803F10D0B0F5A02F286810D091
:101F600020F480302860286820F480202860606891
:101F7000A8B1FFF711FB06460DE0286840F4803059
:101F8000F4E740F480202860F7E700BFFFF704FB88
:101F9000801B642873D828688003F7D50CE0FFF70E
:101FA000FBFA064605E000BFFFF7F6FA801B64283F
:101FB000F0D828688003F7D42078DFF8AC82800757
:101FC0004FF0000A3ED5A748001D016811F00C0F24
:101FD00008D00068C0F3810002280BD1D9F80000B6
:101FE000400207D42868800716D5E068012800D190
:101FF00012E033E1E068B8B10120C8F80000FFF753
:10200000CBFA064605E000BFFFF7C6FA801B0228A0
:10201000C0D828688007F7D52868216920F0F80023
:1020200040EAC10028600DE0C8F800A0FFF7B4FA4C
:10203000064604E0FFF7B0FA801B02281FD8286884
:102040008007F7D42078000722D5864F874861693A
:10205000703771B101210160FFF79EFA064604E076
:10206000FFF79AFA801B022809D838688007F7D54D
:102070000EE0C0F800A0FFF78FFA064605E082E008
:10208000FFF78AFA801B02287DD838688007F7D4CA
:102090002078400768D5DFF8CCB100270BF13C0B66
:1020A000DBF80000C0000BD4DBF8001041F08051D9
:1020B000CBF80010DBF80000012700F08050009002
:1020C0006B4E3068C00510D4306840F480703060CA
:1020D000FFF762FA009005E0FFF75EFA0099401AF8
:1020E000022850D83068C005F6D55E4EA0686C3620
:1020F00001280FD00528306810D020F00100306092
:10210000306820F004003060A068B8B1FFF744FAEE
:1021100000900FE0306840F00100F4E740F0040068
:102120003060F7E7FFF738FA0099411A41F288303A
:10213000814266D830688007F4D50EE0FFF72CFAAC
:10214000009007E0FFF728FA0099411A41F2883021
:10215000814256D830688007F4D42FB1DBF80010E4
:1021600021F08051CBF80010A069C8B33D49091D8A
:102170000968C1F3810102294AD00228504607D0DC
:10218000C8F8600000E03CE0FFF706FA04463BE0D8
:102190004746C8F86000FFF7FFF9064605E000BFB4
:1021A000FFF7FAF9801B02282BD828688001F7D4A2
:1021B000D4E907010843A16A2E4A490802EB01410C
:1021C000626A41EA8211084394F82C1040EA0161E6
:1021D000C9F8001001203866FFF7DEF9044606E072
:1021E0003EE000BFFFF7D8F9001B022809D8286895
:1021F0008001F7D534E000BFFFF7CEF9001B0228BD
:1022000002D90320BDE8F88F28688001F4D427E0C4
:102210000128F7D0D9F80000E26900F4800191426A
:102220001CD1226A00F03F01914217D147F6C071DC
:10223000626A0140B1EB821F10D1A26A4FF0FF33F6
:1022400000F4403103EB5202B1EB024F06D194F897
:102250002C1000F07060B0EB016F01D00120D1E7CD
:102260000020CFE70438024000004742800E47427A
:10227000007000400000FFFF704790F85100704769
:1022800038B5016804464A688868C043430606D5E5
:10229000C30704D1D3435B0601D4216C05E0830757
:1022A00008D4D3431B0605D4616C01B02046BDE8B9
:1022B00030400847830603D5430601D5C30551D4F2
:1022C000D3439B064ED443060AD494F85130032BD3
:1022D00049D0636D43F004036365CB688B6800935A
:1022E000830609D4636D43F0010363658B68009333
:1022F0000B6823F040030B60C00506D4606D40F00E
:1023000008006065206880680090606D002829D012
:102310002068416821F0E0014160012084F851000B
:10232000900701D4D00722D02068416821F0030132
:102330004160114DE06C40B10565E06CFEF798FE20
:1023400018B1606D40F040006065A06C002809D0B5
:102350000565A06CFEF78CFE002803D0606D40F090
:102360004000606538BDC8688868009038BD204668
:10237000FFF782FF38BD00006D46000870B504000D
:1023800009D0606A002540B125616561A56294F8B5
:10239000510040B10CE0012070BD6068B0F5827F53
:1023A000F4D0E561F2E784F85050204600F044F89C
:1023B000022084F851002068016821F0400101608A
:1023C000A088218900F4827001F404410843A189A6
:1023D00001F400610843217C01F002010843217DE2
:1023E00001F001010843218B01F400710843217FB2
:1023F00001F03801084394F8201001F080010843EF
:10240000218D01F40051084321680860A06904216E
:1024100001EA104094F8241001F0100108432168EB
:1024200048602068C16921F40061C16165650120CF
:1024300084F85100002070BD2DE9F04F87B00646AA
:1024400014216846FDF774FF4C4B316800244C485A
:102450000225032705224FF040094FF4806A4FF40C
:10246000003B994237D1464914310B6843F48053FD
:102470000B60096801F480510591016841F0020187
:1024800001600068029400F0020005903820CDE958
:102490000005CDE9037269463A48FEF77FFF3B4DE0
:1024A0003948286078066860C5E90294C5E904A443
:1024B000AC61C5E9074B28466C62FEF7BBFE08B16C
:1024C000FEF7F1FBB564002205212320AE63FFF780
:1024D000DFFB23204CE02E4B99424BD12849103191
:1024E0000B6843F480430B60096801F48041059157
:1024F000016841F004010160016801F004010591E7
:10250000016841F002010160006802AB00F00200C6
:1025100005900C20CDE90005904683E890016946BE
:102520001C48FEF73BFF4FF40050CDE9000502AB1D
:10253000694683E890011348FEF730FF134D1648B3
:10254000603585E81102C5E9034A6C61AC61C5E9F3
:10255000074B28466C62FEF76DFE08B1FEF7A3FB41
:10256000B564002205212420AE63FFF791FB2420EF
:10257000FFF780FB07B0BDE8F08F0000003001409E
:10258000303802400004024058640240FCC201207E
:1025900000380040000802407060024070B50446F8
:1025A00090F8510001281CD1C9B1C2B194F8500073
:1025B000012816D0012084F85000032084F851002F
:1025C000002565652163A286E286A56365642564AE
:1025D000A587E587A068B0F5004F04D00DE0012085
:1025E00070BD022070BD2068016821F040010160CB
:1025F0002068016841F480410160A16C17480864BB
:10260000A16C1748C863A16C1648C864A06C056526
:10261000E38E2268216B0C32A06CFEF775FE30B1A0
:10262000606D40F01000606584F85050D7E7206876
:102630000168490603D4016841F04001016084F853
:1026400050502068416841F0200141602068416895
:1026500041F002014160002070BD00009F4600086B
:10266000A94600087D4600087047704770477047CC
:1026700010B590F83C20012A22D0012280F83C209D
:10268000CA688C6822F4407222434C6822F480624B
:1026900022430C6822F4006222430C6922F4805227
:1026A00022434C6922F400522243C969002322F4D8
:1026B00080420A4301684A6480F83C30002010BD23
:1026C000022010BD70B590F83C20012A32D00124C0
:1026D00080F83C40022280F83D2003685A689D68DB
:1026E00022F070060A6832435A60134B02689A421D
:1026F00014D0B2F1804F11D0104B9A420ED0104B33
:102700009A420BD00F4B9A4208D00F4B9A4205D0F9
:102710000E4B9A4202D00E4B9A4204D1496825F0E2
:1027200080031943916080F83D40002180F83C10FF
:10273000084670BD022070BD00000140000400404A
:1027400000080040000C004000040140004001402F
:102750000018004010B5040003D094F83D0010B1FB
:1027600007E0012010BD002084F83C00204600F066
:102770001FF8022084F83D00211D206802F0C4F8F3
:10278000012084F8460084F83E0084F83F0084F875
:10279000400084F8410084F8420084F8430084F843
:1027A000440084F8450084F83D00002010BD00007E
:1027B00008B51749026817488A4205D1016841F0F7
:1027C00001010160006814E01249091FB2F1804F55
:1027D0000AD0114B9A4210D1086840F002000860FC
:1027E000086800F0020006E0086840F00100086098
:1027F000086800F00100009008BD08498A42FBD13A
:10280000016841F480310160006800F48030F2E733
:1028100000000140443802400004004000400140F4
:1028200090F83D10012901D001207047022180F865
:102830003D100168CA6842F00102CA60006811498F
:10284000884214D0B0F1804F11D00F4988420ED089
:102850000E4988420BD00E49884208D00D49884263
:1028600005D00D49884202D00C49884204D18168C4
:1028700001F00701062903D0016841F00101016060
:1028800000207047000001400004004000080040A4
:10289000000C0040000401400040014000180040CE
:1028A00070B5044690F83C000025012817D0012699
:1028B00084F83C60022084F83D002068826822F0A1
:1028C000770222F47F4282600868502838D00DDCFD
:1028D00020284FD005DC90B3102811D14AE0022007
:1028E00070BD302846D040280AD13BE060282FD068
:1028F00070280DD0B0F5805F03D0B0F5005F12D026
:10290000012584F83D60002084F83C00284670BD15
:10291000CB68D1E90121206802F05EF82068816867
:1029200041F0770109E0CB68D1E90121206802F08C
:1029300053F82068816841F480418160E1E719E043
:10294000CA684968206802F01BF95021206806E037
:10295000CA684968206802F024F96021206802F002
:1029600045F8CEE7CA684968206802F009F94021B5
:102970002068F4E7226801461046F0E770472DE929
:10298000F04104460068C66805694FF00007A907D2
:1029900013D5B10711D5F91E0161012020772068F8
:1029A00080698007204602D0FFF7E8FF04E000F0CE
:1029B000FFF8204600F091F92777680716D57007D1
:1029C00014D521686FF00400086102202077206888
:1029D000806910F4407F204602D0FFF7CFFF04E06B
:1029E00000F0E6F8204600F078F92777280715D59B
:1029F000300713D521686FF00800086104202077A4
:102A00002068C0698007204602D0FFF7B7FF04E0C6
:102A100000F0CEF8204600F060F92777E80616D5DA
:102A2000F00614D521686FF01000086108202077A7
:102A30002068C06910F4407F204602D0FFF79EFF57
:102A400004E000F0B5F8204600F047F92777E807E2
:102A500008D0F00706D021686FF001000861204619
:102A600000F03CF9280608D5300606D521686FF03D
:102A7000800008612046FFF7F9FD680608D570065A
:102A800006D521686FF040000861204600F030F95B
:102A9000A8060AD5B00608D521686FF020000861A5
:102AA0002046BDE8F041FFF7E2BDBDE8F08100003F
:102AB000F0B587B0044614216846FDF739FC364A64
:102AC00023680024354802250121934211D1026870
:102AD00042F010020260006800F0100005904FF410
:102AE000D4400090CDE90154CDE9034169462C481A
:102AF0004DE003262B4A2C4FB3F1804F24D02B49B5
:102B00008B4246D1016841F001010160016801F08A
:102B100001010591016841F0020101600068694608
:102B200000F002000590C0200090CDE9015410464D
:102B3000CDE90345FEF732FC0096CDE90154694624
:102B40003846CDE9034522E0036843F00103036002
:102B5000036803F001030593036843F00203036075
:102B600000680096CDE901540E4600F00200CDE960
:102B70000460694603941046FEF710FC4FF4406071
:102B80000090CDE90154CDE9034669463846FEF789
:102B900005FC07B0F0BD00000000014030380240E5
:102BA0000010024000000240000402400004004007
:102BB000704770B5044690F83C0000260D46012889
:102BC0000FD0012084F83C006AB1042A1DD0082AE5
:102BD0002FD00C2A3FD00126002084F83C0030463C
:102BE00070BD022070BD206801F008FF2068816977
:102BF00041F0080181612068816921F0040181614F
:102C0000206881692A69114311E0206801F026FFDC
:102C10002068816941F4006181612068816921F443
:102C200080618161206881692A6941EA02218161AC
:102C3000D2E7206801F048FF2068C16941F008012F
:102C4000C1612068C16921F00401C1612068C169C6
:102C50002A69114311E0206801F06AFF2068C16908
:102C600041F40061C1612068C16921F48061C161E2
:102C70002068C1692A6941EA0221C161ACE710B547
:102C8000040003D094F83D0010B107E0012010BD0E
:102C9000002084F83C00204600F01EF8022084F852
:102CA0003D00211D206801F02FFE012084F8460020
:102CB00084F83E0084F83F0084F8400084F8410026
:102CC00084F8420084F8430084F8440084F8450006
:102CD00084F83D00002010BD70477047006803492C
:102CE000884201D1FEF73CBF70470000000C004055
:102CF000704770B5040004D094F84100002510B16D
:102D000006E0012070BD84F84050204600F024F811
:102D1000242084F841002068C16821F40051C1607A
:102D2000204601F077FF2068016921F4904101619C
:102D30002068416921F02A0141612068C16841F49D
:102D40000051C1606564202084F8410084F842008D
:102D50006563002070BD00002DE9F04387B0044694
:102D600014216846FDF7E4FA6549DFF890C123684D
:102D70000024634A10390225032608276148634569
:102D800014D1136843F400231360126802F4002284
:102D900005920A6842F004020A60096801F0040121
:102DA0000591B102CDE9001569462CE0DFF858C164
:102DB000DFF8589163452ED1136843F480131360F4
:102DC000126802F4801205920A6842F004020A6056
:102DD0000A6802F0040205920A6842F008020A60DA
:102DE000096802AB01F0080105914FF48051CDE96B
:102DF000001583E8D0006946FEF7D0FA0420CDE93B
:102E000000056946484602AB83E8D000FEF7C6FAE3
:102E100007B0BDE8F0833A48DFF8F480001D4FF0BA
:102E2000070C434519D1026842F0100202600068A5
:102E300000F010000590086840F001000860086884
:102E400002AA00F0010005904FF4C060CDE9000532
:102E500082E8501069462F48D8E7DFF8BC80434528
:102E600011D1106840F400301060106800F4003098
:102E70000590086840F008000860086800F0080045
:102E80000590602015E0DFF89480434519D1106863
:102E900040F480201060106800F4802005900868DD
:102EA00040F008000860086800F0080005904FF442
:102EB0004070CDE9000502AB694683E850104846F2
:102EC000A4E7174A9342A3D1026842F020020260AD
:102ED000006800F020000590086840F0400008609D
:102EE000086802AA00F0400005904FF48440CDE944
:102EF000000582E8D00069460A4887E7004C004098
:102F0000403802400008024000500040000C0240DF
:102F10000010014000000240004400400048004012
:102F200000140140001802402DE9F843044690F8CF
:102F30004100984616460D46202802D00220BDE8E2
:102F4000F88385B17EB100206064212084F84100BF
:102F5000FEF722FBA6848146E684A0682027B0F510
:102F6000805F02D003E00120E9E7206910B12E461E
:102F700000250EE000260CE08021204601F0D0FE66
:102F8000A8B9C6B116F8010B21684860E08C401E54
:102F9000E084E08C4B464FF00002CDF80080002822
:102FA000EAD14FF04001204601F0BAFE40B184F86A
:102FB00041700320C3E735F8020BC0F30800E3E7D4
:102FC00084F841700020BAE7FEE701684A69D243FD
:102FD00052050FD46FF480624A61002140F8301F1F
:102FE000202242738173026942F00402026101737C
:102FF00001207047002070472DE9F84F0446C06A51
:103000001E4693460D4621680A6842F480620A60B3
:10301000082807D0012805D010F5803F02D0206B8A
:10302000112804D12068016841F4807101604FF0DB
:1030300001195B46002249462046009600F0CCF874
:103040004FF4007840B120680068C00501D5C4F88D
:1030500040800320BDE8F88F2069DFF884A0B0F538
:10306000804F0FD00620216800EAD51747F0F00006
:10307000086133465A460AF10601204600F0F4F88A
:1030800058BB03E0E8B240F001001CE02168E8B260
:10309000086133465A465146204600F0E5F8E0B94B
:1030A0002068416981690091016841F48071016083
:1030B0005B46002249462046009600F08DF8002825
:1030C000C1D147F0F1002168086133465A465146A4
:1030D000204600F0C9F80028BCD00120BAE7000063
:1030E00002000100F8B50446C06A1E460D461746A8
:1030F000082807D0012805D010F5803F02D0206BAA
:10310000122804D12068016841F4807101601346DF
:1031100000224FF001112046009600F05DF840B10A
:1031200020680068C00502D54FF4007020640320B9
:10313000F8BD2069B0F5804F0ED00620216800EA66
:10314000D51040F0F000086133463A460B4920465E
:1031500000F08AF878B902E005F0FE0000E0E8B27D
:1031600021680861054933463A46891F204600F028
:103170007BF80028DCD00120F8BD00000800010029
:1031800070B516460D4604461EE02046FFF71DFFAB
:1031900008B1012070BD681C16D0FEF7FDF9801B38
:1031A000A84200D885B920684069C04340070BD5C4
:1031B000002044F8300F20216173A073216941F091
:1031C000200121612073E4E720684069C043400783
:1031D000DBD4002070BD00002DE9F047984617466B
:1031E0000D460446C1F30746DDF820902AE000BFF3
:1031F000B8F1FF3F26D0FEF7CFF9A0EB090141451A
:1032000002D8B8F1000F1DD12068012E16D08069B8
:1032100025EA00000004000C12D00020B84211D1B1
:10322000002044F8300F20216173A073216941F020
:103230002001216120730120BDE8F0874069E7E7A4
:103240000120EBE72068012E0AD0806925EA000002
:103250000004000C06D00020B842C9D00020EBE7E3
:103260004069F3E70120F7E72DE9F0479846164655
:103270000D4604464FF000094FF0200AC1F30747FE
:1032800023E020684069C043400515D420680168E8
:1032900041F40071016021686FF480604861C4F8F6
:1032A000309084F83DA084F83E90216C41F00401F8
:1032B000216484F83C9021E0701C06D0FEF76CF984
:1032C000A0EB0800B04203D816B1012F1FD021E0B7
:1032D0002068012F15D0806925EA00000004000C49
:1032E00018D000BF44F8309F84F80DA084F80E90E9
:1032F000216941F02001216184F80C900120BDE892
:10330000F087406925EA00000004000CEAD120683B
:10331000406901E02068806925EA00000004000C93
:10332000AFD1ECE72DE9F041002590460E4604466A
:10333000202728E04069C043C0060CD454F8301B55
:103340006FF01000486144F810596777A577206A3C
:103350002062257714E0FEF71FF9A0EB0800B042C9
:1033600000D886B920684069C04340060BD544F8B0
:10337000305F6773A573206940F0200020612573DA
:103380000120BDE8F08120684169C9434906D1D4D4
:103390000020F6E770B516460D4604461EE02046AE
:1033A000FFF713FE08B1012070BD681C16D0FEF7B0
:1033B000F3F8801BA84200D885B920684069C04353
:1033C00000060BD5002044F8300F20216173A07354
:1033D000216941F0200121612073E4E72068406900
:1033E000C0430006DBD4002070BD00001FB500F014
:1033F00021FA10B120A001F0CDFC4FF4B870642187
:1034000000F021FC10B124A001F0C4FC012000F068
:1034100091FC10B127A001F0BDFCDFF8B880DFF807
:10342000B890DFF8B8A000BF00F000FC00B300F0D7
:1034300043FCE8B900F0BAFC012000F043FAD8F8E8
:103440000000FDF751F906460F46D9F80000FDF7D8
:103450004BF904460D46DAF80000FDF745F98DE812
:10346000F00041EC100B1EA053EC102B01F092FC6D
:10347000012022F0A5F9D7E7556E61626C652074D2
:103480006F20696E697469616C697A65204D505569
:10349000393235300A0000004661696C6564207479
:1034A0006F20696E697469616C697A6520444D505A
:1034B0000A0000004661696C656420746F20656EC7
:1034C00061626C6520696E74657272757074730ADE
:1034D0000000000048C1012044C1012040C101207A
:1034E00050697463683A526F6C6C3A5961773A2547
:1034F0002E34662C252E34662C252E34660A0000C8
:103500002DE9F04106461C4617460D462A2000F0DC
:103510000DF9304600F0FFF8384600F0FCF82B209B
:1035200000F004F91435A8B200F0F5F81434A0B294
:1035300000F0F1F8BDE8F0412C2000F0F7B80000F1
:1035400070B5674D4FF40054002221462846FEF71F
:103550001DF8642027F06CF8012221462846FEF76A
:1035600015F8642027F064F8012211465D48FEF743
:103570000DF8642027F05CF8112000F0D7F87820CF
:1035800027F056F8362000F0D1F8002000F0E4F8DB
:103590003A2000F0CBF8052000F0DEF8B22000F071
:1035A000C5F80C2000F0D8F80C2000F0D5F8002069
:1035B00000F0D2F8332000F0CFF8332000F0CCF840
:1035C000B72000F0B3F8352000F0C6F8BB2000F0BB
:1035D000ADF8322000F0C0F8C22000F0A7F80120BA
:1035E00000F0BAF8C32000F0A1F8152000F0B4F8FC
:1035F000C42000F09BF8202000F0AEF8C62000F0B8
:1036000095F80F2000F0A8F8D02000F08FF8A42043
:1036100000F0A2F8A12000F09FF8E02000F086F86A
:10362000D02000F099F8082000F096F80E2000F065
:1036300093F8092000F090F8092000F08DF805209B
:1036400000F08AF8312000F087F8332000F084F889
:10365000482000F081F8172000F07EF8142000F0D8
:103660007BF8152000F078F8312000F075F8342050
:1036700000F072F8E12000F059F8D02000F06CF86A
:10368000082000F069F80E2000F066F8092000F02C
:1036900063F8092000F060F8152000F05DF8312093
:1036A00000F05AF8332000F057F8482000F054F8A2
:1036B000172000F051F8142000F04EF8152000F00B
:1036C0004BF8312000F048F8342000F045F8212074
:1036D00000F02CF8BDE87040292000F027B8000069
:1036E00000140240001802402DE9F041141A5F1A3C
:1036F000641C7F1C0025A4B2BFB2069EFFF700FF2A
:103700007C4304E0308800F006F86D1CB61CAC4227
:10371000F8D8BDE8F08110B50446000A00F01CF8A6
:10372000E0B2BDE8104000F017B8000070B5094DD8
:1037300006464FF48044002221462846FDF726FF26
:10374000304600F009F821462846BDE870400122C5
:10375000FDF71CBF0014024001B50121684600F0CE
:1037600001F808BD2DE9F0410D4F0C4605464FF418
:103770000046002231463846FDF708FF224629461A
:103780000848FEF70BFF0748FEF777FD0128FAD13E
:1037900031463846BDE8F0410122FDF7F7BE000092
:1037A000001402404CC20120FFF7CAFE17F012FDC0
:1037B0001DF092FD1EF02FF811F062F90446282248
:1037C00064211DF083FA142300220221204619F0FF
:1037D00097FD204617F0D0FE04460DA118F04CFDD1
:1037E000002320461A46092119F08AFD1EF013F81D
:1037F00017F0C2FE044609A118F03EFD4623002240
:103800000221204619F07CFD0A2021F0D9FFFBE7B8
:10381000436C69636B204D650000000048656C6C6B
:103820006F204C56474C210020F068F8052021F00D
:10383000C7FFF9E738B5684621F048F90446014664
:103840000DA001F0A7FA0CB1204638BD012021F0EF
:10385000D7FB10A001F09EFA792021F087FD12A07D
:1038600001F098FA00F072FA154D85ED150A00F096
:1038700063FAA880E8E700004D5055393235302012
:10388000696E697420726573756C743A2025640AD8
:10389000000000004D5055393235302073657420DA
:1038A0006279706173730A004D505539323530209A
:1038B0007365742073656E736F72730A0000000085
:1038C000FCC001202DE9F041CE4C06462DED0A8BBF
:1038D0001E21E06A00F048FAB0EE403A1E21206B4B
:1038E00000F042FAF0EE401A1E21606B00F03CFA44
:1038F000B0EE402A1E21A06B00F036FAF0EE402A0E
:1039000062EE023A61EEA20AB8EE004AB7EE001A81
:1039100041EEA13A43EE020A22EE222AB0EE418A9B
:10392000B0EE000A03EE612A60EE840A03EE848A98
:1039300010EE900A62EE008AB0F17E5F02DDF0EEDA
:10394000410A06E010EE900A10F1814F01D9FFEE16
:10395000000A10EE900AFCF7C7FE41EC100B01F0D4
:1039600053FA9FEDA91B51EC100B53EC112BFCF7F4
:10397000BCFDFCF7E5FE6064A046254618EE100A83
:10398000FCF7B2FE41EC190B18EE900AFCF7ACFE06
:1039900041EC100BB0EE491AF0EE691A01F050FD3F
:1039A00051EC100BFCF7CCFEA86495ED080A044618
:1039B000F8EEC08A95ED090AB8EEC09A95ED0A0AAC
:1039C0006D6CB8EEC08AFEB12846FCF78DFE9FED07
:1039D00090BB53EC1B2BFCF788FD9FED8FAB53EC9A
:1039E0001A2BFCF7F4FDFCF7ABFE05462046FCF76E
:1039F0007BFE53EC1B2BFCF778FD53EC1A2BFCF7EA
:103A0000E6FDFCF79DFE04462846FCF76DFE41EC02
:103A1000100B01F071FEB0EE40AAF0EE60AA18EEB5
:103A2000100AFCF761FE53EC1A2BFCF75EFD41EC2B
:103A30001A0B2846FCF758FE41EC100B01F0F8FD7C
:103A4000B0EE40BAF0EE60BA18EE900AFCF74CFE09
:103A500053EC1B2BFCF749FD53EC1A2BFCF79EFC97
:103A6000FCF76EFE07462846FCF73EFE41EC100BC5
:103A700001F0DEFDB0EE40BAF0EE60BA2046FCF791
:103A800033FE41EC100B01F037FEB0EE40AAF0EE31
:103A900060AA18EE100AFCF727FE53EC1A2BFCF76D
:103AA00024FD53EC1B2BFCF720FD41EC1A0B2046A8
:103AB000FCF71AFE41EC100B01F0BAFDB0EE40BA73
:103AC000F0EE60BA19EE100AFCF70EFE53EC1B2B59
:103AD000FCF70BFD41EC1B0B2846FCF705FE41EC07
:103AE000100B01F009FEB0EE409AF0EE609A20460D
:103AF000FCF7FAFD41EC100B01F0FEFDB0EE40CA00
:103B0000F0EE60CA18EE900AFCF7EEFD53EC1C2BA9
:103B1000FCF7EBFC53EC192BFCF7E7FC53EC1B2BED
:103B2000FCF73CFC53EC1A2BFCF7D9FCFCF708FE25
:103B300008EE100A3846FCF7D7FD41EC190BB1EE40
:103B4000480A10EE100AFCF7CFFD41EC100BB0EE66
:103B5000491AF0EE691A01F073FC51EC100BFCF7F6
:103B6000EFFD44460546C8F84C00002E45D0606C79
:103B7000FCF7BAFD9FED2A9B53EC192BFCF7B5FC23
:103B8000FCF7DEFD08EE900AC4ED118AA06CFCF78C
:103B9000ABFD53EC192BFCF7A8FCFCF7D1FD08EEAC
:103BA000100A284684ED128AFCF79EFD53EC192B6F
:103BB000FCF79BFCFCF7C4FD00EE100ADFED1A0ACF
:103BC000F5EEC08A84ED130AF1EE10FA03D238EE56
:103BD000A01A84ED111AB5EEC08AF1EE10FA03D2E4
:103BE00038EE201A84ED121AB5EEC00AF1EE10FA82
:103BF00003D230EE200A84ED130ABDEC0A8BBDE837
:103C0000F0810000FCC00120000000000000004026
:103C1000F1D4C853FB210940000000000080664039
:103C2000775AF01ADCA54C400000B44308B5694649
:103C30003A2021F0E5F808B1002008BD9DF8000009
:103C400000F0010008BD70B504460D4606F026FBE5
:103C5000F8B9600705D524F01004012006F000FB38
:103C600004E0E00602D5012006F0D2F9A00602D554
:103C7000012006F0D7FA204600F014F848B915F0F4
:103C8000FF0F08D0E8B2C82800D9C82000F00EF80D
:103C900018B1202070BD0120F8E7BDE87040012078
:103CA00021F042BA40F0010006F0D0B9C82800D98E
:103CB000C82006F0A1BB000000B58DB00CA90BA870
:103CC000CDE900010AAB06AA04A902A806F0F0FAA1
:103CD00010B120200DB000BDBDF92C1014480A070A
:103CE00008D5BDF910208260BDF91220C260BDF96F
:103CF000142002614A0602D5BDF9082042618A06F5
:103D000002D5BDF90A208261CA0602D5BDF90C2090
:103D1000C261C90507D50699C1620799016308996F
:103D20004163099981630A9901640020D2E7000088
:103D3000FCC0012023F044BB08B5684620F038FEE3
:103D400008B1002008BDBDF8000008BD08B56846F0
:103D500020F096FE10B19FED030A08BD9DED000A0C
:103D600008BD00000000000030B500221346012508
:103D700004E000BF05FA03F422435B1C8B42F9DB2D
:103D8000024000EE102A4B1E0222B8EE401A9A4062
:103D900000EE102A0841B8EEC00AC1EE000A00EE9B
:103DA000100AB8EEC00A30EE800A30BD1CB50A49D0
:103DB000684620F01FFE08B120201CBD0648BDF952
:103DC000001040380162BDF902104162BDF90410D3
:103DD000816200201CBD00003CC101207FB5002491
:103DE00015480094019402941249039401604FF421
:103DF0008031C0E901140461047680F820400F4945
:103E0000C0E90A140125C561C46080F830404561ED
:103E1000FCF7F2FF08B1FCF746FF0220CDE90005F0
:103E2000694602940448FCF741FF002801D0FCF7E2
:103E30003AFF7FBD0020014094C101200100000F26
:103E40007FB500241548009401940294124903940C
:103E500001604FF48031C0E901140461047680F8F8
:103E600020400F49C0E90A140125C561C46080F8EB
:103E700030404561FCF7C0FF08B1FCF714FF0E208D
:103E8000CDE90005694602940448FCF70FFF0028BD
:103E900001D0FCF708FF7FBD00210140DCC10120FB
:103EA0000100000F0D4810B50B4901601021416061
:103EB00000218160C16001614161017641768176B6
:103EC000C17601774177FDF70FF8002803D0BDE8F0
:103ED0001040FCF7E8BE10BD0064004024C2012081
:103EE000114808B5016841F400110160016801F44E
:103EF00000110091016841F4800101600068002216
:103F000000F48000009005210F20FDF7C1FE0F2076
:103F1000FDF7B0FE002205213B20FDF7B9FEBDE80C
:103F200008403B20FDF7A6BE3038024010B50E4ACF
:103F300000210E4821F080FC0D4C0B4A0021E0606E
:103F40006C3A0C4821F078FC074A2060483A00217E
:103F5000094821F071FC044A6060243A00210748B6
:103F600021F06AFCA06010BDE8B3020835480008E3
:103F700000C00120A937000829380008ED330008E7
:103F80002DE9F04F87B014216846FCF7D1F950486D
:103F90000026016841F020010160016801F0200164
:103FA0000591016841F004010160016801F004011C
:103FB0000591016841F001010160016801F0010112
:103FC0000591016841F002010160016801F0020100
:103FD0000591016841F040010160016801F0400174
:103FE0000591016841F010010160016801F01001C4
:103FF0000591016841F0080101600068DFF8D48094
:1040000000F008004FF4604405900122214640462C
:10401000FDF7BCFADFF8C090012248F201014846E2
:10402000FDF7B4FA002202214846FDF7AFFADFF8A7
:10403000ACB0012281215846FDF7A8FADFF8A0A014
:104040004FF44077012239465046FDF79FFA00941D
:1040500001240325694640460194CDE90245FDF758
:104060009DF90094694648460194CDE90245FDF763
:1040700095F902250095CDE9014669464846039623
:10408000FDF78CF98020CDE9000469465846CDE95A
:104090000245FDF783F9E003CDE90004694648468F
:1040A000CDE90245FDF77AF90097CDE9014569466A
:1040B00050460395FDF772F90094CDE90145694634
:1040C00058460395FDF76AF907B0BDE8F08F000088
:1040D0003038024000140240001802400010024034
:1040E000000402400D4810B50B4901600C494160C5
:1040F00000214FF480428160C0E903124161816177
:10410000C1610162FDF74EFA002803D0BDE81040FE
:10411000FCF7C9BD10BD000000540040B4010020F0
:10412000A08601000D4810B50B4901600C494160A3
:1041300000214FF480428160C0E903124161816136
:10414000C1610162FDF72EFA002803D0BDE81040DE
:10415000FCF7A9BD10BD0000005800400802002077
:10416000A08601000D4810B50B4901600C49416063
:1041700000214FF480428160C0E9031241618161F6
:10418000C1610162FDF70EFA002803D0BDE81040BE
:10419000FCF789BD10BD0000005C00405C020020FF
:1041A000A08601000F4810B50D4901604FF48271DF
:1041B000416000218160C1604FF400720161C0E97B
:1041C0000512C1610162416281620A21C162FEF78A
:1041D000D5F8002803D0BDE81040FCF764BD10BD41
:1041E000003001404CC201200F4810B50D4901605C
:1041F0004FF48271416000218160C1604FF4007210
:104200000161C0E90512C1610162416281620A2156
:10421000C162FEF7B3F8002803D0BDE81040FCF7F8
:1042200042BD10BD00380040A4C2012010B596B0B8
:1042300000240F9410941194129413941C21684636
:104240001494FCF775F8202107A8FCF771F834489E
:104250003249C0E900144FF6FF71C0E90241046120
:1042600044618461FEF776FA08B1FCF71CFD4FF457
:1042700080500F900FA92A48FEF712FB08B1FCF7F7
:1042800012FD2748FEF7FBFC08B1FCF70CFD139468
:1042900013A923481494FEF715FA08B1FCF703FD9F
:1042A0006020CDE900040294039404940594002254
:1042B00069461B480694FEF77CFC08B1FCF7F3FC4A
:1042C000042269461648FEF774FC08B1FCF7EBFCC3
:1042D000082269461248FEF76CFC08B1FCF7E3FCC3
:1042E0000C2269460E48FEF764FC08B1FCF7DBFCC3
:1042F0000794089409944FF400500A94CDE90B40B8
:1043000007A907480E94FEF7B3F908B1FCF7CBFCF8
:104310000348FEF7CDFB16B010BD000000000140C1
:10432000B002002010B58EB00024079408940994C0
:104330000A940B941C2168460C94FBF7F9FF2A4859
:104340004FF08041C0E90014202181604FF4526198
:10435000C0E903148461FEF7FDF908B1FCF7A3FC82
:104360004FF48050079007A91F48FEF799FA08B14B
:10437000FCF799FC1C48FEF782FC08B1FCF793FCA3
:104380000B940BA918480C94FEF79CF908B1FCF7A4
:104390008AFC6020CDE9000402940022694612489C
:1043A0000494FEF706FC08B1FCF77DFC0422694684
:1043B0000D48FEF7FEFB08B1FCF775FC08226946C4
:1043C0000948FEF7F6FB08B1FCF76DFC0C226946C4
:1043D0000548FEF7EEFB08B1FCF765FC0248FEF766
:1043E00067FB0EB010BD0000F802002010B58EB0C3
:1043F00000240794089409940A940B941C2168469D
:104400000C94FBF795FF2A482849C0E900144FF6A1
:10441000FF71C0E9024104618461FEF79BF908B1B4
:10442000FCF741FC4FF48050079007A92048FEF7A5
:1044300037FA08B1FCF737FC1D48FEF720FC08B13D
:10444000FCF731FC0B940BA919480C94FEF73AF9D0
:1044500008B1FCF728FC6020CDE90004029400229A
:10446000694613480494FEF7A4FB08B1FCF71BFC53
:10447000042269460E48FEF79CFB08B1FCF713FCCA
:10448000082269460A48FEF794FB08B1FCF70BFCCA
:104490000C2269460648FEF78CFB08B1FCF703FCCA
:1044A0000348FEF705FB0EB010BD000000040040FD
:1044B000400300201FB50021104800910191029196
:1044C0000D4A039102605322C0E901214FF47A7230
:1044D000C0E903218161FEF73DF908B1FCF7E3FB78
:1044E0004FF48050009069460448FEF7D9F900283F
:1044F00001D0FCF7D8FB1FBD00400140880300201D
:104500000C4810B50A4901604FF4E13141600021C7
:1045100081600C22C160C0E904128161C161FEF7B3
:10452000E8FB002803D0BDE81040FCF7BCBB10BD81
:10453000004C0040BCC301200C4810B50A49016082
:104540004FF4E1314160002181600C22C160C0E97B
:1045500004128161C161FEF7CCFB002803D0BDE8E5
:104560001040FCF7A0BB10BD0050004004C4012067
:104570000C4810B50A4901604FF4E1314160002157
:1045800081600C22C160C0E904128161C161FEF743
:10459000B0FB002803D0BDE81040FCF784BB10BD81
:1045A000001001404CC401200C4810B50A490160BC
:1045B0004FF4E1314160002181600C22C160C0E90B
:1045C00004128161C161FEF794FB002803D0BDE8AD
:1045D0001040FCF768BB10BD0044004094C40120AB
:1045E0000C4810B50A4901604FF4E13141600021E7
:1045F00081600C22C160C0E904128161C161FEF7D3
:1046000078FB002803D0BDE81040FCF74CBB10BD80
:1046100000480040DCC401200C4810B50A49016084
:104620004FF4E1314160002181600C22C160C0E99A
:1046300004128161C161FEF75CFB002803D0BDE874
:104640001040FCF730BB10BD0014014024C5012010
:10465000FEE7FEE70148FDF713BE00004CC2012053
:104660000148FDF70DBE0000A4C2012010B5806B0B
:104670000021C187C186FDF7FFFD10BD10B5806B1D
:1046800001684A6822F003024A60416D41F010015E
:104690004165012180F85110FDF7EEFD10BD10B508
:1046A000806BFDF7E2FF10BD38B50546846BFCF763
:1046B00073FF024628680068C00523D4206841685B
:1046C00021F0200141602068416821F00201416031
:1046D0006421204600F01AF818B1606D40F0200007
:1046E0006065A068002118B92068C26880680090E1
:1046F000E186012084F85100606D18B12046FDF775
:10470000BBFD38BD2046FDF7AFFF38BDF8B51546F7
:104710000E460B46009204460122022100F02CF8BE
:10472000A0B9134813490068B0FBF1F04FF47A7157
:10473000484300906068B0F5827F0DD13346002277
:1047400080212046009500F017F870B1606D40F0B0
:10475000200060650320F8BD009830B1401E009035
:1047600020688068C0430006F6D50020F8BD000030
:1047700010C0012000366E012DE9F8431E46914617
:1047800088460446089DFCF707FF401B351AFCF7D6
:1047900003FF074626480068C0F3CB3068430AE0B1
:1047A000701C09D0FCF7F8FEC01BA8420FD275B1EF
:1047B0000098B8B3401E00902068816838EA010074
:1047C00033D000214945EBD10020BDE8F8832068B3
:1047D000416821F0E00141606068B0F5827F0BD153
:1047E000A068B0F5004F02D0B0F5806F04D120680A
:1047F000016821F040010160A06AB0F5005F09D1B5
:104800002068016821F4005101602068016841F4CA
:1048100000510160012084F85100002084F850000C
:104820000320D2E7FFE70025C6E70121CAE7000021
:1048300010C00120012020F0C3FFFBE710B54FF0AE
:10484000E020006926F0C8FB012803D0BDE8104035
:1048500026F0F6B810BD000030B593B030216846A0
:10486000FBF766FD14210CA8FBF762FD1D4800252F
:10487000016841F080510160006800F080501190A3
:104880001948016841F4804101600068022400F485
:104890008040119001200390102004900094069411
:1048A0000820CDE90750A820CDE9090404200B9089
:1048B0006846FDF72BFB08B172B6FEE70CA90F2086
:1048C00081E831004FF4A0500F904FF480501090C9
:1048D00005210CA8FDF70EFA002801D072B6FEE7FC
:1048E00013B030BD403802400070004002480168FB
:1048F00041F470010160704788ED00E00148FEF767
:104900003EB800006CC50120F0B50268274B284D69
:10491000284E294F294C4FF0804C984209D06045D1
:1049200007D0A84205D0B04203D0B84201D0A0427F
:1049300004D122F0700E4A6842EA0E0298421BD05F
:10494000604519D0A84217D0B04215D0B84213D054
:10495000A04211D01A4DA8420ED01A4DA8420BD039
:10496000194DA84208D0194DA84205D0184DA842AB
:1049700002D0184DA84203D122F44075CA682A43D8
:104980004D6922F080022A438D68C5620D688562F8
:10499000984201D0A04201D109690163016841F048
:1049A00004010160012141610260F0BD000001408D
:1049B0000004004000080040000C004000040140DA
:1049C0000040014000440140004801400018004000
:1049D000001C00400020004010B5846842EA032219
:1049E00024F47F440A432243826010BD826822F08F
:1049F00070020A4342F0070181607047F0B5036A14
:104A0000026A22F00102026242688469124E24F0B6
:104A100073050C682C4323F002058B682B430D4D66
:104A2000A84201D0B04205D123F00807CB683B4330
:104A300023F00403A84201D0B04205D14D6922F40D
:104A4000407215438A692A43426084614968416320
:104A50000362F0BD0000014000040140F0B5026AAD
:104A6000036A23F010030362436884690D6824F429
:104A7000E64444EA05248D6822F0200242EA051249
:104A80000F4D104EA84201D0B04206D1CF6822F09F
:104A9000800242EA071222F04002A84201D0B0424E
:104AA00007D14D6923F4406343EA85038D6943EAE6
:104AB000850343608461496881630262F0BD000040
:104AC0000000014000040140F0B5026A036A23F4CB
:104AD000807303624368C46922F4007224F0730592
:104AE0000C68124E2C438D6842EA05220E4DA842F6
:104AF00001D0B04206D1CF6822F4006242EA072218
:104B000022F48062A84201D0B04207D14D6923F45B
:104B1000405343EA05138D6943EA05134360C461BA
:104B20004968C1630262F0BD000001400004014019
:104B300030B5046A026A22F4805202624268C36994
:104B40000D6823F4E64343EA05238D6824F40054FA
:104B500044EA0534084DA84202D0084DA84204D1C9
:104B60004D6922F4804242EA85124260C36149687D
:104B70000164046230BD00000000014000040140F7
:104B800010B5036A046A24F001040462846924F005
:104B9000F00444EA021423F00A020A438461026228
:104BA00010BD10B5036A046A24F01004046284691D
:104BB00023F0A00324F4704444EA023243EA0111D2
:104BC0008261016210BD01680C3151E8002F22F4AE
:104BD000907241E80023002BF5D10168143151E8AF
:104BE000002F22F0010241E80023002BF5D1016BD8
:104BF000012909D101680C3151E8002F22F010027F
:104C000041E80023002BF5D1202180F8421000213B
:104C10000163704770B5044600680169E26821F4D9
:104C20004051114301612169A068E269084361694B
:104C3000114308432168CA6849F20C639A4302434E
:104C4000CA6020684169A26921F440711143416141
:104C500031492068884202D03049884202D1FDF7AC
:104C600013F901E0FDF700F9E26900231921642539
:104C70003226B2F5004F626828D0A0FB0101930FE5
:104C80009200FBF7FDFA0146B0FBF5F06FF0180259
:104C9000504301EB800006EB0010B0FBF5F000F094
:104CA000F002B1FBF5F002EB0012B1FBF5F06FF092
:104CB0001803584301EB800006EB0010B0FBF5F041
:104CC00000F00F0021681044886070BDA0FB010156
:104CD00092185B41FBF7D4FA0146B0FBF5F00201F4
:104CE000B1FBF5F06FF01803584301EB800006EBC1
:104CF000C000B0FBF5F000F0F80002EB4002B1FBA1
:104D0000F5F0584301EB800006EBC000B0FBF5F076
:104D100000F00700D6E70000001001400014014039
:104D20002DE9F843984617460D460446089E24E0B0
:104D3000701C22D0FCF730FCA0EB0800B0421AD85F
:104D4000CEB12068C168490717D5802D15D0402DF8
:104D500013D00168C94309070FD4016800254068D2
:104D600000902046FFF72FFF0820606484F8405031
:104D70000120BDE8F8830320FBE72068006835EADE
:104D8000000004D00020B842D2D00020F1E701207A
:104D9000F9E7FEE70FB4054B10B503A9044A0298E2
:104DA00002F02CFC10BC5DF814FB0000B11D0108E2
:104DB000B001002003B401984100009850EAC120DE
:104DC00018BF04204A0D18BF40F0010040F2FF72E6
:104DD000B2EB515F08BF40F00200012808BF052078
:104DE00002B070470907090E002804DB00F1E0203B
:104DF00080F80014704700F00F0000F1E02080F808
:104E0000141D70470000000070B5C1482DED020B65
:104E10002DED0E8B82B0119D25F000449FEDBEDB81
:104E20009FEDBFEB84423EDBA4F140511098A1F10D
:104E30007F6108430FD0BC48844202DC28D110981F
:104E400030B39DED100B02B0BDEC0E8B02B0BDE88F
:104E5000704001F09DB89DED100B53EC1D2B51ECF3
:104E6000100BFBF742FB9DED100B41EC180B53ECC4
:104E70001E2B51EC100BFBF738FB53EC182BFBF7F8
:104E80008DFA41EC100B02B0BDEC0E8B02B070BD80
:104E9000012001F0C1F802B0BDEC0E8B02B0BDE8FC
:104EA000704001F089B8A1489FEDA18B844256DA89
:104EB0009DED100BB4F1795F0ADA51EC100BFFF79E
:104EC00079FF042808BF01F087F89DED100BDAE7A1
:104ED00053EC102B51EC100BFBF707FB41EC190BBB
:104EE00095480621B0EE490AF0EE690A784400F0D0
:104EF0003BFF53EC192B51EC100BFBF7F6FA41EC8E
:104F00001A0B8E48B0EE490AF0EE690A0421784483
:104F100000F02AFF53EC192B51EC100BFBF7E5FACC
:104F200053EC182BFBF73AFA41EC100B51EC1A0B2F
:104F300053EC102BFBF74BFBCDE900019DED000B73
:104F400053EC102B9DED100B51EC100BFBF7CDFA31
:104F50009DED101B53EC112BFBF720FAD2E09DEDD9
:104F6000100B51EC100B0CF020F953EC182BFBF745
:104F7000B9FA9FED730BCDE9000153EC102B9DEDB9
:104F8000000B51EC100BFBF7B0FA41EC190B6E481B
:104F90000621B0EE490AF0EE690A784400F0E4FE1A
:104FA00053EC192B51EC100BFBF79FFA41EC1B0B48
:104FB0006648B0EE490AF0EE690A0421784400F030
:104FC000D3FE53EC192B51EC100BFBF78EFA53EC7C
:104FD000182BFBF7E3F941EC1C0B51EC190B22F0F9
:104FE00083FC41EC180B5A489FED5BABA04222DCDE
:104FF00053EC1C2B51EC1B0BFBF7E9FACDE900013C
:105000009DED000B51EC180B53EC102BFBF76DFAD8
:1050100053EC182BFBF7C2F953EC1A2BFBF765FA8C
:1050200053EC1D2BFBF75BFA53EC1E2BFBF75AFAE4
:1050300041EC100B5FE08DED008B002000909DEDAA
:10504000000B51EC180B53EC102BFBF7A7F99DED5F
:10505000000B41EC1E0B53EC102B51EC100BFBF72B
:1050600044FA53EC192BFBF73DFA53EC1E2BFBF7DC
:10507000AEFA41EC190B53EC1C2B51EC1B0BFBF75C
:10508000A6FA41EC1B0B53EC1A2B51EC190BFBF756
:105090002CFA53EC1D2BFBF725FA41EC190B53ECC2
:1050A0001A2B51EC180BFBF720FA53EC1B2BFBF7D8
:1050B0001CFA53EC192BFBF712FA9DED000B41EC97
:1050C000180B53EC1A2B51EC100BFBF70EFA9FED5B
:1050D000249B53EC192BFBF705FA41EC100B51EC18
:1050E000180B53EC102BFBF7FAF953EC192BFBF7C9
:1050F000F9F941EC100B002D3FF7C5AE51EC100B48
:1051000081F0004141EC100BBDE600000000000002
:105110000000F03F00000000075C143326A6913C1D
:10512000182D4454FB21F93F0000F07F0000E03FC0
:10513000000000000000F03F68B3020076B30200F8
:10514000000000000000E03FBAB20200C8B2020056
:105150003333EF3F0000000000000000000000407B
:10516000182D4454FB21E93F70B59B482DED020BEF
:105170002DED068B079D25F00044A04218DC9748D2
:10518000844202DC0AD1069840B19DED060BBDECCD
:10519000068B02B0BDE8704000F0FABE002DCCBF17
:1051A0009FED8F0B9FED900BBDEC068B02B070BD99
:1051B0008F48A04215DD8F48A042D8BF4FF0FF3482
:1051C00058DD9DED060B51EC100BFFF7F3FD0428A5
:1051D00008BF00F001FF9DED060BBDEC068B02B091
:1051E00070BD9DED060B51EC100B0BF0DEFFCDE911
:1051F000060181489FED828BA0423CDD8248A0429F
:105200001FDD00249FED82AB9DED060B53EC1A2BA6
:1052100051EC100BFBF7C2F89DED060B41EC190B9E
:1052200053EC1A2B51EC100BFBF75FF953EC182BD6
:10523000FBF755F953EC192BFBF7C9F9CDE906013A
:1052400049E09DED060B012453EC182B51EC100B9B
:10525000FBF7A4F89DED060B41EC190B53EC182B52
:1052600051EC100BFBF73BF953EC192BFBF7AFF9A3
:10527000CDE906012FE06848A0421FDD02249FED22
:10528000689B9DED060B53EC192B51EC100BFBF7B3
:105290002CF953EC182BFBF781F89DED060B41EC34
:1052A000180B53EC192B51EC100BFBF718F953ECBE
:1052B000182BFBF78CF9CDE906010CE09DED060BF0
:1052C000032453EC102B9FED580B51EC100BFBF704
:1052D0007EF9CDE906019DED060B53EC102B51EC48
:1052E000100BFBF702F941EC180B53EC182BFBF7F2
:1052F000FCF841EC190B4E480621B0EE490AF0EEDD
:10530000690A784400F030FD53EC182B51EC100B77
:10531000FBF7EBF841EC180B4648B0EE490AF0EE0B
:10532000690A0521784400F01FFD53EC192B51EC5C
:10533000100BFBF7DAF841EC100B51EC180B53ECA7
:10534000102B002C0EDAFBF729F89DED061B53EC11
:10535000112BFBF7CAF89DED061B53EC112BFBF745
:10536000C1F835E0FBF71AF89DED061B53EC112B45
:10537000FBF7BBF841EC100B2F48784400EBC4005E
:1053800090ED001B51EC100B53EC112BFBF7A7F821
:105390009DED061B53EC112BFBF7A1F841EC100B14
:1053A0002648784400EBC40090ED001B51EC100B34
:1053B00053EC112BFBF796F841EC100B002DA2BF1C
:1053C000BDEC068B02B070BD51EC100B81F00041BA
:1053D00041EC100B01E70000000010440000F07FDA
:1053E000182D4454FB21F93F182D4454FB21F9BFDB
:1053F0000000DC3F0000203E0000F33F0000000002
:10540000000000000000F03F0000E63F0000000048
:105410000000000000000040008003400000000089
:10542000000000000000F83F000000000000F0BF96
:105430000AB00200C0AF02004AAF020002AF020091
:1054400070B56B4E2DED040B2DED028B82B0DDF8A7
:105450001CC0DDE905235C422CF000411C4341EAFD
:10546000D474049D22F00040B44205D86C422C4311
:1054700040EAD474B4420BD99DED061B9DED040B9C
:1054800002B0BDEC028B04B0BDE8704000F08ABDF4
:10549000ACF14054A4F17F641C430BD0022404EA15
:1054A000AC7444EAD27405439FED538B9FED542BAB
:1054B00007D015E09DED040B51EC100B03F010FA32
:1054C00042E0002C11BF012C9DED040B02B0BDEC9D
:1054D000028B04BF04B070BD022C38D0032C3BD02B
:1054E0000B439FED491B9FED4A0B0AD0B14218D1E7
:1054F000B04209D121F0804120F080400791059011
:105500000FE0002A15DA10E0434B7B44002C08BF63
:1055100093ED000B0DD0012C10D0022C17D0032CD2
:105520001AD0B0421DD1002A03DAB0EE410AF0EEE3
:10553000610A02B0BDEC028B04B070BD93ED000BAC
:1055400051EC100B81F0004141EC100BF1E7B0EE93
:10555000480AF0EE680AECE7B0EE420AF0EE620AA2
:10556000E7E7401A00153C28C8BF8DED000B19DC99
:10557000BCF1000FBEBF10F13C0F9FED290B8DED6C
:10558000000B0FDB9DED060B53EC102B9DED040B78
:1055900051EC100BFBF71BF80BF007FE03F0A0F922
:1055A000CDE90001002C08BF9DED000BC1D0012CFE
:1055B00010D0022C9FED1C0B53EC102B9DED000B1B
:1055C00051EC100B0DD0FAF78AFF53EC182BFAF7B9
:1055D00086FFB9E7019880F0004001909DED000B37
:1055E000A7E7FAF77CFF53EC182BFAF77BFFABE742
:1055F0000000F07F00000000182D4454FB210940FA
:10560000182D4454FB2109C0182D4454FB21F9BF27
:10561000182D4454FB21F93F62AE02000000000047
:105620000000000000000000075C143326A6A13C27
:1056300010B52F499FED2C1B2DED020B84B0059862
:1056400020F000408842D8BF9DED040B2DDD294994
:10565000884209D1049840B94FF0010000F0DCFC09
:1056600000F0AAFC06B010BD05DB9DED040B00F0B8
:105670008FFC06B010BD68469DED040B00F0A0F84D
:1056800010F0030004BF9DED021B9DED000B0CD03C
:1056900001280ED09DED021B9DED000B022817D0B6
:1056A000012000F0DDFB06B010BD00F0A5FA06B049
:1056B00010BD9DED021B9DED000B012000F0D0FB05
:1056C00051EC100B81F0004106B041EC100B10BD05
:1056D00000F092FA51EC100B81F0004106B041EC61
:1056E000100B10BD000000000000000000000000D2
:1056F000FB21E93F0000F07F10B52F499FED2C1BE7
:105700002DED020B84B0059820F000408842DCBFEC
:1057100000209DED040B32DD2849884209D1049810
:1057200040B94FF0010000F077FC00F045FC06B0F6
:1057300010BD05DB9DED040B00F02AFC06B010BD8A
:1057400068469DED040B00F03BF810F0030011D00B
:10575000012818D09DED021B9DED000B02281AD0E8
:1057600000F04AFA51EC100B81F0004106B041EC18
:10577000100B10BD9DED021B9DED000B012000F0F4
:105780006FFB06B010BD9DED021B9DED000B00F000
:1057900033FA06B010BD012000F062FB51EC100B93
:1057A00081F0004106B041EC100B10BD000000007C
:1057B0000000000000000000FB21E93F0000F07F36
:1057C0002DE9F14F04462DED020B2DED088B8AB02B
:1057D0009FEDE70B80ED020B139EE74826F0004596
:1057E00085420ADC9DED120B002084ED000B0AB00F
:1057F000BDEC088B03B0BDE8F08FE0489FEDE0AB57
:105800009FEDE1BBA84247DDE14F9FEDE39B9FED9C
:10581000E48B9DED120B53EC1A2B51EC100B002E68
:105820001CDDFAF75CFE41EC100BBD4208D053ECD6
:105830001B2B51EC100BFAF752FEC4E900010BE0F0
:1058400053EC192B51EC100BFAF749FE53EC182BC3
:10585000FAF745FEC4E900010120C8E7FAF79EFD0A
:1058600041EC100BBD4208D053EC1B2B51EC100B3C
:10587000FAF794FDC4E900010BE053EC192B51EC4D
:10588000100BFAF78BFD53EC182BFAF787FDC4E9E0
:1058900000014FF0FF30AAE7C348A84279DB9DED35
:1058A000120B51EC100B0BF080FC41EC180B9FED30
:1058B000C00B53EC102BFAF718FE9FEDBF1B53ECF7
:1058C000112BFAF76BFDFBF7AEF80746FAF7EEFE81
:1058D00041EC190B53EC1A2BFAF707FE53EC182B7B
:1058E000FAF700FE41EC180B53EC1B2B51EC190B93
:1058F000FAF7FBFDDFF8C8A241EC100B4FEA155890
:105900000125FA4453EC102B51EC180BFAF7E7FD84
:10591000032DC4E900013DD0C1F30A5005EB451148
:10592000A8EB00001139814234DA0AEB051BB0EE16
:1059300048AA9BED000BF0EE68AA53EC102B51EC3B
:10594000190BFAF7D2FD41EC1B0B51EC1A0B53EC7F
:105950001B2BFAF7C4FD41EC180B51EC1A0B53EC5E
:10596000182BFAF7BCFD53EC1B2BFAF7B8FD9BED97
:10597000020B41EC1A0B53EC102B51EC190BFAF7FC
:10598000B4FD53EC1A2BFAF7AAFD41EC100B6D1C79
:10599000B8E70EE0002EA8BF3846BFF628AF94ED5A
:1059A000000B51EC100B81F00041C4E9000178427A
:1059B0001DE7C6F3130040F4801EC6F30A50A0F2A0
:1059C000F530471100F01F05C5F12000DDF848B0A3
:1059D00008900020069007900520EC467949002D9C
:1059E00007EB0002794408BF51F8221009D051F8A2
:1059F000223001EB8201AB404A68089922FA01F19A
:105A00001943A1FB0E26A1FB0B131A449A4234BF83
:105A10000123002303EB06080CEB8003D3E901A666
:105A20000E448E4234BF0121002192448A4411B1B8
:105A3000924502D903E0924501D2012100E0002104
:105A4000C3E901A641444CF82010011EA0F1010059
:105A5000C4DC029800F10050850F0298DDE903676D
:105A60008000DDF81480FAF721FE41EC1A0B304675
:105A7000FAF72DFE9FED541B53EC112BFAF735FD71
:105A800041EC1B0B3846FAF722FE9FED511B53ECFD
:105A9000112BFAF72AFD41EC180B4046FAF717FED6
:105AA0009FED4D1B53EC112BFAF71FFD41EC190B29
:105AB00051EC180B53EC192BFAF770FC53EC1B2B21
:105AC000FAF76CFC53EC1A2BFAF768FCCDE90801E5
:105AD000002008909DED080B53EC1A2B51EC100B95
