:020000040800F2
:10000000909701205D020008A35E0008AB4B00083A
:10001000A15E0008B113000851770008000000003D
:100020000000000000000000000000009D0100082A
:10003000A515000800000000F9010008C9660008C5
:1000400077020008770200087702000877020008AC
:10005000770200087702000877020008770200089C
:10006000770200087702000877020008770200088C
:10007000770200089514000877020008A114000810
:10008000AD140008B9140008BD100008770200087C
:10009000770200087702000877020008770200085C
:1000A00089670008A5670008770200087702000842
:1000B000770200087702000877020008770200083C
:1000C0007702000877020008770200082163000821
:1000D0002D630008BD760008457700087702000808
:1000E000770200087702000877020008770200080C
:1000F000770200087702000877020008C51400089C
:100100007702000877020008C1670008770200083C
:1001100077020008770200087702000877020008DB
:10012000D114000877020008DD140008E914000863
:1001300077020008770200087702000877020008BB
:1001400077020008770200087702000877020008AB
:100150007702000877020008F5140008770200080B
:10016000770200087702000877020008770200088B
:1001700077020008770200087702000800000000FC
:100180007702000877020008DFF80CD000F09AFC34
:1001900000480047E1550208909701202C4B196850
:1001A0000868B0E8F04F80F30988BFF36F8F4FF015
:1001B000000080F3118870470000000008480068C4
:1001C000006880F308884FF0000080F3148862B65E
:1001D00061B6BFF34F8FBFF36F8F00DF00BF00BF6B
:1001E00008ED00E0DFF80C00016841F470010160E7
:1001F000704700BF88ED00E0EFF30980BFF36F8F19
:10020000134B1A681EF0100F08BF20ED108A20E96A
:10021000F04F106009B44FF0500080F31188BFF325
:100220004F8FBFF36F8F2AF0BBFE4FF0000080F3BB
:10023000118809BC19680868B0E8F04F1EF0100F6B
:1002400008BFB0EC108A80F30988BFF36F8F704746
:100250005C000020EFF305807047000006488047EF
:1002600006480047FEE7FEE7FEE7FEE7FEE7FEE79B
:10027000FEE7FEE7FEE7FEE7796700088901000870
:100280002DE9F05F0546002092469B4688460646CB
:10029000814640241BE0284641464746224600F05E
:1002A000B0FA53465A46C01A914110D31146184627
:1002B000224600F097FA2D1A67EB01084F462246B6
:1002C0000120002100F08EFA17EB00094E41201E9C
:1002D000A4F10104DFDC484631462A464346BDE826
:1002E000F09F10B5431A934209D28318881803E08F
:1002F00010F8011D03F8011D521EF9D210BD40EA8D
:1003000001039B0703D009E008C9121F08C0042A93
:10031000FAD203E011F8013B00F8013B521EF9D27A
:1003200010BDD2B201E000F8012B491EFBD270478C
:100330000022F6E710B513460A4604461946FFF7B1
:10034000F0FF204610BDCAB2401E10F8011F8A42BD
:1003500002D00029F9D100207047421C10F8011B7F
:100360000029FBD1801A704710B5002200E0521C12
:10037000835C8C5CA34201D1002BF8D1D8B2E1B2EE
:10038000401A10BD034611F8012B00F8012B002A7A
:10039000F9D118467047000070B50F4D00B92868B4
:1003A000002412E00A4602E09E4203D0521C137859
:1003B000002BF9D1DAB2224305D02BB124B10021B0
:1003C00000F8011B04E00446401C0678002EE9D129
:1003D0002860204670BD000048C101202DE9FE4F75
:1003E000804681EA0300C00F0C46009021F00041D6
:1003F00023F00045B8EB0200A94105D24046214652
:1004000090461C460B46024623F00040104347D05E
:10041000270DC7F30A00C3F30A510290401A019056
:1004200040286BDAC3F3130040F4801B0098924617
:1004300020B10023D2EB030A63EB0B0B0198594662
:10044000C0F14002504600F0CDF906460D46504638
:100450005946019A00F0E5F910EB080061410024CB
:1004600087EA115284EAE7731A4340D0009A62B3D4
:10047000019A012A4FEA075215DC001B61EB0201C9
:100480004FF0004202EA0752CDE90042001C41F55C
:10049000801132462B4600F06BFA03B0BDE8F08FB6
:1004A00040462146F9E7001B61EB0201001C41F5C3
:1004B000801300185B412018A2F5001747EB0301D9
:1004C00040EAD570B6196D4111E06D084FEA360665
:1004D00045EAC0754FEA0752001B61EB0201001CA0
:1004E00041F5801149084FEA300000195141324668
:1004F0002B4603B0BDE8F04F00F02BBA0098012264
:1005000040000023D0EB020263EBE0730098214629
:100510004FEAE074B8EB000061EB0401E9E783F017
:1005200000435BE781F0004158E72DE9FE4F81EA87
:10053000030404F0004421F0004100944FF0000B4C
:1005400023F0004350EA01045ED052EA03045BD07A
:10055000C3F30A54C1F30A552C44A4F2F3340194B2
:10056000A0FB0254C1F3130141F48011C3F3130340
:1005700043F4801301FB024400FB034E840A970AF4
:1005800044EA815447EA8357A4FB076802958D0A21
:1005900005FB07854FEA932C04FB0C542705029DAD
:1005A0004FEA065847EA1637B5EB08056EEB070C1D
:1005B000870E920E47EA811742EA8312A7FB0201D7
:1005C000B6EB0B0164EB00042B0D43EA0C335E1811
:1005D00044EB1C50DA465146E7FB0201C5F3130415
:1005E0004FEA0B3343EA14534FEA0432019C43EAC7
:1005F0000603A4F10C040294009CCDE900B400F0C1
:10060000B7F903B0BDE8F08F00200146F9E72DE906
:10061000F04D81EA030404F0004B21F0004514463C
:100620004FF0000A23F0004150EA050220D054EABE
:1006300001021DD0C5F30A570246C5F31303C1F3E7
:100640001300C1F30A5640F4801543F48013A7EB5E
:100650000608101BD64608F2FD3873EB050002D3DE
:1006600008F1010801E092185B41B8F1000F03DACC
:1006700000200146BDE8F08D00204FF480110646B1
:1006800084460EE0171B73EB050705D3121B63EBC3
:10069000050306434CEA010C49084FEA3000921862
:1006A0005B4150EA0107EDD152EA030012D082EA21
:1006B000040083EA0501084305D0101BAB4106D2B4
:1006C0000122002306E000224FF0004302E06FF019
:1006D000010253101AEB06004CEB085110EB0A0014
:1006E00041EB0B01BDE8F04D00F033B90EB5C10F81
:1006F00080EAE0700844CA07002140F233438DE8E5
:100700000E000A460B4600F033F903B000BD0EB5EB
:1007100040F2334102910021CDE900110A460B4617
:1007200000F026F903B000BD00F0004230F00040B8
:100730000AD0C10D01F56071C0F3160042EA015103
:10074000C20840071143704700200146704700006F
:1007500030B5041E71F1000404DB4FF00044404248
:1007600064EB0101141E73F1000405DB1C464FF01D
:100770000043524263EB0403994208BF904230BDEC
:1007800001F0004330B421F0004150EA010206D0EC
:100790000A0DA2F56072C1F31301002A02DC30BC1D
:1007A00000207047440F44EAC104C100E01830BC87
:1007B00000EBC25000F096B830B50B460146002061
:1007C0002022012409E021FA02F59D4205D303FA13
:1007D00002F5491B04FA02F52844151EA2F1010294
:1007E000F1DC30BD202A04DB203A00FA02F10020BF
:1007F00070479140C2F1200320FA03F3194390405F
:100800007047202A04DB203A21FA02F000217047C9
:1008100021FA02F3D040C2F1200291400843194668
:100820007047202A06DBCB17203A41FA02F043EA50
:10083000E07306E041FA02F3D040C2F12002914099
:1008400008431946704700000FB4002300B589B073
:100850000CA900910B996FF00042CB601E4B0693E0
:100860001E4B07930423CDE901321D4A089202462C
:100870006B46002000F0BEF909B05DF814FB70B5BE
:1008800086B006464FF0FF300091CDE9010100200F
:1008900015460C4604903246694604A8FFF7D4FF7B
:1008A00002460498211825B108B1084600E0204608
:1008B0002860049800280DD0002A02DD00988842A4
:1008C00008D0081B0094CDE901043246694604A80B
:1008D000FFF7BAFF06B070BD2D0E00084B0E0008E2
:1008E000E90A00080029A8BF7047401C490008BF5A
:1008F00020F00100704710B4B0FA80FC00FA0CF050
:1009000050EA010404BF10BC704749B1CCF1200487
:1009100021FA04F411FA0CF118BF01212143084314
:10092000A3EB0C01CB1D4FEA00614FEA102042BF40
:10093000002010BC704700EBC35010440029A4BF36
:1009400010BC7047401C490008BF20F0010010BCDB
:10095000704710B5141E73F1000408DA401C41F111
:10096000000192185B411A4301D120F0010010BD33
:100970002DE9F04D92469B4611B1B1FA81F202E0A9
:10098000B0FA80F220329046FFF72CFF04460F4663
:1009900040EA0A0041EA0B0153465A46084313D085
:1009A000114653EA010019D0C8F140025046FFF742
:1009B00028FF05460E46504659464246FFF712FFAD
:1009C000084305D0012004E020463946BDE8F08DFB
:1009D0000020054346EAE0762C4337430A98630536
:1009E000E40AA0EB08000022FD0A44EA47540A305A
:1009F00002D500200146E9E7010510196941DDE94A
:100A0000084500196941BDE8F04DA2E72DE9FE4F08
:100A1000C3F30A5701F000450024C1F30A56C3F39B
:100A20001303C1F3130143F4801312EB020AA64629
:100A300041F48011009543EB030CA7F1010B16E084
:100A4000B0EB0A0061EB0C01071E71F1000707DA39
:100A50004FF00008D0EB080085F0004568EB01017D
:100A6000171A73EB0107EBD3761E001849415E4558
:100A7000F6DA50EA010209D0CDE900E5002213467A
:100A80000296FFF775FF03B0BDE8F08F204600998E
:100A9000F9E7C1F30A52C1F3130140F2FF3341F405
:100AA00080119A4202DA00200146704740F2334337
:100AB0009A42A2F2334202DC5242FFF7A2BEFFF793
:100AC00091BE0000064C074D06E0E06840F00103CF
:100AD00094E8070098471034AC42F6D3FFF758FB70
:100AE0002C0C03086C0C0308C0B24FF4F05100F05A
:100AF000BDB900002DE9FF4F087881B09946FF2865
:100B000005D0491C2D2804D00024002308E0002330
:100B10000BE00124F9E703EB830300EB4303491CDB
:100B20000878FF28F7D104B15B42002000901478C8
:100B300001462D2C01D02B2C04D1521C2D2C12D06F
:100B40000024009400251678FF2E0ED00A24A0FB66
:100B500004C801FB0481002700FB0711521C16EB9F
:100B60000C006941EFE70124EBE7994450EA0102E8
:100B70000ED00024AA4D2646DFF8A88200F08AF99C
:100B800082468B46B9F1000009DAC9F100071BE083
:100B900001980021C0E9001105B0BDE8F08F0746BB
:100BA00012E0F80707D022462B4630464146FFF7B1
:100BB000BCFC0646884622462B4610461946FFF7DF
:100BC000B4FC04460D467F10002FEAD1B9F1000FA6
:100BD000324643465046594602DAFFF718FD01E017
:100BE000FFF7A3FC009A0AB181F00041019AC2E923
:100BF0000001D1E72DE9FF4F1F468DB0D7E901462F
:100C00004FF0FF382E2045464FF000090B90B96990
:100C10006D1C0E988847396A824688470028F6D1AD
:100C2000BAF1FF3F0AD024F4D064002E11DDBAF1EE
:100C30002B0F08D0BAF12D0F0BD102E0404611B0B6
:100C4000ABE744F48064B9696D1C0E98884782460E
:100C5000761E6946600501D52D2000E02B208DF819
:100C6000000001F1010B0DF1200809E0B9696D1CCC
:100C70000E98884782460F9844F40074761E0560EB
:100C8000002E02DDBAF1300FF0D00B998A453ED12B
:100C900044F0800406E00F99681CA9F1010944F4AE
:100CA00000740860B9696D1C761E0E9888478246EC
:100CB0003028F0D02BE00B998A4505D1200603D4CB
:100CC00044F08004761E18E0504606F012FF08B388
:100CD0000DF11301761E44F400748B4508D2AAF17D
:100CE00030000BF8010B200607D5A9F1010003E045
:100CF000200602D409F101008146A00502D50F9912
:100D0000681C0860B9696D1C0E9888478246002EE1
:100D1000D1DC53E0002E51DDBAF1650F02D0BAF1FB
:100D2000450F4BD1A00549D5B9696D1C24F4407419
:100D3000761E0E9888478246002E0CDD2B2804D0A4
:100D4000BAF12D0F07D144F48074B9696D1C0E9867
:100D500088478246761EE00501D52D2100E02B2133
:100D600008F8011BCDF82C8021E00DF12901761E39
:100D700044F4007488450CD2AAF1300010F0FF0052
:100D800088F8000002D10B99884509D908F10108BB
:100D900006E0E00501D5244801E042F20F708146EB
:100DA000B9696D1C0E98884782460F980560002E21
:100DB00004DD504606F09DFE0028D6D1F9690E9854
:100DC0008847FF208BF8000088F80000002006907C
:100DD00007904B466A4608A906A8FFF78BFEA005B8
:100DE00002D46FF001002AE714F0240F0AD0E007C4
:100DF00014D1DDE906123868031D3B600068C0E9C4
:100E000000120BE0DDE90601FFF7BAFC0146E0073E
:100E100004D13868021D3A600068016028460EE778
:100E2000000024400000F03FF1D8FFFF426842B1CB
:100E3000016811F8013B23B1521EC0E900121846A7
:100E400070470121C160881E704742685AB1C3686B
:100E5000016843B983688B4205D0491E521CC0E922
:100E60000012002070474FF0FF3070477F2801D9F3
:100E7000002208E0064A02EB5002C007127800D1B7
:100E8000120902F00F020120904008407047000054
:100E900092FE02080EB540F2334202920022CDE9E2
:100EA00000221346FFF764FD03B000BD70B58C1837
:100EB00010F8015B15F0070301D110F8013B2A116E
:100EC00006D110F8012B03E010F8016B01F8016B5B
:100ED0005B1EF9D12B0705D40023521E0DD401F857
:100EE000013BFAE710F8013BCB1A921C03E013F820
:100EF000015B01F8015B521EF9D5A142D8D3002055
:100F000070BD00009FED221A9FED222A20EE010AFB
:100F1000B5EE001A30EE010ABDEEC01A11EE100A4D
:100F2000B5EE400AF1EE10FAB8BF013801EE100A32
:100F3000B8EEC11A30EE410A20EE020ABDEEC01A28
:100F40009FED152A11EE100A002130EE021AB1EBC6
:100F5000502F40F228411CBF0020B0EE410AC0F6DD
:100F6000030101EE100A01EB8001B8EE411A30EEE8
:100F7000410A91ED001A91ED012AB7EE003A33EEE5
:100F8000403A23EE011A20EE020A31EE000A7047C1
:100F900083F9223E00000044000000C49FED201AA7
:100FA0009FED202A20EE010ABDEEC01A11EE100AB4
:100FB000B5EE400AF1EE10FAB8BF013801EE100AA2
:100FC000B8EEC11A30EE410A20EE020ABDEEC01A98
:100FD0009FED152A11EE100A002130EE021AB1EB36
:100FE000502F40F228411CBF0020B0EE410AC0F64D
:100FF000030101EE100A01EB8001B8EE411A30EE58
:10100000410A91ED001A91ED012AB7EE003A33EE54
:10101000403A23EE011A20EE020A31EE000A704730
:1010200083F9223E00000044000000C410B50146D0
:10103000806B026C12F0500F05D0026CD20626D5E0
:1010400000F03AFD10BD016C41F4007101640168CB
:101050008A6812F0405F17D1027EAAB9CA6A12F4F8
:10106000700F02D08A6852050ED44A6822F020021E
:101070004A60016C21F480710164016CC90403D4DD
:10108000016C41F00101016400F014FD10BD806BA2
:10109000C26CBDE810400846104710B5806B402177
:1010A0000164416C41F00401416400F005FD10BD94
:1010B00010B5806B00F0FFFC10BD000010B50448B7
:1010C00000F0FBFCBDE81040024800F0F6BC000058
:1010D000A8040020F0040020464910B54A6822F414
:1010E00040324A604A6843681A434A6001684A6865
:1010F00022F480724A6001684A68036942EA032266
:101100004A6001684A6822F040724A6001684A6891
:1011100083681A434A6001688A6822F400628A6020
:1011200001688A68C3681A438A60816A6FF07062D6
:10113000D14201688A6822F070628A6001688A6818
:101140000CD0836A1A438A6001688A6822F0405290
:101150008A6001688A68C36A1A4301E022F040523B
:101160008A6001688A6822F002028A6001688A68DF
:10117000037E42EA43028A6090F820100029016849
:101180004A680FD042F400624A6001684A6822F45B
:1011900060424A6001684A68174C436A04EB433373
:1011A0001A4301E022F400624A600168CA6A22F42C
:1011B0007002CA620168CA6A838B104C04EB035345
:1011C0001A43CA6201688A6822F400728A60016860
:1011D0008A6890F8303042EA43228A6001688A685F
:1011E00022F480628A6001688A68406942EA80204D
:1011F000886010BD0023014000E0FFFF0000F0FF09
:1012000090ED030A704710B504460223821D0C219D
:1012100000F0A6F808B1002010BDA179E07901F036
:101220000F0140EA012010BD2DE9FF419FED1E0A8C
:1012300001600446002780ED030A24F0D5FD002557
:101240002061A571E57125720A224FF47A736C2131
:10125000206801F0D9FB012618B1304604B0BDE882
:10126000F0812046FFF7CFFFA080FFF750FA9FEDF7
:101270000F1B53EC112BFFF758F9FFF781FAE060D1
:10128000267203A86421CDE9000602918DF80C5066
:101290000B2201236C21206801F07EFC9DF80C00DC
:1012A0008106DBD53846D9E700000000AAD75C8B61
:1012B0008D23593F70B504002DED028B2FD0A179FD
:1012C000E07901F00F0140EA0125207A9FED228BA1
:1012D000C0B1A088281A00B2B0F5006F22DBA0F6DA
:1012E000FF704042FFF702FA53EC182BFFF71DF98D
:1012F00041EC180BE068FFF717FA53EC182BFFF7D7
:101300000EF923E0A5802846FFF701FA53EC182BCD
:10131000FFF70BF9FFF734FAE06001202072BDEC13
:10132000028B70BD10F5006F01DC00F6FF70FFF757
:10133000DDF953EC182BFFF7F8F841EC180BE068D7
:10134000FFF7F2F953EC182BFFF748F8FFF718FAFC
:10135000E060A580E3E70000AAD75C8B8D23593FAE
:101360003EB564248DE81C000A46006801236C2108
:1013700001F012FC3EBD00007CB5002815D00568C8
:10138000002D12D0094C216800290ED120600221C5
:10139000801DCDE900010C2201236C21284601F0BB
:1013A000FDFC002801D0002020607CBDC40100208D
:1013B000FEE7000090ED000A90ED011AF6EE000A3B
:1013C00001EE600A90ED021A01EE600A81ED000A5A
:1013D000D0ED010A9FED050A90ED021A60EE800A39
:1013E00041EE400AC1ED010A704700002DB25D3F99
:1013F00010B50121214800F02BFA214C0221A080D8
:101400001E4800F025FA608003211C4800F020FAF5
:1014100080B200EE100ADFED1B0A9FED1B1AB8EE3A
:10142000400A20801A4860EE201A9FED180AB0EE9C
:10143000402A11EE812AF1EE001A22EE212A80EDD7
:10144000002A618802EE101AB8EE422A62EE202AC3
:10145000B0EE402A12EE812A22EE212A80ED012AE6
:10146000A18802EE101AB8EE422A62EE200A10EEAF
:10147000810A20EE210A80ED020A10BDA804002096
:101480002000002033335340000080393333D33FF2
:1014900048020020014800F06DBF000070C201202A
:1014A000014800F067BF0000D0060020014800F0AE
:1014B00061BF000008C70120014800F05BBF0000C9
:1014C00068C70120014800F055BF0000D0C20120CC
:1014D000014800F04FBF000038050020014800F02F
:1014E00049BF0000A8C60120014800F043BF00002A
:1014F00070060020014800F03DBF000048C60120F2
:1015000001681823CAB2103AB2FBF3F2054B6FF32D
:101510000901032A9B5CC36500D9091D8165084642
:1015200070470000A8BC020810B5014600208B6976
:101530008A6A4FF0C07453B1B3F5005F15D072B131
:10154000012A0CD0022A0AD0032A09D104E01AB1D8
:10155000012A06D0022A03D1C96AC90100D5012097
:1015600010BDC96AA142FAD010BD002AF7D0012AE5
:10157000F2D0022AF3D0032AF3D010BD30B50468AC
:10158000256825F480252560046863608368402B06
:10159000036803D099600068C26030BD9A6000683B
:1015A000C16030BD704772B6FEE700002DE9F04122
:1015B00008F062FBFFF71CFF2E492F48FFF7FAFEE9
:1015C0002C4C2C49383C01F1080094ED010A04F040
:1015D000D3FC2948D4ED020AC83090ED0B0A04F080
:1015E00079FC254DB1EE400A983504F1400685EDB1
:1015F0000B0AA5F13000D6ED000A90ED0B0A04F0BD
:1016000069FC04F12807284687ED010AD6ED010A96
:1016100095ED0B0A04F05EFC87ED000A3A46A5F151
:101620008C0102F1080094ED010A04F069FFA5F1B4
:101630008C009FED120AD0ED110A60EE800AFCEEDC
:10164000E00A10EE901AD0ED100A8AB260EE800A1D
:10165000FCEEE00A10EE901AD0ED0F0ABDE8F04162
:1016600020EE800A89B2BCEEC00A10EE100A80B2E9
:1016700004F076BC380000204802002000005245EB
:1016800070B590F83C20694D012A19D0012280F8EC
:101690003C200A6807230468092A13D9E6680A3A35
:1016A00002EB420293409E43E6600A788B680A3A56
:1016B00002EB420293400268D4682343D36010E0F7
:1016C000022070BD266902EB420293409E432661D0
:1016D0000A788B6802EB4202934002681469234344
:1016E00013610268936B23F4401393630268936B56
:1016F0000C8A4F4E06EB0454234393630A790B7C08
:10170000D21AD21C02EB82021F2393400268946B10
:101710009C4394630A790B7CD21AD21C02EB82039D
:101720000A8892B29A4003689C6B22439A638A6942
:10173000AA420268936823F4702393600268936856
:101740000CD08C69234393600268936823F44013A0
:10175000936002689368CC69234301E023F440134B
:1017600093604A7D002A0268536802D043F4806384
:1017700001E023F4806353600A7D002A0268536805
:1017800002D043F4805301E023F4805353604A684D
:10179000012A16D0022A1FD0032A026827D0136A12
:1017A0006FF30B0313620268136ACC68234313625E
:1017B000214B04681F4A9C4227D10C68122C20D070
:1017C00023E0026853696FF30B03536102685369A6
:1017D000CC6823435361EBE7026893696FF30B0313
:1017E000936102689369CC6823439361E0E7D3690E
:1017F0006FF30B03D3610268D369CC682343D361D1
:10180000D6E7546844F48004546004689C4208D1CC
:101810000968102901D0112903D1516841F4000150
:101820005160002180F83C10084670BD01000F0097
:101830000000F0FF00230140002001400068034940
:10184000884201D1FFF7D4BD70470000002001405D
:1018500008B5002200920368521F1A60012911D0B6
:1018600002290CD0032906D0042901D0009808BD14
:101870000068806C01E00068406C009008BD006862
:10188000006CFAE70068C06BF7E7000018B50021AC
:10189000009190F83C20012A07D0012280F83C20DA
:1018A00002689368DB0702D011E0022018BD93683C
:1018B00043F001039360284A284B1268B2FBF3F20D
:1018C00002EB420200E0521E0092002AFBD10268A5
:1018D0009368DB0735D0036C42F20104A34343F461
:1018E00080530364036CDB0500D4416480F83C1032
:1018F0006FF0040111601A4949680068C9068168DF
:1019000001F440110FD0D1B100224168154B41F3D1
:101910008021491C98421CD1DAB1D1B1816841F4CF
:101920008001816015E041B10021426842F38022CC
:10193000521C71B1002AF1D10BE00121F5E701221F
:10194000E3E7016C41F010010164416C41F00101D9
:101950004164002018BD00001CC0012040420F005F
:10196000002301400020014078B50024009490F845
:101970003C20012A19D0012280F83C200A68072364
:101980000568092A13D9EE680A3A02EB420293402D
:101990009E43EE600B788A680A3B03EB43039A4050
:1019A0000368DD682A43DA6010E0022078BD2E6902
:1019B00002EB420293409E432E610B788A6803EB50
:1019C00043039A4003681D692A431A614A681F232A
:1019D000072A13D205686E6B521E02EB82029340F7
:1019E0009E436E630B790A885B1E92B203EB8303FE
:1019F0009A4003685D6B2A435A6327E005680D2A05
:101A000012D22E6BD21F02EB820293409E432E63B2
:101A10000B790A88DB1F92B203EB83039A400368B9
:101A20001D6B2A431A6311E0EE6A0D3A02EB820243
:101A300093409E43EE620B790A880D3B92B203EB12
:101A400083039A400368DD6A2A43DA62164B05680D
:101A5000144A9D4206D10D68122D03D1556845F4F4
:101A60008005556005689D4218D10B68102B01D088
:101A7000112B13D1536843F40003536009681029F4
:101A80000CD10A490A4A0968B1FBF2F101EB810164
:101A9000490000E0491E00910029FBD180F83C403C
:101AA000002078BD00230140002001401CC001201F
:101AB00040420F0070477047704770B50446006899
:101AC0000668456816F0020F05F020012AD049B3D8
:101AD000216CC90603D4216C41F400712164816832
:101AE00011F0405F17D1217EA9B9C16A11F4700FBE
:101AF00002D0816849050ED4416821F0200141607F
:101B0000206C20F480702064206CC00403D4206C0E
:101B100040F0010020642046FFF7CCFF21686FF001
:101B20001200086016F0040F05F0800132D089B36E
:101B3000206CC00603D4206C40F400502064206860
:101B4000816811F4401F1ED1816B11F4401F02D037
:101B50008168490517D44168490514D4816811F09A
:101B6000405F10D1217E71B9416821F08001416050
:101B7000206C20F480502064206CC00503D4206CBD
:101B800040F0010020642046FFF758FE21686FF006
:101B90000C00086016F0010F05F040010FD071B184
:101BA00020680068C0070AD0206C40F480302064B0
:101BB000204600F043F821686FF00100086016F03D
:101BC000200F05F080610ED000290CD0606C40F031
:101BD0000200606420686FF0200505602046FFF772
:101BE0006BFF2068056070BD70B504004FF0000504
:101BF00003D0206C002610B107E0012070BD204604
:101C000000F01EF8666484F83C60206CC00610D4B6
:101C1000206C20F4885040F0020020642046FFF73A
:101C20005BFA6664206C20F0020040F00100206442
:101C300000E0012584F83C60284670BD7047000034
:101C400070B586B0064614216846FEF771FB2F4931
:101C50002D4C336800252D4814390322A3422FD17F
:101C6000036843F480730360006800F4807005909B
:101C7000086840F0010008600868694600F001004B
:101C800005903C208DE82500214800F0E5FC224C21
:101C90002048C4E900050015A560C4E903504000D0
:101CA00060618000A0614011C4E9070520466562BB
:101CB00000F030FC08B1FFF776FCB463A66319E0CE
:101CC000164CA3421ED1036843F4007303600068FE
:101CD00000F400700590086840F00400086008688F
:101CE000694600F00400059033208DE825000C487B
:101CF00000F0B2FC00220521122001F093FA12201C
:101D000001F082FA06B070BD002001404438024064
:101D1000000002401064024038050020002101400C
:101D2000000802402DE9F041044600680D46816834
:101D30004FF0000749050BD58068C00508D5206C19
:101D400040F02000206484F83C700120BDE8F08160
:101D500000F084FD064613E0681C11D025B100F0A8
:101D60007DFD801BA8420BD920680068800707D43E
:101D7000206C40F00400206484F83C700320E5E708
:101D8000206800688007E7D521686FF012000860BE
:101D9000206C40F4007020642068816811F0405F7E
:101DA00013D1217E89B9C16A11F4700F02D0806805
:101DB00040050AD4206C20F480702064206CC0049C
:101DC00003D4206C40F0010020640020BEE7000036
:101DD00018B50021009190F83C20012A07D001227B
:101DE00080F83C2002689368DB0702D011E00220F3
:101DF00018BD936843F0010393602E4A2E4B12687E
:101E0000B2FBF3F202EB420200E0521E0092002A03
:101E1000FBD102689368DB0742D0036C40F2016497
:101E2000A34343F48073036453685B0505D5036CD7
:101E300023F4005343F480530364036CDB0404D5A0
:101E4000436C23F00603436400E0416480F83C10D7
:101E50001A496FF02203136049680068CA061849DE
:101E600006D0884224D1816811F0405F13D01FE072
:101E70008842F8D0134A904203D1D1F80423D20605
:101E8000F1D0114A904213D1D1F8041301F01F018F
:101E90001029E8D30CE0816841F08041816007E0BF
:101EA000016C41F010010164416C41F00101416499
:101EB000002018BD1CC0012040420F00002301403B
:101EC000002001400021014000220140F8B50E46EB
:101ED00000210446009190F83C0013460A46012870
:101EE00007D0012084F83C0020688568ED0702D007
:101EF00011E00220F8BD856845F001058560404885
:101F0000404D0068B0FBF5F000EB400000E0401EE3
:101F100000900028FBD120688568ED0503D5856811
:101F200025F48075856020688568ED075DD0226C9A
:101F300040F20165AA4342F4807222644068400581
:101F400005D5206C20F4005040F480502064206CB3
:101F5000C00404D5606C20F00600606400E0616499
:101F600084F83C10A16B2948274DC863A16B284811
:101F70000864A16B2748C86421686FF022000860DC
:101F80002068416841F0806141602068816841F4C7
:101F900080718160216832464C31A06B00F024FBD7
:101FA000024668681C49C006206806D0884224D1D1
:101FB000816811F0405F13D01FE08842F8D0174BC2
:101FC000984203D1D1F80433DB06F1D0144B984288
:101FD00013D1D1F8041301F01F011029E8D30CE04C
:101FE000816841F08041816007E0206C40F0100082
:101FF0002064606C40F0010060641046F8BD000091
:102000001CC0012040420F00002301402D10000899
:10201000B11000089B100008002001400021014081
:102020000022014018B50021009190F83C20012ABF
:1020300007D0012280F83C2002689368DB0702D0B9
:1020400011E0022018BD936843F001039360314A08
:10205000314B1268B2FBF3F202EB420200E0521E77
:102060000092002AFBD102689368DB0747D0036C1B
:1020700040F20164A34343F48073036453685B0537
:1020800005D5036C23F4005343F480530364036CBD
:10209000DB0404D5436C23F00603436400E0416491
:1020A00080F83C101D4B6FF02201116001684A68F6
:1020B0001B4C22434A6059680068CA06194906D079
:1020C000884224D1816811F0405F13D01FE088421C
:1020D000F8D0154A904203D1D1F80423D206F1D0AA
:1020E000124A904213D1D1F8041301F01F011029B4
:1020F000E8D30CE0816841F08041816007E0016C29
:1021000041F010010164416C41F001014164002083
:1021100018BD00001CC0012040420F0000230140F8
:102120002000000400200140002101400022014065
:1021300070B5040003D094F8200010B104E0012031
:1021400070BD204600F082F82068016841F001016E
:10215000016000F083FB0546052604E000F07EFBED
:10216000401B0A2811D820684068C007F6D02068B4
:10217000016821F00201016000F070FB05460BE0F0
:1021800000F06CFB401B0A2806D9606A40F400305E
:10219000606284F82060D2E7206840688007EFD44E
:1021A000207E0128206801683DD021F08001016077
:1021B000607E01282068016838D021F0400101606C
:1021C000A07E01282068016833D021F02001016041
:1021D000E07E0128206801682ED041F010010160E6
:1021E000207F01282068016829D021F008010160C2
:1021F000607F01282068016824D021F0040101607B
:10220000D4E902010843D4E9041211430843616888
:10221000491E08432168C86100206062012084F8DB
:102220002000002070BD41F08001C0E741F0400176
:10223000C5E741F02001CAE721F01001CFE741F0E6
:102240000801D4E741F00401D9E7000010B586B0D9
:10225000044614216846FEF76BF81449206888424A
:1022600021D113480021026842F000720260006828
:1022700000F0007005900E481038026842F001022C
:102280000260006800F0010005904FF4C05000901B
:102290000220CDE901010320039009200490694642
:1022A000044800F0D9F906B010BD000000640040F9
:1022B00040380240000002402DE9F0410446876D9D
:1022C00000F0CCFA064694F835000025022806D026
:1022D0008020606584F834500120BDE8F0812068DA
:1022E000016821F0160101602068416921F0800138
:1022F0004161206C08B9A06C20B12068016821F010
:10230000080101602068016821F0010101600CE012
:1023100000F0A4FA801B052807D92020606503205F
:1023200084F8350084F83450D7E720680068C00787
:10233000EED194F85C103F208840B860012084F80A
:10234000350084F834500020C7E790F83510022992
:1023500003D08021416501207047052180F83510A8
:102360000068016821F00101016000207047406DA4
:10237000704700002DE9F84304464FF00009CDF8FE
:10238000009063484FF41651A56D0068B0FBF1F75B
:102390002E6894F85C10082000FA01F131420FD049
:1023A00021680A6852070BD50A6822F004020A6005
:1023B00094F85C108840A860606D40F00100606592
:1023C00094F85C104FF0010808FA01F0304208D090
:1023D00021684969090604D5A860606D40F00200D3
:1023E000606594F85C1004208840304208D0216871
:1023F0000968890704D5A860606D40F00400606535
:1024000094F85C1010208840304218D02168096888
:10241000090714D5A86020680168490304D500683D
:10242000000308D5A16C07E00168C90503D4016861
:1024300021F008010160216C09B12046884794F819
:102440005C1020208840304231D021680968C906DC
:102450002DD5A86094F8350005282068016806D0BD
:10246000490347D5006800031DD4616C1CE021F0CE
:10247000160101602068416921F080014161206CF2
:1024800008B9A06C20B12068016821F00801016042
:1024900094F85C103F208840A86084F8358084F868
:1024A0003490216D1FE0E16B09B120468847606DD3
:1024B00000282BD0606DC00714D0052084F83500AB
:1024C0002068016821F0010101600098401C009023
:1024D000B84203D820680068C007F6D184F8358078
:1024E00084F83490E16C002910D001B02046BDE89A
:1024F000F04308470168C905D5D4016821F01001EF
:10250000016084F8358084F83490CCE7BDE8F88326
:102510001CC001202DE9F041044600F09FF9064659
:102520005CB1022084F83500002584F8345020681E
:10253000016821F0010101600DE00120BDE8F0819A
:1025400000F08CF9801B052805D920206065032048
:1025500084F83500F2E720680068C007F0D12268EF
:10256000116820480140D4E901031843D4E9033637
:102570003343184363691843A3691843E369184355
:10258000236A18430843616A042903D1D4E90B1371
:1025900019430843106020684069666A20F007010B
:1025A00030460E43012704280CD1A06A0643E06A96
:1025B00040B12046FEF7B8FF20B14020606584F8A6
:1025C0003570BAE7206846612046FEF799FF94F817
:1025D0005C203F2191408160656584F83570002062
:1025E000ACE700003F8010F02DE9F0410446866D15
:1025F00090F83400002501280DD0012084F8340023
:1026000094F835700020012F07D084F8340002259B
:102610002846BDE8F0810220FBE7022784F83570E8
:1026200060652046FEF7AAFF94F85C103F208840C2
:10263000B0602068016841F016010160206C20B193
:102640002068016841F0080101602068016841F0DC
:1026500001010160DCE700002DE9F84FDFF8BCA1C3
:102660000022012503264FF00F090AF1040BAAF1FD
:10267000040E00BF0B6805FA02F42340A34270D198
:102680000F7907F00307012F01D0022F16D18768B9
:102690004FEA420806FA08FC27EA0C07D1F80CC0FA
:1026A0000CFA08FC4CEA070CC0F808C04768A743BE
:1026B0000C79C4F3001494403C4344600C79E44327
:1026C000A4070AD0C4684FEA420C06FA0CF7BC43D0
:1026D0008F6807FA0CF72743C7600C7904F00304EE
:1026E000022C12D1D40800EB840CDCF820405707F0
:1026F000FF0E09FA07F824EA0804D1F8108008FA56
:1027000007F848EA0408CCF8208004684FEA420C35
:1027100006FA0CF7BC430F7907F0030707FA0CF72A
:10272000274307604C6814F4403F70D03C4C276846
:1027300047F480472760246822F0030704F48044AC
:102740000094384C07EB040CDCF8084897074FEA74
:10275000177809FA08F7BC43334FB84202D1002773
:1027600024E054E0314FB84201D101271EE0304F40
:10277000B84201D1022719E02E4FB84201D10327F8
:1027800014E02D4FB84201D104270FE02B4FB8427F
:1027900001D105270AE02A4FB84201D1062705E0FA
:1027A000284FB84201D1072700E0082707FA08F7A9
:1027B0002743CCF80878DAF800405746D1F804C02F
:1027C0009C435FEACC2C00D51C433C60DBF8004006
:1027D0005F46D1F804C09C435FEA8C2C00D51C43B3
:1027E0003C60DEF800407746D1F804C09C435FEAC5
:1027F0008C3C00D51C433C60084F083F3C68D1F836
:1028000004C09C435FEACC3C00D51C433C60521C96
:10281000102AFFF42FAFBDE8F88F0000083C0140FC
:1028200044380240003001400000024000040240F1
:1028300000080240000C0240001002400014024058
:1028400000180240001C02400069084000D001202E
:1028500070470AB1816170470904FBE7014880684D
:102860007047000050000020044A1168002904D07D
:102870000968814201D1002010607047C401002026
:1028800070B5040025D094F83D00002520B984F8E7
:102890003C50204600F068FB242084F83D0020686E
:1028A000016821F0010101602068016841F40041E4
:1028B00001602068016821F40041016000F09EFD84
:1028C0004D4A6168914201D84C4900E04C49884228
:1028D00001D2012070BD4B492368B0FBF1F15E6865
:1028E00026F03F060E435E606368934206D94FF4BC
:1028F000967359434FF47A73B1FBF3F12368491C83
:102900001E6A26F03F06314319626168914210D871
:102910004900401EB0FBF1F2521CC2F30B02042A24
:1029200001D2042022E0B0FBF1F0401CC0F30B0008
:102930001CE0A268F2B301EBC10303EB0116431ED6
:10294000B3FBF6F35B1C43F480431B0549D092B301
:1029500001EBC10202EB0111401EB0FBF1F0401C83
:10296000C0F30B0040F4804040F400402168CA6985
:102970004CF6FF739A431043C861D4E90710014332
:102980002068026822F0C00211430160D4E903010B
:1029900001432068826848F2FF339A431143816003
:1029A000D4E9050108432168CA6822F0FF021043F8
:1029B000C86001E00EE016E02068016841F0010106
:1029C00001602564202084F83D00256384F83E5092
:1029D000002070BD01EB4106431EB3FBF6F35B1C08
:1029E000B3E70120C2E701EB4101401EB0FBF1F06B
:1029F000401CC0F30B00B7E7A086010080841E00D6
:102A000000093D0040420F002DE9FF4F81B089468B
:102A10000446FFF723FF054694F83D004FF00008F9
:102A200020287DD11923012250492046009502F02B
:102A300059FA002874D194F83C00012870D0012084
:102A400084F83C0020680168C90703D1016841F09F
:102A5000010101602068016821F400610160242007
:102A600084F83D00002626644148E0624FF0011BD7
:102A700020272068016841F48071016000950022E0
:102A800059462046049B02F02DFA50B12068006898
:102A9000C00502D54FF400702064032005B0BDE8E6
:102AA000F08F216809F0FE000861FFF7D7FE21686A
:102AB000054648694969C0F34000C1F380214FF0E1
:102AC000A00A0FE0FFF7CAFE411B0498814200D81C
:102AD00008B984F83DA0216848694969C0F34000FD
:102AE000C1F3802194F83D20A02A02D008B9002922
:102AF000E8D084F83D7020684169C943890716D43D
:102B0000016841F4007101602068416980691923FE
:102B1000012216492046009502F0E4F9B8B900E018
:102B200021E084F83D7084F83C600020B6E701683D
:102B300041F40071016021686FF4806048611923DD
:102B400001220A492046009502F0CCF908B1012083
:102B5000A4E7039808F1010880458AD384F83D7002
:102B600084F83C60F3E7022098E7000002001000C0
:102B70000000FFFF7047000010B5064C01462068BA
:102B8000002806D002688A4203D1FEF793FB00209A
:102B9000206010BDC40100202DE9FF4F83B09A468C
:102BA000DDE9118793460446DDF84090FFF756FEB5
:102BB000054694F83D00202870D11923012274495C
:102BC0002046009502F08EF90028F5D194F83C00DB
:102BD000012863D0012084F83C0020680168C907FF
:102BE00003D1016841F0010101602068016821F40E
:102BF00000610160222084F83D00402084F83E00FE
:102C000000262664C4F82490A4F82A80608D2085CC
:102C10006048E062CDE9007553465A462046049963
:102C200002F0E2F8002879D1208DD0B1012821D01E
:102C30000228206824D0416980690090208D0328F3
:102C400066D801282BD0544902283B464FF0000299
:102C5000009557D08846204602F044F900285DD1FF
:102C60003AE02068416981690091016841F400718E
:102C700001607DE02068016821F480610160F0E777
:102C8000016821F4806101602068016841F40061FD
:102C90000160206841698069009069E075E02A461A
:102CA0003946204602F0C4F988BB54E02068016828
:102CB00041F40071016020680069616A0870606A0F
:102CC000401C6062218D491E2185618D491E6185F0
:102CD00021680969017042E02068016821F480617F
:102CE000016020680069616A0870606A401C606267
:102CF000208D401E2085608D401E60853B46002251
:102D000041460095204602F0EDF800B9CEE705E017
:102D10002A463946204602F08BF918B1012007B047
:102D2000BDE8F08F20680069616A0870606A401C25
:102D30006062208D401E81B22185608D401E6085BD
:102D400020684269D243520712D4032903D1016893
:102D500021F48061016020680069616A0870606A1E
:102D6000401C6062208D401E2085608D401E608565
:102D7000208D00287FF462AF202084F83D0084F885
:102D80003E6084F83C600020C9E70220C7E70000ED
:102D9000020010000000FFFF040001002DE9FC5FAD
:102DA000994692468B460446DDF83080FFF756FD83
:102DB00000250646009594F83D00202828D1664855
:102DC00046F2A81120270068B0FBF1F000EBC0012B
:102DD00001EB001000900098401E009010D0206879
:102DE0008069C0438007F6D594F83C0001280FD0D5
:102DF000012084F83C0020680168C9070BD00EE070
:102E000044F8305F6773A573206940F020002061AB
:102E10000220BDE8FC9F016841F0010101602068CB
:102E2000016821F400610160222084F83D00402007
:102E300084F83E002564C4F824800D986085608D78
:102E400020854648E062C4F844B0C4F848A0C4F8FD
:102E50004C902565208D4FF02308002863D0A06B8F
:102E600000B33F49C163A16B3E48C864A06B0564D1
:102E7000A06B4564A06B8564A06B05652168238DFC
:102E80001031626AA06BFFF7AFFBA0B184F83D7010
:102E900084F83E5054F8400F40F0100044F8040904
:102EA000257049E084F83D7084F83E5054F8400F96
:102EB00040F08000F2E7CDE900864B465246594685
:102EC000204601F091FF88B1A06BFFF73EFAA06B9E
:102ED000C5632068016821F48061016025856585EE
:102EE0002068016821F00101016025E0208D0128A2
:102EF000206813D0416841F48051416020684169E5
:102F00008169009184F83C50416841F480714160CE
:102F10002068416841F4006141601BE0016821F4D0
:102F200080610160EAE7CDE900864B46524659468A
:102F3000204601F059FF08B101206AE72068416985
:102F400081690091016841F40071016084F83D706D
:102F500084F83C5000205CE71CC001200000FFFF0B
:102F6000A94C0008694C00082DE9F04186B00646DE
:102F700014216846FDF7DCF9544D534B3268534831
:102F800003270421103500244FF012089A4219D16A
:102F9000026842F0020202600068029400F002003F
:102FA0000590CDE90371C020CDE900086946484885
:102FB000FFF752FB286840F400102860286800F4EE
:102FC00000107FE0434B9A424CD1026842F020024D
:102FD0000260006800F0200005900120CDE9007833
:102FE0000290CDE9037169463B48FFF735FB28683D
:102FF00040F4800028602868394D00F48000059076
:10300000364828604FF06067C5E901744FF4806866
:10301000C5E903486C61AC61EC612C6228466C62C6
:10302000FFF778FA08B1FEF7BEFAB563AE632C4D30
:103030002A4860357830E5E802074020A5E811010C
:10304000274845F814496030AC61EC612C626C6231
:10305000FFF760FA08B1FEF7A6FA7563AE6306B033
:10306000BDE8F0811F4B9A42F9D1026842F0040298
:103070000260026802F004020592026842F0010256
:1030800002600068CDE9024700F001000590581584
:10309000CDE900080E46049169461348FFF7DCFAB3
:1030A0004FF48070CDE90008CDE9024769460496E7
:1030B0000E48FFF7D1FA286840F40000286028681D
:1030C00000F400000590CAE7005400403038024088
:1030D00000040240005800400014024040600240DA
:1030E00070C20120005C0040000802400000024065
:1030F00070477047024881680278114481607047C8
:10310000500000200B4810B5016841F400710160C7
:10311000016841F480610160016841F480710160DF
:10312000032000F09FF80F2000F006F800F050F8A0
:10313000002010BD003C024030B505461F4887B056
:103140000024016841F008010160006806A900F050
:103150000800009001A800F031F90498A8B100F02F
:103160004DF940001649174AB0FBF1F11648491EC7
:10317000026040F2E732C0E90324C0E9011484612F
:1031800000F0B2FD040003D015E000F037F9E9E7E4
:103190000D4800F039FE04000DD1322000F034F863
:1031A000102D07D200222946322000F03BF80748B4
:1031B000056000E0012407B0204630BD40380240E1
:1031C00040420F00000C0040C8C7012054000020FE
:1031D0000C4882B0016841F480410160006800F44D
:1031E000804000900748001F016841F08051016055
:1031F0000068002200F0805000900F21901E02B065
:1032000000F010B844380240002809DB00F01F022B
:10321000012191404009800000F1E020C0F8001138
:1032200070470000F0B40E4B1B680C46C3F302233A
:10323000C3F10705042D00D90425191D072901D262
:10324000002300E0DB1E012606FA05F1491E21409D
:1032500099409E40761E16403143F0BC04F08ABA75
:103260000CED00E0064900F0070208684FF6FF0386
:10327000184040EA0220034A1043086070470000EB
:103280000CED00E00000FA052DE9F0470E460500C0
:1032900065D0DFF81481D8F80000F7B200F007001D
:1032A000B04207D288F80070D8F8000000F007009C
:1032B000B04254D128683D4C810712D5400703D550
:1032C000206840F4E05020602878000703D520688B
:1032D00040F4604020602068A96820F0F0000843B6
:1032E00020602878C0072DD0304968680839012847
:1032F00012D0022813D0032811D0096889070029A9
:103300002DDA216821F0030101432160FFF7A6FABD
:10331000814641F2883A0EE009688903EFE70968BF
:103320008901ECE7FFF79AFAA0EB0901514502D9B0
:103330000320BDE8F0872068696800F00C00B0EB5E
:10334000810FEFD1D8F80010404601F00701B142DB
:1033500007D90770006800F00700B04201D00120D3
:10336000E7E72878400705D52068E96820F4E050B1
:10337000084320602878000706D52068296920F4D2
:10338000604040EAC100206000F058F82168084A17
:10339000C1F30311515CC840064908600648006843
:1033A000FFF7CAFE0020C4E7003C02400838024094
:1033B000B0BC02081CC00120540000200F22026093
:1033C0000C4A136803F003034360136803F0F0032F
:1033D0008360136803F4E053C36012684FF4E05352
:1033E00003EAD20202610448006800F007000860A6
:1033F0007047000008380240003C0240044805497C
:1034000000680968044AC1F38221515CC8407047D2
:103410001CC0012008380240C0BC0208044805490D
:1034200000680968044AC1F34231515CC8407047E2
:103430001CC0012008380240C0BC0208154810B565
:10344000006810F00C02144813D01449042A0FD05D
:10345000082A0ED10F4C241F2268236802F03F0275
:103460005B0207D52068C0F38810A0FB010106E0CD
:10347000084610BD2168C1F38811A1FB000100239B
:10348000FCF7FEFE2168C1F30141491C4900B0FB75
:10349000F1F010BD083802400024F40040787D01AE
:1034A0002DE9F84F04006ED02078DFF84C93C00768
:1034B000A9F104054AD009F104000168C1F38101B2
:1034C000012908D00068C0F3810002280AD1D9F888
:1034D0000000400206D52868800337D560680028C0
:1034E000E1D033E06068B0F5803F10D0B0F5A02F98
:1034F000286810D020F480302860286820F48020CC
:1035000028606068A8B1FFF7A9F906460DE02868B1
:1035100040F48030F4E740F480202860F7E700BFF3
:10352000FFF79CF9801B642873D828688003F7D5BF
:103530000CE0FFF793F9064605E000BFFFF78EF9B0
:10354000801B6428F0D828688003F7D42078DFF83F
:10355000AC8280074FF0000A3ED5A748001D0168E5
:1035600011F00C0F08D00068C0F3810002280BD1C5
:10357000D9F80000400207D42868800716D5E06813
:10358000012800D112E033E1E068B8B10120C8F8A9
:103590000000FFF763F9064605E000BFFFF75EF99C
:1035A000801B0228C0D828688007F7D528682169C1
:1035B00020F0F80040EAC10028600DE0C8F800A043
:1035C000FFF74CF9064604E0FFF748F9801B022894
:1035D0001FD828688007F7D42078000722D5864FA7
:1035E00087486169703771B101210160FFF736F9D1
:1035F000064604E0FFF732F9801B022809D8386834
:103600008007F7D50EE0C0F800A0FFF727F90646BF
:1036100005E082E0FFF722F9801B02287DD8386898
:103620008007F7D42078400768D5DFF8CCB10027B1
:103630000BF13C0BDBF80000C0000BD4DBF80010F2
:1036400041F08051CBF80010DBF80000012700F0BA
:10365000805000906B4E3068C00510D4306840F444
:1036600080703060FFF7FAF8009005E0FFF7F6F899
:103670000099401A022850D83068C005F6D55E4E31
:10368000A0686C3601280FD00528306810D020F0D3
:1036900001003060306820F004003060A068B8B1EC
:1036A000FFF7DCF800900FE0306840F00100F4E72D
:1036B00040F004003060F7E7FFF7D0F80099411AB6
:1036C00041F28830814266D830688007F4D50EE038
:1036D000FFF7C4F8009007E0FFF7C0F80099411A1F
:1036E00041F28830814256D830688007F4D42FB137
:1036F000DBF8001021F08051CBF80010A069C8B3AE
:103700003D49091D0968C1F3810102294AD00228F7
:10371000504607D0C8F8600000E03CE0FFF79EF894
:1037200004463BE04746C8F86000FFF797F80646B6
:1037300005E000BFFFF792F8801B02282BD828680D
:103740008001F7D4D4E907010843A16A2E4A490849
:1037500002EB0141626A41EA8211084394F82C109D
:1037600040EA0161C9F8001001203866FFF776F8D9
:10377000044606E03EE000BFFFF770F8001B022899
:1037800009D828688001F7D534E000BFFFF766F854
:10379000001B022802D90320BDE8F88F28688001A9
:1037A000F4D427E00128F7D0D9F80000E26900F44A
:1037B000800191421CD1226A00F03F01914217D151
:1037C00047F6C071626A0140B1EB821F10D1A26A54
:1037D0004FF0FF3300F4403103EB5202B1EB024FE4
:1037E00006D194F82C1000F07060B0EB016F01D09E
:1037F0000120D1E70020CFE7043802400000474213
:10380000800E4742007000400000FFFF704790F8B4
:103810005100704738B5016804464A688868C0435B
:10382000430606D5C30704D1D3435B0601D4216CFC
:1038300005E0830708D4D3431B0605D4616C01B0AF
:103840002046BDE830400847830603D5430601D52E
:10385000C30551D4D3439B064ED443060AD494F8EF
:103860005130032B49D0636D43F004036365CB688B
:103870008B680093830609D4636D43F0010363658D
:103880008B6800930B6823F040030B60C00506D4DF
:10389000606D40F008006065206880680090606D91
:1038A000002829D02068416821F0E0014160012012
:1038B00084F85100900701D4D00722D020684168D5
:1038C00021F003014160114DE06C40B10565E06CF1
:1038D000FEF73BFD18B1606D40F040006065A06CE4
:1038E000002809D00565A06CFEF72FFD002803D045
:1038F000606D40F04000606538BDC8688868009021
:1039000038BD2046FFF782FF38BD0000396300084C
:1039100070B5040009D0606A002540B12561656179
:10392000A56294F8510040B10CE0012070BD6068C0
:10393000B0F5827FF4D0E561F2E784F8505020467C
:1039400000F044F8022084F851002068016821F05A
:1039500040010160A088218900F4827001F40441D3
:103960000843A18901F400610843217C01F00201B0
:103970000843217D01F001010843218B01F400710E
:103980000843217F01F03801084394F8201001F02A
:1039900080010843218D01F400510843216808602B
:1039A000A069042101EA104094F8241001F01001EC
:1039B0000843216848602068C16921F40061C16141
:1039C0006565012084F85100002070BD2DE9F04F9D
:1039D00087B0064614216846FCF7AAFC4C4B3168B8
:1039E00000244C480225032705224FF040094FF4DC
:1039F000806A4FF4003B994237D1464914310B6835
:103A000043F480530B60096801F48051059101680B
:103A100041F0020101600068029400F0020005908C
:103A20003820CDE90005CDE9037269463A48FEF732
:103A300013FE3B4D3948286078066860C5E902945A
:103A4000C5E904A4AC61C5E9074B28466C62FEF7E2
:103A500061FD08B1FDF7A7FDB56400220521232013
:103A6000AE63FFF7DFFB23204CE02E4B99424BD196
:103A7000284910310B6843F480430B60096801F456
:103A800080410591016841F004010160016801F085
:103A900004010591016841F002010160006802AB78
:103AA00000F0020005900C20CDE90005904683E867
:103AB000900169461C48FEF7CFFD4FF40050CDE958
:103AC000000502AB694683E890011348FEF7C4FD88
:103AD000134D1648603585E81102C5E9034A6C614B
:103AE000AC61C5E9074B28466C62FEF713FD08B1CF
:103AF000FDF759FDB564002205212420AE63FFF7D0
:103B000091FB2420FFF780FB07B0BDE8F08F000099
:103B10000030014030380240000402405864024046
:103B2000700600200038004000080240706002402B
:103B300070B5044690F8510001281CD1C9B1C2B13A
:103B400094F85000012816D0012084F8500003207A
:103B500084F85100002565652163A286E286A5638D
:103B600065642564A587E587A068B0F5004F04D09B
:103B70000DE0012070BD022070BD2068016821F0B9
:103B8000400101602068016841F480410160A16C3E
:103B900017480864A16C1748C863A16C1648C8642C
:103BA000A06C0565E38E2268216B0C32A06CFEF7D9
:103BB0001BFD30B1606D40F01000606584F850501E
:103BC000D7E720680168490603D4016841F0400145
:103BD000016084F850502068416841F02001416044
:103BE0002068416841F002014160002070BD000082
:103BF0006B630008756300084963000870477047ED
:103C00007047704710B590F83C20012A22D001225D
:103C100080F83C20CA688C6822F4407222434C68C9
:103C200022F4806222430C6822F4006222430C6971
:103C300022F4805222434C6922F400522243C96983
:103C4000002322F480420A4301684A6480F83C3031
:103C5000002010BD022010BD70B590F83C20012A54
:103C600032D0012480F83C40022280F83D200368D5
:103C70005A689D6822F070060A6832435A60134BF6
:103C800002689A4214D0B2F1804F11D0104B9A4280
:103C90000ED0104B9A420BD00F4B9A4208D00F4BCC
:103CA0009A4205D00E4B9A4202D00E4B9A4204D152
:103CB000496825F080031943916080F83D40002158
:103CC00080F83C10084670BD022070BD0000014025
:103CD0000004004000080040000C004000040140C7
:103CE000004001400018004010B5040003D094F8D3
:103CF0003D0010B107E0012010BD002084F83C0019
:103D0000204600F01FF8022084F83D00211D2068A5
:103D100002F05CFD012084F8460084F83E0084F83F
:103D20003F0084F8400084F8410084F8420084F8A1
:103D3000430084F8440084F8450084F83D000020E6
:103D400010BD000008B52B4A01682B48914210D1E4
:103D5000016841F0010101600068002200F00100EB
:103D6000009005211820FFF75DFA1820FFF74CFAA4
:103D700035E0214A121FB1F1804F0BD01F4B994201
:103D800010D1106840F002001060106800F00200CE
:103D9000009008BD106840F001001060106800F04D
:103DA0000100F5E7164A91420ED1016841F48031D5
:103DB00001600068002200F4803000900521182086
:103DC000FFF730FA182010E00E4A9142E1D1016865
:103DD00041F400310160006800F4003000900022DE
:103DE00006211920FFF71EFA1920BDE80840FFF749
:103DF0000BBA0000000001404438024000040040BB
:103E0000004001400044014090F83D10012901D0DC
:103E100001207047022180F83D100168CA6842F015
:103E20000102CA6000681149884214D0B0F1804F85
:103E300011D00F4988420ED00E4988420BD00E494E
:103E4000884208D00D49884205D00D49884202D0E9
:103E50000C49884204D1816801F00701062903D08A
:103E6000016841F00101016000207047000001403D
:103E70000004004000080040000C00400004014025
:103E8000004001400018004070B5044690F83C0026
:103E90000025012817D0012684F83C60022084F810
:103EA0003D002068826822F0770222F47F4282601F
:103EB0000868502838D00DDC20284FD005DC90B39E
:103EC000102811D14AE0022070BD302846D0402889
:103ED0000AD13BE060282FD070280DD0B0F5805F6C
:103EE00003D0B0F5005F12D0012584F83D600020BA
:103EF00084F83C00284670BDCB68D1E901212068D8
:103F000002F0D9FC2068816841F0770109E0CB68B4
:103F1000D1E90121206802F0CEFC2068816841F4DB
:103F200080418160E1E719E0CA684968206802F0D1
:103F300097FD5021206806E0CA684968206802F0B1
:103F4000A0FD6021206802F0C0FCCEE7CA68496885
:103F5000206802F085FD40212068F4E722680146D0
:103F60001046F0E770472DE9F04104460068C66846
:103F700005694FF00007A90713D5B10711D5F91E40
:103F8000016101202077206880698007204602D0E7
:103F9000FFF7E8FF04E000F0FFF8204600F091F999
:103FA0002777680716D5700714D521686FF00400CD
:103FB0000861022020772068806910F4407F204645
:103FC00002D0FFF7CFFF04E000F0E6F8204600F053
:103FD00078F92777280715D5300713D521686FF0B2
:103FE00008000861042020772068C0698007204607
:103FF00002D0FFF7B7FF04E000F0CEF8204600F053
:1040000060F92777E80616D5F00614D521686FF019
:1040100010000861082020772068C06910F4407FF4
:10402000204602D0FFF79EFF04E000F0B5F82046DE
:1040300000F047F92777E80708D0F00706D0216895
:104040006FF001000861204600F0A0F9280608D5AD
:10405000300606D521686FF0800008612046FFF722
:10406000CFFD680608D5700606D521686FF04000C0
:104070000861204600F020FAA8060AD5B00608D547
:1040800021686FF0200008612046BDE8F041FFF78D
:10409000B8BDBDE8F0810000F0B587B0044614213A
:1040A0006846FCF745F9364A23680024354802255E
:1040B0000121934211D1026842F0100202600068AF
:1040C00000F0100005904FF4D4400090CDE9015469
:1040D000CDE9034169462C484DE003262B4A2C4F7D
:1040E000B3F1804F24D02B498B4246D1016841F077
:1040F00001010160016801F001010591016841F0D1
:10410000020101600068694600F002000590C020CD
:104110000090CDE901541046CDE90345FEF79CFA25
:104120000096CDE9015469463846CDE9034522E0C1
:10413000036843F001030360036803F00103059380
:10414000036843F00203036000680096CDE9015460
:104150000E4600F00200CDE9046069460394104663
:10416000FEF77AFA4FF440600090CDE90154CDE9B2
:10417000034669463846FEF76FFA07B0F0BD000007
:1041800000000140303802400010024000000240B0
:104190000004024000040040704770B5044690F8E7
:1041A0003C0000260D4601280FD0012084F83C0079
:1041B0006AB1042A1DD0082A2FD00C2A3FD001262C
:1041C000002084F83C00304670BD022070BD20689D
:1041D00002F084FB2068816941F008018161206858
:1041E000816921F004018161206881692A69114394
:1041F00011E0206802F0A2FB2068816941F40061AF
:1042000081612068816921F4806181612068816910
:104210002A6941EA02218161D2E7206802F0C4FBE9
:104220002068C16941F00801C1612068C16921F0BD
:104230000401C1612068C1692A69114311E0206845
:1042400002F0E6FB2068C16941F40061C1612068A9
:10425000C16921F48061C1612068C1692A6941EAAC
:104260000221C161ACE710B5040003D094F83D0011
:1042700010B107E0012010BD002084F83C0020466A
:1042800000F01EF8022084F83D00211D206802F095
:104290009DFA012084F8460084F83E0084F83F002F
:1042A00084F8400084F8410084F8420084F8430018
:1042B00084F8440084F8450084F83D00002010BDD7
:1042C0007047704710B50446022249B104290ED048
:1042D000082913D094F84100012816D0012010BD00
:1042E00094F83E000128F9D184F83E200FE094F8BC
:1042F0003F000128F2D184F83F2008E094F8400004
:104300000128EBD184F8402001E084F8412001220B
:10431000206802F0C3FA16492068164A884201D084
:10432000904203D1436C43F40043436420688842C5
:1043300013D0B0F1804F10D00F4988420DD00F49F3
:1043400088420AD00E49884207D0904205D00D49D4
:10435000884202D00C49884204D1816801F00701EB
:10436000062903D0016841F001010160002010BD61
:10437000000001400004014000040040000800402B
:10438000000C004000400140001800402DE9F047BB
:10439000054600684349444C884202D1E068401C0D
:1043A000E06042492868884271D12069401C206140
:1043B000FDF7FCF800F0A0FE60690026401C60617B
:1043C000B0F57A7F00D3666100240327384A0123C1
:1043D0004FF0040904EBC400811891F805C0BCF14A
:1043E000010F0BD081F8066012F800C0BCF1050F78
:1043F00049D2DFE80CF00A141E28440091F806C0E8
:104400000CF1010C81F806C0EEE791F801C0BCF197
:10441000000F01D00E7236E013544B7133E091F867
:1044200006C0BCF1050F2ED9497839BB02211154C1
:1044300029E091F801C0BCF1010F24D18979C82984
:1044400021D217541FE091F801C0BCF1000F03D036
:10445000BCF1010F07D016E002F800904E710B710D
:10446000CF710F720FE091F806C0BCF1960F0AD31E
:1044700002F800904E718B70CB710B7203E049789B
:10448000012900D11654641CE4B2032CA2D30949BB
:104490002868884203D1BDE8F047FEF72BBEBDE88F
:1044A000F08700000040014000000020004401406F
:1044B0008C030020000C00407047704710B5044684
:1044C0000068406994F84110C0F3C010212911D14F
:1044D00080B12068143050E8001F21F0800140E8CE
:1044E0000012002AF5D1A06B08B1FDF7E5FE2046C9
:1044F00002F0ACFB2068406994F84210C0F38010D1
:10450000222911D180B12068143050E8001F21F019
:10451000400140E80012002AF5D1E06B08B1FDF738
:10452000CBFE204602F06BFB002010BD7047000060
:10453000F8B5016804460868CA684B6910F00F0FA7
:104540004FF0000559D003F0010602F4907737438D
:1045500065D0C10705D0D10503D5616C41F00101DB
:104560006164410705D5D90703D0616C41F00201B0
:104570006164810705D5D90703D0616C41F004015E
:104580006164010707D502F02001314303D0616C5B
:1045900041F008016164616C00293AD0800604D5BD
:1045A000900602D5204602F005FF20684069616C44
:1045B000C0F38010090700D460B3204602F01FFB4F
:1045C00020684069400621D52068143050E8001F5B
:1045D00021F0400140E80012002AF5D1E06BA8B1BB
:1045E00072490165E06BFDF7B0FE002811D0E06B69
:1045F000016D01B0BDE8F040084783060FD5930672
:104600000DD52046BDE8F84002F0D4BE2046FFF7A5
:104610008DFFF8BD2046FFF789FF6564F8BD266B66
:104620002023012E7ED1C6067CD5D6067AD5086811
:104630004868009048694FF0020640064DD5E26B8D
:10464000106840684FF480770004000C3AD0A18DC8
:10465000814237D9E085D069B8422DD020680C302E
:1046600050E8001F21F4807140E80012002AF5D1C3
:104670002068143050E8001F21F0010140E80012CA
:10468000002AF5D12068143050E8001F21F04001C5
:1046900040E80012002AF5D184F8423025632068F2
:1046A0000C3050E8001F21F0100140E80012002AF1
:1046B000F5D1E06BFDF700FE6663A08DE18D401A39
:1046C00081B206E0A18D8142A8D1D069B842A5D1BE
:1046D00066632046FFF7F1FEF8BDA08DE18D401A1C
:1046E00081B2E08D0028F7D00029F5D020680C3089
:1046F00050E8002F22F4907240E80027002FF5D1F7
:104700002068143050E8002F22F0010240E8002712
:10471000002FF5D184F84230256320680C3050E832
:10472000002F00E006E022F0100240E80023002BFA
:10473000F3D1CDE705062BD5150629D594F8410010
:104740002128C9D1A068B0F5805F01D12069B0B13E
:10475000206A411C2162216800784860E08C401E7C
:104760000004000CE084B7D12068C16821F080010A
:10477000C1602068C16841F04001C160F8BD206A95
:104780000088C0F308004860206A801C2062E5E7CA
:104790004006F3D55006F1D5CA68204622F0400203
:1047A000CA6084F8413000F0FFF9F8BD036B0008DF
:1047B00070B5040004D094F84100002510B106E063
:1047C000012070BD84F84050204600F023F82420DA
:1047D00084F841002068C16821F40051C16020467E
:1047E00002F04AFE2068016921F4904101612068CD
:1047F000416921F02A0141612068C16841F40051FA
:10480000C1606564202084F8410084F8420065633B
:10481000002070BD2DE9F04F87B004461421684692
:10482000FBF786FDA248A149D4F800C0A04A103881
:10483000022603279F4B00254FF008088C4516D110
:10484000116841F400211160116801F40021059103
:10485000016841F0040101600068694600F004004D
:104860000590B802CDE90006184602AC2AE092494C
:104870008C452ED1116841F480111160116801F44A
:1048800080110591016841F004010160016801F0A7
:1048900004010591016841F008010160006802AC63
:1048A00000F0080005904FF48050CDE9000684E840
:1048B000A00169461846FDF7CFFE0420CDE90006A9
:1048C0007E48694684E8A001FDF7C6FE07B0BDE852
:1048D000F08F7B4BDFF8D891072109F104094FF0E5
:1048E000006A4FF4806B9C4551D1D9F8003043F0F9
:1048F0001003C9F80030D9F8002002F01002059228
:10490000026842F0010202600068029500F00100B6
:104910000590CDE903714FF4C060CDE9000669460A
:104920006848FDF799FE694E6748D846E6E8020AEE
:104930004020A6E82101574646F814596348B5615E
:10494000F56135627562FDF7E5FD08B1FCF72BFEF8
:10495000A663B4635D4E5C48603678383060C6E963
:104960000175C6E903587561B561F5613562304678
:104970007562FDF7CFFD08B1FCF715FEE663002276
:1049800005212520B463FEF74DFC25204EE0504B59
:104990009C454ED1136843F400331360126802F44F
:1049A00000320592026842F0080202600068029537
:1049B00000F008000590CDE903716020CDE9000604
:1049C00069463E48FDF748FE404E4248C036D04654
:1049D0003060C6E901A5C6E9035B7561B561F561A3
:1049E00035625F4630467562FDF794FD08B1FCF70D
:1049F000DAFDE663B4633748374E1830E6E802085C
:104A00004020A1C6344846F81459B561F5613562B5
:104A10007562FDF77FFD08B1FCF7C5FDA6630022B6
:104A200005212620B463FEF7FDFB2620FEF7ECFBF4
:104A30004CE72A4B9C4519D1136843F4802313603B
:104A4000126802F480220592026842F008020260B5
:104A50000068029500F008000590CDE903714FF45D
:104A60004070CDE90006694614482DE71C498C4585
:104A7000DED1D9F8002042F02002C9F80020D9F890
:104A8000001001F020010591016841F04001016032
:104A9000006802AA00F0400005904FF48440CDE980
:104AA000000682E8A00169460E480DE7004C004070
:104AB000403802400008024000500040000C024014
:104AC0000010014000000240B864024048C60120C6
:104AD000004400408860024068C701200048004050
:104AE000001401400018024090F84230202B01D001
:104AF0000220704721B11AB10023036302F042BDC6
:104B000001207047704770472DE9F843044690F83C
:104B10004100984616460D46202802D00220BDE8E6
:104B2000F88385B17EB100206064212084F84100C3
:104B3000FDF794FEA6848146E684A0682027B0F5A0
:104B4000805F02D003E00120E9E7206910B12E4622
:104B500000250EE000260CE08021204602F074FDC6
:104B6000A8B9C6B116F8010B21684860E08C401E58
:104B7000E084E08C4B464FF00002CDF80080002826
:104B8000EAD14FF04001204602F05EFD40B184F8CA
:104B900041700320C3E735F8020BC0F30800E3E7D8
:104BA00084F841700020BAE77047FEE708B54FF47B
:104BB000C8700090411E009101D30846FAE708BD75
:104BC00030B587B014216846FBF7B2FB2448016872
:104BD00041F0200101600068224D00F020000590A6
:104BE000012203212846FDF734FE03201121CDE9DF
:104BF00000010121CDE9021069462846FDF72CFD90
:104C00000024002202212846FDF723FEFFF7CEFFF5
:104C1000012202212846FDF71CFEFFF7C7FF0121F4
:104C20002846FDF711FE012803D0641CE4B2102CC5
:104C3000E7D3002201212846FDF70BFEFFF7B6FF60
:104C4000012202212846FDF704FEFFF7AFFF0122F3
:104C500011462846FDF7FDFDFFF7A8FF07B030BD60
:104C6000303802400014024070B5846B0025616B3F
:104C700001B1CD63A16B01B1CD63FDF778FB0228D3
:104C800011D02068016821F48061016065852020D1
:104C900084F83D0084F83E50206C40F01000206401
:104CA0002046FDF7E1FD70BD2DE9F041846B94F8DD
:104CB0003D2094F83E50E16A2068436823F4407335
:104CC0004360636B002003B1D863A36B03B1D86367
:104CD000212333EA02074FF022060CD036EA0207FE
:104CE00001D1202D07D094F83E20002A21D0628DDA
:104CF000012A20D024E021684D6825F400654D602C
:104D000060852820292A02D02A2A07D00CE02363B4
:104D100084F83D002046FEF7ECF905E0266384F8B0
:104D20003D002046FEF7E4F92068416841F44071F7
:104D30004160BDE8F0812268136823F4806313604A
:104D40002268536823F44073536011F5803F06D006
:104D5000082904D0B1F12A4F01D0202904D12268BA
:104D6000136843F4007313602268536823F480537C
:104D700053602268536823F4006353606085226C9B
:104D80001AB12046FDF770FDD3E7202284F83D20BC
:104D900094F83E2084F83E00402A09D0082902D029
:104DA000202900D0122020632046FDF7E3FEC0E753
:104DB00020632046FDF7E0FEBBE701684A69D24365
:104DC00052050FD46FF480624A61002140F8301F11
:104DD000202242738173026942F00402026101736E
:104DE00001207047002070472DE9F84F0446006805
:104DF00089460B9D01689846174641F48061016021
:104E00002068016841F48071016000954FF0011B3A
:104E10000022594620460A9B00F064F84FF4007ABD
:104E200040B120680068C00501D5C4F840A0032047
:104E3000BDE8F88F216809F0FE0008612B4628497B
:104E400020460A9A00F096F8F0BB20684169806914
:104E500000902A4620460A9900F022F940B1206CC1
:104E600004283AD12068016841F40071016034E0FF
:104E7000FEB2B8F1010F09D02168380A08612A464C
:104E800020460A9900F00CF90028E8D12068066154
:104E90002A4620460A9900F003F90028DFD120684D
:104EA000016841F480710160009500225946204656
:104EB0000A9B00F017F80028B3D1216809F0FF0021
:104EC00040F00100086100E007E02B46044920465D
:104ED0000A9A00F04FF80028AAD00120A8E70000A5
:104EE000020001002DE9F047984617460D4604469A
:104EF000C1F30746DDF820902AE000BFB8F1FF3F7C
:104F000026D0FDF7ABFCA0EB0901414502D8B8F172
:104F1000000F1DD12068012E16D0806925EA0000FF
:104F20000004000C12D00020B84211D1002044F837
:104F3000300F20216173A073216941F020012161AC
:104F400020730120BDE8F0874069E7E70120EBE727
:104F50002068012E0AD0806925EA00000004000CB8
:104F600006D00020B842C9D00020EBE74069F3E743
:104F70000120F7E72DE9F047984616460D4604460E
:104F80004FF000094FF0200AC1F3074723E02068E3
:104F90004069C043400515D42068016841F40071A0
:104FA000016021686FF480604861C4F8309084F833
:104FB0003DA084F83E90216C41F00401216484F806
:104FC0003C9021E0701C06D0FDF748FCA0EB0800E7
:104FD000B04203D816B1012F1FD021E02068012F65
:104FE00015D0806925EA00000004000C18D000BF2D
:104FF00044F8309F84F80DA084F80E90216941F0A8
:105000002001216184F80C900120BDE8F0874069FF
:1050100025EA00000004000CEAD12068406901E0A4
:105020002068806925EA00000004000CAFD1ECE79D
:105030002DE9F041002590460E460446202728E041
:105040004069C043C0060CD454F8301B6FF0100008
:10505000486144F810596777A577206A2062257760
:1050600014E0FDF7FBFBA0EB0800B04200D886B9C6
:1050700020684069C04340060BD544F8305F677331
:10508000A573206940F02000206125730120BDE850
:10509000F08120684169C9434906D1D40020F6E770
:1050A00070B516460D4604461EE02046FFF785FE05
:1050B00008B1012070BD681C16D0FDF7CFFB801B26
:1050C000A84200D885B920684069C04300060BD5C6
:1050D000002044F8300F20216173A073216941F052
:1050E000200121612073E4E720684069C043000685
:1050F000DBD4002070BD00002DE9F041184F0421E1
:105100003846FDF7A1FB0025164C012630B10421DD
:105110003846FDF799FB012802D002E0657000E0F7
:10512000667008213846FDF78FFB30B108213846FC
:10513000FDF78AFB012802D002E0A57200E0A6720A
:1051400010213846FDF780FB40B110213846FDF7AD
:105150007BFB012800D1E674BDE8F081E574FBE734
:10516000001002408C0300202DE9F04106461C4649
:1051700017460D462A2000F00DF9304600F0FFF8E2
:10518000384600F0FCF82B2000F004F91435A8B2E2
:1051900000F0F5F81434A0B200F0F1F8BDE8F041E9
:1051A0002C2000F0F7B8000070B5674D4FF40054A4
:1051B000002221462846FDF74CFB642025F03CFEEA
:1051C000012221462846FDF744FB642025F034FEE9
:1051D000012211465D48FDF73CFB642025F02CFEC2
:1051E000112000F0D7F8782025F026FE362000F0B8
:1051F000D1F8002000F0E4F83A2000F0CBF80520C8
:1052000000F0DEF8B22000F0C5F80C2000F0D8F86D
:105210000C2000F0D5F8002000F0D2F8332000F088
:10522000CFF8332000F0CCF8B72000F0B3F83520E9
:1052300000F0C6F8BB2000F0ADF8322000F0C0F856
:10524000C22000F0A7F8012000F0BAF8C32000F057
:10525000A1F8152000F0B4F8C42000F09BF820203D
:1052600000F0AEF8C62000F095F80F2000F0A8F886
:10527000D02000F08FF8A42000F0A2F8A12000F0C8
:105280009FF8E02000F086F8D02000F099F8082080
:1052900000F096F80E2000F093F8092000F090F846
:1052A000092000F08DF8052000F08AF8312000F088
:1052B00087F8332000F084F8482000F081F81720A8
:1052C00000F07EF8142000F07BF8152000F078F84C
:1052D000312000F075F8342000F072F8E12000F081
:1052E00059F8D02000F06CF8082000F069F80E2082
:1052F00000F066F8092000F063F8092000F060F87B
:10530000152000F05DF8312000F05AF8332000F04D
:1053100057F8482000F054F8172000F051F81420F6
:1053200000F04EF8152000F04BF8312000F048F85E
:10533000342000F045F8212000F02CF8BDE8704042
:10534000292000F027B80000001402400018024095
:105350002DE9F041141A5F1A641C7F1C0025A4B2C9
:10536000BFB2069EFFF700FF7C4304E0308800F0E8
:1053700006F86D1CB61CAC42F8D8BDE8F08110B53B
:105380000446000A00F01CF8E0B2BDE8104000F04E
:1053900017B8000070B5094D06464FF4804400224E
:1053A00021462846FDF755FA304600F009F8214617
:1053B0002846BDE870400122FDF74BBA00140240B8
:1053C00001B50121684600F001F808BD2DE9F04162
:1053D0000D4F0C4605464FF4004600223146384634
:1053E000FDF737FA224629460848FEF7A1FB074891
:1053F000FEF70DFA0128FAD131463846BDE8F041F2
:105400000122FDF726BA000000140240C00500206A
:10541000FFF7CAFE17F0BEF81DF03EF91DF0DBFBEA
:1054200010F00EFD0446282264211CF02FFE1423E8
:1054300000220221204619F043F9204617F07CFA99
:1054400004460EA118F0F8F8002320461A46092158
:1054500019F036F91DF0BFFB17F06EFA04460AA1E9
:1054600018F0EAF8462300220221204619F028F914
:105470001FF024FC052020F091FEF9E7436C6963DE
:105480006B204D650000000048656C6C6F204C5629
:10549000474C210070B58CB00024089409940A94FC
:1054A000202168460B94FAF743FF29482749012534
:1054B00001604FF480310561C0E90114057680F880
:1054C00020402449C0E90A14C561C46080F8304016
:1054D0004561FCF789FB08B1FCF765F80520CDE9CB
:1054E000080508A91A480A95FCF73EFA08B1FCF726
:1054F0005AF80226CDE90065032528050296079093
:10550000300406908DF8154004958DF814406946D6
:105510000F480394FCF7B4F808B1FCF744F8CDE960
:10552000005669460A48FCF7ABF808B1FCF73BF8AF
:105530000420CDE9000569460548FCF7A1F80028DC
:1055400001D0FCF730F80CB070BD00000020014025
:10555000A80400200100000F70B58CB0002408944E
:1055600009940A94202168460B94FAF7E1FE2A4830
:105570002849012501604FF480310561C0E901141B
:10558000057680F820402549C0E90A14C561C46049
:1055900080F830404561FCF727FB08B1FCF703F8C1
:1055A0000F20CDE9080508A90A941B48FCF7DCF98F
:1055B00008B1FBF7F8FF0A20CDE900050326300506
:1055C000029507904FF4A02006908DF815400496A0
:1055D0008DF81440694610480394FCF751F808B15F
:1055E000FBF7E1FF0B2000900220019069460A487A
:1055F000FCF746F808B1FBF7D6FF0E20CDE9000610
:1056000069460548FCF73CF8002801D0FBF7CBFFC2
:105610000CB070BD00210140F00400200100000F1B
:105620000D4810B50B4901601021416000218160D7
:10563000C16001614161017641768176C176017771
:105640004177FCF775FD002803D0BDE81040FBF75B
:10565000AABF10BD00640040980500202D4808B581
:10566000016841F400110160016801F4001100912A
:10567000016841F4800101600068002200F48000AC
:10568000009005210D20FDF7CDFD0D20FDF7BCFD9F
:10569000002205210F20FDF7C5FD0F20FDF7B4FD09
:1056A000002205211020FDF7BDFD1020FDF7ACFD07
:1056B000002205211120FDF7B5FD1120FDF7A4FD05
:1056C000002205212F20FDF7ADFD2F20FDF79CFDC9
:1056D000002205213820FDF7A5FD3820FDF794FDB7
:1056E000002205213A20FDF79DFD3A20FDF78CFDB3
:1056F000002205213B20FDF795FD3B20FDF784FDB1
:10570000002205214620FDF78DFDBDE8084046201A
:10571000FDF77ABD3038024010B500220C21082078
:1057200020F0AAFD104C00221C21A060062020F0D1
:10573000A3FD206100222421082020F09DFDE060CF
:1057400000220421012020F097FD6061074A00211A
:10575000074820F0BDFD054A20602432002105489D
:1057600020F0B6FD606010BD04C0012060BC0208DE
:1057700011540008A96A00082DE9F04F87B01421E0
:105780006846FAF7D5FD58480026016841F0100137
:105790000160016801F010010591016841F0040108
:1057A0000160016801F004010591016841F02001E8
:1057B0000160016801F020010591016841F080015C
:1057C0000160016801F080010591016841F001016B
:1057D0000160016801F001010591016841F00201D9
:1057E0000160016801F002010591016841F040018A
:1057F0000160016801F040010591016841F0080174
:1058000001600068DFF8E48000F008004FF46045B4
:105810000590012229464046FDF71BF8DFF8D0909D
:10582000012248F201014846FDF713F80022022147
:105830004846FDF70EF8DFF8BCB00122812158463A
:10584000FDF707F8DFF8B0A04FF4407701223946A2
:105850005046FCF7FEFF1C20CDE9000601246946F6
:1058600002945846FCF7F8FECDE90054032569463A
:105870004046CDE90245FCF7EFFE009469464846F4
:105880000194CDE90245FCF7E7FE02250095CDE93C
:105890000146694648460396FCF7DEFE8020CDE9C6
:1058A000000469465846CDE90245FCF7D5FEE00301
:1058B000CDE9000469464846CDE90245FCF7CCFE37
:1058C0000097CDE90145694650460395FCF7C4FEB3
:1058D0000094CDE90145694658460395FCF7BCFEA6
:1058E00007B0BDE8F08F00003038024000140240DD
:1058F0000018024000100240000402400D4810B59C
:105900000B4901600C49416000214FF480428160E5
:10591000C0E9031241618161C1610162FCF7B0FF1E
:10592000002803D0BDE81040FBF73DBE10BD0000CD
:105930000054004074C10120A086010010B5FFF79B
:105940003FF90D480B494FF4804201600B4941601B
:1059500000218160C0E9031241618161C16101627E
:10596000FCF78EFF002803D0BDE81040FBF71BBEFC
:1059700010BD000000580040C8C10120A0860100F1
:105980000D4810B50B4901600C49416000214FF4EE
:1059900080428160C0E9031241618161C16101629D
:1059A000FCF76EFF002803D0BDE81040FBF7FBBDFD
:1059B00010BD0000005C00401CC20120A086010058
:1059C0000F4810B50D4901604FF48271416000210C
:1059D0008160C1604FF400720161C0E90512C161CC
:1059E0000162416281620A21C162FDF791FF0028D4
:1059F00003D0BDE81040FBF7D6BD10BD003001401C
:105A0000C00500200F4810B50D4901604FF48271A8
:105A1000416000218160C1604FF400720161C0E902
:105A20000512C1610162416281620A21C162FDF712
:105A30006FFF002803D0BDE81040FBF7B4BD10BDD8
:105A400000380040180600200B4810B509490160D5
:105A50005321416000214FF47A72C0E902120161C2
:105A60008161FEF741F9002803D0BDE81040FBF743
:105A70009ABD10BD0044014050C4012010B596B03D
:105A800000240F9410941194129413941C216846CE
:105A90001494FAF74DFC202107A8FAF749FC344882
:105AA0003249C0E900144FF6FF71C0E902410461B8
:105AB00044618461FEF718F908B1FBF774FD4FF4F7
:105AC00080500F900FA92A48FEF7DEF908B1FBF7C6
:105AD0006AFD2748FEF7C7FB08B1FBF764FD139486
