:020000040800F2
:10000000889701205D020008876B0008C74E000832
:10001000856B0008B1130008C584000800000000CB
:100020000000000000000000000000009D0100082A
:10003000A515000800000000F9010008AD730008D4
:1000400077020008770200087702000877020008AC
:10005000770200087702000877020008770200089C
:10006000770200087702000877020008770200088C
:10007000770200089514000877020008A114000810
:10008000AD140008B9140008BD100008770200087C
:10009000770200087702000877020008770200085C
:1000A0006D74000889740008770200087702000860
:1000B000770200087702000877020008770200083C
:1000C00077020008914F0008854F0008057000086E
:1000D0001170000831840008B98400087702000814
:1000E000770200087702000877020008770200080C
:1000F000770200087702000877020008C51400089C
:100100007702000877020008A5740008770200084B
:1001100077020008770200087702000877020008DB
:10012000D114000877020008DD140008E914000863
:1001300077020008770200087702000877020008BB
:1001400077020008770200087702000877020008AB
:100150007702000877020008F5140008770200080B
:10016000770200087702000877020008770200088B
:1001700077020008770200087702000800000000FC
:100180007702000877020008DFF80CD000F09AFC34
:100190000048004795630208889701202C4B196896
:1001A0000868B0E8F04F80F30988BFF36F8F4FF015
:1001B000000080F3118870470000000008480068C4
:1001C000006880F308884FF0000080F3148862B65E
:1001D00061B6BFF34F8FBFF36F8F00DF00BF00BF6B
:1001E00008ED00E0DFF80C00016841F470010160E7
:1001F000704700BF88ED00E0EFF30980BFF36F8F19
:10020000134B1A681EF0100F08BF20ED108A20E96A
:10021000F04F106009B44FF0500080F31188BFF325
:100220004F8FBFF36F8F2BF095FD4FF0000080F3E1
:10023000118809BC19680868B0E8F04F1EF0100F6B
:1002400008BFB0EC108A80F30988BFF36F8F704746
:100250005C000020EFF305807047000006488047EF
:1002600006480047FEE7FEE7FEE7FEE7FEE7FEE79B
:10027000FEE7FEE7FEE7FEE75D740008890100087F
:100280002DE9F05F0546002092469B4688460646CB
:10029000814640241BE0284641464746224600F05E
:1002A000B0FA53465A46C01A914110D31146184627
:1002B000224600F097FA2D1A67EB01084F462246B6
:1002C0000120002100F08EFA17EB00094E41201E9C
:1002D000A4F10104DFDC484631462A464346BDE826
:1002E000F09F10B5431A934209D28318881803E08F
:1002F00010F8011D03F8011D521EF9D210BD40EA8D
:1003000001039B0703D009E008C9121F08C0042A93
:10031000FAD203E011F8013B00F8013B521EF9D27A
:1003200010BDD2B201E000F8012B491EFBD270478C
:100330000022F6E710B513460A4604461946FFF7B1
:10034000F0FF204610BDCAB2401E10F8011F8A42BD
:1003500002D00029F9D100207047421C10F8011B7F
:100360000029FBD1801A704710B5002200E0521C12
:10037000835C8C5CA34201D1002BF8D1D8B2E1B2EE
:10038000401A10BD034611F8012B00F8012B002A7A
:10039000F9D118467047000070B50F4D00B92868B4
:1003A000002412E00A4602E09E4203D0521C137859
:1003B000002BF9D1DAB2224305D02BB124B10021B0
:1003C00000F8011B04E00446401C0678002EE9D129
:1003D0002860204670BD0000CC0100202DE9FE4FB2
:1003E000804681EA0300C00F0C46009021F00041D6
:1003F00023F00045B8EB0200A94105D24046214652
:1004000090461C460B46024623F00040104347D05E
:10041000270DC7F30A00C3F30A510290401A019056
:1004200040286BDAC3F3130040F4801B0098924617
:1004300020B10023D2EB030A63EB0B0B0198594662
:10044000C0F14002504600F0CDF906460D46504638
:100450005946019A00F0E5F910EB080061410024CB
:1004600087EA115284EAE7731A4340D0009A62B3D4
:10047000019A012A4FEA075215DC001B61EB0201C9
:100480004FF0004202EA0752CDE90042001C41F55C
:10049000801132462B4600F06BFA03B0BDE8F08FB6
:1004A00040462146F9E7001B61EB0201001C41F5C3
:1004B000801300185B412018A2F5001747EB0301D9
:1004C00040EAD570B6196D4111E06D084FEA360665
:1004D00045EAC0754FEA0752001B61EB0201001CA0
:1004E00041F5801149084FEA300000195141324668
:1004F0002B4603B0BDE8F04F00F02BBA0098012264
:1005000040000023D0EB020263EBE0730098214629
:100510004FEAE074B8EB000061EB0401E9E783F017
:1005200000435BE781F0004158E72DE9FE4F81EA87
:10053000030404F0004421F0004100944FF0000B4C
:1005400023F0004350EA01045ED052EA03045BD07A
:10055000C3F30A54C1F30A552C44A4F2F3340194B2
:10056000A0FB0254C1F3130141F48011C3F3130340
:1005700043F4801301FB024400FB034E840A970AF4
:1005800044EA815447EA8357A4FB076802958D0A21
:1005900005FB07854FEA932C04FB0C542705029DAD
:1005A0004FEA065847EA1637B5EB08056EEB070C1D
:1005B000870E920E47EA811742EA8312A7FB0201D7
:1005C000B6EB0B0164EB00042B0D43EA0C335E1811
:1005D00044EB1C50DA465146E7FB0201C5F3130415
:1005E0004FEA0B3343EA14534FEA0432019C43EAC7
:1005F0000603A4F10C040294009CCDE900B400F0C1
:10060000B7F903B0BDE8F08F00200146F9E72DE906
:10061000F04D81EA030404F0004B21F0004514463C
:100620004FF0000A23F0004150EA050220D054EABE
:1006300001021DD0C5F30A570246C5F31303C1F3E7
:100640001300C1F30A5640F4801543F48013A7EB5E
:100650000608101BD64608F2FD3873EB050002D3DE
:1006600008F1010801E092185B41B8F1000F03DACC
:1006700000200146BDE8F08D00204FF480110646B1
:1006800084460EE0171B73EB050705D3121B63EBC3
:10069000050306434CEA010C49084FEA3000921862
:1006A0005B4150EA0107EDD152EA030012D082EA21
:1006B000040083EA0501084305D0101BAB4106D2B4
:1006C0000122002306E000224FF0004302E06FF019
:1006D000010253101AEB06004CEB085110EB0A0014
:1006E00041EB0B01BDE8F04D00F033B90EB5C10F81
:1006F00080EAE0700844CA07002140F233438DE8E5
:100700000E000A460B4600F033F903B000BD0EB5EB
:1007100040F2334102910021CDE900110A460B4617
:1007200000F026F903B000BD00F0004230F00040B8
:100730000AD0C10D01F56071C0F3160042EA015103
:10074000C20840071143704700200146704700006F
:1007500030B5041E71F1000404DB4FF00044404248
:1007600064EB0101141E73F1000405DB1C464FF01D
:100770000043524263EB0403994208BF904230BDEC
:1007800001F0004330B421F0004150EA010206D0EC
:100790000A0DA2F56072C1F31301002A02DC30BC1D
:1007A00000207047440F44EAC104C100E01830BC87
:1007B00000EBC25000F096B830B50B460146002061
:1007C0002022012409E021FA02F59D4205D303FA13
:1007D00002F5491B04FA02F52844151EA2F1010294
:1007E000F1DC30BD202A04DB203A00FA02F10020BF
:1007F00070479140C2F1200320FA03F3194390405F
:100800007047202A04DB203A21FA02F000217047C9
:1008100021FA02F3D040C2F1200291400843194668
:100820007047202A06DBCB17203A41FA02F043EA50
:10083000E07306E041FA02F3D040C2F12002914099
:1008400008431946704700000FB4002300B589B073
:100850000CA900910B996FF00042CB601E4B0693E0
:100860001E4B07930423CDE901321D4A089202462C
:100870006B46002000F0BEF909B05DF814FB70B5BE
:1008800086B006464FF0FF300091CDE9010100200F
:1008900015460C4604903246694604A8FFF7D4FF7B
:1008A00002460498211825B108B1084600E0204608
:1008B0002860049800280DD0002A02DD00988842A4
:1008C00008D0081B0094CDE901043246694604A80B
:1008D000FFF7BAFF06B070BD2D0E00084B0E0008E2
:1008E000E90A00080029A8BF7047401C490008BF5A
:1008F00020F00100704710B4B0FA80FC00FA0CF050
:1009000050EA010404BF10BC704749B1CCF1200487
:1009100021FA04F411FA0CF118BF01212143084314
:10092000A3EB0C01CB1D4FEA00614FEA102042BF40
:10093000002010BC704700EBC35010440029A4BF36
:1009400010BC7047401C490008BF20F0010010BCDB
:10095000704710B5141E73F1000408DA401C41F111
:10096000000192185B411A4301D120F0010010BD33
:100970002DE9F04D92469B4611B1B1FA81F202E0A9
:10098000B0FA80F220329046FFF72CFF04460F4663
:1009900040EA0A0041EA0B0153465A46084313D085
:1009A000114653EA010019D0C8F140025046FFF742
:1009B00028FF05460E46504659464246FFF712FFAD
:1009C000084305D0012004E020463946BDE8F08DFB
:1009D0000020054346EAE0762C4337430A98630536
:1009E000E40AA0EB08000022FD0A44EA47540A305A
:1009F00002D500200146E9E7010510196941DDE94A
:100A0000084500196941BDE8F04DA2E72DE9FE4F08
:100A1000C3F30A5701F000450024C1F30A56C3F39B
:100A20001303C1F3130143F4801312EB020AA64629
:100A300041F48011009543EB030CA7F1010B16E084
:100A4000B0EB0A0061EB0C01071E71F1000707DA39
:100A50004FF00008D0EB080085F0004568EB01017D
:100A6000171A73EB0107EBD3761E001849415E4558
:100A7000F6DA50EA010209D0CDE900E5002213467A
:100A80000296FFF775FF03B0BDE8F08F204600998E
:100A9000F9E7C1F30A52C1F3130140F2FF3341F405
:100AA00080119A4202DA00200146704740F2334337
:100AB0009A42A2F2334202DC5242FFF7A2BEFFF793
:100AC00091BE0000064C074D06E0E06840F00103CF
:100AD00094E8070098471034AC42F6D3FFF758FB70
:100AE000E0190308201A0308C0B24FF4F05100F0D7
:100AF000BDB900002DE9FF4F087881B09946FF2865
:100B000005D0491C2D2804D00024002308E0002330
:100B10000BE00124F9E703EB830300EB4303491CDB
:100B20000878FF28F7D104B15B42002000901478C8
:100B300001462D2C01D02B2C04D1521C2D2C12D06F
:100B40000024009400251678FF2E0ED00A24A0FB66
:100B500004C801FB0481002700FB0711521C16EB9F
:100B60000C006941EFE70124EBE7994450EA0102E8
:100B70000ED00024AA4D2646DFF8A88200F08AF99C
:100B800082468B46B9F1000009DAC9F100071BE083
:100B900001980021C0E9001105B0BDE8F08F0746BB
:100BA00012E0F80707D022462B4630464146FFF7B1
:100BB000BCFC0646884622462B4610461946FFF7DF
:100BC000B4FC04460D467F10002FEAD1B9F1000FA6
:100BD000324643465046594602DAFFF718FD01E017
:100BE000FFF7A3FC009A0AB181F00041019AC2E923
:100BF0000001D1E72DE9FF4F1F468DB0D7E901462F
:100C00004FF0FF382E2045464FF000090B90B96990
:100C10006D1C0E988847396A824688470028F6D1AD
:100C2000BAF1FF3F0AD024F4D064002E11DDBAF1EE
:100C30002B0F08D0BAF12D0F0BD102E0404611B0B6
:100C4000ABE744F48064B9696D1C0E98884782460E
:100C5000761E6946600501D52D2000E02B208DF819
:100C6000000001F1010B0DF1200809E0B9696D1CCC
:100C70000E98884782460F9844F40074761E0560EB
:100C8000002E02DDBAF1300FF0D00B998A453ED12B
:100C900044F0800406E00F99681CA9F1010944F4AE
:100CA00000740860B9696D1C761E0E9888478246EC
:100CB0003028F0D02BE00B998A4505D1200603D4CB
:100CC00044F08004761E18E0504607F0E2FD08B3B9
:100CD0000DF11301761E44F400748B4508D2AAF17D
:100CE00030000BF8010B200607D5A9F1010003E045
:100CF000200602D409F101008146A00502D50F9912
:100D0000681C0860B9696D1C0E9888478246002EE1
:100D1000D1DC53E0002E51DDBAF1650F02D0BAF1FB
:100D2000450F4BD1A00549D5B9696D1C24F4407419
:100D3000761E0E9888478246002E0CDD2B2804D0A4
:100D4000BAF12D0F07D144F48074B9696D1C0E9867
:100D500088478246761EE00501D52D2100E02B2133
:100D600008F8011BCDF82C8021E00DF12901761E39
:100D700044F4007488450CD2AAF1300010F0FF0052
:100D800088F8000002D10B99884509D908F10108BB
:100D900006E0E00501D5244801E042F20F708146EB
:100DA000B9696D1C0E98884782460F980560002E21
:100DB00004DD504607F06DFD0028D6D1F9690E9884
:100DC0008847FF208BF8000088F80000002006907C
:100DD00007904B466A4608A906A8FFF78BFEA005B8
:100DE00002D46FF001002AE714F0240F0AD0E007C4
:100DF00014D1DDE906123868031D3B600068C0E9C4
:100E000000120BE0DDE90601FFF7BAFC0146E0073E
:100E100004D13868021D3A600068016028460EE778
:100E2000000024400000F03FF1D8FFFF426842B1CB
:100E3000016811F8013B23B1521EC0E900121846A7
:100E400070470121C160881E704742685AB1C3686B
:100E5000016843B983688B4205D0491E521CC0E922
:100E60000012002070474FF0FF3070477F2801D9F3
:100E7000002208E0064A02EB5002C007127800D1B7
:100E8000120902F00F020120904008407047000054
:100E9000460C03080EB540F2334202920022CDE91F
:100EA00000221346FFF764FD03B000BD70B58C1837
:100EB00010F8015B15F0070301D110F8013B2A116E
:100EC00006D110F8012B03E010F8016B01F8016B5B
:100ED0005B1EF9D12B0705D40023521E0DD401F857
:100EE000013BFAE710F8013BCB1A921C03E013F820
:100EF000015B01F8015B521EF9D5A142D8D3002055
:100F000070BD00009FED221A9FED222A20EE010AFB
:100F1000B5EE001A30EE010ABDEEC01A11EE100A4D
:100F2000B5EE400AF1EE10FAB8BF013801EE100A32
:100F3000B8EEC11A30EE410A20EE020ABDEEC01A28
:100F40009FED152A11EE100A002130EE021AB1EBC6
:100F5000502F41F2DC111CBF0020B0EE410AC0F658
:100F6000030101EE100A01EB8001B8EE411A30EEE8
:100F7000410A91ED001A91ED012AB7EE003A33EEE5
:100F8000403A23EE011A20EE020A31EE000A7047C1
:100F900083F9223E00000044000000C49FED201AA7
:100FA0009FED202A20EE010ABDEEC01A11EE100AB4
:100FB000B5EE400AF1EE10FAB8BF013801EE100AA2
:100FC000B8EEC11A30EE410A20EE020ABDEEC01A98
:100FD0009FED152A11EE100A002130EE021AB1EB36
:100FE000502F41F2DC111CBF0020B0EE410AC0F6C8
:100FF000030101EE100A01EB8001B8EE411A30EE58
:10100000410A91ED001A91ED012AB7EE003A33EE54
:10101000403A23EE011A20EE020A31EE000A704730
:1010200083F9223E00000044000000C410B50146D0
:10103000806B026C12F0500F05D0026CD20626D5E0
:1010400000F03AFD10BD016C41F4007101640168CB
:101050008A6812F0405F17D1027EAAB9CA6A12F4F8
:10106000700F02D08A6852050ED44A6822F020021E
:101070004A60016C21F480710164016CC90403D4DD
:10108000016C41F00101016400F014FD10BD806BA2
:10109000C26CBDE810400846104710B5806B402177
:1010A0000164416C41F00401416400F005FD10BD94
:1010B00010B5806B00F0FFFC10BD000010B50448B7
:1010C00000F0FBFCBDE81040024800F0F6BC000058
:1010D000A4040020EC040020464910B54A6822F41C
:1010E00040324A604A6843681A434A6001684A6865
:1010F00022F480724A6001684A68036942EA032266
:101100004A6001684A6822F040724A6001684A6891
:1011100083681A434A6001688A6822F400628A6020
:1011200001688A68C3681A438A60816A6FF07062D6
:10113000D14201688A6822F070628A6001688A6818
:101140000CD0836A1A438A6001688A6822F0405290
:101150008A6001688A68C36A1A4301E022F040523B
:101160008A6001688A6822F002028A6001688A68DF
:10117000037E42EA43028A6090F820100029016849
:101180004A680FD042F400624A6001684A6822F45B
:1011900060424A6001684A68174C436A04EB433373
:1011A0001A4301E022F400624A600168CA6A22F42C
:1011B0007002CA620168CA6A838B104C04EB035345
:1011C0001A43CA6201688A6822F400728A60016860
:1011D0008A6890F8303042EA43228A6001688A685F
:1011E00022F480628A6001688A68406942EA80204D
:1011F000886010BD0023014000E0FFFF0000F0FF09
:1012000090ED030A704710B504460223821D0C219D
:1012100000F0A6F808B1002010BDA179E07901F036
:101220000F0140EA012010BD2DE9FF419FED1E0A8C
:1012300001600446002780ED030A25F0AFFC00257D
:101240002061A571E57125720A224FF47A736C2131
:10125000206801F053FD012618B1304604B0BDE806
:10126000F0812046FFF7CFFFA080FFF750FA9FEDF7
:101270000F1B53EC112BFFF758F9FFF781FAE060D1
:10128000267203A86421CDE9000602918DF80C5066
:101290000B2201236C21206801F0FCFD9DF80C005D
:1012A0008106DBD53846D9E700000000AAD75C8B61
:1012B0008D23593F70B504002DED028B2FD0A179FD
:1012C000E07901F00F0140EA0125207A9FED228BA1
:1012D000C0B1A088281A00B2B0F5006F22DBA0F6DA
:1012E000FF704042FFF702FA53EC182BFFF71DF98D
:1012F00041EC180BE068FFF717FA53EC182BFFF7D7
:101300000EF923E0A5802846FFF701FA53EC182BCD
:10131000FFF70BF9FFF734FAE06001202072BDEC13
:10132000028B70BD10F5006F01DC00F6FF70FFF757
:10133000DDF953EC182BFFF7F8F841EC180BE068D7
:10134000FFF7F2F953EC182BFFF748F8FFF718FAFC
:10135000E060A580E3E70000AAD75C8B8D23593FAE
:101360003EB564248DE81C000A46006801236C2108
:1013700001F090FD3EBD00007CB5002815D0056849
:10138000002D12D0094C216800290ED120600221C5
:10139000801DCDE900010C2201236C21284601F0BB
:1013A0007BFE002801D0002020607CBD4CC10120C4
:1013B000FEE7000090ED000A90ED011AF6EE000A3B
:1013C00001EE600A90ED021A01EE600A81ED000A5A
:1013D000D0ED010A9FED050A90ED021A60EE800A39
:1013E00041EE400AC1ED010A704700002DB25D3F99
:1013F00010B50121214800F02BFA214C0221A080D8
:101400001E4800F025FA608003211C4800F020FAF5
:1014100080B200EE100ADFED1B0A9FED1B1AB8EE3A
:10142000400A20801A4860EE201A9FED180AB0EE9C
:10143000402A11EE812AF1EE001A22EE212A80EDD7
:10144000002A618802EE101AB8EE422A62EE202AC3
:10145000B0EE402A12EE812A22EE212A80ED012AE6
:10146000A18802EE101AB8EE422A62EE200A10EEAF
:10147000810A20EE210A80ED020A10BDA40400209A
:101480002400002033335340000080393333D33FEE
:1014900044020020014800F06FBF000074C2012028
:1014A000014800F069BF0000CC060020014800F0B0
:1014B00063BF00000CC70120014800F05DBF0000C1
:1014C0006CC70120014800F057BF0000D4C20120C2
:1014D000014800F051BF000034050020014800F031
:1014E0004BBF0000ACC60120014800F045BF000022
:1014F0006C060020014800F03FBF00004CC60120F0
:1015000001681823CAB2103AB2FBF3F2054B6FF32D
:101510000901032A9B5CC36500D9091D8165084642
:10152000704700005CCA020810B5014600208B69B4
:101530008A6A4FF0C07453B1B3F5005F15D072B131
:10154000012A0CD0022A0AD0032A09D104E01AB1D8
:10155000012A06D0022A03D1C96AC90100D5012097
:1015600010BDC96AA142FAD010BD002AF7D0012AE5
:10157000F2D0022AF3D0032AF3D010BD30B50468AC
:10158000256825F480252560046863608368402B06
:10159000036803D099600068C26030BD9A6000683B
:1015A000C16030BD704772B6FEE700002DE9F04122
:1015B00009F03CFAFFF71CFF2E492F48FFF7FAFE0F
:1015C0002C4C2C49383C01F1080094ED010A05F03F
:1015D00045FB2948D4ED020AC83090ED0B0A05F00E
:1015E000EBFA254DB1EE400A983504F1400685ED41
:1015F0000B0AA5F13000D6ED000A90ED0B0A05F0BC
:10160000DBFA04F12807284687ED010AD6ED010A26
:1016100095ED0B0A05F0D0FA87ED000A3A46A5F1E0
:101620008C0102F1080094ED010A05F0DBFDA5F143
:101630008C009FED120AD0ED110A60EE800AFCEEDC
:10164000E00A10EE901AD0ED100A8AB260EE800A1D
:10165000FCEEE00A10EE901AD0ED0F0ABDE8F04162
:1016600020EE800A89B2BCEEC00A10EE100A80B2E9
:1016700005F0E8BA3C00002044020020000052457A
:1016800070B590F83C20694D012A19D0012280F8EC
:101690003C200A6807230468092A13D9E6680A3A35
:1016A00002EB420293409E43E6600A788B680A3A56
:1016B00002EB420293400268D4682343D36010E0F7
:1016C000022070BD266902EB420293409E432661D0
:1016D0000A788B6802EB4202934002681469234344
:1016E00013610268936B23F4401393630268936B56
:1016F0000C8A4F4E06EB0454234393630A790B7C08
:10170000D21AD21C02EB82021F2393400268946B10
:101710009C4394630A790B7CD21AD21C02EB82039D
:101720000A8892B29A4003689C6B22439A638A6942
:10173000AA420268936823F4702393600268936856
:101740000CD08C69234393600268936823F44013A0
:10175000936002689368CC69234301E023F440134B
:1017600093604A7D002A0268536802D043F4806384
:1017700001E023F4806353600A7D002A0268536805
:1017800002D043F4805301E023F4805353604A684D
:10179000012A16D0022A1FD0032A026827D0136A12
:1017A0006FF30B0313620268136ACC68234313625E
:1017B000214B04681F4A9C4227D10C68122C20D070
:1017C00023E0026853696FF30B03536102685369A6
:1017D000CC6823435361EBE7026893696FF30B0313
:1017E000936102689369CC6823439361E0E7D3690E
:1017F0006FF30B03D3610268D369CC682343D361D1
:10180000D6E7546844F48004546004689C4208D1CC
:101810000968102901D0112903D1516841F4000150
:101820005160002180F83C10084670BD01000F0097
:101830000000F0FF00230140002001400068034940
:10184000884201D1FFF7D4BD70470000002001405D
:1018500008B5002200920368521F1A60012911D0B6
:1018600002290CD0032906D0042901D0009808BD14
:101870000068806C01E00068406C009008BD006862
:10188000006CFAE70068C06BF7E7000018B50021AC
:10189000009190F83C20012A07D0012280F83C20DA
:1018A00002689368DB0702D011E0022018BD93683C
:1018B00043F001039360284A284B1268B2FBF3F20D
:1018C00002EB420200E0521E0092002AFBD10268A5
:1018D0009368DB0735D0036C42F20104A34343F461
:1018E00080530364036CDB0500D4416480F83C1032
:1018F0006FF0040111601A4949680068C9068168DF
:1019000001F440110FD0D1B100224168154B41F3D1
:101910008021491C98421CD1DAB1D1B1816841F4CF
:101920008001816015E041B10021426842F38022CC
:10193000521C71B1002AF1D10BE00121F5E701221F
:10194000E3E7016C41F010010164416C41F00101D9
:101950004164002018BD00005800002040420F00E4
:10196000002301400020014078B50024009490F845
:101970003C20012A19D0012280F83C200A68072364
:101980000568092A13D9EE680A3A02EB420293402D
:101990009E43EE600B788A680A3B03EB43039A4050
:1019A0000368DD682A43DA6010E0022078BD2E6902
:1019B00002EB420293409E432E610B788A6803EB50
:1019C00043039A4003681D692A431A614A681F232A
:1019D000072A13D205686E6B521E02EB82029340F7
:1019E0009E436E630B790A885B1E92B203EB8303FE
:1019F0009A4003685D6B2A435A6327E005680D2A05
:101A000012D22E6BD21F02EB820293409E432E63B2
:101A10000B790A88DB1F92B203EB83039A400368B9
:101A20001D6B2A431A6311E0EE6A0D3A02EB820243
:101A300093409E43EE620B790A880D3B92B203EB12
:101A400083039A400368DD6A2A43DA62164B05680D
:101A5000144A9D4206D10D68122D03D1556845F4F4
:101A60008005556005689D4218D10B68102B01D088
:101A7000112B13D1536843F40003536009681029F4
:101A80000CD10A490A4A0968B1FBF2F101EB810164
:101A9000490000E0491E00910029FBD180F83C403C
:101AA000002078BD002301400020014058000020A4
:101AB00040420F0070477047704770B50446006899
:101AC0000668456816F0020F05F020012AD049B3D8
:101AD000216CC90603D4216C41F400712164816832
:101AE00011F0405F17D1217EA9B9C16A11F4700FBE
:101AF00002D0816849050ED4416821F0200141607F
:101B0000206C20F480702064206CC00403D4206C0E
:101B100040F0010020642046FFF7CCFF21686FF001
:101B20001200086016F0040F05F0800132D089B36E
:101B3000206CC00603D4206C40F400502064206860
:101B4000816811F4401F1ED1816B11F4401F02D037
:101B50008168490517D44168490514D4816811F09A
:101B6000405F10D1217E71B9416821F08001416050
:101B7000206C20F480502064206CC00503D4206CBD
:101B800040F0010020642046FFF758FE21686FF006
:101B90000C00086016F0010F05F040010FD071B184
:101BA00020680068C0070AD0206C40F480302064B0
:101BB000204600F043F821686FF00100086016F03D
:101BC000200F05F080610ED000290CD0606C40F031
:101BD0000200606420686FF0200505602046FFF772
:101BE0006BFF2068056070BD70B504004FF0000504
:101BF00003D0206C002610B107E0012070BD204604
:101C000000F01EF8666484F83C60206CC00610D4B6
:101C1000206C20F4885040F0020020642046FFF73A
:101C20005BFA6664206C20F0020040F00100206442
:101C300000E0012584F83C60284670BD7047000034
:101C400070B586B0064614216846FEF771FB2F4931
:101C50002D4C336800252D4814390322A3422FD17F
:101C6000036843F480730360006800F4807005909B
:101C7000086840F0010008600868694600F001004B
:101C800005903C208DE82500214800F0E7FC224C1F
:101C90002048C4E900050015A560C4E903504000D0
:101CA00060618000A0614011C4E9070520466562BB
:101CB00000F032FC08B1FFF776FCB463A66319E0CC
:101CC000164CA3421ED1036843F4007303600068FE
:101CD00000F400700590086840F00400086008688F
:101CE000694600F00400059033208DE825000C487B
:101CF00000F0B4FC00220521122001F021FC12208A
:101D000001F010FC06B070BD0020014044380240D4
:101D10000000024010640240340500200021014010
:101D2000000802402DE9F041044600680D46816834
:101D30004FF0000749050BD58068C00508D5206C19
:101D400040F02000206484F83C700120BDE8F08160
:101D500000F086FD064613E0681C11D025B100F0A6
:101D60007FFD801BA8420BD920680068800707D43C
:101D7000206C40F00400206484F83C700320E5E708
:101D8000206800688007E7D521686FF012000860BE
:101D9000206C40F4007020642068816811F0405F7E
:101DA00013D1217E89B9C16A11F4700F02D0806805
:101DB00040050AD4206C20F480702064206CC0049C
:101DC00003D4206C40F0010020640020BEE7000036
:101DD00018B50021009190F83C20012A07D001227B
:101DE00080F83C2002689368DB0702D011E00220F3
:101DF00018BD936843F0010393602E4A2E4B12687E
:101E0000B2FBF3F202EB420200E0521E0092002A03
:101E1000FBD102689368DB0742D0036C40F2016497
:101E2000A34343F48073036453685B0505D5036CD7
:101E300023F4005343F480530364036CDB0404D5A0
:101E4000436C23F00603436400E0416480F83C10D7
:101E50001A496FF02203136049680068CA061849DE
:101E600006D0884224D1816811F0405F13D01FE072
:101E70008842F8D0134A904203D1D1F80423D20605
:101E8000F1D0114A904213D1D1F8041301F01F018F
:101E90001029E8D30CE0816841F08041816007E0BF
:101EA000016C41F010010164416C41F00101416499
:101EB000002018BD5800002040420F0000230140C0
:101EC000002001400021014000220140F8B50E46EB
:101ED00000210446009190F83C0013460A46012870
:101EE00007D0012084F83C0020688568ED0702D007
:101EF00011E00220F8BD856845F001058560404885
:101F0000404D0068B0FBF5F000EB400000E0401EE3
:101F100000900028FBD120688568ED0503D5856811
:101F200025F48075856020688568ED075DD0226C9A
:101F300040F20165AA4342F4807222644068400581
:101F400005D5206C20F4005040F480502064206CB3
:101F5000C00404D5606C20F00600606400E0616499
:101F600084F83C10A16B2948274DC863A16B284811
:101F70000864A16B2748C86421686FF022000860DC
:101F80002068416841F0806141602068816841F4C7
:101F900080718160216832464C31A06B00F026FBD5
:101FA000024668681C49C006206806D0884224D1D1
:101FB000816811F0405F13D01FE08842F8D0174BC2
:101FC000984203D1D1F80433DB06F1D0144B984288
:101FD00013D1D1F8041301F01F011029E8D30CE04C
:101FE000816841F08041816007E0206C40F0100082
:101FF0002064606C40F0010060641046F8BD000091
:102000005800002040420F00002301402D1000081E
:10201000B11000089B100008002001400021014081
:102020000022014018B50021009190F83C20012ABF
:1020300007D0012280F83C2002689368DB0702D0B9
:1020400011E0022018BD936843F001039360314A08
:10205000314B1268B2FBF3F202EB420200E0521E77
:102060000092002AFBD102689368DB0747D0036C1B
:1020700040F20164A34343F48073036453685B0537
:1020800005D5036C23F4005343F480530364036CBD
:10209000DB0404D5436C23F00603436400E0416491
:1020A00080F83C101D4B6FF02201116001684A68F6
:1020B0001B4C22434A6059680068CA06194906D079
:1020C000884224D1816811F0405F13D01FE088421C
:1020D000F8D0154A904203D1D1F80423D206F1D0AA
:1020E000124A904213D1D1F8041301F01F011029B4
:1020F000E8D30CE0816841F08041816007E0016C29
:1021000041F010010164416C41F001014164002083
:1021100018BD00005800002040420F00002301407D
:102120002000000400200140002101400022014065
:1021300070B5040003D094F8200010B104E0012031
:1021400070BD204600F082F82068016841F001016E
:10215000016000F085FB0546052604E000F080FBE9
:10216000401B0A2811D820684068C007F6D02068B4
:10217000016821F00201016000F072FB05460BE0EE
:1021800000F06EFB401B0A2806D9606A40F400305C
:10219000606284F82060D2E7206840688007EFD44E
:1021A000207E0128206801683DD021F08001016077
:1021B000607E01282068016838D021F0400101606C
:1021C000A07E01282068016833D021F02001016041
:1021D000E07E0128206801682ED041F010010160E6
:1021E000207F01282068016829D021F008010160C2
:1021F000607F01282068016824D021F0040101607B
:10220000D4E902010843D4E9041211430843616888
:10221000491E08432168C86100206062012084F8DB
:102220002000002070BD41F08001C0E741F0400176
:10223000C5E741F02001CAE721F01001CFE741F0E6
:102240000801D4E741F00401D9E7000010B586B0D9
:10225000044614216846FEF76BF81449206888424A
:1022600021D113480021026842F000720260006828
:1022700000F0007005900E481038026842F001022C
:102280000260006800F0010005904FF4C05000901B
:102290000220CDE901010320039009200490694642
:1022A000044800F0DBF906B010BD000000640040F7
:1022B00040380240000002402DE9F0410446876D9D
:1022C00000F0CEFA064694F835000025022806D024
:1022D0008020606584F834500120BDE8F0812068DA
:1022E000016821F0160101602068416921F0800138
:1022F0004161206C08B9A06C20B12068016821F010
:10230000080101602068016821F0010101600CE012
:1023100000F0A6FA801B052807D92020606503205D
:1023200084F8350084F83450D7E720680068C00787
:10233000EED194F85C103F208840B860012084F80A
:10234000350084F834500020C7E790F83510022992
:1023500003D08021416501207047052180F83510A8
:102360000068016821F00101016000207047406DA4
:10237000704790F8350070472DE9F84304464FF058
:102380000009CDF8009063484FF41651A56D006820
:10239000B0FBF1F72E6894F85C10082000FA01F108
:1023A00031420FD021680A6852070BD50A6822F023
:1023B00004020A6094F85C108840A860606D40F0E8
:1023C0000100606594F85C104FF0010808FA01F014
:1023D000304208D021684969090604D5A860606DBB
:1023E00040F00200606594F85C10042088403042A0
:1023F00008D021680968890704D5A860606D40F09D
:102400000400606594F85C1010208840304218D0B9
:1024100021680968090714D5A86020680168490384
:1024200004D50068000308D5A16C07E00168C90560
:1024300003D4016821F008010160216C09B1204634
:10244000884794F85C1020208840304231D02168C1
:102450000968C9062DD5A86094F8350005282068BC
:10246000016806D0490347D5006800031DD4616C9C
:102470001CE021F0160101602068416921F0800113
:102480004161206C08B9A06C20B12068016821F07E
:102490000801016094F85C103F208840A86084F82F
:1024A000358084F83490216D1FE0E16B09B120463E
:1024B0008847606D00282BD0606DC00714D00520C0
:1024C00084F835002068016821F00101016000985E
:1024D000401C0090B84203D820680068C007F6D1BD
:1024E00084F8358084F83490E16C002910D001B074
:1024F0002046BDE8F04308470168C905D5D4016806
:1025000021F01001016084F8358084F83490CCE724
:10251000BDE8F883580000202DE9F041044600F0A2
:102520009FF906465CB1022084F83500002584F846
:1025300034502068016821F0010101600DE00120A4
:10254000BDE8F08100F08CF9801B052805D920201A
:102550006065032084F83500F2E720680068C00752
:10256000F0D12268116820480140D4E901031843E2
:10257000D4E903363343184363691843A369184306
:10258000E3691843236A18430843616A042903D1A5
:10259000D4E90B1319430843106020684069666A48
:1025A00020F0070130460E43012704280CD1A06A11
:1025B0000643E06A40B12046FEF7B6FF20B1402056
:1025C000606584F83570BAE7206846612046FEF7FA
:1025D00097FF94F85C203F2191408160656584F805
:1025E00035700020ACE700003F8010F02DE9F0418D
:1025F0000446866D90F83400002501280DD0012096
:1026000084F8340094F835700020012F07D084F846
:10261000340002252846BDE8F0810220FBE70227AE
:1026200084F8357060652046FEF7A8FF94F85C10CA
:102630003F208840B0602068016841F016010160C9
:10264000206C20B12068016841F008010160206819
:10265000016841F001010160DCE700002DE9F84F5D
:10266000DFF8BCA10022012503264FF00F090AF173
:10267000040BAAF1040E00BF0B6805FA02F4234014
:10268000A34270D10F7907F00307012F01D0022F69
:1026900016D187684FEA420806FA08FC27EA0C07B9
:1026A000D1F80CC00CFA08FC4CEA070CC0F808C0C2
:1026B0004768A7430C79C4F3001494403C4344603A
:1026C0000C79E443A4070AD0C4684FEA420C06FA26
:1026D0000CF7BC438F6807FA0CF72743C7600C79E7
:1026E00004F00304022C12D1D40800EB840CDCF8B3
:1026F00020405707FF0E09FA07F824EA0804D1F82A
:10270000108008FA07F848EA0408CCF8208004682A
:102710004FEA420C06FA0CF7BC430F7907F00307A7
:1027200007FA0CF7274307604C6814F4403F70D059
:102730003C4C276847F480472760246822F0030751
:1027400004F480440094384C07EB040CDCF808488F
:1027500097074FEA177809FA08F7BC43334FB84296
:1027600002D1002724E054E0314FB84201D10127C3
:102770001EE0304FB84201D1022719E02E4FB84277
:1027800001D1032714E02D4FB84201D104270FE0F7
:102790002B4FB84201D105270AE02A4FB84201D198
:1027A000062705E0284FB84201D1072700E0082797
:1027B00007FA08F72743CCF80878DAF800405746BC
:1027C000D1F804C09C435FEACC2C00D51C433C608C
:1027D000DBF800405F46D1F804C09C435FEA8C2CD4
:1027E00000D51C433C60DEF800407746D1F804C0B9
:1027F0009C435FEA8C3C00D51C433C60084F083F7B
:102800003C68D1F804C09C435FEACC3C00D51C4333
:102810003C60521C102AFFF42FAFBDE8F88F000077
:10282000083C0140443802400030014000000240B2
:102830000004024000080240000C02400010024068
:102840000014024000180240001C024000690840C9
:1028500000D0012070470AB1816170470904FBE78D
:1028600001488068704700004C00002070477047A6
:102870002DE9F041016804464A694E6890F83E002F
:102880000025D743FA0506D4F243D20503D46FF4EA
:10289000807201254A61B90508D4F143C90505D400
:1028A00022686FF4007145F002055161790525D465
:1028B000F143C90522D4638D94F83D10226B202882
:1028C00008D13BB9212910D029290ED0282901D1BE
:1028D000212A0AD022686FF48061516145F0040515
:1028E000102806D0402804D008E0204603F076F8EF
:1028F00004E02068016841F400710160380508D4E3
:10290000F043C00505D421686FF4006045F0080568
:102910004861002D07D0206C284320642046BDE884
:10292000F04102F04BBCBDE8F0812DE9F0470268B0
:1029300000215368C66A90F83E4090F83D50102C34
:1029400012D0402C10D0046C002C7DD05469E4438C
:10295000A6077AD4DE43B60577D4036C03B1916938
:10296000BDE8F04703F016B8976951694FF42A0C97
:10297000C9435FEAC1784FF02A4904D066452AD09E
:102980004E4528D010E0DE43B6050DD4C16A61453E
:1029900001D1012103E0C16A494501D10821C16289
:1029A000BDE8F04702F0DEBE0E0716D4DE43B605E2
:1029B00013D4416CC9B21161416B09B1C96B29B91A
:1029C000816B002907D0C96B002904D000684168D9
:1029D00041F400614160BDE8F0878E0706D4DE4314
:1029E000B60503D4BDE8F04702F030BEFE4352689E
:1029F00076074FEA02521DD4002AECDB0A0608D4FF
:102A0000DA43520505D4490705D5BDE8F04702F081
:102A1000C1BD4907DFD4D9438905DCD4212D05D0B8
:102A2000402CD8D1BDE8F04702F0E2BEBDE8F04747
:102A300002F06EBD002ACEDB4A060BD4DA43520503
:102A400008D4490708D501E00DE00EE0BDE8F047E5
:102A500002F0E4BC4907BED4D9438905BBD4BDE824
:102A6000F04702F06EBC916970E7E10606D4D943E5
:102A7000890503D4BDE8F04702F0F8BF2821212DD5
:102A800027D0292D25D0650655D4DD436D0552D4B8
:102A9000640752D590F83D30448D002C9BD01269CC
:102AA000446A2270426A521C4262428D521E428522
:102AB000428D002A8FD12A2B8DD10268536823F4CE
:102AC000806353602222026380F83D1000F09EFC78
:102AD00081E7250623D4DD436D0520D4640720D586
:102AE00090F83D30448D002CF2D0446A2478146173
:102AF000426A521C4262428D521E4285428D002A19
:102B0000E6D1292BE4D10268536823F48063536033
:102B10002122026380F83D1000F079FC5BE7610739
:102B2000D6D4D9438905D3D4418D0029D0D0416A68
:102B3000097811610AE06107CAD4D9438905C7D46D
:102B4000418D0029C4D01169426A1170416A491C43
:102B50004162418D491E41853DE70000044A1168EC
:102B6000002904D00968814201D10020106070471B
:102B70004CC1012070B5040025D094F83D0000251B
:102B800020B984F83C50204600F06CFB242084F8E7
:102B90003D002068016821F00101016020680168A2
:102BA00041F4004101602068016821F400410160A6
:102BB00000F0B2FD4D4A6168914201D84C4900E0F5
:102BC0004C49884201D2012070BD4B492368B0FBBB
:102BD000F1F15E6826F03F060E435E606368934243
:102BE00006D94FF4967359434FF47A73B1FBF3F15E
:102BF0002368491C1E6A26F03F063143196261684A
:102C0000914210D84900401EB0FBF1F2521CC2F3B1
:102C10000B02042A01D2042022E0B0FBF1F0401C98
:102C2000C0F30B001CE0A268F2B301EBC10303EB9D
:102C30000116431EB3FBF6F35B1C43F480431B05F4
:102C400049D092B301EBC10202EB0111401EB0FB6F
:102C5000F1F0401CC0F30B0040F4804040F4004011
:102C60002168CA694CF6FF739A431043C861D4E9DE
:102C7000071001432068026822F0C002114301607E
:102C8000D4E9030101432068826848F2FF339A4384
:102C900011438160D4E9050108432168CA6822F024
:102CA000FF021043C86001E00EE016E020680168F2
:102CB00041F0010101602564202084F83D00256376
:102CC00084F83E50002070BD01EB4106431EB3FB6B
:102CD000F6F35B1CB3E70120C2E701EB4101401EA4
:102CE000B0FBF1F0401CC0F30B00B7E7A086010079
:102CF00080841E0000093D0040420F002DE9FF4F77
:102D000081B089460446FFF7ABFD054694F83D00C7
:102D10004FF0000820287DD1192301225049204678
:102D2000009502F051FF002874D194F83C0001286E
:102D300070D0012084F83C0020680168C90703D1E5
:102D4000016841F0010101602068016821F400611F
:102D50000160242084F83D00002626644148E0629A
:102D60004FF0011B20272068016841F48071016049
:102D70000095002259462046049B02F025FF50B1E1
:102D800020680068C00502D54FF40070206403205D
:102D900005B0BDE8F08F216809F0FE000861FFF77B
:102DA0005FFD2168054648694969C0F34000C1F3E9
:102DB00080214FF0A00A0FE0FFF752FD411B04985D
:102DC000814200D808B984F83DA021684869496962
:102DD000C0F34000C1F3802194F83D20A02A02D026
:102DE00008B90029E8D084F83D7020684169C943DA
:102DF000890716D4016841F40071016020684169B7
:102E000080691923012216492046009502F0DCFE54
:102E1000B8B900E021E084F83D7084F83C600020FF
:102E2000B6E7016841F40071016021686FF48060C9
:102E30004861192301220A492046009502F0C4FE88
:102E400008B10120A4E7039808F1010880458AD35E
:102E500084F83D7084F83C60F3E7022098E70000B6
:102E6000020010000000FFFF70477047704700002D
:102E700010B5064C01462068002806D002688A4238
:102E800003D1FEF717FA0020206010BD4CC10120CD
:102E9000704700002DE9FF4F83B09A46DDE91187A6
:102EA00093460446DDF84090FFF7DAFC054694F8B7
:102EB0003D00202870D11923012274492046009535
:102EC00002F082FE0028F5D194F83C00012863D07E
:102ED000012084F83C0020680168C90703D101681B
:102EE00041F0010101602068016821F40061016086
:102EF000222084F83D00402084F83E00002626640D
:102F0000C4F82490A4F82A80608D20856048E0628F
:102F1000CDE9007553465A462046049902F0BCFCA0
:102F2000002879D1208DD0B1012821D00228206835
:102F300024D0416980690090208D032866D801283B
:102F40002BD0544902283B464FF00002009557D041
:102F50008846204602F038FE00285DD13AE020681D
:102F6000416981690091016841F4007101607DE06F
:102F70002068016821F480610160F0E7016821F4B4
:102F8000806101602068016841F40061016020688F
:102F900041698069009069E075E02A46394620461B
:102FA00002F0B8FE88BB54E02068016841F400716B
:102FB000016020680069616A0870606A401C606294
:102FC000218D491E2185618D491E61852168096910
:102FD000017042E02068016821F48061016020688E
:102FE0000069616A0870606A401C6062208D401E42
:102FF0002085608D401E60853B460022414600953D
:10300000204602F0E1FD00B9CEE705E02A46394648
:10301000204602F07FFE18B1012007B0BDE8F08F16
:1030200020680069616A0870606A401C6062208DD7
:10303000401E81B22185608D401E608520684269F6
:10304000D243520712D4032903D1016821F48061CD
:10305000016020680069616A0870606A401C6062F3
:10306000208D401E2085608D401E6085208D0028AB
:103070007FF462AF202084F83D0084F83E6084F83D
:103080003C600020C9E70220C7E7000002001000F2
:103090000000FFFF040001002DE9FC5F9946924605
:1030A0008B460446DDF83080FFF7DAFB0025064644
:1030B000009594F83D00202828D1664846F2A811D2
:1030C00020270068B0FBF1F000EBC00101EB00101D
:1030D00000900098401E009010D020688069C04386
:1030E0008007F6D594F83C0001280FD0012084F821
:1030F0003C0020680168C9070BD00EE044F8305F3F
:103100006773A573206940F0200020610220BDE8AC
:10311000FC9F016841F0010101602068016821F411
:1031200000610160222084F83D00402084F83E00C8
:103130002564C4F824800D986085608D20854648FC
:10314000E062C4F844B0C4F848A0C4F84C902565C7
:10315000208D4FF02308002863D0A06B00B33F49B7
:10316000C163A16B3E48C864A06B0564A06B456455
:10317000A06B8564A06B05652168238D1031626AA0
:10318000A06BFFF733FAA0B184F83D7084F83E508D
:1031900054F8400F40F0100044F80409257049E04D
:1031A00084F83D7084F83E5054F8400F40F08000A1
:1031B000F2E7CDE900864B4652465946204602F0DA
:1031C0006BFB88B1A06BFFF7C0F8A06BC5632068EC
:1031D000016821F4806101602585658520680168AA
:1031E00021F00101016025E0208D0128206813D025
:1031F000416841F4805141602068416981690091D2
:1032000084F83C50416841F4807141602068416815
:1032100041F4006141601BE0016821F480610160BC
:10322000EAE7CDE900864B4652465946204602F071
:1032300033FB08B101206AE7206841698169009188
:10324000016841F40071016084F83D7084F83C50DD
:1032500000205CE7580000200000FFFF99500008A4
:10326000595000082DE9F04186B006461421684601
:10327000FDF75EF85C4D5B4B32685B480327042129
:10328000103500244FF012089A4219D1026842F01A
:10329000020202600068029400F002000590CDE98D
:1032A0000371C020CDE9000869465048FFF7D6F900
:1032B000286840F400102860286800F400108FE0AF
:1032C0004B4B9A425CD1026842F0200202600068D7
:1032D00000F0200005900120CDE900780290CDE9B2
:1032E000037169464348FFF7B9F9286840F4800044
:1032F00028602868414D00F4800005903E48286011
:103300004FF06067C5E901744FF48068C5E9034870
:103310006C61AC61EC612C6228466C62FFF7FCF8D2
:1033200008B1FEF740F9B563AE63344D32486035FD
:103330007830E5E802074020A5E811012F4845F85C
:1033400014496030AC61EC612C626C62FFF7E4F808
:1033500008B1FEF728F97563002205212120AE632C
:1033600000F0EEF8212000F0DDF8002205212220F7
:1033700000F0E6F8222000F0D5F806B0BDE8F081B4
:103380001F4B9A42F9D1026842F0040202600268BF
:1033900002F004020592026842F001020260006835
:1033A000CDE9024700F0010005905815CDE900086D
:1033B0000E46049169461348FFF750F94FF48070A8
:1033C000CDE90008CDE90247694604960E48FFF7AB
:1033D00045F9286840F400002860286800F40000DF
:1033E0000590CAE700540040303802400004024013
:1033F00000580040001402404060024074C20120A6
:10340000005C004000080240000002407047704726
:103410000248816802781144816070474C000020A6
:103420000B4810B5016841F400710160016841F476
:1034300080610160016841F480710160032000F047
:103440009FF80F2000F006F800F050F8002010BDA3
:10345000003C024030B505461F4887B00024016893
:1034600041F008010160006806A900F00800009022
:1034700001A800F031F90498A8B100F04DF940001E
:103480001649174AB0FBF1F11648491E026040F296
:10349000E732C0E90324C0E90114846100F0B2FD01
:1034A000040003D015E000F037F9E9E70D4800F01B
:1034B00039FE04000DD1322000F034F8102D07D26F
:1034C00000222946322000F03BF80748056000E062
:1034D000012407B0204630BD4038024040420F0072
:1034E000000C0040CCC70120500000200C4882B0E6
:1034F000016841F480410160006800F48040009060
:103500000748001F016841F08051016000680022F7
:1035100000F0805000900F21901E02B000F010B813
:1035200044380240002809DB00F01F0201219140CD
:103530004009800000F1E020C0F800117047000051
:10354000F0B40E4B1B680C46C3F30223C3F107050E
:10355000042D00D90425191D072901D2002300E0FC
:10356000DB1E012606FA05F1491E214099409E40C6
:10357000761E16403143F0BC04F0CEBF0CED00E0E7
:10358000064900F0070208684FF6FF03184040EABA
:103590000220034A10430860704700000CED00E071
:1035A0000000FA052DE9F0470E46050065D0DFF86A
:1035B0001481D8F80000F7B200F00700B04207D23B
:1035C00088F80070D8F8000000F00700B04254D12D
:1035D00028683D4C810712D5400703D5206840F488
:1035E000E05020602878000703D5206840F4604050
:1035F00020602068A96820F0F00008432060287847
:10360000C0072DD0304968680839012812D0022837
:1036100013D0032811D00968890700292DDA216801
:1036200021F0030101432160FFF71AF9814641F2BD
:10363000883A0EE009688903EFE709688901ECE739
:10364000FFF70EF9A0EB0901514502D90320BDE8AF
:10365000F0872068696800F00C00B0EB810FEFD1B3
:10366000D8F80010404601F00701B14207D90770B1
:10367000006800F00700B04201D00120E7E7287899
:10368000400705D52068E96820F4E0500843206031
:103690002878000706D52068296920F4604040EAB0
:1036A000C100206000F058F82168084AC1F30311F6
:1036B000515CC8400649086006480068FFF7CAFE2A
:1036C0000020C4E7003C02400838024064CA0208F7
:1036D00058000020500000200F2202600C4A13689E
:1036E00003F003034360136803F0F003836013687F
:1036F00003F4E053C36012684FF4E05303EAD202CC
:1037000002610448006800F007000860704700008C
:1037100008380240003C0240044805490068096836
:10372000044AC1F38221515CC84070475800002010
:103730000838024074CA020804480549006809684C
:10374000044AC1F34231515CC84070475800002020
:103750000838024074CA0208154810B5006810F015
:103760000C02144813D01449042A0FD0082A0ED191
:103770000F4C241F2268236802F03F025B0207D52A
:103780002068C0F38810A0FB010106E0084610BDC8
:103790002168C1F38811A1FB00010023FCF770FD33
:1037A0002168C1F30141491C4900B0FBF1F010BD93
:1037B000083802400024F40040787D012DE9F84FDC
:1037C00004006ED02078DFF84C93C007A9F10405FF
:1037D0004AD009F104000168C1F38101012908D030
:1037E0000068C0F3810002280AD1D9F80000400225
:1037F00006D52868800337D560680028E1D033E01B
:103800006068B0F5803F10D0B0F5A02F286810D0C8
:1038100020F480302860286820F4802028606068C8
:10382000A8B1FFF71DF806460DE0286840F4803087
:10383000F4E740F480202860F7E700BFFFF710F8B6
:10384000801B642873D828688003F7D50CE0FFF745
:1038500007F8064605E000BFFFF702F8801B642862
:10386000F0D828688003F7D42078DFF8AC8280078E
:103870004FF0000A3ED5A748001D016811F00C0F5B
:1038800008D00068C0F3810002280BD1D9F80000ED
:10389000400207D42868800716D5E068012800D1C7
:1038A00012E033E1E068B8B10120C8F80000FEF78B
:1038B000D7FF064605E000BFFEF7D2FF801B0228B7
:1038C000C0D828688007F7D52868216920F0F8005B
:1038D00040EAC10028600DE0C8F800A0FEF7C0FF74
:1038E000064604E0FEF7BCFF801B02281FD82868AC
:1038F0008007F7D42078000722D5864F8748616972
:10390000703771B101210160FEF7AAFF064604E09D
:10391000FEF7A6FF801B022809D838688007F7D574
:103920000EE0C0F800A0FEF79BFF064605E082E02F
:10393000FEF796FF801B02287DD838688007F7D4F1
:103940002078400768D5DFF8CCB100270BF13C0B9D
:10395000DBF80000C0000BD4DBF8001041F0805110
:10396000CBF80010DBF80000012700F08050009039
:103970006B4E3068C00510D4306840F48070306001
:10398000FEF76EFF009005E0FEF76AFF0099401A0F
:10399000022850D83068C005F6D55E4EA0686C3657
:1039A00001280FD00528306810D020F001003060C9
:1039B000306820F004003060A068B8B1FEF750FF16
:1039C00000900FE0306840F00100F4E740F00400A0
:1039D0003060F7E7FEF744FF0099411A41F2883062
:1039E000814266D830688007F4D50EE0FEF738FFD4
:1039F000009007E0FEF734FF0099411A41F2883049
:103A0000814256D830688007F4D42FB1DBF800101B
:103A100021F08051CBF80010A069C8B33D49091DC1
:103A20000968C1F3810102294AD00228504607D013
:103A3000C8F8600000E03CE0FEF712FF04463BE0FF
:103A40004746C8F86000FEF70BFF064605E000BFDA
:103A5000FEF706FF801B02282BD828688001F7D4C8
:103A6000D4E907010843A16A2E4A490802EB014143
:103A7000626A41EA8211084394F82C1040EA01611D
:103A8000C9F8001001203866FEF7EAFE044606E099
:103A90003EE000BFFEF7E4FE001B022809D82868BC
:103AA0008001F7D534E000BFFEF7DAFE001B0228E4
:103AB00002D90320BDE8F88F28688001F4D427E0FC
:103AC0000128F7D0D9F80000E26900F480019142A2
:103AD0001CD1226A00F03F01914217D147F6C07114
:103AE000626A0140B1EB821F10D1A26A4FF0FF332E
:103AF00000F4403103EB5202B1EB024F06D194F8CF
:103B00002C1000F07060B0EB016F01D00120D1E704
:103B10000020CFE70438024000004742800E4742B1
:103B2000007000400000FFFF704790F851007047A0
:103B300038B5016804464A688868C043430606D51C
:103B4000C30704D1D3435B0601D4216C05E083078E
:103B500008D4D3431B0605D4616C01B02046BDE8F0
:103B600030400847830603D5430601D5C30551D429
:103B7000D3439B064ED443060AD494F85130032B0A
:103B800049D0636D43F004036365CB688B68009391
:103B9000830609D4636D43F0010363658B6800936A
:103BA0000B6823F040030B60C00506D4606D40F045
:103BB00008006065206880680090606D002829D04A
:103BC0002068416821F0E0014160012084F8510043
:103BD000900701D4D00722D02068416821F003016A
:103BE0004160114DE06C40B10565E06CFEF7ADFB46
:103BF00018B1606D40F040006065A06C002809D0ED
:103C00000565A06CFEF7A1FB002803D0606D40F0B5
:103C10004000606538BDC8688868009038BD20469F
:103C2000FFF782FF38BD00001D70000870B504006A
:103C300009D0606A002540B125616561A56294F8EC
:103C4000510040B10CE0012070BD6068B0F5827F8A
:103C5000F4D0E561F2E784F85050204600F044F8D3
:103C6000022084F851002068016821F040010160C1
:103C7000A088218900F4827001F404410843A189DD
:103C800001F400610843217C01F002010843217D19
:103C900001F001010843218B01F400710843217FE9
:103CA00001F03801084394F8201001F08001084326
:103CB000218D01F40051084321680860A0690421A6
:103CC00001EA104094F8241001F010010843216823
:103CD00048602068C16921F40061C1616565012007
:103CE00084F85100002070BD2DE9F04F87B00646E2
:103CF00014216846FCF71CFB4C4B316800244C48EF
:103D00000225032705224FF040094FF4806A4FF443
:103D1000003B994237D1464914310B6843F4805334
:103D20000B60096801F480510591016841F00201BE
:103D300001600068029400F0020005903820CDE98F
:103D40000005CDE9037269463A48FEF787FC3B4D12
:103D50003948286078066860C5E90294C5E904A47A
:103D6000AC61C5E9074B28466C62FEF7D5FB08B18C
:103D7000FDF719FCB564002205212320AE63FFF78F
:103D8000DFFB23204CE02E4B99424BD128491031C8
:103D90000B6843F480430B60096801F4804105918E
:103DA000016841F004010160016801F0040105911E
:103DB000016841F002010160006802AB00F00200FE
:103DC00005900C20CDE90005904683E890016946F6
:103DD0001C48FEF743FC4FF40050CDE9000502AB50
:103DE000694683E890011348FEF738FC134D1648E6
:103DF000603585E81102C5E9034A6C61AC61C5E92B
:103E0000074B28466C62FEF787FB08B1FDF7CBFB3A
:103E1000B564002205212420AE63FFF791FB242026
:103E2000FFF780FB07B0BDE8F08F000000300140D5
:103E30003038024000040240586402406C06002002
:103E400000380040000802407060024070B504462F
:103E500090F8510001281CD1C9B1C2B194F85000AA
:103E6000012816D0012084F85000032084F8510066
:103E7000002565652163A286E286A56365642564E5
:103E8000A587E587A068B0F5004F04D00DE00120BC
:103E900070BD022070BD2068016821F04001016002
:103EA0002068016841F480410160A16C17480864F2
:103EB000A16C1748C863A16C1648C864A06C05655E
:103EC000E38E2268216B0C32A06CFEF78FFB30B1C1
:103ED000606D40F01000606584F85050D7E72068AE
:103EE0000168490603D4016841F04001016084F88B
:103EF00050502068416841F02001416020684168CD
:103F000041F002014160002070BD00004F700008C8
:103F1000597000082D70000870477047704770474F
:103F200010B590F83C20012A22D0012280F83C20D4
:103F3000CA688C6822F4407222434C6822F4806282
:103F400022430C6822F4006222430C6922F480525E
:103F500022434C6922F400522243C969002322F40F
:103F600080420A4301684A6480F83C30002010BD5A
:103F7000022010BD70B590F83C20012A32D00124F7
:103F800080F83C40022280F83D2003685A689D6812
:103F900022F070060A6832435A60134B02689A4254
:103FA00014D0B2F1804F11D0104B9A420ED0104B6A
:103FB0009A420BD00F4B9A4208D00F4B9A4205D031
:103FC0000E4B9A4202D00E4B9A4204D1496825F01A
:103FD00080031943916080F83D40002180F83C1037
:103FE000084670BD022070BD000001400004004082
:103FF00000080040000C0040000401400040014067
:104000000018004010B5040003D094F83D0010B132
:1040100007E0012010BD002084F83C00204600F09D
:104020001FF8022084F83D00211D206803F040FAAB
:10403000012084F8460084F83E0084F83F0084F8AC
:10404000400084F8410084F8420084F8430084F87A
:10405000440084F8450084F83D00002010BD0000B5
:1040600008B52B4A01682B48914210D1016841F0F4
:10407000010101600068002200F0010000900521AC
:104080001820FFF75DFA1820FFF74CFA35E0214AB7
:10409000121FB1F1804F0BD01F4B994210D1106805
:1040A00040F002001060106800F00200009008BDAF
:1040B000106840F001001060106800F00100F5E7A2
:1040C000164A91420ED1016841F4803101600068C6
:1040D000002200F48030009005211820FFF730FA0C
:1040E000182010E00E4A9142E1D1016841F40031FC
:1040F0000160006800F400300090002206211920C1
:10410000FFF71EFA1920BDE80840FFF70BBA0000C0
:1041100000000140443802400004004000400140DB
:104120000044014090F83D10012901D00120704762
:10413000022180F83D100168CA6842F00102CA609D
:1041400000681149884214D0B0F1804F11D00F4956
:1041500088420ED00E4988420BD00E49884208D0C2
:104160000D49884205D00D49884202D00C49884249
:1041700004D1816801F00701062903D0016841F0EC
:104180000101016000207047000001400004004070
:1041900000080040000C00400004014000400140C5
:1041A0000018004070B5044690F83C000025012836
:1041B00017D0012684F83C60022084F83D00206876
:1041C000826822F0770222F47F42826008685028D9
:1041D00038D00DDC20284FD005DC90B3102811D149
:1041E0004AE0022070BD302846D040280AD13BE08A
:1041F00060282FD070280DD0B0F5805F03D0B0F5C7
:10420000005F12D0012584F83D60002084F83C0056
:10421000284670BDCB68D1E90121206803F0BDF9C3
:104220002068816841F0770109E0CB68D1E901217C
:10423000206803F0B2F92068816841F48041816010
:10424000E1E719E0CA684968206803F07BFA502169
:10425000206806E0CA684968206803F084FA602193
:10426000206803F0A4F9CEE7CA684968206803F023
:1042700069FA40212068F4E7226801461046F0E719
:1042800070472DE9F04104460068C66805694FF0A3
:104290000007A90713D5B10711D5F91E0161012047
:1042A0002077206880698007204602D0FFF7E8FF6A
:1042B00004E000F0FFF8204600F091F92777680746
:1042C00016D5700714D521686FF00400086102202C
:1042D00020772068806910F4407F204602D0FFF7E5
:1042E000CFFF04E000F0E6F8204600F078F92777E9
:1042F000280715D5300713D521686FF0080008612D
:10430000042020772068C0698007204602D0FFF78C
:10431000B7FF04E000F0CEF8204600F060F9277700
:10432000E80616D5F00614D521686FF01000086174
:10433000082020772068C06910F4407F204602D012
:10434000FFF79EFF04E000F0B5F8204600F047F9C3
:104350002777E80708D0F00706D021686FF0010042
:104360000861204600F0A0F9280608D5300606D5D9
:1043700021686FF0800008612046FFF7CFFD6806D6
:1043800008D5700606D521686FF040000861204608
:1043900000F020FAA8060AD5B00608D521686FF00B
:1043A000200008612046BDE8F041FFF7B8BDBDE838
:1043B000F0810000F0B587B0044614216846FBF791
:1043C000B7FF364A2368002435480225012193426D
:1043D00011D1026842F010020260006800F0100083
:1043E00005904FF4D4400090CDE90154CDE903414C
:1043F00069462C484DE003262B4A2C4FB3F1804FE1
:1044000024D02B498B4246D1016841F00101016063
:10441000016801F001010591016841F002010160AC
:104420000068694600F002000590C0200090CDE9C8
:1044300001541046CDE90345FEF710F90096CDE989
:10444000015469463846CDE9034522E0036843F04C
:1044500001030360036803F001030593036843F05D
:104460000203036000680096CDE901540E4600F097
:104470000200CDE90460694603941046FEF7EEF8A9
:104480004FF440600090CDE90154CDE90346694600
:104490003846FEF7E3F807B0F0BD00000000014029
:1044A0003038024000100240000002400004024088
:1044B00000040040704770B5044690F83C000026A8
:1044C0000D4601280FD0012084F83C006AB1042A6F
:1044D0001DD0082A2FD00C2A3FD00126002084F8B6
:1044E0003C00304670BD022070BD206803F068F8C3
:1044F0002068816941F0080181612068816921F0AB
:1045000004018161206881692A69114311E02068F2
:1045100003F086F82068816941F4006181612068B8
:10452000816921F480618161206881692A6941EA99
:1045300002218161D2E7206803F0A8F82068C169F0
:1045400041F00801C1612068C16921F00401C16125
:104550002068C1692A69114311E0206803F0CAF894
:104560002068C16941F40061C1612068C16921F41A
:104570008061C1612068C1692A6941EA0221C16183
:10458000ACE710B5040003D094F83D0010B107E08B
:10459000012010BD002084F83C00204600F01EF8E9
:1045A000022084F83D00211D206802F081FF0120D7
:1045B00084F8460084F83E0084F83F0084F8400008
:1045C00084F8410084F8420084F8430084F84400F1
:1045D00084F8450084F83D00002010BD7047704706
:1045E00010B50446022249B104290ED0082913D07F
:1045F00094F84100012816D0012010BD94F83E0027
:104600000128F9D184F83E200FE094F83F000128FA
:10461000F2D184F83F2008E094F840000128EBD163
:1046200084F8402001E084F841200122206802F053
:10463000A7FF16492068164A884201D0904203D14C
:10464000436C43F4004343642068884213D0B0F1C4
:10465000804F10D00F4988420DD00F4988420AD0B0
:104660000E49884207D0904205D00D49884202D0B9
:104670000C49884204D1816801F00701062903D062
:10468000016841F001010160002010BD00000140FF
:10469000000401400004004000080040000C0040FD
:1046A00000400140001800402DE9F0470546006831
:1046B0004349444C884202D1E068401CE0604249D2
:1046C0002868884271D12069401C2061FCF76EFF88
:1046D00001F084FB60690026401C6061B0F57A7FC0
:1046E00000D3666100240327384A01234FF00409F0
:1046F00004EBC400811891F805C0BCF1010F0BD088
:1047000081F8066012F800C0BCF1050F49D2DFE85D
:104710000CF00A141E28440091F806C00CF1010C9C
:1047200081F806C0EEE791F801C0BCF1000F01D09E
:104730000E7236E013544B7133E091F806C0BCF1B1
:10474000050F2ED9497839BB0221115429E091F87F
:1047500001C0BCF1010F24D18979C82921D2175495
:104760001FE091F801C0BCF1000F03D0BCF1010FB4
:1047700007D016E002F800904E710B71CF710F72E6
:104780000FE091F806C0BCF1960F0AD302F8009032
:104790004E718B70CB710B7203E04978012900D107
:1047A0001654641CE4B2032CA2D309492868884239
:1047B00003D1BDE8F047FEF72BBEBDE8F08700004F
:1047C0000040014004000020004401408803002014
:1047D000000C00407047704710B5044600684069FF
:1047E00094F84110C0F3C010212911D180B1206884
:1047F000143050E8001F21F0800140E80012002A28
:10480000F5D1A06B08B1FDF757FD204603F0D8F8AD
:104810002068406994F84210C0F38010222911D119
:1048200080B12068143050E8001F21F0400140E8BA
:104830000012002AF5D1E06B08B1FDF73DFD2046DE
:1048400003F097F8002010BD70470000F8B501682C
:1048500004460868CA684B6910F00F0F4FF0000556
:1048600059D003F0010602F49077374365D0C107B1
:1048700005D0D10503D5616C41F0010161644107A8
:1048800005D5D90703D0616C41F00201616481074D
:1048900005D5D90703D0616C41F0040161640107BB
:1048A00007D502F02001314303D0616C41F00801CB
:1048B0006164616C00293AD0800604D5900602D567
:1048C000204603F031FC20684069616CC0F3801021
:1048D000090700D460B3204603F04BF82068406914
:1048E000400621D52068143050E8001F21F0400117
:1048F00040E80012002AF5D1E06BA8B172490165C9
:10490000E06BFDF722FD002811D0E06B016D01B0D6
:10491000BDE8F040084783060FD593060DD5204625
:10492000BDE8F84003F000BC2046FFF78DFFF8BD5E
:104930002046FFF789FF6564F8BD266B2023012E12
:104940007ED1C6067CD5D6067AD508684868009020
:1049500048694FF0020640064DD5E26B106840688A
:104960004FF480770004000C3AD0A18D814237D9F2
:10497000E085D069B8422DD020680C3050E8001F87
:1049800021F4807140E80012002AF5D1206814302B
:1049900050E8001F21F0010140E80012002AF5D183
:1049A0002068143050E8001F21F0400140E8001258
:1049B000002AF5D184F84230256320680C3050E895
:1049C000001F21F0100140E80012002AF5D1E06B31
:1049D000FDF772FC6663A08DE18D401A81B206E09E
:1049E000A18D8142A8D1D069B842A5D16663204685
:1049F000FFF7F1FEF8BDA08DE18D401A81B2E08D88
:104A00000028F7D00029F5D020680C3050E8002F9E
:104A100022F4907240E80027002FF5D1206814306E
:104A200050E8002F22F0010240E80027002FF5D1C6
:104A300084F84230256320680C3050E8002F00E0F5
:104A400006E022F0100240E80023002BF3D1CDE76E
:104A500005062BD5150629D594F841002128C9D182
:104A6000A068B0F5805F01D12069B0B1206A411C17
:104A70002162216800784860E08C401E0004000C30
:104A8000E084B7D12068C16821F08001C16020684E
:104A9000C16841F04001C160F8BD206A0088C0F3E0
:104AA00008004860206A801C2062E5E74006F3D5D4
:104AB0005006F1D5CA68204622F04002CA6084F848
:104AC000413000F0FFF9F8BD7778000870B50400B8
:104AD00004D094F84100002510B106E0012070BD1B
:104AE00084F84050204600F023F8242084F8410048
:104AF0002068C16821F40051C160204603F076FBB4
:104B00002068016921F4904101612068416921F028
:104B10002A0141612068C16841F40051C1606564A7
:104B2000202084F8410084F842006563002070BDB5
:104B30002DE9F04F87B0044614216846FBF7F8FBD7
:104B4000A248A149D4F800C0A04A10380226032781
:104B50009F4B00254FF008088C4516D1116841F491
:104B600000211160116801F400210591016841F0F4
:104B7000040101600068694600F004000590B80275
:104B8000CDE90006184602AC2AE092498C452ED1A8
:104B9000116841F480111160116801F480110591D0
:104BA000016841F004010160016801F00401059110
:104BB000016841F008010160006802AC00F00800E3
:104BC00005904FF48050CDE9000684E8A0016946C5
:104BD0001846FDF743FD0420CDE900067E486946EE
:104BE00084E8A001FDF73AFD07B0BDE8F08F7B4BEC
:104BF000DFF8D891072109F104094FF0006A4FF45A
:104C0000806B9C4551D1D9F8003043F01003C9F8AE
:104C10000030D9F8002002F010020592026842F03C
:104C2000010202600068029500F001000590CDE9E4
:104C300003714FF4C060CDE9000669466848FDF78E
:104C40000DFD694E6748D846E6E8020A4020A6E80E
:104C50002101574646F814596348B561F56135623C
:104C60007562FDF759FC08B1FCF79DFCA663B463BF
:104C70005D4E5C48603678383060C6E90175C6E93B
:104C800003587561B561F561356230467562FDF7AF
:104C900043FC08B1FCF787FCE663002205212520D0
:104CA000B463FEF74DFC25204EE0504B9C454ED1A1
:104CB000136843F400331360126802F40032059263
:104CC000026842F0080202600068029500F00800E5
:104CD0000590CDE903716020CDE9000669463E48A4
:104CE000FDF7BCFC404E4248C036D0463060C6E9B5
:104CF00001A5C6E9035B7561B561F56135625F4683
:104D000030467562FDF708FC08B1FCF74CFCE66321
:104D1000B4633748374E1830E6E802084020A1C691
:104D2000344846F81459B561F56135627562FDF78E
:104D3000F3FB08B1FCF737FCA6630022052126200F
:104D4000B463FEF7FDFB2620FEF7ECFB4CE72A4B95
:104D50009C4519D1136843F480231360126802F450
:104D600080220592026842F0080202600068029503
:104D700000F008000590CDE903714FF44070CDE9D3
:104D80000006694614482DE71C498C45DED1D9F848
:104D9000002042F02002C9F80020D9F8001001F0EC
:104DA00020010591016841F040010160006802AAFC
:104DB00000F0400005904FF48440CDE9000682E801
:104DC000A00169460E480DE7004C00404038024003
:104DD0000008024000500040000C0240001001405A
:104DE00000000240B86402404CC60120004400406C
:104DF000886002406CC70120004800400014014058
:104E00000018024090F84230202B01D00220704759
:104E100021B11AB10023036303F06EBA0120704779
:104E2000704770472DE9F843044690F841009846D2
:104E300016460D46202802D00220BDE8F88385B131
:104E40007EB100206064212084F84100FDF708FD58
:104E5000A6848146E684A0682027B0F5805F02D052
:104E600003E00120E9E7206910B12E4600250EE09D
:104E700000260CE08021204603F0A0FAA8B9C6B1B4
:104E800016F8010B21684860E08C401EE084E08C3D
:104E90004B464FF00002CDF800800028EAD14FF0D9
:104EA0004001204603F08AFA40B184F841700320A3
:104EB000C3E735F8020BC0F30800E3E784F841705C
:104EC0000020BAE77047FEE708B54FF4C8700090BD
:104ED000411E009101D30846FAE708BD30B587B0FE
:104EE00014216846FBF724FA2448016841F02001A8
:104EF00001600068224D00F020000590012203218E
:104F00002846FDF7A8FC03201121CDE9000101216D
:104F1000CDE9021069462846FDF7A0FB00240022D7
:104F200002212846FDF797FCFFF7CEFF0122022160
:104F30002846FDF790FCFFF7C7FF01212846FDF743
:104F400085FC012803D0641CE4B2102CE7D30022B6
:104F500001212846FDF77FFCFFF7B6FF0122022161
:104F60002846FDF778FCFFF7AFFF012211462846DF
:104F7000FDF771FCFFF7A8FF07B030BD30380240E5
:104F8000001402400148FDF773BC0000CCC10120B1
:104F90000148FDF7CABC0000CCC1012038B5806BC8
:104FA000002190F83D202B4B46F2A8141B68B3FB60
:104FB000F4F3C3EBC30303EB830300933BB15B1E2A
:104FC000009303681B689B0505D5009BF6E7036CFF
:104FD00043F020030364436B03B1D963836B03B1D4
:104FE000D96303681C6824F480641C604185436BAA
:104FF00003B11965836B03B1196503681C6824F05C
:1050000001041C6090F83D402023602C0BD0282424
:1050100034EA02020FD080F83D3080F83E1000BF25
:10502000FDF79CFD38BD80F83D3080F83E100164EE
:10503000FDF71CFC38BD0268136843F001031360E0
:105040000268136843F480631360016380F83D4095
:10505000E6E700005800002070B5846B0025616B06
:1050600001B1CD63A16B01B1CD63FDF780F90228D9
:1050700011D02068016821F48061016065852020DD
:1050800084F83D0084F83E50206C40F0100020640D
:105090002046FDF763FD70BD2DE9F041846B94F867
:1050A0003D2094F83E50E16A2068436823F4407341
:1050B0004360636B002003B1D863A36B03B1D86373
:1050C000212333EA02074FF022060CD036EA02070A
:1050D00001D1202D07D094F83E20002A21D0628DE6
:1050E000012A20D024E021684D6825F400654D6038
:1050F00060852820292A02D02A2A07D00CE02363C1
:1051000084F83D002046FEF782F905E0266384F826
:105110003D002046FEF77AF92068416841F440716D
:105120004160BDE8F0812268136823F48063136056
:105130002268536823F44073536011F5803F06D012
:10514000082904D0B1F12A4F01D0202904D12268C6
:10515000136843F4007313602268536823F4805388
:1051600053602268536823F4006353606085226CA7
:105170001AB12046FDF7F2FCD3E7202284F83D2047
:1051800094F83E2084F83E00402A09D0082902D035
:10519000202900D0122020632046FDF766FEC0E7DC
:1051A00020632046FDF764FEBBE700684169C94300
:1051B000090601D4002101617047000070B5044662
:1051C00090F83D0094F83E10102901D0402906D1F6
:1051D000222804D121680A6822F400620A6028218A
:1051E00031EA00024FF000054FF0200626D021687A
:1051F0004968090505D4602803D084F83D6084F827
:105200003E50256320684168090537D5416821F47F
:1052100000614160606B90F835203C49012A11D053
:105220000165606BFDF791F838B32068016821F0E3
:105230000101016084F83D60606B1CE0256384F827
:105240003D10DFE7A06B0165A06BFDF77EF8A0B114
:1052500020684169C943490605D40069616A08703C
:10526000606A401C60622068016821F001010160F1
:1052700084F83D60A06B016D884710E094F83D1004
:10528000602910D04169C943490605D40069616AA3
:105290000870606A401C60622046FDF75FFC206C6D
:1052A000C1071CD115E084F83D6025644169C943FC
:1052B000490605D40069616A0870606A401C606232
:1052C0002068016821F0010101602046FDF7CEFA57
:1052D000E5E7810703D4410701D4000704D520681E
:1052E000416821F4E061416094F83D00216C490778
:1052F0000BD5282809D10648E062256384F83D6073
:1053000084F83E502046FDF7AFFD70BD9D4F00086C
:105310000000FFFF01684A69D24352050FD46FF4C1
:1053200080624A61002140F8301F2022427381735D
:10533000026942F0040202610173012070470020FB
:10534000704710B5C26A438D0168042B06D0438DA7
:10535000032B08D0438D022B1DD012E04A6822F4A3
:1053600080624A600CE04B6823F480634B60042A3F
:1053700006D0022A04D001680A6822F480620A601A
:1053800001680969426A1170416A491C4162418D94
:10539000491E418510BD012A34D0102A32D0042A7A
:1053A00034D0022A32D00B6843F400730B600168DA
:1053B0000969436A1970416A491C4162438D5B1E49
:1053C000438503681B690B70416A491C4162418D2A
:1053D000491E418501684B6823F440734B602021CE
:1053E00080F83D1090F83E300021402B80F83E10B0
:1053F00010D0082A02D0202A00D012210163FDF724
:1054000034FD10BD0B6823F48063CFE70B6843F4D1
:105410008063CBE70163FDF72BFD10BD38B590F835
:105420003D10222910D1C36A418D03290DD901688D
:105430000969426A1170416A491C4162418D491EE5
:105440004185418D032906D038BDC26A022A02D0A7
:10545000012906D029B10068416821F480614160CA
:1054600038BD2A4A46F2A81400211268B2FBF4F2B1
:1054700002EB8202009202682024009D6D1E0095BE
:1054800026D01568AD05F8D4156825F4806515603B
:105490000268556825F4E065556002681269456A3E
:1054A0002A70426A521C4262428D521E428580F826
:1054B0003D4090F83E2080F83E10402A21D0082B35
:1054C00002D0202B00D012210163FDF7CEFC38BDA5
:1054D000036C43F020030364536823F4E0635360D8
:1054E00002681269436A1A70426A521C4262428D13
:1054F000521E428580F83D4080F83E10FDF72EFB9D
:1055000038BD0163FDF7B4FC38BD00005800002031
:1055100010B5C26A90F83D1021290BD1418D51B1CF
:10552000416A026809781161416A491C4162418DF2
:10553000491E418510BD20230021082A13D0202AAE
:1055400011D012F5803F0ED00268546824F4E06454
:1055500054601122026380F83E1080F83D3000BF95
:10556000FDF784FC10BD0268546824F4E0645460C4
:105570000268146844F400741460016380F83D30DC
:1055800090F83E2080F83E10402AE9D1FDF780FCDB
:1055900010BD000010B590F83D1090F83E30C26A82
:1055A000048DB4B1212903D0402B11D122290FD170
:1055B000418DE1B390F83E10402942D0416A026823
:1055C00009781161416A491C4162418D491E41853A
:1055D00010BD2129E8D120230021082A13D0202A38
:1055E00011D012F5803F0ED00268546824F4E064B4
:1055F00054601122026380F83E1080F83D3000BFF5
:10560000FDF734FC10BD0268546824F4E064546073
:105610000268146844F400741460016380F83D303B
:1056200090F83E2080F83E10402AE9D100E002E0E8
:10563000FDF72EFC10BD0068416821F480614160D7
:1056400010BDBDE8104000F0D3B8000078B590F868
:105650003E50C26A036B90F83D6000240168222E20
:105660007AD1066D0EB9402D76D0056D1DB905694C
:10567000B5F5404F09D0458D05B3468D384D012E07
:105680000ED0438D022B3AD05DE04A698A690092C0
:105690000A6842F480720A60016D491C016578BD98
:1056A000AA4213D10A6822F480620A6001684A683B
:1056B000120503D50A6822F4806216E04A698A69F5
:1056C00000920A6842F400720A6039E0082A10D099
:1056D000202A0ED0122B0AD0042A03D0022A01D08D
:1056E000102AE7D10A6842F480620A6024E0012AA5
:1056F000E0D00A6822F480620A600168DEE7042ACA
:1057000021D0022A1FD0102A1DD00B6823F48063F9
:105710000B6001680B6843F400630B6001684B6821
:105720001B0509D5AA4212D0012A10D0082A0ED092
:10573000102A0CD0202A0AD001684A698969009190
:10574000046578BD08E00B6843F48063E5E74A68C8
:1057500042F480524A60EFE7486988690090F0E7B8
:105760000000FFFF90F83E10402910D00169B1F50C
:10577000804F19D0016DA9B3016D012910D1416C81
:105780005FF0F10201F4407142EAD11106E0016DCF
:105790000029416C05D0C9B241F0010100680161E6
:1057A000704701F0FE01F9E790F83D102129416CA6
:1057B00009D0C9B241F0010102681161416B29B100
:1057C000C96B49B902E001F0FE01F5E7816B0029E0
:1057D000E6D0C96B0029E3D00068416841F400615C
:1057E00041607047FFE7416CF02201F44071CBE764
:1057F00010B590F83D10026D4AB1026D012A14D027
:10580000026D022A16D0BDE81040FFF7CEBCC16C75
:105810000129816C02D0C1F3072108E00268C9B2F6
:105820001161016D891C016510BD816CC9B20268EE
:10583000116123E022291CD0428D0AB1212920D0F8
:10584000428D002AF0D12129EED101684A6822F464
:10585000E0624A6001680A6842F400720A6000214E
:105860000163202280F83D2080F83E10FDF710FBF8
:1058700010BD01680A6842F480720A60016D491C1B
:10588000D1E7416A026809781161416A491C4162A5
:10589000418D491E418510BD2DE9F84F0446006831
:1058A00089460B9D01689846174641F48061016066
:1058B0002068016841F48071016000954FF0011B80
:1058C0000022594620460A9B00F07EF94FF4007AE8
:1058D00040B120680068C00501D5C4F840A003208D
:1058E000BDE8F88F216809F0FE0008612B462849C1
:1058F00020460A9A00F0B0F9F0BB2068416980693F
:1059000000902A4620460A9900F03CFA40B1206CEB
:1059100004283AD12068016841F40071016034E044
:10592000FEB2B8F1010F09D02168380A08612A4691
:1059300020460A9900F026FA0028E8D1206806617E
:105940002A4620460A9900F01DFA0028DFD1206877
:10595000016841F48071016000950022594620469B
:105960000A9B00F031F90028B3D1216809F0FF004B
:1059700040F00100086100E007E02B4604492046A2
:105980000A9A00F069F90028AAD00120A8E70000CF
:105990000200010038B50C4690F83D200021282572
:1059A000954302680B4605D051699169009180F8D2
:1059B0003C3038BD556825F480655560E243540796
:1059C00000D50121120601D5828900E0028B80F802
:1059D0003C3092B2FCF74BFF38BD00002DE9F0419E
:1059E00090F83D300446C26A002120261E4F006810
:1059F0006FF48065082A01D0202A01D1282B04D019
:105A0000212B17D04561BDE8F081E762426822F49E
:105A1000E0624260206845612068026822F480628A
:105A20000260216384F83D6084F83E102046FDF753
:105A30001BFAE8E7E7622122226384F83D6084F8DC
:105A40003E10416821F4E0614160206845612068B2
:105A5000016821F4806101602046FFF7A6FB204623
:105A6000FDF7D5FCCFE700000000FFFFF8B590F888
:105A70003D6004460068416821F4E06141602068AF
:105A8000002541690091016841F001010160206831
:105A9000016821F48061016020684168090520D512
:105AA000474F222E48D02A2E46D0616B096849689C
:105AB0006185618D19B1216C41F004012164416857
:105AC00021F400614160606BFCF753FC012808D0B1
:105AD000606B0765606BFCF738FC10B1606B016DA3
