:020000040800F2
:10000000B09601205D0200080B59000893460008D5
:1000100009590008450E0008C168000800000000EA
:100020000000000000000000000000009D0100082A
:100030003910000800000000F9010008D95E00082E
:1000400077020008770200087702000877020008AC
:10005000770200087702000877020008770200089C
:10006000770200087702000877020008770200088C
:1000700077020008290F000877020008350F0008F2
:10008000410F00084D0F0008E50B0008770200083B
:10009000770200087702000877020008770200085C
:1000A000995F0008B55F0008770200087702000832
:1000B000770200087702000877020008770200083C
:1000C000770200087702000877020008295B000821
:1000D000355B00084D670008B56800087702000826
:1000E000770200087702000877020008770200080C
:1000F000770200087702000877020008590F00080D
:100100007702000877020008D15F00087702000834
:1001100077020008770200087702000877020008DB
:10012000650F000877020008710F00087D0F0008B6
:1001300077020008770200087702000877020008BB
:1001400077020008770200087702000877020008AB
:100150007702000877020008890F0008770200087C
:10016000770200087702000877020008770200088B
:1001700077020008770200087702000800000000FC
:100180007702000877020008DFF80CD000F010FCBE
:10019000004800474D460208B09601202C4B1968D4
:1001A0000868B0E8F04F80F30988BFF36F8F4FF015
:1001B000000080F3118870470000000008480068C4
:1001C000006880F308884FF0000080F3148862B65E
:1001D00061B6BFF34F8FBFF36F8F00DF00BF00BF6B
:1001E00008ED00E0DFF80C00016841F470010160E7
:1001F000704700BF88ED00E0EFF30980BFF36F8F19
:10020000134B1A681EF0100F08BF20ED108A20E96A
:10021000F04F106009B44FF0500080F31188BFF325
:100220004F8FBFF36F8F29F0DFFE4FF0000080F398
:10023000118809BC19680868B0E8F04F1EF0100F6B
:1002400008BFB0EC108A80F30988BFF36F8F704746
:1002500038C00120EFF30580704700000648804752
:1002600006480047FEE7FEE7FEE7FEE7FEE7FEE79B
:10027000FEE7FEE7FEE7FEE7895F00088901000868
:100280002DE9F05F0546002092469B4688460646CB
:10029000814640241BE0284641464746224600F05E
:1002A00076FA53465A46C01A914110D31146184661
:1002B000224600F05DFA2D1A67EB01084F462246F0
:1002C0000120002100F054FA17EB00094E41201ED6
:1002D000A4F10104DFDC484631462A464346BDE826
:1002E000F09F10B5431A934209D28318881803E08F
:1002F00010F8011D03F8011D521EF9D210BD40EA8D
:1003000001039B0703D009E008C9121F08C0042A93
:10031000FAD203E011F8013B00F8013B521EF9D27A
:1003200010BDD2B201E000F8012B491EFBD270478C
:100330000022F6E710B513460A4604461946FFF7B1
:10034000F0FF204610BD421C10F8011B0029FBD114
:10035000801A704710B5002200E0521C835C8C5C50
:10036000A34201D1002BF8D1D8B2E1B2401A10BD9E
:10037000034611F8012B00F8012B002AF9D1184689
:1003800070472DE9FE4F804681EA0300C00F0C46FE
:10039000009021F0004123F00045B8EB0200A94194
:1003A00005D24046214690461C460B46024623F0A5
:1003B0000040104347D0270DC7F30A00C3F30A518A
:1003C0000290401A019040286BDAC3F3130040F406
:1003D000801B0098924620B10023D2EB030A63EB06
:1003E0000B0B01985946C0F14002504600F0C0F98D
:1003F00006460D4650465946019A00F0D8F910EBD2
:1004000008006141002487EA115284EAE7731A4325
:1004100040D0009A62B3019A012A4FEA075215DCD4
:10042000001B61EB02014FF0004202EA0752CDE9E6
:100430000042001C41F5801132462B4600F00FFAB5
:1004400003B0BDE8F08F40462146F9E7001B61EBA1
:100450000201001C41F5801300185B412018A2F531
:10046000001747EB030140EAD570B6196D4111E062
:100470006D084FEA360645EAC0754FEA0752001B81
:1004800061EB0201001C41F5801149084FEA300080
:100490000019514132462B4603B0BDE8F04F00F041
:1004A000CFB90098012240000023D0EB020263EB99
:1004B000E073009821464FEAE074B8EB000061EB6E
:1004C0000401E9E783F000435BE781F0004158E76E
:1004D0002DE9FE4F81EA030404F0004421F00041BD
:1004E00000944FF0000B23F0004350EA01045ED06B
:1004F00052EA03045BD0C3F30A54C1F30A552C44F7
:10050000A4F2F3340194A0FB0254C1F3130141F4AB
:100510008011C3F3130343F4801301FB024400FB77
:10052000034E840A970A44EA815447EA8357A4FB9E
:10053000076802958D0A05FB07854FEA932C04FB9B
:100540000C542705029D4FEA065847EA1637B5EBCB
:1005500008056EEB070C870E920E47EA811742EAF8
:100560008312A7FB0201B6EB0B0164EB00042B0D19
:1005700043EA0C335E1844EB1C50DA465146E7FB65
:100580000201C5F313044FEA0B3343EA14534FEA55
:100590000432019C43EA0603A4F10C040294009C7B
:1005A000CDE900B400F05BF903B0BDE8F08F0020A6
:1005B0000146F9E72DE9F04D81EA030404F0004B10
:1005C00021F0004514464FF0000A23F0004150EAA4
:1005D000050220D054EA01021DD0C5F30A57024695
:1005E000C5F31303C1F31300C1F30A5640F4801599
:1005F00043F48013A7EB0608101BD64608F2FD381B
:1006000073EB050002D308F1010801E092185B4189
:10061000B8F1000F03DA00200146BDE8F08D00209C
:100620004FF48011064684460EE0171B73EB050756
:1006300005D3121B63EB050306434CEA010C490882
:100640004FEA300092185B4150EA0107EDD152EABF
:10065000030012D082EA040083EA0501084305D0B2
:10066000101BAB4106D20122002306E000224FF00E
:10067000004302E06FF0010253101AEB06004CEB4E
:10068000085110EB0A0041EB0B01BDE8F04D00F002
:10069000D7B80EB5C10F80EAE0700844CA07002140
:1006A00040F233438DE80E000A460B4600F0D7F8BF
:1006B00003B000BD00F0004230F000400AD0C10D90
:1006C00001F56071C0F3160042EA0151C20840070B
:1006D00011437047002001467047000030B5041EEA
:1006E00071F1000404DB4FF00044404264EB01016F
:1006F000141E73F1000405DB1C464FF00043524208
:1007000063EB0403994208BF904230BD01F00043FF
:1007100030B421F0004150EA010206D00A0DA2F5E2
:100720006072C1F31301002A02DC30BC0020704764
:10073000440F44EAC104C100E01830BC00EBC250D1
:1007400000F047B830B50B460146002020220124B6
:1007500009E021FA02F59D4205D303FA02F5491B8F
:1007600004FA02F52844151EA2F10102F1DC30BDA5
:10077000202A04DB203A00FA02F100207047914061
:10078000C2F1200320FA03F3194390407047202A56
:1007900004DB203A21FA02F00021704721FA02F32B
:1007A000D040C2F120029140084319467047202AE8
:1007B00006DBCB17203A41FA02F043EAE07306E089
:1007C00041FA02F3D040C2F1200291400843194699
:1007D00070470029A8BF7047401C490008BF20F09F
:1007E0000100704710B4B0FA80FC00FA0CF050EA37
:1007F000010404BF10BC704749B1CCF1200421FAB8
:1008000004F411FA0CF118BF012121430843A3EBB2
:100810000C01CB1D4FEA00614FEA102042BF0020BF
:1008200010BC704700EBC35010440029A4BF10BC9B
:100830007047401C490008BF20F0010010BC704701
:1008400010B5141E73F1000408DA401C41F10001D8
:1008500092185B411A4301D120F0010010BD2DE92F
:10086000F04D92469B4611B1B1FA81F202E0B0FA26
:1008700080F220329046FFF77BFF04460F4640EAA5
:100880000A0041EA0B0153465A46084313D0114669
:1008900053EA010019D0C8F140025046FFF777FF34
:1008A00005460E46504659464246FFF761FF08434B
:1008B00005D0012004E020463946BDE8F08D002037
:1008C000054346EAE0762C4337430A986305E40A79
:1008D000A0EB08000022FD0A44EA47540A3002D582
:1008E00000200146E9E7010510196941DDE90845E5
:1008F00000196941BDE8F04DA2E72DE9FE4FC3F3B1
:100900000A5701F000450024C1F30A56C3F313034C
:10091000C1F3130143F4801312EB020AA64641F41B
:100920008011009543EB030CA7F1010B16E0B0EB2F
:100930000A0061EB0C01071E71F1000707DA4FF0A6
:100940000008D0EB080085F0004568EB0101171A9C
:1009500073EB0107EBD3761E001849415E45F6DACA
:1009600050EA010209D0CDE900E5002213460296C3
:10097000FFF775FF03B0BDE8F08F20460099F9E757
:10098000C1F30A52C1F3130140F2FF3341F4801165
:100990009A4202DA00200146704740F233439A42FD
:1009A000A2F2334202DC5242FFF7F1BEFFF7E0BE93
:1009B000064C074D06E0E06840F0010394E80700AC
:1009C00098471034AC42F6D3FFF7E2FBACFC0208C8
:1009D000ECFC020870B58C1810F8015B15F00703E9
:1009E00001D110F8013B2A1106D110F8012B03E0C8
:1009F00010F8016B01F8016B5B1EF9D12B0705D4D0
:100A00000023521E0DD401F8013BFAE710F8013B18
:100A1000CB1A921C03E013F8015B01F8015B521E34
:100A2000F9D5A142D8D3002070BD00009FED221A55
:100A30009FED222A20EE010AB5EE001A30EE010ADF
:100A4000BDEEC01A11EE100AB5EE400AF1EE10FA32
:100A5000B8BF013801EE100AB8EEC11A30EE410AF3
:100A600020EE020ABDEEC01A9FED152A11EE100A03
:100A7000002130EE021AB1EB502F4FF2A8411CBFFB
:100A80000020B0EE410AC0F6020101EE100A01EBAF
:100A90008001B8EE411A30EE410A91ED001A91ED55
:100AA000012AB7EE003A33EE403A23EE011A20EE67
:100AB000020A31EE000A704783F9223E000000442A
:100AC000000000C49FED201A9FED202A20EE010AAD
:100AD000BDEEC01A11EE100AB5EE400AF1EE10FAA2
:100AE000B8BF013801EE100AB8EEC11A30EE410A63
:100AF00020EE020ABDEEC01A9FED152A11EE100A73
:100B0000002130EE021AB1EB502F4FF2A8411CBF6A
:100B10000020B0EE410AC0F6020101EE100A01EB1E
:100B20008001B8EE411A30EE410A91ED001A91EDC4
:100B3000012AB7EE003A33EE403A23EE011A20EED6
:100B4000020A31EE000A704783F9223E0000004499
:100B5000000000C410B50146806B026C12F0500F0B
:100B600005D0026CD20626D500F042FD10BD016C06
:100B700041F40071016401688A6812F0405F17D186
:100B8000027EAAB9CA6A12F4700F02D08A685205AE
:100B90000ED44A6822F020024A60016C21F4807170
:100BA0000164016CC90403D4016C41F001010164CA
:100BB00000F01CFD10BD806BC26CBDE81040084603
:100BC000104710B5806B40210164416C41F0040175
:100BD000416400F00DFD10BD10B5806B00F007FD05
:100BE00010BD000010B5044800F003FDBDE8104042
:100BF000024800F0FEBC0000F8C2012040C3012002
:100C0000464910B54A6822F440324A604A6843684F
:100C10001A434A6001684A6822F480724A60016897
:100C20004A68036942EA03224A6001684A6822F07E
:100C300040724A6001684A6883681A434A600168E2
:100C40008A6822F400628A6001688A68C3681A436D
:100C50008A60816A6FF07062D14201688A6822F00E
:100C600070628A6001688A680CD0836A1A438A605D
:100C700001688A6822F040528A6001688A68C36A03
:100C80001A4301E022F040528A6001688A6822F02B
:100C900002028A6001688A68037E42EA43028A602F
:100CA00090F82010002901684A680FD042F40062D1
:100CB0004A6001684A6822F460424A6001684A68F2
:100CC000174C436A04EB43331A4301E022F40062F9
:100CD0004A600168CA6A22F47002CA620168CA6A7C
:100CE000838B104C04EB03531A43CA6201688A6871
:100CF00022F400728A6001688A6890F8303042EA13
:100D000043228A6001688A6822F480628A600168EE
:100D10008A68406942EA8020886010BD0023014053
:100D200000E0FFFF0000F0FF90ED020A70470000B6
:100D30007FB59FED170A01600446002680ED020A88
:100D400024F050F80025E060A571E5710A224FF407
:100D50007A736C21206801F0E9FB012118B1084683
:100D6000256004B070BD8DF80C5003A864238DE895
:100D70000B000B2201236C21206801F08FFC9DF8F1
:100D80000C00810601D42560EBE73046E9E700005E
:100D90000000000030B504002DED028B83B044D07C
:100DA000A01D0221CDE900010C2201236C21206845
:100DB00001F076FD002838D1A179E07901F00F012A
:100DC00040EA0125A0889FED1B8B281A00B2B0F5E0
:100DD000006F12DBA0F6FF704042FFF75AFC53ECA5
:100DE000182BFFF775FB41EC180BA068FFF762FCAE
:100DF00053EC182BFFF766FB13E010F5006F01DCD6
:100E000000F6FF70FFF745FC53EC182BFFF760FB73
:100E100041EC180BA068FFF74DFC53EC182BFFF7C3
:100E2000B0FAFFF773FCA060A58003B0BDEC028BA5
:100E300030BD0000AAD75C8B8D23593F052024F0DC
:100E4000ABF9FBE7FEE7000090ED000A90ED011A18
:100E5000F6EE000A01EE600A90ED021A01EE600A59
:100E600081ED000AD0ED010A9FED050A90ED021A0E
:100E700060EE800A41EE400AC1ED010A70470000B1
:100E80002DB25D3F10B50121214800F07DFA214CC3
:100E90000221A0801E4800F077FA608003211C48E0
:100EA00000F072FA80B200EE100ADFED1B0A9FED2F
:100EB0001B1AB8EE400A20801A4860EE201A9FEDF7
:100EC000180AB0EE402A11EE812AF1EE001A22EE45
:100ED000212A80ED002A618802EE101AB8EE422A1B
:100EE00062EE202AB0EE402A12EE812A22EE212A5A
:100EF00080ED012AA18802EE101AB8EE422A62EEB5
:100F0000200A10EE810A20EE210A80ED020A10BDAF
:100F1000F8C201200C000020333353400000803918
:100F20003333D33FCCC10120014800F0BFBF0000E4
:100F3000D8020020014800F0B9BF0000A80400203A
:100F4000014800F0B3BF0000C0C70120014800F015
:100F5000ADBF000020C80120014800F0A7BF00007D
:100F600038030020014800F0A1BF000088C3012021
:100F7000014800F09BBF000060C70120014800F05D
:100F800095BF000048040020014800F08FBF00001A
:100F900000C7012001681823CAB2103AB2FBF3F26D
:100FA000054B6FF30901032A9B5CC36500D9091D3A
:100FB00081650846704700005CAD020810B5014627
:100FC00000208B698A6A4FF0C07453B1B3F5005F9B
:100FD00015D072B1012A0CD0022A0AD0032A09D1F5
:100FE00004E01AB1012A06D0022A03D1C96AC90154
:100FF00000D5012010BDC96AA142FAD010BD002A57
:10100000F7D0012AF2D0022AF3D0032AF3D010BD80
:1010100030B50468256825F4802525600468636080
:101020008368402B036803D099600068C26030BDBC
:101030009A600068C16030BD704772B6FEE700007C
:1010400070B590F83C20694D012A19D0012280F832
:101050003C200A6807230468092A13D9E6680A3A7B
:1010600002EB420293409E43E6600A788B680A3A9C
:1010700002EB420293400268D4682343D36010E03D
:10108000022070BD266902EB420293409E43266116
:101090000A788B6802EB420293400268146923438A
:1010A00013610268936B23F4401393630268936B9C
:1010B0000C8A4F4E06EB0454234393630A790B7C4E
:1010C000D21AD21C02EB82021F2393400268946B57
:1010D0009C4394630A790B7CD21AD21C02EB8203E4
:1010E0000A8892B29A4003689C6B22439A638A6989
:1010F000AA420268936823F470239360026893689D
:101100000CD08C69234393600268936823F44013E6
:10111000936002689368CC69234301E023F4401391
:1011200093604A7D002A0268536802D043F48063CA
:1011300001E023F4806353600A7D002A026853684B
:1011400002D043F4805301E023F4805353604A6893
:10115000012A16D0022A1FD0032A026827D0136A58
:101160006FF30B0313620268136ACC6823431362A4
:10117000214B04681F4A9C4227D10C68122C20D0B6
:1011800023E0026853696FF30B03536102685369EC
:10119000CC6823435361EBE7026893696FF30B0359
:1011A000936102689369CC6823439361E0E7D36954
:1011B0006FF30B03D3610268D369CC682343D36117
:1011C000D6E7546844F48004546004689C4208D113
:1011D0000968102901D0112903D1516841F4000197
:1011E0005160002180F83C10084670BD01000F00DE
:1011F0000000F0FF00230140002001402DE9F04FE6
:1012000000685B4991B088427DD107F0C1FDFFF7CE
:1012100039FE58495848FFF717FEDFF858815549FD
:10122000A8F1240801F1080098ED010A04F0D8FBA8
:1012300004F048FC08F12C00D0ED000A9FED4F0AA5
:101240004D48643004F07AFB08F1140404F11800EE
:1012500084ED010AD0ED010A4748B1EE000A903052
:1012600004F06CFB444984ED000A22460C3102F183
:10127000080098ED010A04F047FD3F480C30D0ED1E
:10128000110A9FED3F0A60EE800AFCEEE00A10EEC4
:10129000901AD0ED100A8AB260EE800AFCEEE00AE5
:1012A00010EE901AD0ED0F0A89B220EE800ABCEE43
:1012B000C00A10EE100A80B204F086FB6068FFF7E7
:1012C000F9F906460F462068FFF7F4F904462A4864
:1012D0000D4664304068FFF7EDF9CDE90601264878
:1012E00090304068FFF7E6F9CDE90401D8F8000036
:1012F000FFF7E0F9DFF87C80CDE90201D8F80400BF
:10130000FFF7D8F900E02FE0CDE90001D8F80000A0
:10131000FFF7D0F9824608F108008B464068FFF7D6
:10132000C9F980461348894608300068FFF7C2F9BA
:1013300041EC100B0CA853EC102B80E8F000DDE919
:101340000601CDE90A01DDE90401CDE90801DDE985
:101350000201CDE90601DDE90001CDE904018DE8D6
:10136000000F084805F0AEFA11B0BDE8F08F00009C
:101370000020014024000020CCC10120000000001A
:101380000000524548EF020808B5002200920368A9
:10139000521F1A60012911D002290CD0032906D04E
:1013A000042901D0009808BD0068806C01E0006845
:1013B000406C009008BD0068006CFAE70068C06BE4
:1013C000F7E7000018B50021009190F83C20012AB1
:1013D00007D0012280F83C2002689368DB0702D026
:1013E00011E0022018BD936843F001039360284A7E
:1013F000284B1268B2FBF3F202EB420200E0521EED
:101400000092002AFBD102689368DB0735D0036C99
:1014100042F20104A34343F480530364036CDB05ED
:1014200000D4416480F83C106FF0040111601A4947
:1014300049680068C906816801F440110FD0D1B134
:1014400000224168154B41F38021491C98421CD170
:10145000DAB1D1B1816841F48001816015E041B118
:101460000021426842F38022521C71B1002AF1D15E
:101470000BE00121F5E70122E3E7016C41F01001E7
:101480000164416C41F001014164002018BD00007D
:101490003800002040420F0000230140002001409E
:1014A00078B50024009490F83C20012A19D001223C
:1014B00080F83C200A6807230568092A13D9EE68DA
:1014C0000A3A02EB420293409E43EE600B788A6830
:1014D0000A3B03EB43039A400368DD682A43DA6062
:1014E00010E0022078BD2E6902EB420293409E4339
:1014F0002E610B788A6803EB43039A4003681D69E9
:101500002A431A614A681F23072A13D205686E6BA3
:10151000521E02EB820293409E436E630B790A884F
:101520005B1E92B203EB83039A4003685D6B2A4310
:101530005A6327E005680D2A12D22E6BD21F02EBE8
:10154000820293409E432E630B790A88DB1F92B27E
:1015500003EB83039A4003681D6B2A431A6311E06F
:10156000EE6A0D3A02EB820293409E43EE620B79E3
:101570000A880D3B92B203EB83039A400368DD6A4D
:101580002A43DA62164B0568144A9D4206D10D685B
:10159000122D03D1556845F48005556005689D42BC
:1015A00018D10B68102B01D0112B13D1536843F4C1
:1015B00000035360096810290CD10A490A4A0968D6
:1015C000B1FBF2F101EB8101490000E0491E0091FD
:1015D0000029FBD180F83C40002078BD0023014069
:1015E000002001403800002040420F007047704743
:1015F000704770B5044600680668456816F0020F2B
:1016000005F020012AD049B3216CC90603D4216C0E
:1016100041F400712164816811F0405F17D1217E8F
:10162000A9B9C16A11F4700F02D0816849050ED4BE
:10163000416821F020014160206C20F4807020641A
:10164000206CC00403D4206C40F0010020642046CC
:10165000FFF7CCFF21686FF01200086016F0040F4E
:1016600005F0800132D089B3206CC00603D4206C11
:1016700040F4005020642068816811F4401F1ED19E
:10168000816B11F4401F02D08168490517D441686D
:10169000490514D4816811F0405F10D1217E71B9E1
:1016A000416821F080014160206C20F4805020646A
:1016B000206CC00503D4206C40F00100206420465B
:1016C000FFF79CFD21686FF00C00086016F0010F19
:1016D00005F040010FD071B120680068C0070AD042
:1016E000206C40F480302064204600F043F82168EC
:1016F0006FF00100086016F0200F05F080610ED039
:1017000000290CD0606C40F00200606420686FF02B
:10171000200505602046FFF76BFF2068056070BD5F
:1017200070B504004FF0000503D0206C002610B106
:1017300007E0012070BD204600F01EF8666484F8C2
:101740003C60206CC00610D4206C20F4885040F01F
:10175000020020642046FFF753FA6664206C20F0F4
:10176000020040F00100206400E0012584F83C60A4
:10177000284670BD7047000070B586B0064614213B
:101780006846FEF7D5FD2F492D4C336800252D48BE
:1017900014390322A3422FD1036843F480730360FA
:1017A000006800F480700590086840F0010008604F
:1017B0000868694600F0010005903C208DE825008E
:1017C000214800F0E5FC224C2048C4E90005001542
:1017D000A560C4E90350400060618000A061401131
:1017E000C4E907052046656200F030FC08B1FFF748
:1017F00024FCB463A66319E0164CA3421ED103680F
:1018000043F400730360006800F4007005900868FA
:1018100040F0040008600868694600F00400059084
:1018200033208DE825000C4800F0B2FC0022052191
:10183000122001F079FA122001F068FA06B070BDAA
:101840000020014044380240000002401064024081
:1018500088C3012000210140000802402DE9F04129
:10186000044600680D4681684FF0000749050BD516
:101870008068C00508D5206C40F02000206484F802
:101880003C700120BDE8F08100F084FD064613E0C5
:10189000681C11D025B100F07DFD801BA8420BD93A
:1018A00020680068800707D4206C40F004002064A2
:1018B00084F83C700320E5E7206800688007E7D5DE
:1018C00021686FF012000860206C40F40070206402
:1018D0002068816811F0405F13D1217E89B9C16A07
:1018E00011F4700F02D0806840050AD4206C20F4F7
:1018F00080702064206CC00403D4206C40F0010090
:1019000020640020BEE7000018B50021009190F887
:101910003C20012A07D0012280F83C20026893680D
:10192000DB0702D011E0022018BD936843F00103E9
:1019300093602E4A2E4B1268B2FBF3F202EB420286
:1019400000E0521E0092002AFBD102689368DB0778
:1019500042D0036C40F20164A34343F480730364F8
:1019600053685B0505D5036C23F4005343F480539F
:101970000364036CDB0404D5436C23F00603436467
:1019800000E0416480F83C101A496FF022031360B4
:1019900049680068CA06184906D0884224D181687F
:1019A00011F0405F13D01FE08842F8D0134A9042F4
:1019B00003D1D1F80423D206F1D0114A904213D1B9
:1019C000D1F8041301F01F011029E8D30CE081685D
:1019D00041F08041816007E0016C41F01001016439
:1019E000416C41F001014164002018BD3800002025
:1019F00040420F000023014000200140002101402F
:101A000000220140F8B50E4600210446009190F8EE
:101A10003C0013460A46012807D0012084F83C0008
:101A200020688568ED0702D011E00220F8BD8568C6
:101A300045F0010585604048404D0068B0FBF5F079
:101A400000EB400000E0401E00900028FBD1206821
:101A50008568ED0503D5856825F480758560206867
:101A60008568ED075DD0226C40F20165AA4342F41F
:101A7000807222644068400505D5206C20F4005037
:101A800040F480502064206CC00404D5606C20F0C9
:101A90000600606400E0616484F83C10A16B294892
:101AA000274DC863A16B28480864A16B2748C86408
:101AB00021686FF0220008602068416841F0806171
:101AC00041602068816841F48071816021683246FC
:101AD0004C31A06B00F024FB024668681C49C0062C
:101AE000206806D0884224D1816811F0405F13D06D
:101AF0001FE08842F8D0174B984203D1D1F8043345
:101B0000DB06F1D0144B984213D1D1F8041301F045
:101B10001F011029E8D30CE0816841F08041816009
:101B200007E0206C40F010002064606C40F0010081
:101B300060641046F8BD00003800002040420F00ED
:101B400000230140550B0008D90B0008C30B000807
:101B500000200140002101400022014018B5002171
:101B6000009190F83C20012A07D0012280F83C2007
:101B700002689368DB0702D011E0022018BD936869
:101B800043F001039360314A314B1268B2FBF3F228
:101B900002EB420200E0521E0092002AFBD10268D2
:101BA0009368DB0747D0036C40F20164A34343F41E
:101BB0008073036453685B0505D5036C23F40053FD
:101BC00043F480530364036CDB0404D5436C23F0BB
:101BD0000603436400E0416480F83C101D4B6FF045
:101BE0002201116001684A681B4C22434A6059680F
:101BF0000068CA06194906D0884224D1816811F0CC
:101C0000405F13D01FE08842F8D0154A904203D1BC
:101C1000D1F80423D206F1D0124A904213D1D1F860
:101C2000041301F01F011029E8D30CE0816841F092
:101C30008041816007E0016C41F010010164416C5A
:101C400041F001014164002018BD0000380000206F
:101C500040420F000023014020000004002001400A
:101C6000002101400022014070B5040003D094F827
:101C7000200010B104E0012070BD204600F082F881
:101C80002068016841F00101016000F083FB054616
:101C9000052604E000F07EFB401B0A2811D82068CE
:101CA0004068C007F6D02068016821F00201016099
:101CB00000F070FB05460BE000F06CFB401B0A28AF
:101CC00006D9606A40F40030606284F82060D2E790
:101CD000206840688007EFD4207E012820680168D2
:101CE0003DD021F080010160607E012820680168FC
:101CF00038D021F040010160A07E012820680168F1
:101D000033D021F020010160E07E012820680168C5
:101D10002ED041F010010160207F01282068016869
:101D200029D021F008010160607F01282068016846
:101D300024D021F004010160D4E902010843D4E970
:101D40000412114308436168491E08432168C861B1
:101D500000206062012084F82000002070BD41F066
:101D60008001C0E741F04001C5E741F02001CAE72A
:101D700021F01001CFE741F00801D4E741F0040160
:101D8000D9E7000010B586B0044614216846FEF776
:101D9000CFFA14492068884221D1134800210268F3
:101DA00042F000720260006800F0007005900E487A
:101DB0001038026842F001020260006800F0010081
:101DC00005904FF4C05000900220CDE9010103209E
:101DD0000390092004906946044800F0D9F906B040
:101DE00010BD000000640040403802400000024086
:101DF0002DE9F0410446876D00F0CCFA064694F8D0
:101E000035000025022806D08020606584F8345013
:101E10000120BDE8F0812068016821F01601016011
:101E20002068416921F080014161206C08B9A06CF3
:101E300020B12068016821F0080101602068016874
:101E400021F0010101600CE000F0A4FA801B0528DC
:101E500007D920206065032084F8350084F83450C9
:101E6000D7E720680068C007EED194F85C103F20E7
:101E70008840B860012084F8350084F83450002090
:101E8000C7E790F83510022903D080214165012071
:101E90007047052180F835100068016821F00101C4
:101EA000016000207047406D704700002DE9F84345
:101EB00004464FF00009CDF8009063484FF41651E6
:101EC000A56D0068B0FBF1F72E6894F85C1008204F
:101ED00000FA01F131420FD021680A6852070BD590
:101EE0000A6822F004020A6094F85C108840A86036
:101EF000606D40F00100606594F85C104FF00108DF
:101F000008FA01F0304208D021684969090604D571
:101F1000A860606D40F00200606594F85C100420D9
:101F20008840304208D021680968890704D5A86034
:101F3000606D40F00400606594F85C1010208840EB
:101F4000304218D021680968090714D5A8602068B4
:101F50000168490304D50068000308D5A16C07E0B7
:101F60000168C90503D4016821F008010160216CF2
:101F700009B12046884794F85C1020208840304200
:101F800031D021680968C9062DD5A86094F83500BC
:101F900005282068016806D0490347D5006800037A
:101FA0001DD4616C1CE021F01601016020684169BC
:101FB00021F080014161206C08B9A06C20B120683B
:101FC000016821F00801016094F85C103F2088400E
:101FD000A86084F8358084F83490216D1FE0E16BAF
:101FE00009B120468847606D00282BD0606DC0077E
:101FF00014D0052084F835002068016821F0010123
:1020000001600098401C0090B84203D82068006826
:10201000C007F6D184F8358084F83490E16C00294B
:1020200010D001B02046BDE8F04308470168C9055B
:10203000D5D4016821F01001016084F8358084F85E
:102040003490CCE7BDE8F883380000202DE9F0415A
:10205000044600F09FF906465CB1022084F8350082
:10206000002584F834502068016821F001010160E6
:102070000DE00120BDE8F08100F08CF9801B0528FF
:1020800005D920206065032084F83500F2E7206838
:102090000068C007F0D12268116820480140D4E9E7
:1020A00001031843D4E903363343184363691843E3
:1020B000A3691843E3691843236A18430843616A14
:1020C000042903D1D4E90B13194308431060206895
:1020D0004069666A20F0070130460E430127042854
:1020E0000CD1A06A0643E06A40B12046FEF766FFC5
:1020F00020B14020606584F83570BAE720684661F9
:102100002046FEF747FF94F85C203F219140816014
:10211000656584F835700020ACE700003F8010F062
:102120002DE9F0410446866D90F834000025012821
:102130000DD0012084F8340094F835700020012F70
:1021400007D084F8340002252846BDE8F08102203B
:10215000FBE7022784F8357060652046FEF758FFDC
:1021600094F85C103F208840B0602068016841F01E
:1021700016010160206C20B12068016841F008015F
:1021800001602068016841F001010160DCE70000A6
:102190002DE9F84FDFF8BCA10022012503264FF0FE
:1021A0000F090AF1040BAAF1040E00BF0B6805FA2F
:1021B00002F42340A34270D10F7907F00307012FE7
:1021C00001D0022F16D187684FEA420806FA08FCB0
:1021D00027EA0C07D1F80CC00CFA08FC4CEA070CF3
:1021E000C0F808C04768A7430C79C4F300149440B2
:1021F0003C4344600C79E443A4070AD0C4684FEA26
:10220000420C06FA0CF7BC438F6807FA0CF7274319
:10221000C7600C7904F00304022C12D1D40800EB3F
:10222000840CDCF820405707FF0E09FA07F824EA6F
:102230000804D1F8108008FA07F848EA0408CCF836
:10224000208004684FEA420C06FA0CF7BC430F7971
:1022500007F0030707FA0CF7274307604C6814F4EC
:10226000403F70D03C4C276847F480472760246883
:1022700022F0030704F480440094384C07EB040C6C
:10228000DCF8084897074FEA177809FA08F7BC43C3
:10229000334FB84202D1002724E054E0314FB84216
:1022A00001D101271EE0304FB84201D1022719E0C9
:1022B0002E4FB84201D1032714E02D4FB84201D16F
:1022C00004270FE02B4FB84201D105270AE02A4F1F
:1022D000B84201D1062705E0284FB84201D10727AF
:1022E00000E0082707FA08F72743CCF80878DAF85F
:1022F00000405746D1F804C09C435FEACC2C00D57F
:102300001C433C60DBF800405F46D1F804C09C43AE
:102310005FEA8C2C00D51C433C60DEF80040774619
:10232000D1F804C09C435FEA8C3C00D51C433C6060
:10233000084F083F3C68D1F804C09C435FEACC3C9E
:1023400000D51C433C60521C102AFFF42FAFBDE89F
:10235000F88F0000083C0140443802400030014042
:10236000000002400004024000080240000C02404D
:10237000001002400014024000180240001C0240FD
:102380000069084000D0012070470AB181617047A0
:102390000904FBE701488068704700002CC0012059
:1023A0007047000070B5040025D094F83D0000256A
:1023B00020B984F83C50204600F058FB242084F8D3
:1023C0003D002068016821F001010160206801687A
:1023D00041F4004101602068016821F4004101607E
:1023E00000F08EFD4D4A6168914201D84C4900E0F1
:1023F0004C49884201D2012070BD4B492368B0FB93
:10240000F1F15E6826F03F060E435E60636893421A
:1024100006D94FF4967359434FF47A73B1FBF3F135
:102420002368491C1E6A26F03F0631431962616821
:10243000914210D84900401EB0FBF1F2521CC2F389
:102440000B02042A01D2042022E0B0FBF1F0401C70
:10245000C0F30B001CE0A268F2B301EBC10303EB75
:102460000116431EB3FBF6F35B1C43F480431B05CC
:1024700049D092B301EBC10202EB0111401EB0FB47
:10248000F1F0401CC0F30B0040F4804040F40040E9
:102490002168CA694CF6FF739A431043C861D4E9B6
:1024A000071001432068026822F0C0021143016056
:1024B000D4E9030101432068826848F2FF339A435C
:1024C00011438160D4E9050108432168CA6822F0FC
:1024D000FF021043C86001E00EE016E020680168CA
:1024E00041F0010101602564202084F83D0025634E
:1024F00084F83E50002070BD01EB4106431EB3FB43
:10250000F6F35B1CB3E70120C2E701EB4101401E7B
:10251000B0FBF1F0401CC0F30B00B7E7A086010050
:1025200080841E0000093D0040420F002DE9FF4F4E
:1025300081B089460446FFF72DFF054694F83D001B
:102540004FF0000820287DD1192301225049204650
:10255000009502F0DDF9002874D194F83C000128C0
:1025600070D0012084F83C0020680168C90703D1BD
:10257000016841F0010101602068016821F40061F7
:102580000160242084F83D00002626644148E06272
:102590004FF0011B20272068016841F48071016021
:1025A0000095002259462046049B02F0B1F950B133
:1025B00020680068C00502D54FF400702064032035
:1025C00005B0BDE8F08F216809F0FE000861FFF753
:1025D000E1FE2168054648694969C0F34000C1F33E
:1025E00080214FF0A00A0FE0FFF7D4FE411B0498B2
:1025F000814200D808B984F83DA02168486949693A
:10260000C0F34000C1F3802194F83D20A02A02D0FD
:1026100008B90029E8D084F83D7020684169C943B1
:10262000890716D4016841F400710160206841698E
:1026300080691923012216492046009502F068F9A5
:10264000B8B900E021E084F83D7084F83C600020D7
:10265000B6E7016841F40071016021686FF48060A1
:102660004861192301220A492046009502F050F9D9
:1026700008B10120A4E7039808F1010880458AD336
:1026800084F83D7084F83C60F3E7022098E700008E
:10269000020010000000FFFF704770472DE9FF4F58
:1026A00083B09A46DDE9118793460446DDF84090F1
:1026B000FFF770FE054694F83D00202870D11923DD
:1026C000012274492046009502F022F90028F5D134
:1026D00094F83C00012863D0012084F83C00206875
:1026E0000168C90703D1016841F001010160206858
:1026F000016821F400610160222084F83D0040203F
:1027000084F83E0000262664C4F82490A4F82A80A9
:10271000608D20856048E062CDE9007553465A46D9
:102720002046049902F076F8002879D1208DD0B1A6
:10273000012821D00228206824D0416980690090B6
:10274000208D032866D801282BD0544902283B4607
:102750004FF00002009557D08846204602F0D8F886
:1027600000285DD13AE020684169816900910168E3
:1027700041F4007101607DE02068016821F480610E
:102780000160F0E7016821F4806101602068016860
:1027900041F400610160206841698069009069E04E
:1027A00075E02A463946204602F058F988BB54E0C5
:1027B0002068016841F40071016020680069616A65
:1027C0000870606A401C6062218D491E2185618D00
:1027D000491E618521680969017042E0206801682D
:1027E00021F48061016020680069616A0870606A94
:1027F000401C6062208D401E2085608D401E6085DB
:102800003B46002241460095204602F081F800B97F
:10281000CEE705E02A463946204602F01FF918B1F6
:10282000012007B0BDE8F08F20680069616A087078
:10283000606A401C6062208D401E81B22185608DDF
:10284000401E608520684269D243520712D4032992
:1028500003D1016821F48061016020680069616A28
:102860000870606A401C6062208D401E2085608D6B
:10287000401E6085208D00287FF462AF202084F800
:102880003D0084F83E6084F83C600020C9E70220E7
:10289000C7E70000020010000000FFFF0400010075
:1028A0002DE9FC5F994692468B460446DDF8308060
:1028B000FFF770FD00250646009594F83D0020289E
:1028C00028D1664846F2A81120270068B0FBF1F035
:1028D00000EBC00101EB001000900098401E00903A
:1028E00010D020688069C0438007F6D594F83C007A
:1028F00001280FD0012084F83C0020680168C90736
:102900000BD00EE044F8305F6773A573206940F088
:10291000200020610220BDE8FC9F016841F0010118
:1029200001602068016821F400610160222084F8C0
:102930003D00402084F83E002564C4F824800D98B2
:102940006085608D20854648E062C4F844B0C4F8D4
:1029500048A0C4F84C902565208D4FF0230800282E
:1029600063D0A06B00B33F49C163A16B3E48C8640C
:10297000A06B0564A06B4564A06B8564A06B0565C6
:102980002168238D1031626AA06BFFF7C9FBA0B1EB
:1029900084F83D7084F83E5054F8400F40F0100029
:1029A00044F80409257049E084F83D7084F83E50ED
:1029B00054F8400F40F08000F2E7CDE900864B4626
:1029C00052465946204601F025FF88B1A06BFFF71B
:1029D00058FAA06BC5632068016821F4806101602A
:1029E000258565852068016821F00101016025E0E9
:1029F000208D0128206813D0416841F48051416046
:102A0000206841698169009184F83C50416841F433
:102A1000807141602068416841F4006141601BE0C1
:102A2000016821F480610160EAE7CDE900864B4648
:102A300052465946204601F0EDFE08B101206AE7F2
:102A40002068416981690091016841F40071016069
:102A500084F83D7084F83C5000205CE7380000208A
:102A60000000FFFFD5460008954600082DE9F0411B
:102A700086B0064614216846FDF75AFC544D534B68
:102A80003268534803270421103500244FF0120800
:102A90009A4219D1026842F0020202600068029470
:102AA00000F002000590CDE90371C020CDE90008D7
:102AB00069464848FFF76CFB286840F4001028601E
:102AC000286800F400107EE0434B9A424BD1026824
:102AD00042F0200202600068CDE9007800F020009A
:102AE000CDE90410CDE9024769463C48FFF750FBA9
:102AF000286840F48000286028683A4D00F480007F
:102B00000590374828604FF06067C5E901744FF4BD
:102B10008068C5E903486C61AC61EC612C622846B1
:102B20006C62FFF793FA08B1FEF787FAB563AE63FC
:102B30002C4D2B4860357830E5E802074020A5E8A9
:102B40001101284845F814496030AC61EC612C62F1
:102B50006C62FFF77BFA08B1FEF76FFA7563AE633C
:102B600006B0BDE8F081204B9A42F9D1026842F0EC
:102B700004020260026802F004020592026842F058
:102B8000010202600068CDE9024700F001000590F3
:102B90005815CDE900080E46049169461348FFF721
:102BA000F7FA4FF48070CDE90008CDE90247694695
:102BB00004960F48FFF7ECFA286840F400002860FC
:102BC000286800F400000590CAE7000000540040A7
:102BD0003038024000040240005800400014024017
:102BE00040600240D8020020005C00400008024023
:102BF0000000024070477047024881680278114423
:102C0000816070472CC001200B4810B5016841F469
:102C100000710160016841F480610160016841F464
:102C200080710160032000F09FF80F2000F006F88B
:102C300000F050F8002010BD003C024030B50546C1
:102C40001F4887B00024016841F008010160006856
:102C500006A900F00800009001A800F031F90498DE
:102C6000A8B100F04DF940001649174AB0FBF1F148
:102C70001648491E026040F2E732C0E90324C0E969
:102C80000114846100F0B2FD040003D015E000F0EF
:102C900037F9E9E70D4800F039FE04000DD1322084
:102CA00000F034F8102D07D200222946322000F01F
:102CB0003BF80748056000E0012407B0204630BD1E
:102CC0004038024040420F00000C004080C8012004
:102CD00030C001200C4882B0016841F4804101609D
:102CE000006800F4804000900748001F016841F030
:102CF000805101600068002200F0805000900F2198
:102D0000901E02B000F010B844380240002809DBE1
:102D100000F01F02012191404009800000F1E020F5
:102D2000C0F8001170470000F0B40E4B1B680C4651
:102D3000C3F30223C3F10705042D00D90425191D8F
:102D4000072901D2002300E0DB1E012606FA05F167
:102D5000491E214099409E40761E16403143F0BCEA
:102D600003F0C0BD0CED00E0064900F00702086862
:102D70004FF6FF03184040EA0220034A1043086060
:102D8000704700000CED00E00000FA052DE9F04767
:102D90000E46050065D0DFF81481D8F80000F7B2C0
:102DA00000F00700B04207D288F80070D8F80000A1
:102DB00000F00700B04254D128683D4C810712D57D
:102DC000400703D5206840F4E050206028780007D1
:102DD00003D5206840F4604020602068A96820F096
:102DE000F000084320602878C0072DD0304968687B
:102DF0000839012812D0022813D0032811D00968FD
:102E0000890700292DDA216821F00301014321609F
:102E1000FFF7C0FA814641F2883A0EE0096889035B
:102E2000EFE709688901ECE7FFF7B4FAA0EB0901C5
:102E3000514502D90320BDE8F0872068696800F099
:102E40000C00B0EB810FEFD1D8F80010404601F034
:102E50000701B14207D90770006800F00700B042CF
:102E600001D00120E7E72878400705D52068E96808
:102E700020F4E050084320602878000706D5206839
:102E8000296920F4604040EAC100206000F058F851
:102E90002168084AC1F30311515CC8400649086023
:102EA00006480068FFF7CAFE0020C4E7003C024065
:102EB0000838024064AD02083800002030C001200C
:102EC0000F2202600C4A136803F003034360136887
:102ED00003F0F0038360136803F4E053C3601268E7
:102EE0004FF4E05303EAD20202610448006800F0A4
:102EF000070008607047000008380240003C0240AC
:102F00000448054900680968044AC1F38221515CFC
:102F1000C8407047380000200838024074AD0208ED
:102F20000448054900680968044AC1F34231515C0C
:102F3000C8407047380000200838024074AD0208CD
:102F4000154810B5006810F00C02144813D014494D
:102F5000042A0FD0082A0ED10F4C241F22682368A0
:102F600002F03F025B0207D52068C0F38810A0FB87
:102F7000010106E0084610BD2168C1F38811A1FBDC
:102F800000010023FDF77CF92168C1F30141491CD0
:102F90004900B0FBF1F010BD083802400024F400F5
:102FA00040787D012DE9F84F04006ED02078DFF8DD
:102FB0004C93C007A9F104054AD009F10400016847
:102FC000C1F38101012908D00068C0F38100022803
:102FD0000AD1D9F80000400206D52868800337D509
:102FE00060680028E1D033E06068B0F5803F10D021
:102FF000B0F5A02F286810D020F480302860286811
:1030000020F4802028606068A8B1FFF7C3F9064665
:103010000DE0286840F48030F4E740F48020286018
:10302000F7E700BFFFF7B6F9801B642873D828685C
:103030008003F7D50CE0FFF7ADF9064605E000BFC9
:10304000FFF7A8F9801B6428F0D828688003F7D41C
:103050002078DFF8AC8280074FF0000A3ED5A74801
:10306000001D016811F00C0F08D00068C0F381004A
:1030700002280BD1D9F80000400207D42868800745
:1030800016D5E068012800D112E033E1E068B8B15C
:103090000120C8F80000FFF77DF9064605E000BFF3
:1030A000FFF778F9801B0228C0D828688007F7D579
:1030B0002868216920F0F80040EAC10028600DE08E
:1030C000C8F800A0FFF766F9064604E0FFF762F9CA
:1030D000801B02281FD828688007F7D420780007B3
:1030E00022D5864F87486169703771B1012101602F
:1030F000FFF750F9064604E0FFF74CF9801B022861
:1031000009D838688007F7D50EE0C0F800A0FFF7AF
:1031100041F9064605E082E0FFF73CF9801B0228F2
:103120007DD838688007F7D42078400768D5DFF865
:10313000CCB100270BF13C0BDBF80000C0000BD436
:10314000DBF8001041F08051CBF80010DBF80000F4
:10315000012700F0805000906B4E3068C00510D4FD
:10316000306840F480703060FFF714F9009005E09B
:10317000FFF710F90099401A022850D83068C005AE
:10318000F6D55E4EA0686C3601280FD00528306851
:1031900010D020F001003060306820F00400306072
:1031A000A068B8B1FFF7F6F800900FE0306840F083
:1031B0000100F4E740F004003060F7E7FFF7EAF8B9
:1031C0000099411A41F28830814266D83068800700
:1031D000F4D50EE0FFF7DEF8009007E0FFF7DAF82D
:1031E0000099411A41F28830814256D830688007F0
:1031F000F4D42FB1DBF8001021F08051CBF800108F
:10320000A069C8B33D49091D0968C1F381010229BC
:103210004AD00228504607D0C8F8600000E03CE0E1
:10322000FFF7B8F804463BE04746C8F86000FFF7F0
:10323000B1F8064605E000BFFFF7ACF8801B022896
:103240002BD828688001F7D4D4E907010843A16A84
:103250002E4A490802EB0141626A41EA82110843A1
:1032600094F82C1040EA0161C9F80010012038667A
:10327000FFF790F8044606E03EE000BFFFF78AF84B
:10328000001B022809D828688001F7D534E000BF68
:10329000FFF780F8001B022802D90320BDE8F88F51
:1032A00028688001F4D427E00128F7D0D9F800007D
:1032B000E26900F4800191421CD1226A00F03F01D2
:1032C000914217D147F6C071626A0140B1EB821F8B
:1032D00010D1A26A4FF0FF3300F4403103EB5202E9
:1032E000B1EB024F06D194F82C1000F07060B0EBF7
:1032F000016F01D00120D1E70020CFE70438024060
:1033000000004742800E4742007000400000FFFF6F
:10331000704790F85100704738B5016804464A6814
:103320008868C043430606D5C30704D1D3435B0670
:1033300001D4216C05E0830708D4D3431B0605D4D0
:10334000616C01B02046BDE830400847830603D5D4
:10335000430601D5C30551D4D3439B064ED443063F
:103360000AD494F85130032B49D0636D43F0040321
:103370006365CB688B680093830609D4636D43F063
:10338000010363658B6800930B6823F040030B60B7
:10339000C00506D4606D40F0080060652068806854
:1033A0000090606D002829D02068416821F0E0017C
:1033B0004160012084F85100900701D4D00722D049
:1033C0002068416821F003014160114DE06C40B17B
:1033D0000565E06CFEF755FD18B1606D40F04000EA
:1033E0006065A06C002809D00565A06CFEF749FD5A
:1033F000002803D0606D40F04000606538BDC868AB
:103400008868009038BD2046FFF782FF38BD000075
:10341000415B000870B5040009D0606A002540B126
:1034200025616561A56294F8510040B10CE001206E
:1034300070BD6068B0F5827FF4D0E561F2E784F892
:103440005050204600F044F8022084F851002068D3
:10345000016821F040010160A088218900F4827098
:1034600001F404410843A18901F400610843217C6F
:1034700001F002010843217D01F001010843218B85
:1034800001F400710843217F01F03801084394F8EA
:10349000201001F080010843218D01F40051084300
:1034A00021680860A069042101EA104094F8241002
:1034B00001F010010843216848602068C16921F4C7
:1034C0000061C1616565012084F85100002070BD74
:1034D0002DE9F04F87B0064614216846FCF728FF17
:1034E0004C4B316800244C480225032705224FF03D
:1034F00040094FF4806A4FF4003B994237D1464966
:1035000014310B6843F480530B60096801F4805157
:103510000591016841F0020101600068029400F029
:10352000020005903820CDE90005CDE90372694617
:103530003A48FEF72DFE3B4D394828607806686012
:10354000C5E90294C5E904A4AC61C5E9074B284666
:103550006C62FEF77BFD08B1FDF76FFDB5640022DC
:1035600005212320AE63FFF7DFFB23204CE02E4B29
:1035700099424BD1284910310B6843F480430B60CA
:10358000096801F480410591016841F0040101607E
:10359000016801F004010591016841F00201016038
:1035A000006802AB00F0020005900C20CDE9000598
:1035B000904683E8900169461C48FEF7E9FD4FF408
:1035C0000050CDE9000502AB694683E8900113483D
:1035D000FEF7DEFD134D1648603585E81102C5E99A
:1035E000034A6C61AC61C5E9074B28466C62FEF783
:1035F0002DFD08B1FDF721FDB56400220521242031
:10360000AE63FFF791FB2420FFF780FB07B0BDE816
:10361000F08F0000003001403038024000040240CA
:10362000586402404804002000380040000802406E
:103630007060024070B5044690F8510001281CD11A
:10364000C9B1C2B194F85000012816D0012084F805
:103650005000032084F85100002565652163A2868F
:10366000E286A56365642564A587E587A068B0F553
:10367000004F04D00DE0012070BD022070BD206815
:10368000016821F0400101602068016841F4804137
:103690000160A16C17480864A16C1748C863A16C4D
:1036A0001648C864A06C0565E38E2268216B0C3255
:1036B000A06CFEF735FD30B1606D40F01000606524
:1036C00084F85050D7E720680168490603D40168A0
:1036D00041F04001016084F850502068416841F099
:1036E000200141602068416841F0020141600020F2
:1036F00070BD0000735B00087D5B0008515B000833
:10370000704770477047704710B590F83C20012A09
:1037100022D0012280F83C20CA688C6822F44072D2
:1037200022434C6822F4806222430C6822F4006237
:1037300022430C6922F4805222434C6922F4005245
:103740002243C969002322F480420A4301684A6483
:1037500080F83C30002010BD022010BD70B590F8FC
:103760003C20012A32D0012480F83C40022280F81B
:103770003D2003685A689D6822F070060A6832434B
:103780005A60134B02689A4214D0B2F1804F11D0A4
:10379000104B9A420ED0104B9A420BD00F4B9A42CC
:1037A00008D00F4B9A4205D00E4B9A4202D00E4BD6
:1037B0009A4204D1496825F080031943916080F84A
:1037C0003D40002180F83C10084670BD022070BDCD
:1037D000000001400004004000080040000C0040D0
:1037E00000040140004001400018004010B50400F2
:1037F00003D094F83D0010B107E0012010BD002077
:1038000084F83C00204600F01FF8022084F83D00B8
:10381000211D206802F0E2FB012084F8460084F8B4
:103820003E0084F83F0084F8400084F8410084F8AA
:10383000420084F8430084F8440084F8450084F88A
:103840003D00002010BD000008B52B4A01682B4840
:10385000914210D1016841F001010160006800222D
:1038600000F00100009005211820FFF75DFA1820F4
:10387000FFF74CFA35E0214A121FB1F1804F0BD00F
:103880001F4B994210D1106840F002001060106880
:1038900000F00200009008BD106840F001001060C8
:1038A000106800F00100F5E7164A91420ED1016858
:1038B00041F4803101600068002200F48030009003
:1038C00005211820FFF730FA182010E00E4A914227
:1038D000E1D1016841F400310160006800F400307A
:1038E0000090002205211920FFF71EFA1920BDE8DB
:1038F0000840FFF70BBA00000000014044380240C6
:1039000000040040004001400044014090F83D1098
:10391000012901D001207047022180F83D10016883
:10392000CA6842F00102CA6000681149884214D096
:10393000B0F1804F11D00F4988420ED00E49884215
:103940000BD00E49884208D00D49884205D00D4958
:10395000884202D00C49884204D1816801F00701F5
:10396000062903D0016841F0010101600020704781
:10397000000001400004004000080040000C00402E
:1039800000040140004001400018004070B50446AA
:1039900090F83C000025012817D0012684F83C60EF
:1039A000022084F83D002068826822F0770222F429
:1039B0007F4282600868502838D00DDC20284FD024
:1039C00005DC90B3102811D14AE0022070BD3028E8
:1039D00046D040280AD13BE060282FD070280DD077
:1039E000B0F5805F03D0B0F5005F12D0012584F8F8
:1039F0003D60002084F83C00284670BDCB68D1E9CA
:103A00000121206802F05FFB2068816841F07701A6
:103A100009E0CB68D1E90121206802F054FB20685D
:103A2000816841F480418160E1E719E0CA68496832
:103A3000206802F01DFC5021206806E0CA68496831
:103A4000206802F026FC6021206802F046FBCEE7E9
:103A5000CA684968206802F00BFC40212068F4E73E
:103A6000226801461046F0E770472DE9F041044610
:103A70000068C66805694FF00007A90713D5B107AC
:103A800011D5F91E01610120207720688069800727
:103A9000204602D0FFF7E8FF04E000F0FFF82046E0
:103AA00000F091F92777680716D5700714D52168BB
:103AB0006FF004000861022020772068806910F40C
:103AC000407F204602D0FFF7CFFF04E000F0E6F889
:103AD000204600F078F92777280715D5300713D549
:103AE00021686FF008000861042020772068C06911
:103AF0008007204602D0FFF7B7FF04E000F0CEF8C1
:103B0000204600F060F92777E80616D5F00614D5B0
:103B100021686FF010000861082020772068C069D4
:103B200010F4407F204602D0FFF79EFF04E000F033
:103B3000B5F8204600F047F92777E80708D0F007E6
:103B400006D021686FF001000861204600F0A0F95E
:103B5000280608D5300606D521686FF08000086178
:103B60002046FFF7CFFD680608D5700606D5216808
:103B70006FF040000861204600F012FAA8060AD54E
:103B8000B00608D521686FF0200008612046BDE826
:103B9000F041FFF7B8BDBDE8F0810000F0B587B097
:103BA000044614216846FCF7C3FB364A2368002408
:103BB000354802250121934211D1026842F01002DA
:103BC0000260006800F0100005904FF4D4400090AF
:103BD000CDE90154CDE9034169462C484DE0032667
:103BE0002B4A2C4FB3F1804F24D02B498B4246D126
:103BF000016841F001010160016801F001010591D6
:103C0000016841F0020101600068694600F00200AD
:103C10000590C0200090CDE901541046CDE9034540
:103C2000FEF7B6FA0096CDE9015469463846CDE96B
:103C3000034522E0036843F001030360036803F0D7
:103C400001030593036843F00203036000680096D4
:103C5000CDE901540E4600F00200CDE9046069464A
:103C600003941046FEF794FA4FF440600090CDE9BB
:103C70000154CDE9034669463846FEF789FA07B094
:103C8000F0BD00000000014030380240001002404A
:103C9000000002400004024000040040704770B57C
:103CA000044690F83C0000260D4601280FD0012064
:103CB00084F83C006AB1042A1DD0082A2FD00C2AAF
:103CC0003FD00126002084F83C00304670BD022021
:103CD00070BD206802F00AFA2068816941F008018D
:103CE00081612068816921F0040181612068816916
:103CF0002A69114311E0206802F028FA20688169DE
:103D000041F4006181612068816921F480618161F1
:103D1000206881692A6941EA02218161D2E720682D
:103D200002F04AFA2068C16941F00801C1612068C7
:103D3000C16921F00401C1612068C1692A69114388
:103D400011E0206802F06CFA2068C16941F400615A
:103D5000C1612068C16921F48061C1612068C169C5
:103D60002A6941EA0221C161ACE710B5040003D021
:103D700094F83D0010B107E0012010BD002084F848
:103D80003C00204600F01EF8022084F83D00211D72
:103D9000206802F023F9012084F8460084F83E00F0
:103DA00084F83F0084F8400084F8410084F8420021
:103DB00084F8430084F8440084F8450084F83D000A
:103DC000002010BD7047704710B50446022249B16B
:103DD00004290ED0082913D094F84100012816D0E8
:103DE000012010BD94F83E000128F9D184F83E204E
:103DF0000FE094F83F000128F2D184F83F2008E05A
:103E000094F840000128EBD184F8402001E084F8C8
:103E100041200122206802F049F916492068164A1B
:103E2000884201D0904203D1436C43F40043436481
:103E30002068884213D0B0F1804F10D00F498842DB
:103E40000DD00F4988420AD00E49884207D09042CF
:103E500005D00D49884202D00C49884204D18168BE
:103E600001F00701062903D0016841F0010101605A
:103E7000002010BD0000014000040140000400408B
:103E800000080040000C00400040014000180040C5
:103E90002DE9F047044601683D4881426DD100F0AC
:103EA00041FE3C4800268168491C8160B1F57A7F5B
:103EB00000D3866000250327374A01204FF004090C
:103EC00005EBC503991891F805C0BCF1010F0BD0A3
:103ED00081F8066012F803C0BCF1050F49D2DFE893
:103EE0000CF00A141E28440091F806C00CF1010CD5
:103EF00081F806C0EEE791F801C0BCF1000F01D0D7
:103F00000E7236E0D054487133E091F806C0BCF12F
:103F1000050F2ED9497839BB0221D15429E091F8F7
:103F200001C0BCF1010F24D18979C82921D2D7540D
:103F30001FE091F801C0BCF1000F03D0BCF1010FEC
:103F400007D016E002F803904E710871CF710F721E
:103F50000FE091F806C0BCF1960F0AD302F8039067
:103F60004E718870C871087203E04978012900D148
:103F7000D6546D1CEDB2032DA2D3084821688142AE
:103F800003D1BDE8F047FEF737BEBDE8F08700007B
:103F90000044014000000020B8C20120000C004095
:103FA0007047704710B504460068406994F84110A6
:103FB000C0F3C010212911D180B12068143050E81D
:103FC000001F21F0800140E80012002AF5D1A06B0B
:103FD00008B1FDF70DFF204602F039FA206840696C
:103FE00094F84210C0F38010222911D180B12068CA
:103FF000143050E8001F21F0400140E80012002A70
:10400000F5D1E06B08B1FDF7F3FE204602F0F8F9B8
:10401000002010BD70470000F8B50168044608682C
:10402000CA684B6910F00F0F4FF0000559D003F02C
:10403000010602F49077374365D0C10705D0D1055A
:1040400003D5616C41F001016164410705D5D907D1
:1040500003D0616C41F002016164810705D5D90785
:1040600003D0616C41F004016164010707D502F0DF
:104070002001314303D0616C41F008016164616C3F
:1040800000293AD0800604D5900602D5204602F0D9
:10409000ECF920684069616CC0F38010090700D416
:1040A00060B3204602F0ACF920684069400621D593
:1040B0002068143050E8001F21F0400140E8001251
:1040C000002AF5D1E06BA8B172490165E06BFDF7FC
:1040D000D8FE002811D0E06B016D01B0BDE8F040C2
:1040E000084783060FD593060DD52046BDE8F84056
:1040F00002F0BBB92046FFF78DFFF8BD2046FFF761
:1041000089FF6564F8BD266B2023012E7ED1C6068B
:104110007CD5D6067AD508684868009048694FF083
:10412000020640064DD5E26B106840684FF4807778
:104130000004000C3AD0A18D814237D9E085D069C6
:10414000B8422DD020680C3050E8001F21F4807157
:1041500040E80012002AF5D12068143050E8001F12
:1041600021F0010140E80012002AF5D12068143046
:1041700050E8001F21F0400140E80012002AF5D16C
:1041800084F84230256320680C3050E8001F21F08D
:10419000100140E80012002AF5D1E06BFDF728FE7F
:1041A0006663A08DE18D401A81B206E0A18D814247
:1041B000A8D1D069B842A5D166632046FFF7F1FEC9
:1041C000F8BDA08DE18D401A81B2E08D0028F7D0B6
:1041D0000029F5D020680C3050E8002F22F49072AE
:1041E00040E80027002FF5D12068143050E8002F58
:1041F00022F0010240E80027002FF5D184F8423078
:10420000256320680C3050E8002F00E006E022F023
:10421000100240E80023002BF3D1CDE705062BD593
:10422000150629D594F841002128C9D1A068B0F518
:10423000805F01D12069B0B1206A411C21622168F0
:1042400000784860E08C401E0004000CE084B7D188
:104250002068C16821F08001C1602068C16841F018
:104260004001C160F8BD206A0088C0F308004860C2
:10427000206A801C2062E5E74006F3D55006F1D5A0
:10428000CA68204622F04002CA6084F8413000F03B
:10429000FFF9F8BD0563000870B5040004D094F878
:1042A0004100002510B106E0012070BD84F84050A7
:1042B000204600F023F8242084F841002068C168DB
:1042C00021F40051C160204602F030F920680169F4
:1042D00021F4904101612068416921F02A01416186
:1042E0002068C16841F40051C1606564202084F8F1
:1042F000410084F842006563002070BD2DE9F04F55
:1043000087B0044614216846FCF712F8A248A14978
:10431000D4F800C0A04A1038022603279F4B00257E
:104320004FF008088C4516D1116841F40021116046
:10433000116801F400210591016841F00401016058
:104340000068694600F004000590B802CDE9000657
:10435000184602AC2AE092498C452ED1116841F4EE
:1043600080111160116801F480110591016841F01C
:1043700004010160016801F004010591016841F048
:1043800008010160006802AC00F0080005904FF4DD
:104390008050CDE9000684E8A00169461846FDF783
:1043A000F7FE0420CDE900067E48694684E8A001B6
:1043B000FDF7EEFE07B0BDE8F08F7B4BDFF8D8913C
:1043C000072109F104094FF0006A4FF4806B9C4506
:1043D00051D1D9F8003043F01003C9F80030D9F8B2
:1043E000002002F010020592026842F00102026011
:1043F0000068029500F001000590CDE903714FF4CB
:10440000C060CDE9000669466848FDF7C1FE694E07
:104410006748D846E6E8020A4020A6E82101574648
:1044200046F814596348B561F56135627562FDF768
:104430000DFE08B1FCF701FEA663B4635D4E5C4857
:10444000603678383060C6E90175C6E90358756191
:10445000B561F561356230467562FDF7F7FD08B16B
:10446000FCF7EBFDE663002205212520B463FEF78F
:104470005BFC25204EE0504B9C454ED1136843F425
:1044800000331360126802F400320592026842F0B1
:10449000080202600068029500F008000590CDE96E
:1044A00003716020CDE9000669463E48FDF770FEC5
:1044B000404E4248C036D0463060C6E901A5C6E944
:1044C000035B7561B561F56135625F4630467562C3
:1044D000FDF7BCFD08B1FCF7B0FDE663B4633748F7
:1044E000374E1830E6E802084020A1C6344846F8A6
:1044F0001459B561F56135627562FDF7A7FD08B124
:10450000FCF79BFDA663002205212620B463FEF77D
:104510000BFC2620FEF7FAFB4CE72A4B9C4519D1F1
:10452000136843F480231360126802F4802205921A
:10453000026842F0080202600068029500F008007C
:104540000590CDE903714FF44070CDE9000669464E
:1045500014482DE71C498C45DED1D9F8002042F0E3
:104560002002C9F80020D9F8001001F020010591BF
:10457000016841F040010160006802AA00F04000BB
:1045800005904FF48440CDE9000682E8A001694619
:104590000E480DE7004C0040403802400008024041
:1045A00000500040000C024000100140000002409A
:1045B000B864024000C70120004400408860024007
:1045C00020C80120004800400014014000180240AB
:1045D00090F84230202B01D00220704721B11AB14F
:1045E0000023036302F028B801207047704770472A
:1045F0002DE9F843044690F84100984616460D46CA
:10460000202802D00220BDE8F88385B17EB10020C9
:104610006064212084F84100FDF7BCFEA684814639
:10462000E684A0682027B0F5805F02D003E0012077
:10463000E9E7206910B12E4600250EE000260CE0C7
:104640008021204602F048F8A8B9C6B116F8010B3F
:1046500021684860E08C401EE084E08C4B464FF0BF
:104660000002CDF800800028EAD14FF0400120463A
:1046700002F032F840B184F841700320C3E735F806
:10468000020BC0F30800E3E784F841700020BAE7AA
:104690007047FEE770B5846B0025616B01B1CD6397
:1046A000A16B01B1CD63FDF7FEFB022811D020689C
:1046B000016821F4806101606585202084F83D0057
:1046C00084F83E50206C40F0100020642046FDF736
:1046D00067FE70BD2DE9F041846B94F83D2094F89D
:1046E0003E50E16A2068436823F440734360636B83
:1046F000002003B1D863A36B03B1D863212333EA4D
:1047000002074FF022060CD036EA020701D1202D15
:1047100007D094F83E20002A21D0628D012A20D0B3
:1047200024E021684D6825F400654D6060852820EF
:10473000292A02D02A2A07D00CE0236384F83D00FE
:104740002046FEF758FA05E0266384F83D0020462F
:10475000FEF750FA2068416841F440714160BDE8BD
:10476000F0812268136823F4806313602268536821
:1047700023F44073536011F5803F06D0082904D01C
:10478000B1F12A4F01D0202904D12268136843F4E3
:10479000007313602268536823F4805353602268C7
:1047A000536823F4006353606085226C1AB120467D
:1047B000FDF7F6FDD3E7202284F83D2094F83E2053
:1047C00084F83E00402A09D0082902D0202900D0D0
:1047D000122020632046FDF75FFFC0E720632046DC
:1047E000FDF75BFFBBE701684A69D24352050FD46E
:1047F0006FF480624A61002140F8301F202242732A
:104800008173026942F00402026101730120704762
:10481000002070472DE9F84F0446006889460B9D3B
:1048200001689846174641F480610160206801687C
:1048300041F48071016000954FF0011B0022594640
:1048400020460A9B00F064F84FF4007A40B12068DB
:104850000068C00501D5C4F840A00320BDE8F88F6A
:10486000216809F0FE0008612B46284920460A9A73
:1048700000F096F8F0BB20684169806900902A46F4
:1048800020460A9900F022F940B1206C04283AD160
:104890002068016841F40071016034E0FEB2B8F1B3
:1048A000010F09D02168380A08612A4620460A9972
:1048B00000F00CF90028E8D1206806612A4620465D
:1048C0000A9900F003F90028DFD12068016841F45B
:1048D0008071016000950022594620460A9B00F035
:1048E00017F80028B3D1216809F0FF0040F001005B
:1048F000086100E007E02B46044920460A9A00F0D0
:104900004FF80028AAD00120A8E70000020001000B
:104910002DE9F047984617460D460446C1F3074671
:10492000DDF820902AE000BFB8F1FF3F26D0FDF768
:1049300031FDA0EB0901414502D8B8F1000F1DD1AE
:104940002068012E16D0806925EA00000004000CC2
:1049500012D00020B84211D1002044F8300F20219D
:104960006173A073216941F020012161207301204E
:10497000BDE8F0874069E7E70120EBE72068012EFA
:104980000AD0806925EA00000004000C06D000204F
:10499000B842C9D00020EBE74069F3E70120F7E710
:1049A0002DE9F047984616460D4604464FF000099B
:1049B0004FF0200AC1F3074723E020684069C04355
:1049C000400515D42068016841F400710160216838
:1049D0006FF480604861C4F8309084F83DA084F89A
:1049E0003E90216C41F00401216484F83C9021E068
:1049F000701C06D0FDF7CEFCA0EB0800B04203D837
:104A000016B1012F1FD021E02068012F15D0806939
:104A100025EA00000004000C18D000BF44F8309FC5
:104A200084F80DA084F80E90216941F020012161E5
:104A300084F80C900120BDE8F087406925EA000069
:104A40000004000CEAD12068406901E02068806918
:104A500025EA00000004000CAFD1ECE72DE9F0419D
:104A6000002590460E460446202728E04069C043B2
:104A7000C0060CD454F8301B6FF01000486144F8A5
:104A800010596777A577206A2062257714E0FDF733
:104A900081FCA0EB0800B04200D886B920684069CC
:104AA000C04340060BD544F8305F6773A573206997
:104AB00040F02000206125730120BDE8F0812068CE
:104AC0004169C9434906D1D40020F6E770B51646BE
:104AD0000D4604461EE02046FFF785FE08B1012082
:104AE00070BD681C16D0FDF755FC801BA84200D88D
:104AF00085B920684069C04300060BD5002044F802
:104B0000300F20216173A073216941F020012161E0
:104B10002073E4E720684069C0430006DBD400202E
:104B200070BD00002DE9F041184F04213846FDF713
:104B300027FC0025164C012630B104213846FDF72C
:104B40001FFC012802D002E0657000E066700821B9
:104B50003846FDF715FC30B108213846FDF710FC4A
:104B6000012802D002E0A57200E0A67210213846AA
:104B7000FDF706FC40B110213846FDF701FC012885
:104B800000D1E674BDE8F081E574FBE70010024057
:104B9000B8C201202DE9F04106461C4617460D46D5
:104BA0002A2000F00DF9304600F0FFF8384600F0FA
:104BB000FCF82B2000F004F91435A8B200F0F5F849
:104BC0001434A0B200F0F1F8BDE8F0412C2000F060
:104BD000F7B8000070B5674D4FF40054002221462D
:104BE0002846FDF7D2FB642025F04AF90122214630
:104BF0002846FDF7CAFB642025F042F90122114640
:104C00005D48FDF7C2FB642025F03AF9112000F061
:104C1000D7F8782025F034F9362000F0D1F80020BC
:104C200000F0E4F83A2000F0CBF8052000F0DEF8C0
:104C3000B22000F0C5F80C2000F0D8F80C2000F0ED
:104C4000D5F8002000F0D2F8332000F0CFF8332060
:104C500000F0CCF8B72000F0B3F8352000F0C6F82B
:104C6000BB2000F0ADF8322000F0C0F8C22000F008
:104C7000A7F8012000F0BAF8C32000F0A1F8152031
:104C800000F0B4F8C42000F09BF8202000F0AEF84B
:104C9000C62000F095F80F2000F0A8F8D02000F012
:104CA0008FF8A42000F0A2F8A12000F09FF8E020E7
:104CB00000F086F8D02000F099F8082000F096F86F
:104CC0000E2000F093F8092000F090F8092000F081
:104CD0008DF8052000F08AF8312000F087F83320A5
:104CE00000F084F8482000F081F8172000F07EF8EA
:104CF000142000F07BF8152000F078F8312000F047
:104D000075F8342000F072F8E12000F059F8D02056
:104D100000F06CF8082000F069F80E2000F066F84A
:104D2000092000F063F8092000F060F8152000F079
:104D30005DF8312000F05AF8332000F057F8482091
:104D400000F054F8172000F051F8142000F04EF84D
:104D5000152000F04BF8312000F048F8342000F026
:104D600045F8212000F02CF8BDE87040292000F023
:104D700027B8000000140240001802402DE9F0415D
:104D8000141A5F1A641C7F1C0025A4B2BFB2069ED1
:104D9000FFF700FF7C4304E0308800F006F86D1C4C
:104DA000B61CAC42F8D8BDE8F08110B50446000A44
:104DB00000F01CF8E0B2BDE8104000F017B80000A9
:104DC00070B5094D06464FF480440022214628461E
:104DD000FDF7DBFA304600F009F821462846BDE829
:104DE00070400122FDF7D1BA0014024001B5012143
:104DF000684600F001F808BD2DE9F0410D4F0C4662
:104E000005464FF40046002231463846FDF7BDFA0C
:104E1000224629460848FEF70DFC0748FEF779FAB6
:104E20000128FAD131463846BDE8F0410122FDF7AC
:104E3000ACBA00000014024098030020FFF7CAFE3D
:104E400016F0DEFB1CF05EFC1CF0FBFE10F02EF8F2
:104E50000446282264211CF04FF914230022022169
:104E6000204618F063FC204616F09CFD04460DA178
:104E700017F018FC002320461A46092118F056FCAA
:104E80001CF0DFFE16F08EFD044609A117F00AFCA7
:104E9000462300220221204618F048FC142020F06E
:104EA0007BF9FBE7436C69636B204D6500000000F4
:104EB00048656C6C6F204C56474C21001EF034FF47
:104EC000052020F069F9F9E770B58CB0002408944A
:104ED00009940A94202168460B94FBF729FA294883
:104EE0002749012501604FF480310561C0E90114B3
:104EF000057680F820402449C0E90A14C561C460E1
:104F000080F830404561FCF70BFC08B1FCF795F8E0
:104F10000520CDE9080508A91A480A95FCF7C0FA4A
:104F200008B1FCF78AF80226CDE9006503252805BB
:104F300002960790300406908DF8154004958DF880
:104F4000144069460F480394FCF77AF808B1FCF75F
:104F500074F8CDE9005669460A48FCF771F808B1C3
:104F6000FCF76BF80420CDE9000569460548FCF71D
:104F700067F8002801D0FCF760F80CB070BD0000A5
:104F800000200140F8C201200100000F70B58CB074
:104F90000024089409940A94202168460B94FBF796
:104FA000C7F92A482849012501604FF4803105617D
:104FB000C0E90114057680F820402549C0E90A14AB
:104FC000C561C46080F830404561FCF7A9FB08B1B9
:104FD000FCF733F80F20CDE9080508A90A941B480F
:104FE000FCF75EFA08B1FCF728F80A20CDE90005C5
:104FF00003263005029507904FF4A02006908DF807
:10500000154004968DF81440694610480394FCF747
:1050100017F808B1FCF711F80B200090022001905E
:1050200069460A48FCF70CF808B1FCF706F80E20B0
:10503000CDE9000669460548FCF702F8002801D0D2
:10504000FBF7FBFF0CB070BD0021014040C3012005
:105050000100000F0D4810B50B490160102141609F
:1050600000218160C16001614161017641768176F4
:10507000C17601774177FCF7F7FD002803D0BDE842
:105080001040FBF7DABF10BD00640040B4010020FF
:105090002D4808B5016841F400110160016801F470
:1050A00000110091016841F4800101600068002254
:1050B00000F48000009005210D20FDF735FE0D2045
:1050C000FDF724FE002205210F20FDF72DFE0F2005
:1050D000FDF71CFE002205211020FDF725FE102003
:1050E000FDF714FE002205211120FDF71DFE112001
:1050F000FDF70CFE002205212F20FDF715FE2F20C5
:10510000FDF704FE002205213820FDF70DFE3820B2
:10511000FDF7FCFD002205213A20FDF705FE3A20AF
:10512000FDF7F4FD002205213B20FDF7FDFD3B20AE
:10513000FDF7ECFD002205214620FDF7F5FDBDE859
:1051400008404620FDF7E2BD3038024010B500228D
:105150000C21082020F08EF81B4C00221821206121
:10516000062020F087F8A06100222421082020F0EA
:1051700081F8606100220421012020F07BF8E061C9
:10518000124A0021124820F0D5F8104A2062903AC5
:105190000021104820F0CEF80C4A20606C3A002123
:1051A0000D4820F0C7F8094A6060483A00210B48D2
:1051B00020F0C0F8054AA060243A0021084820F0F9
:1051C000B9F8E06010BD000008C0012038AD020849
:1051D000D15E00083D4E0008BD4E0008B9620008CF
:1051E0003D0E00082DE9F04F87B014216846FBF70B
:1051F0009FF858480026016841F0100101600168DD
:1052000001F010010591016841F00401016001689D
:1052100001F004010591016841F02001016001687D
:1052200001F020010591016841F0800101600168F1
:1052300001F080010591016841F001010160016800
:1052400001F001010591016841F00201016001686E
:1052500001F002010591016841F04001016001681F
:1052600001F040010591016841F00801016000680A
:10527000DFF8E48000F008004FF46045059001225B
:1052800029464046FDF781F8DFF8D090012248F228
:1052900001014846FDF779F8002202214846FDF752
:1052A00074F8DFF8BCB0012281215846FDF76DF893
:1052B000DFF8B0A04FF44077012239465046FDF7A1
:1052C00064F81C20CDE90006012469460294584682
:1052D000FCF75EFFCDE90054032569464046CDE961
:1052E0000245FCF755FF0094694648460194CDE914
:1052F0000245FCF74DFF02250095CDE901466946C0
:1053000048460396FCF744FF8020CDE90004694637
:105310005846CDE90245FCF73BFFE003CDE9000428
:1053200069464846CDE90245FCF732FF0097CDE9D2
:105330000145694650460395FCF72AFF0094CDE9E4
:105340000145694658460395FCF722FF07B0BDE8C2
:10535000F08F000030380240001402400018024074
:1053600000100240000402400D4810B50B490160D6
:105370000C49416000214FF480428160C0E9031272
:1053800041618161C1610162FDF70CF8002803D021
:10539000BDE81040FBF751BE10BD000000540040B6
:1053A000DC010020A08601000D4810B50B4901600A
:1053B0000C49416000214FF480428160C0E9031232
:1053C00041618161C1610162FCF7ECFF002803D0FB
:1053D000BDE81040FBF731BE10BD00000058004092
:1053E00030020020A08601000D4810B50B49016075
:1053F0000C49416000214FF480428160C0E90312F2
:1054000041618161C1610162FCF7CCFF002803D0DA
:10541000BDE81040FBF711BE10BD0000005C00406D
:1054200084020020A08601000F4810B50D490160DC
:105430004FF48271416000218160C1604FF40072BD
:105440000161C0E90512C1610162416281620A2104
:10545000C162FDF7DFFF002803D0BDE81040FBF775
:10546000ECBD10BD00300140980300200F4810B57E
:105470000D4901604FF48271416000218160C1607B
:105480004FF400720161C0E90512C161016241621D
:1054900081620A21C162FDF7BDFF002803D0BDE88B
:1054A0001040FBF7CABD10BD00380040F0030020DB
:1054B0000B4810B5094901605321416000214FF4A8
:1054C0007A72C0E9021201618161FEF78FF900284A
:1054D00003D0BDE81040FBF7B0BD10BD0044014053
:1054E00008C5012010B596B000240F9410941194B3
:1054F000129413941C2168461494FAF719FF202182
:1055000007A8FAF715FF34483249C0E900144FF6EE
:10551000FF71C0E90241046144618461FEF766F9EC
:1055200008B1FBF78AFD4FF480500F900FA92A486D
:10553000FEF72CFA08B1FBF780FD2748FEF715FCB3
:1055400008B1FBF77AFD139413A923481494FEF7CE
:1055500005F908B1FBF771FD6020CDE90004029464
:10556000039404940594002269461B480694FEF7B0
:1055700096FB08B1FBF761FD042269461648FEF769
:105580008EFB08B1FBF759FD082269461248FEF769
:1055900086FB08B1FBF751FD0C2269460E48FEF769
:1055A0007EFB08B1FBF749FD0794089409944FF47A
:1055B00000500A94CDE90B4007A907480E94FEF766
:1055C000A3F808B1FBF739FD0348FEF7E7FA16B078
:1055D00010BD000000000140E8C3012010B58EB0EE
:1055E00000240794089409940A940B941C2168469B
:1055F0000C94FAF79DFE2A484FF08041C0E9001450
:10560000202181604FF45261C0E903148461FEF7E8
:10561000EDF808B1FBF711FD4FF48050079007A992
:105620001F48FEF7B3F908B1FBF707FD1C48FEF76A
:105630009CFB08B1FBF701FD0B940BA918480C94D7
:10564000FEF78CF808B1FBF7F8FC6020CDE9000408
:1056500002940022694612480494FEF720FB08B128
:10566000FBF7EBFC042269460D48FEF718FB08B176
:10567000FBF7E3FC082269460948FEF710FB08B176
:10568000FBF7DBFC0C2269460548FEF708FB08B176
:10569000FBF7D3FC0248FEF781FA0EB010BD000004
:1056A00030C4012010B58EB00024079408940994EA
:1056B0000A940B941C2168460C94FAF739FE2A4888
:1056C0002849C0E900144FF6FF71C0E902410461A6
:1056D0008461FEF78BF808B1FBF7AFFC4FF4805004
:1056E000079007A92048FEF751F908B1FBF7A5FC80
:1056F0001D48FEF73AFB08B1FBF79FFC0B940BA982
:1057000019480C94FEF72AF808B1FBF796FC6020C4
:10571000CDE9000402940022694613480494FEF780
:10572000BEFA08B1FBF789FC042269460E48FEF771
:10573000B6FA08B1FBF781FC082269460A48FEF771
:10574000AEFA08B1FBF779FC0C2269460648FEF771
:10575000A6FA08B1FBF771FC0348FEF71FFA0EB07A
:1057600010BD00000004004078C401201FB50021D6
:1057700010480091019102910D4A03910260532259
:10578000C0E901214FF47A72C0E903218161FEF77B
:105790002DF808B1FBF751FC4FF48050009069469A
:1057A0000448FEF7F3F8002801D0FBF746FC1FBDC4
:1057B00000400140C0C401200C4810B50A490160F6
:1057C0004FF4E1314160002181600C22C160C0E9E9
:1057D00004128161C161FEF75FFD002803D0BDE8BE
:1057E0001040FBF72ABC10BD004C004050C5012002
:1057F0000C4810B50A4901604FF4E13141600021C5
:1058000081600C22C160C0E904128161C161FEF7B0
:1058100043FD002803D0BDE81040FBF70EBC10BDCF
:105820000050004098C501200C4810B50A4901609D
:105830004FF4E1314160002181600C22C160C0E978
:1058400004128161C161FEF727FD002803D0BDE885
:105850001040FBF7F2BB10BD00100140E0C5012075
:105860000C4810B50A4901604FF4E1314160002154
:1058700081600C22C160C0E904128161C161FEF740
:105880000BFD002803D0BDE81040FBF7D6BB10BDD0
:105890000044004028C601200C4810B50A490160A8
:1058A0004FF4E1314160002181600C22C160C0E908
:1058B00004128161C161FEF7EFFC002803D0BDE84E
:1058C0001040FBF7BABB10BD0048004070C6012075
:1058D0000C4810B50A4901604FF4E13141600021E4
:1058E00081600C22C160C0E904128161C161FEF7D0
:1058F000D3FC002803D0BDE81040FBF79EBB10BDD1
:1059000000140140B8C60120FEE7FEE7DFED0A1AE9
:10591000C0ED031AC0ED041AC0ED051AC0ED061A59
:10592000C0ED071AC0ED001AC0ED011AC0ED021A51
:10593000203080EC030A70470000000030EE600A5F
:1059400080ED030AD0ED060A70EE800AC0ED060A6B
:1059500090ED0A1AF4EEC10AF1EE10FA06DCB1EE8F
:10596000411AF4EEC10AF1EE10FA01D280ED061AE6
:10597000D0ED000A90ED011AD0ED061A60EE800A13
:1059800041EE210A90ED041AD0ED021A30EE411AD0
:1059900041EE810AC0ED070A90ED081AF4EEC10A43
:1059A000F1EE10FA06DA90ED091AF4EEC10AF1EE02
:1059B00010FA01D880ED071A80ED040A90ED070A6D
:1059C000704780EC030A7047044B10B51C68A06355
:1059D0001868C1631868026410BD000030C401205B
:1059E00070B50C462DED028BF0EE408A0546FBF7B4
:1059F00069F8F0EE400AB0EE680AB0EE608AFBF794
:105A000015F8D4ED000A94ED011A60EE800A41EE1B
:105A1000080AC5ED000AD4ED010A20EE800AD4ED93
:105A2000000A00EEC80A85ED010ABDEC028B70BDCC
:105A300010B50346012940D15A78987804F088F9C6
:105A4000187828B3012802D0022821D130E01B4861
:105A500030E000BFD0ED000A30EE800A0AE0112AE3
:105A600004D0022A09D0122A0CD011E0D0ED000A8D
:105A700030EEC00A80ED000A0AE0D0ED010A30EEF7
:105A8000800A03E0D0ED010A30EEC00A80ED010A81
:105A90000B4C00231A46094920681FF017FC00230D
:105AA00006492068BDE810401A4618311FF00EBCA8
:105AB00002481830012AD2D1CCE710BD80D601208F
:105AC00020C0012010B5164C00232DED028B1A4684
:105AD000124920681FF09CFB104900231A46183118
