:020000040800F2
:100000002084012029030008C33300083D2800088C
:10001000C133000891080008393A000800000000C8
:10002000000000000000000000000000690200085D
:100030004509000800000000C5020008A1350008BD
:100040004303000843030008430300084303000878
:100050004303000843030008430300084303000868
:100060004303000843030008430300084303000858
:1000700043030008430300084303000895080008F1
:100080004303000843030008430300084303000838
:100090004303000843030008430300084303000828
:1000A0004303000843030008430300084303000818
:1000B0004303000843030008430300084303000808
:1000C00043030008430300084303000843030008F8
:1000D000C533000843030008430300084303000836
:1000E00043030008430300084303000843030008D8
:1000F00043030008430300084303000843030008C8
:100100004303000843030008613600084303000866
:1001100043030008430300084303000843030008A7
:100120004303000843030008430300084303000897
:100130004303000843030008430300084303000887
:100140004303000843030008430300084303000877
:100150004303000843030008430300084303000867
:100160004303000843030008430300084303000857
:100170004303000843030008430300080000000095
:10018000430300084303000800F002F800F05CF8A5
:100190000AA090E8000C82448344AAF10107DA45E2
:1001A00001D100F051F8AFF2090EBAE80F0013F0D8
:1001B000010F18BFFB1A43F0010318477CB402007B
:1001C000BCB402000A444FF0000C10F8013B13F0DD
:1001D000070408BF10F8014B1D1108BF10F8015BA0
:1001E000641E05D010F8016B641E01F8016BF9D193
:1001F00013F0080F1EBF10F8014BAD1C0C1B09D1EA
:100200006D1E58BF01F801CBFAD505E014F8016B5B
:1002100001F8016B6D1EF9D59142D6D370470000ED
:100220000023002400250026103A28BF78C1FBD8FF
:10023000520728BF30C148BF0B6070471FB526F07A
:1002400051FE1FBD10B510BD00F05FFA1146FFF75B
:10025000F5FF20F025FD00F07DFA03B4FFF7F2FF73
:1002600003BC00F047FA00002C4B19680868B0E89E
:10027000F04F80F30988BFF36F8F4FF0000080F3D9
:10028000118870470000000008480068006880F38B
:1002900008884FF0000080F3148862B661B6BFF39F
:1002A0004F8FBFF36F8F00DF00BF00BF08ED00E08E
:1002B000DFF80C00016841F470010160704700BF75
:1002C00088ED00E0EFF30980BFF36F8F134B1A68DE
:1002D0001EF0100F08BF20ED108A20E9F04F1060CB
:1002E00009B44FF0500080F31188BFF34F8FBFF374
:1002F0006F8F26F005F84FF0000080F3118809BCDD
:1003000019680868B0E8F04F1EF0100F08BFB0EC95
:10031000108A80F30988BFF36F8F70470CC00120EB
:10032000EFF30580704700000948804709480047FF
:10033000FEE7FEE7FEE7FEE7FEE7FEE7FEE7FEE795
:10034000FEE7FEE704480549054A064B70470000F2
:100350005136000889010008202401202084012052
:10036000204401202044012053EA020C00F069805F
:100370002DE9F04B4FF00006002B1FBFB3FA83F5B9
:1003800003FA05F424FA05F65E4012BF1643B2FAEA
:1003900082F502FA05F4C5F120051EBF22FA05FC1C
:1003A00044EA0C04203556EA044C4FEA144418BFC2
:1003B000641C4FF000084FF00009904271EB030CF1
:1003C00039D3002919BFB1FA81F701FA07F6B0FA5B
:1003D00080F700FA07F6C7F120071EBF20FA07FCD6
:1003E00046EA0C062037B6FBF4FCA7EB0507103FE6
:1003F00007F01F0BCBF120060CFA0BFB2CFA06F6CC
:1004000044BFB3460026202FA4BF5E464FF0000B2A
:100410005BEA060C08BF4FF0010B19EB0B09ABFBB5
:10042000027C48EB0608C01B06FB02CC0BFB03CC8E
:1004300071EB0C01C1E70B46024641464846BDE858
:10044000F08B13B54FF000004FF00001AFF30080C8
:10045000BDE81C40704740EA0103024630B59B07E7
:1004600010D14FF0013400E008C208C91D1B9D43A4
:1004700015EAC41FF8D013F0FF0102F8011B0DD0DC
:100480001B0AF8E711F8013B002B02F8013B05D0ED
:1004900011F8013B002B02F8013BF3D130BD10B540
:1004A000431C02E010F8011B71B18107FAD14FF033
:1004B000013202C88C1A8C4314EAC211F9D0C01A56
:1004C0000A0603D0C01E10BDC01A10BD0A0401D018
:1004D000801E10BD0902FCD0401E10BD032A40F250
:1004E000308010F0030C00F0158011F8013BBCF1D6
:1004F000020F624498BF11F801CB00F8013B38BFEE
:1005000011F8013BA2F1040298BF00F801CB38BFFB
:1005100000F8013B11F0030300F02580083AC0F019
:10052000088051F8043B083A51F804CBA0E80810C1
:10053000F5E7121D5CBF51F8043B40F8043BAFF3F4
:100540000080D20724BF11F8013B11F801CB48BF4E
:1005500011F8012B24BF00F8013B00F801CB48BF84
:1005600000F8012B704710B5203AC0F00B80B1E8BD
:100570001850203AA0E81850B1E81850A0E81850D8
:10058000BFF4F5AF5FEA027C24BFB1E81850A0E8E1
:10059000185044BF18C918C0BDE810405FEA827CFB
:1005A00024BF51F8043B40F8043B08BF7047D20712
:1005B00028BF31F8023B48BF11F8012B28BF20F8B3
:1005C000023B48BF00F8012B704702F0FF0343EAEB
:1005D000032242EA024200F002B84FF0000204296E
:1005E000C0F0128010F0030C00F01B80CCF1040C62
:1005F000BCF1020F18BF00F8012BA8BF20F8022B96
:10060000A1EB0C0100F00DB85FEAC17C24BF00F83B
:10061000012B00F8012B48BF00F8012B70474FF069
:10062000000200B5134694469646203922BFA0E842
:100630000C50A0E80C50B1F12001BFF4F7AF09074E
:1006400028BFA0E80C5048BF0CC05DF804EB89003F
:1006500028BF40F8042B08BF704748BF20F8022B82
:1006600011F0804F18BF00F8012B70474FF0013C8C
:1006700050F8042B51F8043B9A4221D1A2EB0C0311
:10068000934313EACC1317D150F8042B51F8043BD1
:100690009A4215D1A2EB0C03934313EACC130BD16E
:1006A00050F8042B51F8043B9A4209D1A2EB0C03F9
:1006B000934313EACC13DBD04FF00000704700BF28
:1006C000D01A01BAB1FA81F101F0180122FA01F051
:1006D000CB40C1F12001DBB2C0B2C01A2CFA01F349
:1006E000D11A914311EAC311E6D1704770477047A0
:1006F0007047000001491820ABBEFEE7260002004B
:1007000000487047C4C3012070477546FFF7F8FFE3
:10071000AE4605006946534620F00700854618B0EE
:1007200020B5FFF70FFEBDE820404FF000064FF068
:1007300000074FF000084FF0000B21F00701AC4616
:10074000ACE8C009ACE8C009ACE8C009ACE8C00935
:100750008D46704710B50446AFF300802046BDE8D3
:100760001040FFF77ABD0000464910B54A6822F4F0
:1007700040324A604A6843681A434A6001684A68DE
:1007800022F480724A6001684A68036942EA0322DF
:100790004A6001684A6822F040724A6001684A680B
:1007A00083681A434A6001688A6822F400628A609A
:1007B00001688A68C3681A438A60816A6FF0706250
:1007C000D14201688A6822F070628A6001688A6892
:1007D0000CD0836A1A438A6001688A6822F040520A
:1007E0008A6001688A68C36A1A4301E022F04052B5
:1007F0008A6001688A6822F002028A6001688A6859
:10080000037E42EA43028A6090F8201000290168C2
:100810004A680FD042F400624A6001684A6822F4D4
:1008200060424A6001684A68174C436A04EB4333EC
:100830001A4301E022F400624A600168CA6A22F4A5
:100840007002CA620168CA6A838B104C04EB0353BE
:100850001A43CA6201688A6822F400728A600168D9
:100860008A6890F8303042EA43228A6001688A68D8
:1008700022F480628A6001688A68406942EA8020C6
:10088000886010BD0023014000E0FFFF0000F0FF82
:10089000FEE70000014800F04DBA00004CC3012003
:1008A00001681823CAB2103AB2FBF3F2054B6FF39A
:1008B0000901032A9B5CC36500D9091D81650846AF
:1008C000704700005C6F020810B5014600208B697C
:1008D0008A6A4FF0C07453B1B3F5005F15D072B19E
:1008E000012A0CD0022A0AD0032A09D104E01AB145
:1008F000012A06D0022A03D1C96AC90100D5012004
:1009000010BDC96AA142FAD010BD002AF7D0012A51
:10091000F2D0022AF3D0032AF3D010BD30B5046818
:10092000256825F480252560046863608368402B72
:10093000036803D099600068C26030BD9A600068A7
:10094000C16030BD704772B6FEE7000078B5002484
:10095000009490F83C20012A19D0012280F83C2014
:100960000A6807230568092A13D9EE680A3A02EBD8
:10097000420293409E43EE600B788A680A3B03EB89
:1009800043039A400368DD682A43DA6010E00220DE
:1009900078BD2E6902EB420293409E432E610B7894
:1009A0008A6803EB43039A4003681D692A431A616E
:1009B0004A681F23072A13D205686E6B521E02EB8A
:1009C000820293409E436E630B790A885B1E92B24B
:1009D00003EB83039A4003685D6B2A435A6327E065
:1009E00005680D2A12D22E6BD21F02EB82029340B1
:1009F0009E432E630B790A88DB1F92B203EB8303BD
:100A00009A4003681D6B2A431A6311E0EE6A0D3A9F
:100A100002EB820293409E43EE620B790A880D3B03
:100A200092B203EB83039A400368DD6A2A43DA62D9
:100A3000164B0568144A9D4206D10D68122D03D14C
:100A4000556845F48005556005689D4218D10B68CE
:100A5000102B01D0112B13D1536843F400035360C2
:100A6000096810290CD10A490A4A0968B1FBF2F158
:100A700001EB8101490000E0491E00910029FBD1F2
:100A800080F83C40002078BD002301400020014058
:100A90000C00002040420F0070B504004FF000052C
:100AA00003D0206C002610B107E0012070BD204665
:100AB00000F01CF8666484F83C60206CC00610D41A
:100AC000206C20F4885040F0020020642046FFF79C
:100AD0004BFE6664206C20F0020040F001002064B0
:100AE00000E0012584F83C60284670BD30B587B031
:100AF000044614216846FFF792FD1F4824681D4DE7
:100B000000221D4914380323AC4216D10C6844F46A
:100B100080740C60096801F480710591016841F0EE
:100B2000010101600068694600F0010005903C2069
:100B3000CDE900030292114818E0114DAC4217D1E3
:100B40000C6844F400740C60096801F400710591AC
:100B5000016841F0040101600068694600F004008A
:100B600005903020CDE900030292064800F054FAC7
:100B700007B030BD00200140443802400000024070
:100B8000002101400008024070B5040003D094F831
:100B9000200010B104E0012070BD204600F082F872
:100BA0002068016841F00101016000F033FB054657
:100BB000052604E000F02EFB401B0A2811D820680F
:100BC0004068C007F6D02068016821F0020101608A
:100BD00000F020FB05460BE000F01CFB401B0A2840
:100BE00006D9606A40F40030606284F82060D2E781
:100BF000206840688007EFD4207E012820680168C3
:100C00003DD021F080010160607E012820680168EC
:100C100038D021F040010160A07E012820680168E1
:100C200033D021F020010160E07E012820680168B6
:100C30002ED041F010010160207F0128206801685A
:100C400029D021F008010160607F01282068016837
:100C500024D021F004010160D4E902010843D4E961
:100C60000412114308436168491E08432168C861A2
:100C700000206062012084F82000002070BD41F057
:100C80008001C0E741F04001C5E741F02001CAE71B
:100C900021F01001CFE741F00801D4E741F0040151
:100CA000D9E7000010B586B0044614216846FFF766
:100CB000B6FC14492068884221D1134800210268FB
:100CC00042F000720260006800F0007005900E486B
:100CD0001038026842F001020260006800F0010072
:100CE00005904FF4C05000900220CDE9010103208F
:100CF0000390092004906946044800F08DF906B07D
:100D000010BD000000640040403802400000024076
:100D100090F83510022903D08021416501207047E9
:100D2000052180F835100068016821F0010101609B
:100D3000002070472DE9F84304464FF00009CDF834
:100D4000009063484FF41651A56D0068B0FBF1F7B1
:100D50002E6894F85C10082000FA01F131420FD09F
:100D600021680A6852070BD50A6822F004020A605B
:100D700094F85C108840A860606D40F001006065E8
:100D800094F85C104FF0010808FA01F0304208D0E6
:100D900021684969090604D5A860606D40F0020029
:100DA000606594F85C1004208840304208D02168C7
:100DB0000968890704D5A860606D40F0040060658B
:100DC00094F85C1010208840304218D021680968DF
:100DD000090714D5A86020680168490304D5006894
:100DE000000308D5A16C07E00168C90503D40168B8
:100DF00021F008010160216C09B12046884794F870
:100E00005C1020208840304231D021680968C90632
:100E10002DD5A86094F8350005282068016806D013
:100E2000490347D5006800031DD4616C1CE021F024
:100E3000160101602068416921F080014161206C48
:100E400008B9A06C20B12068016821F00801016098
:100E500094F85C103F208840A86084F8358084F8BE
:100E60003490216D1FE0E16B09B120468847606D29
:100E700000282BD0606DC00714D0052084F8350001
:100E80002068016821F0010101600098401C009079
:100E9000B84203D820680068C007F6D184F83580CE
:100EA00084F83490E16C002910D001B02046BDE8F0
:100EB000F04308470168C905D5D4016821F0100145
:100EC000016084F8358084F83490CCE7BDE8F8837D
:100ED0000C0000202DE9F041044600F09BF9064685
:100EE0005CB1022084F83500002584F83450206875
:100EF000016821F0010101600DE00120BDE8F081F1
:100F000000F088F9801B052805D9202060650320A2
:100F100084F83500F2E720680068C007F0D1226845
:100F2000116820480140D4E901031843D4E903368D
:100F30003343184363691843A3691843E3691843AB
:100F4000236A18430843616A042903D1D4E90B13C7
:100F500019430843106020684069666A20F0070161
:100F600030460E43012704280CD1A06A0643E06AEC
:100F700040B12046FFF7A8FC20B14020606584F80E
:100F80003570BAE7206846612046FFF789FC94F87F
:100F90005C203F2191408160656584F835700020B8
:100FA000ACE700003F8010F02DE9F0410446866D6B
:100FB00090F83400002501280DD0012084F8340079
:100FC00094F835700020012F07D084F834000225F2
:100FD0002846BDE8F0810220FBE7022784F835703F
:100FE00060652046FFF79AFC94F85C103F2088402B
:100FF000B0602068016841F016010160206C20B1EA
:101000002068016841F0080101602068016841F032
:1010100001010160DCE700002DE9F84FDFF8BCA119
:101020000022012503264FF00F090AF1040BAAF153
:10103000040E00BF0B6805FA02F42340A34270D1EE
:101040000F7907F00307012F01D0022F16D187680F
:101050004FEA420806FA08FC27EA0C07D1F80CC050
:101060000CFA08FC4CEA070CC0F808C04768A74314
:101070000C79C4F3001494403C4344600C79E4437D
:10108000A4070AD0C4684FEA420C06FA0CF7BC4326
:101090008F6807FA0CF72743C7600C7904F0030444
:1010A000022C12D1D40800EB840CDCF82040570746
:1010B000FF0E09FA07F824EA0804D1F8108008FAAC
:1010C00007F848EA0408CCF8208004684FEA420C8C
:1010D00006FA0CF7BC430F7907F0030707FA0CF781
:1010E000274307604C6814F4403F70D03C4C27689D
:1010F00047F480472760246822F0030704F4804403
:101100000094384C07EB040CDCF8084897074FEACA
:10111000177809FA08F7BC43334FB84202D10027C9
:1011200024E054E0314FB84201D101271EE0304F96
:10113000B84201D1022719E02E4FB84201D103274E
:1011400014E02D4FB84201D104270FE02B4FB842D5
:1011500001D105270AE02A4FB84201D1062705E050
:10116000284FB84201D1072700E0082707FA08F7FF
:101170002743CCF80878DAF800405746D1F804C085
:101180009C435FEACC2C00D51C433C60DBF800405C
:101190005F46D1F804C09C435FEA8C2C00D51C4309
:1011A0003C60DEF800407746D1F804C09C435FEA1B
:1011B0008C3C00D51C433C60084F083F3C68D1F88C
:1011C00004C09C435FEACC3C00D51C433C60521CED
:1011D000102AFFF42FAFBDE8F88F0000083C014053
:1011E0004438024000300140000002400004024048
:1011F00000080240000C02400010024000140240AF
:1012000000180240001C02400AB1816170470904C5
:10121000FBE70000014880687047000000000020E4
:1012200070B5040025D094F83D00002520B984F85D
:101230003C50204600F0B8F8242084F83D00206897
:10124000016821F0010101602068016841F400415A
:1012500001602068016821F40041016000F0B4FAE7
:101260004D4A6168914201D84C4900E04C4988429E
:1012700001D2012070BD4B492368B0FBF1F15E68DB
:1012800026F03F060E435E606368934206D94FF432
:10129000967359434FF47A73B1FBF3F12368491CF9
:1012A0001E6A26F03F06314319626168914210D8E8
:1012B0004900401EB0FBF1F2521CC2F30B02042A9B
:1012C00001D2042022E0B0FBF1F0401CC0F30B007F
:1012D0001CE0A268F2B301EBC10303EB0116431E4D
:1012E000B3FBF6F35B1C43F480431B0549D092B378
:1012F00001EBC10202EB0111401EB0FBF1F0401CFA
:10130000C0F30B0040F4804040F400402168CA69FB
:101310004CF6FF739A431043C861D4E907100143A8
:101320002068026822F0C00211430160D4E9030181
:1013300001432068826848F2FF339A431143816079
:10134000D4E9050108432168CA6822F0FF0210436E
:10135000C86001E00EE016E02068016841F001017C
:1013600001602564202084F83D00256384F83E5008
:10137000002070BD01EB4106431EB3FBF6F35B1C7E
:10138000B3E70120C2E701EB4101401EB0FBF1F0E1
:10139000401CC0F30B00B7E7A086010080841E004C
:1013A00000093D0040420F002DE9F04186B004469F
:1013B00014216846FFF733F922683A4C384B002174
:1013C000384812260325042710349A4219D102689E
:1013D00042F002020260006802AA00F002000590DA
:1013E00082E8A200C020CDE9000669462E48FFF73A
:1013F00013FE206840F400102060206800F4001004
:101400001AE02A4B9A421BD1026842F02002026085
:10141000006802AA00F020000590CDE9005682E89D
:10142000A20069462248FFF7F7FD206840F48000DB
:101430002060206800F48000059006B0BDE8F081CF
:101440001C4B9A42F9D18846016841F004010160C1
:10145000016801F004010591016841F0010101609A
:101460000068694600F00100059050158DE84101C3
:10147000CDE903571048FFF7CFFD4FF480708DE89A
:101480004101CDE9035769460C48FFF7C5FD2068C7
:1014900040F400002060206800F40000CCE7000069
:1014A0000054004030380240000402400058004020
:1014B00000140240005C00400008024000000240AE
:1014C0000248816802781144816070470000002062
:1014D0000B4810B5016841F400710160016841F4E6
:1014E00080610160016841F480710160032000F0B7
:1014F0009FF80F2000F006F800F050F8002010BD13
:10150000003C024030B505461F4887B00024016802
:1015100041F008010160006806A900F00800009091
:1015200001A800F031F90498A8B100F04DF940008D
:101530001649174AB0FBF1F11648491E026040F205
:10154000E732C0E90324C0E90114846100F08CFD96
:10155000040003D015E000F037F9E9E70D4800F08A
:10156000E9FD04000DD1322000F034F8102D07D22F
:1015700000222946322000F03BF80748056000E0D1
:10158000012407B0204630BD4038024040420F00E1
:10159000000C004090040020040000200C4882B0A1
:1015A000016841F480410160006800F480400090CF
:1015B0000748001F016841F0805101600068002267
:1015C00000F0805000900F21901E02B000F010B883
:1015D00044380240002809DB00F01F02012191403D
:1015E0004009800000F1E020C0F8001170470000C1
:1015F000F0B40E4B1B680C46C3F30223C3F107057E
:10160000042D00D90425191D072901D2002300E06B
:10161000DB1E012606FA05F1491E214099409E4035
:10162000761E16403143F0BC02F007BA0CED00E024
:10163000064900F0070208684FF6FF03184040EA29
:101640000220034A10430860704700000CED00E0E0
:101650000000FA052DE9F0470E46050065D0DFF8D9
:101660001481D8F80000F7B200F00700B04207D2AA
:1016700088F80070D8F8000000F00700B04254D19C
:1016800028683D4C810712D5400703D5206840F4F7
:10169000E05020602878000703D5206840F46040BF
:1016A00020602068A96820F0F000084320602878B6
:1016B000C0072DD0304968680839012812D00228A7
:1016C00013D0032811D00968890700292DDA216871
:1016D00021F0030101432160FFF79CFD814641F2A7
:1016E000883A0EE009688903EFE709688901ECE7A9
:1016F000FFF790FDA0EB0901514502D90320BDE899
:10170000F0872068696800F00C00B0EB810FEFD122
:10171000D8F80010404601F00701B14207D9077020
:10172000006800F00700B04201D00120E7E7287808
:10173000400705D52068E96820F4E05008432060A0
:101740002878000706D52068296920F4604040EA1F
:10175000C100206000F058F82168084AC1F3031165
:10176000515CC8400649086006480068FFF7CAFE99
:101770000020C4E7003C024008380240646F0208C1
:101780000C000020040000200F2202600C4A1368A5
:1017900003F003034360136803F0F00383601368EE
:1017A00003F4E053C36012684FF4E05303EAD2023B
:1017B00002610448006800F00700086070470000FC
:1017C00008380240003C02400448054900680968A6
:1017D000044AC1F38221515CC84070470C000020CC
:1017E00008380240746F0208044805490068096817
:1017F000044AC1F34231515CC84070470C000020DC
:1018000008380240746F0208154810B5006810F0DF
:101810000C02144813D01449042A0FD0082A0ED100
:101820000F4C241F2268236802F03F025B0207D599
:101830002068C0F38810A0FB010106E0084610BD37
:101840002168C1F38811A1FB00010023FEF78CFD84
:101850002168C1F30141491C4900B0FBF1F010BD02
:10186000083802400024F40040787D012DE9F84F4B
:1018700004006ED02078DFF84C93C007A9F104056E
:101880004AD009F104000168C1F38101012908D09F
:101890000068C0F3810002280AD1D9F80000400294
:1018A00006D52868800337D560680028E1D033E08A
:1018B0006068B0F5803F10D0B0F5A02F286810D038
:1018C00020F480302860286820F480202860606838
:1018D000A8B1FFF79FFC06460DE0286840F4803071
:1018E000F4E740F480202860F7E700BFFFF792FCA0
:1018F000801B642873D828688003F7D50CE0FFF7B5
:1019000089FC064605E000BFFFF784FC801B6428C5
:10191000F0D828688003F7D42078DFF8AC828007FD
:101920004FF0000A3ED5A748001D016811F00C0FCA
:1019300008D00068C0F3810002280BD1D9F800005C
:10194000400207D42868800716D5E068012800D136
:1019500012E033E1E068B8B10120C8F80000FFF7F9
:1019600059FC064605E000BFFFF754FC801B022827
:10197000C0D828688007F7D52868216920F0F800CA
:1019800040EAC10028600DE0C8F800A0FFF742FC63
:10199000064604E0FFF73EFC801B02281FD828689B
:1019A0008007F7D42078000722D5864F87486169E1
:1019B000703771B101210160FFF72CFC064604E08D
:1019C000FFF728FC801B022809D838688007F7D564
:1019D0000EE0C0F800A0FFF71DFC064605E082E01F
:1019E000FFF718FC801B02287DD838688007F7D4E1
:1019F0002078400768D5DFF8CCB100270BF13C0B0D
:101A0000DBF80000C0000BD4DBF8001041F080517F
:101A1000CBF80010DBF80000012700F080500090A8
:101A20006B4E3068C00510D4306840F48070306070
:101A3000FFF7F0FB009005E0FFF7ECFB0099401A80
:101A4000022850D83068C005F6D55E4EA0686C36C6
:101A500001280FD00528306810D020F00100306038
:101A6000306820F004003060A068B8B1FFF7D2FB06
:101A700000900FE0306840F00100F4E740F004000F
:101A80003060F7E7FFF7C6FB0099411A41F2883052
:101A9000814266D830688007F4D50EE0FFF7BAFBC4
:101AA000009007E0FFF7B6FB0099411A41F2883039
:101AB000814256D830688007F4D42FB1DBF800108B
:101AC00021F08051CBF80010A069C8B33D49091D31
:101AD0000968C1F3810102294AD00228504607D083
:101AE000C8F8600000E03CE0FFF794FB04463BE0F0
:101AF0004746C8F86000FFF78DFB064605E000BFCB
:101B0000FFF788FB801B02282BD828688001F7D4B8
:101B1000D4E907010843A16A2E4A490802EB0141B2
:101B2000626A41EA8211084394F82C1040EA01618C
:101B3000C9F8001001203866FFF76CFB044606E088
:101B40003EE000BFFFF766FB001B022809D82868AB
:101B50008001F7D534E000BFFFF75CFB001B0228D3
:101B600002D90320BDE8F88F28688001F4D427E06B
:101B70000128F7D0D9F80000E26900F48001914211
:101B80001CD1226A00F03F01914217D147F6C07183
:101B9000626A0140B1EB821F10D1A26A4FF0FF339D
:101BA00000F4403103EB5202B1EB024F06D194F83E
:101BB0002C1000F07060B0EB016F01D00120D1E774
:101BC0000020CFE70438024000004742800E474221
:101BD000007000400000FFFF704790F85100704710
:101BE00038B5016804464A688868C043430606D58C
:101BF000C30704D1D3435B0601D4216C05E08307FE
:101C000008D4D3431B0605D4616C01B02046BDE85F
:101C100030400847830603D5430601D5C30551D498
:101C2000D3439B064ED443060AD494F85130032B79
:101C300049D0636D43F004036365CB688B68009300
:101C4000830609D4636D43F0010363658B680093D9
:101C50000B6823F040030B60C00506D4606D40F0B4
:101C600008006065206880680090606D002829D0B9
:101C70002068416821F0E0014160012084F85100B2
:101C8000900701D4D00722D02068416821F00301D9
:101C90004160114DE06C40B10565E06CFFF738F82C
:101CA00018B1606D40F040006065A06C002809D05C
:101CB0000565A06CFFF72CF8002803D0606D40F09C
:101CC0004000606538BDC8688868009038BD20460F
:101CD000FFF782FF38BD0000D133000870B5040063
:101CE00009D0606A002540B125616561A56294F85C
:101CF000510040B10CE0012070BD6068B0F5827FFA
:101D0000F4D0E561F2E784F85050204600F044F842
:101D1000022084F851002068016821F04001016030
:101D2000A088218900F4827001F404410843A1894C
:101D300001F400610843217C01F002010843217D88
:101D400001F001010843218B01F400710843217F58
:101D500001F03801084394F8201001F08001084395
:101D6000218D01F40051084321680860A069042115
:101D700001EA104094F8241001F010010843216892
:101D800048602068C16921F40061C1616565012076
:101D900084F85100002070BD2DE9F04387B006465D
:101DA00014216846FEF73BFC3A4B316800253A485F
:101DB000022403270522DFF8E49099421CD136491A
:101DC00014310B6843F480530B60096801F48051AF
:101DD0000591016841F0020101600068049200F081
:101DE0000200059038208DE8B10069464846FFF7AB
:101DF00013F907B0BDE8F083294B9942F9D1264980
:101E000010310B6843F480430B60096801F4804192
:101E10000591016841F004010160016801F00401CD
:101E20000591016841F0020101600068904600F0F0
:101E3000020005900C208DE8B10169461948FFF7B2
:101E4000EBF84FF400508DE8B10169464846FFF7C2
:101E5000E3F8164C1448C4E900054020C4E9020523
:101E60000001C4E90405C001A561C4E9075020468A
:101E70006562FFF72FF808B1FEF765FDB464002234
:101E800005212420A663FFF7B3FB2420FFF7A2FB64
:101E9000AFE700000030014030380240000402404B
:101EA0000038004000080240706002404CC301202E
:101EB00070B5044690F8510001281CD1C9B1C2B1D7
:101EC00094F85000012816D0012084F85000032017
:101ED00084F85100002565652163A286E286A5632A
:101EE00065642564A587E587A068B0F5004F04D038
:101EF0000DE0012070BD022070BD2068016821F056
:101F0000400101602068016841F480410160A16CDA
:101F100017480864A16C1748C863A16C1648C864C8
:101F2000A06C0565E38E2268216B0C32A06CFFF774
:101F30003BF830B1606D40F01000606584F850509F
:101F4000D7E720680168490603D4016841F04001E1
:101F5000016084F850502068416841F020014160E0
:101F60002068416841F002014160002070BD00001E
:101F7000033400080D340008E1330008704770474F
:101F80007047704710B590F83C20012A22D00122FA
:101F900080F83C20CA688C6822F4407222434C6866
:101FA00022F4806222430C6822F4006222430C690E
:101FB00022F4805222434C6922F400522243C96920
:101FC000002322F480420A4301684A6480F83C30CE
:101FD000002010BD022010BD70B590F83C20012AF1
:101FE00032D0012480F83C40022280F83D20036872
:101FF0005A689D6822F070060A6832435A60134B93
:1020000002689A4214D0B2F1804F11D0104B9A421C
:102010000ED0104B9A420BD00F4B9A4208D00F4B68
:102020009A4205D00E4B9A4202D00E4B9A4204D1EE
:10203000496825F080031943916080F83D400021F4
:1020400080F83C10084670BD022070BD00000140C1
:102050000004004000080040000C00400004014063
:10206000004001400018004010B5040003D094F86F
:102070003D0010B107E0012010BD002084F83C00B5
:10208000204600F01FF8022084F83D00211D206842
:1020900001F0ECFA012084F8460084F83E0084F850
:1020A0003F0084F8400084F8410084F8420084F83E
:1020B000430084F8440084F8450084F83D00002083
:1020C00010BD000008B51749026817488A4205D1BB
:1020D000016841F001010160006814E01249091F24
:1020E000B2F1804F0AD0114B9A4210D1086840F0EB
:1020F00002000860086800F0020006E0086840F08E
:1021000001000860086800F00100009008BD08495F
:102110008A42FBD1016841F480310160006800F41B
:102120008030F2E7000001404438024000040040E3
:102130000040014090F83D10012901D00120704776
:10214000022180F83D100168CA6842F00102CA60AD
:1021500000681149884214D0B0F1804F11D00F4966
:1021600088420ED00E4988420BD00E49884208D0D2
:102170000D49884205D00D49884202D00C49884259
:1021800004D1816801F00701062903D0016841F0FC
:102190000101016000207047000001400004004080
:1021A00000080040000C00400004014000400140D5
:1021B0000018004070B5044690F83C000025012846
:1021C00017D0012684F83C60022084F83D00206886
:1021D000826822F0770222F47F42826008685028E9
:1021E00038D00DDC20284FD005DC90B3102811D159
:1021F0004AE0022070BD302846D040280AD13BE09A
:1022000060282FD070280DD0B0F5805F03D0B0F5D6
:10221000005F12D0012584F83D60002084F83C0066
:10222000284670BDCB68D1E90121206801F086FA0B
:102230002068816841F0770109E0CB68D1E901218C
:10224000206801F07BFA2068816841F48041816058
:10225000E1E719E0CA684968206801F043FB5021B2
:10226000206806E0CA684968206801F04CFB6021DC
:10227000206801F06DFACEE7CA684968206801F06D
:1022800031FB40212068F4E7226801461046F0E760
:1022900070472DE9F04104460068C66805694FF0B3
:1022A0000007A90713D5B10711D5F91E0161012057
:1022B0002077206880698007204602D0FFF7E8FF7A
:1022C00004E000F0FFF8204600F091F92777680756
:1022D00016D5700714D521686FF00400086102203C
:1022E00020772068806910F4407F204602D0FFF7F5
:1022F000CFFF04E000F0E6F8204600F078F92777F9
:10230000280715D5300713D521686FF0080008613C
:10231000042020772068C0698007204602D0FFF79C
:10232000B7FF04E000F0CEF8204600F060F9277710
:10233000E80616D5F00614D521686FF01000086184
:10234000082020772068C06910F4407F204602D022
:10235000FFF79EFF04E000F0B5F8204600F047F9D3
:102360002777E80708D0F00706D021686FF0010052
:102370000861204600F03CF9280608D5300606D54D
:1023800021686FF0800008612046FFF7F9FD6806BC
:1023900008D5700606D521686FF040000861204618
:1023A00000F030F9A8060AD5B00608D521686FF00C
:1023B000200008612046BDE8F041FFF7E2BDBDE81E
:1023C000F0810000F0B587B0044614216846FEF79E
:1023D00026F9364A23680024354802250121934214
:1023E00011D1026842F010020260006800F0100093
:1023F00005904FF4D4400090CDE90154CDE903415C
:1024000069462C484DE003262B4A2C4FB3F1804FF0
:1024100024D02B498B4246D1016841F00101016073
:10242000016801F001010591016841F002010160BC
:102430000068694600F002000590C0200090CDE9D8
:1024400001541046CDE90345FEF7E6FD0096CDE9BF
:10245000015469463846CDE9034522E0036843F05C
:1024600001030360036803F001030593036843F06D
:102470000203036000680096CDE901540E4600F0A7
:102480000200CDE90460694603941046FEF7C4FDDE
:102490004FF440600090CDE90154CDE90346694610
:1024A0003846FEF7B9FD07B0F0BD0000000001405E
:1024B0003038024000100240000002400004024098
:1024C00000040040704770B5044690F83C000026B8
:1024D0000D4601280FD0012084F83C006AB1042A7F
:1024E0001DD0082A2FD00C2A3FD00126002084F8C6
:1024F0003C00304670BD022070BD206801F030F90C
:102500002068816941F0080181612068816921F0BA
:1025100004018161206881692A69114311E0206802
:1025200001F04EF92068816941F400618161206801
:10253000816921F480618161206881692A6941EAA9
:1025400002218161D2E7206801F070F92068C16939
:1025500041F00801C1612068C16921F00401C16135
:102560002068C1692A69114311E0206801F092F9DD
:102570002068C16941F40061C1612068C16921F42A
:102580008061C1612068C1692A6941EA0221C16193
:10259000ACE710B5040003D094F83D0010B107E09B
:1025A000012010BD002084F83C00204600F01EF8F9
:1025B000022084F83D00211D206801F057F8012019
:1025C00084F8460084F83E0084F83F0084F8400018
:1025D00084F8410084F8420084F8430084F8440001
:1025E00084F8450084F83D00002010BD7047704716
:1025F00000680349884201D1FEF762BF70470000BE
:10260000000C0040704770B5040004D094F84100FD
:10261000002510B106E0012070BD84F8405020462E
:1026200000F024F8242084F841002068C16821F4D7
:102630000051C160204601F079F92068016921F458
:10264000904101612068416921F02A0141612068BF
:10265000C16841F40051C1606564202084F84100E4
:1026600084F842006563002070BD00002DE9F0434E
:1026700087B0044614216846FDF7D1FF6549DFF8AD
:1026800090C123680024634A1039022503260827D5
:102690006148634514D1136843F400231360126842
:1026A00002F4002205920A6842F004020A600968F6
:1026B00001F004010591B102CDE9001569462CE055
:1026C000DFF858C1DFF8589163452ED1136843F401
:1026D00080131360126802F4801205920A6842F0B7
:1026E00004020A600A6802F0040205920A6842F0D5
:1026F00008020A60096802AB01F0080105914FF475
:102700008051CDE9001583E8D0006946FEF784FCCE
:102710000420CDE900056946484602AB83E8D000B5
:10272000FEF77AFC07B0BDE8F0833A48DFF8F480A2
:10273000001D4FF0070C434519D1026842F010020A
:102740000260006800F010000590086840F0010089
:102750000860086802AA00F0010005904FF4C0600C
:10276000CDE9000582E8501069462F48D8E7DFF828
:10277000BC80434511D1106840F4003010601068EF
:1027800000F400300590086840F008000860086810
:1027900000F008000590602015E0DFF894804345C4
:1027A00019D1106840F480201060106800F4802077
:1027B0000590086840F008000860086800F008000C
:1027C00005904FF44070CDE9000502AB694683E8FF
:1027D00050104846A4E7174A9342A3D1026842F03A
:1027E00020020260006800F020000590086840F0B8
:1027F00040000860086802AA00F0400005904FF40D
:102800008440CDE9000582E8D00069460A4887E7A0
:10281000004C004040380240000802400050004098
:10282000000C024000100140000002400044004043
:10283000004800400014014000180240FEE72DE966
:10284000F04106461C4617460D462A2000F00CF9BA
:10285000304600F0FEF8384600F0FBF82B2000F080
:1028600003F91435A8B200F0F4F81434A0B200F063
:10287000F0F8BDE8F0412C2000F0F6B870B5674DD7
:102880004FF40054002221462846FEF7BDFC642088
:1028900023F082FC012221462846FEF7B5FC642085
:1028A00023F07AFC012211465D48FEF7ADFC64205E
:1028B00023F072FC112000F0D7F8782023F06CFC94
:1028C000362000F0D1F8002000F0E4F83A2000F0C3
:1028D000CBF8052000F0DEF8B22000F0C5F80C209F
:1028E00000F0D8F80C2000F0D5F8002000F0D2F865
:1028F000332000F0CFF8332000F0CCF8B72000F000
:10290000B3F8352000F0C6F8BB2000F0ADF8322057
:1029100000F0C0F8C22000F0A7F8012000F0BAF8DB
:10292000C32000F0A1F8152000F0B4F8C42000F096
:102930009BF8202000F0AEF8C62000F095F80F209C
:1029400000F0A8F8D02000F08FF8A42000F0A2F842
:10295000A12000F09FF8E02000F086F8D02000F0E1
:1029600099F8082000F096F80E2000F093F809205E
:1029700000F090F8092000F08DF8052000F08AF8AA
:10298000312000F087F8332000F084F8482000F070
:1029900081F8172000F07EF8142000F07BF8152055
:1029A00000F078F8312000F075F8342000F072F86B
:1029B000E12000F059F8D02000F06CF8082000F079
:1029C00069F80E2000F066F8092000F063F809208D
:1029D00000F060F8152000F05DF8312000F05AF8A2
:1029E000332000F057F8482000F054F8172000F08A
:1029F00051F8142000F04EF8152000F04BF831206B
:102A000000F048F8342000F045F8212000F02CF8C0
:102A1000BDE87040292000F027B8000000140240F3
:102A2000001802402DE9F041141A5F1A641C7F1C43
:102A30000025A4B2BFB2069EFFF701FF7C4304E06D
:102A4000308800F006F86D1CB61CAC42F8D8BDE822
:102A5000F08110B50446000A00F01CF8E0B2BDE8B1
:102A6000104000F017B8000070B5094D06464FF44D
:102A70008044002221462846FEF7C6FB304600F07F
:102A800009F821462846BDE870400122FEF7BCBB8C
:102A90000014024001B50121684600F001F808BDAC
:102AA0002DE9F0410D4F0C4605464FF4004600223B
:102AB00031463846FEF7A8FB224629460848FFF76C
:102AC000F7F90748FFF789F80128FAD13146384667
:102AD000BDE8F0410122FEF797BB00000014024060
:102AE000F4C2012008B5FFF7C9FE15F0B3F81BF0DA
:102AF00033F91BF0D0FB0EF003FD0A220546114608
:102B00001AF0E2FD3222782128461AF01FFE2846EC
:102B100015F072FA044619233C22092117F030F906
:102B20000EA1204616F0E8F81BF0B5FB15F064FA8C
:102B300004460BA116F0E0F850238C220921204610
:102B400017F01EF9502000908C230B2221462846B6
:102B500017F024F901201EF085FDFBE742435300E6
:102B600048656C6C6F20776F726C64210000000008
:102B70001DF004FC05201EF075FDF9E77FB500246B
:102B800015480094019402941249039401604FF493
:102B90008031C0E901140461047680F820400F49B7
:102BA000C0E90A140125C561C46080F83040456160
:102BB000FDF772FF08B1FDF7C6FE0220CDE9000562
:102BC000694602940448FDF7C1FE002801D0FDF7D4
:102BD000BAFE7FBD00200140300100200100000F3F
:102BE0007FB500241548009401940294124903947F
:102BF00001604FF48031C0E901140461047680F86B
:102C000020400F49C0E90A140125C561C46080F85D
:102C100030404561FDF740FF08B1FDF794FE0E20FE
:102C2000CDE90005694602940448FDF78FFE0028AF
:102C300001D0FDF788FE7FBD002101407801002012
:102C40000100000F0D4810B50B49016010214160D3
:102C500000218160C1600161416101764176817628
:102C6000C17601774177FDF78FFF002803D0BDE8DB
:102C70001040FDF768BE10BD0064004078C101201F
:102C8000094808B5016841F400110160006800229C
:102C900000F40010009005210F20FEF7A9FCBDE80C
:102CA00008400F20FEF796BC3038024010B50B4AA2
:102CB00000210B481EF012FD0A4C084A0021A060BA
:102CC000483A09481EF00AFD044A2060243A0021CF
:102CD00006481EF003FD606010BD0000386F02085A
:102CE0009935000800C00120E52A0008712B000872
:102CF0002DE9F04F87B014216846FDF790FC50484D
:102D00000026016841F020010160016801F0200106
:102D10000591016841F004010160016801F00401BE
:102D20000591016841F001010160016801F00101B4
:102D30000591016841F002010160016801F00201A2
:102D40000591016841F040010160016801F0400116
:102D50000591016841F010010160016801F0100166
:102D60000591016841F0080101600068DFF8D48036
:102D700000F008004FF460440590012221464046CF
:102D8000FEF742FADFF8C090012248F201014846FE
:102D9000FEF73AFA002202214846FEF735FADFF83C
:102DA000ACB0012281215846FEF72EFADFF8A0A030
:102DB0004FF44077012239465046FEF725FA009439
:102DC00001240325694640460194CDE90245FEF7FA
:102DD00023F90094694648460194CDE90245FEF77F
:102DE0001BF902250095CDE9014669464846039640
:102DF000FEF712F98020CDE9000469465846CDE976
:102E00000245FEF709F9E003CDE9000469464846AA
:102E1000CDE90245FEF700F90097CDE90145694685
:102E200050460395FEF7F8F80094CDE90145694650
:102E300058460395FEF7F0F807B0BDE8F08F0000A4
:102E400030380240001402400018024000100240D6
:102E5000000402400D4810B50B4901600C49416067
:102E600000214FF480428160C0E903124161816119
:102E7000C1610162FEF7D4F9002803D0BDE810401B
:102E8000FDF761BD10BD000000540040A0C101204D
:102E9000A08601000D4810B50B4901600C49416046
:102EA00000214FF480428160C0E9031241618161D9
:102EB000C1610162FEF7B4F9002803D0BDE81040FB
:102EC000FDF741BD10BD000000580040F4C10120D5
:102ED000A08601000D4810B50B4901600C49416006
:102EE00000214FF480428160C0E903124161816199
:102EF000C1610162FEF794F9002803D0BDE81040DB
:102F0000FDF721BD10BD0000005C004048C201205B
:102F1000A08601000F4810B50D4901604FF4827181
:102F2000416000218160C1604FF400720161C0E91D
:102F30000512C1610162416281620A21C162FEF72C
:102F4000CDFE002803D0BDE81040FDF7FCBC10BD4D
:102F5000003001409CC201200F4810B50D490160AE
:102F60004FF48271416000218160C1604FF40072B2
:102F70000161C0E90512C1610162416281620A21F9
:102F8000C162FEF7ABFE002803D0BDE81040FDF79C
:102F9000DABC10BD00380040F4C2012010B596B074
:102FA00000240F9410941194129413941C216846D9
:102FB0001494FDF734FB202107A8FDF730FB3448BB
:102FC0003249C0E900144FF6FF71C0E902410461C3
:102FD00044618461FFF748F808B1FDF7B4FC4FF491
:102FE00080500F900FA92A48FFF7E4F808B1FDF7C9
:102FF000AAFC2748FFF7CDFA08B1FDF7A4FC13940B
:1030000013A923481494FEF7E7FF08B1FDF79BFCD2
:103010006020CDE9000402940394049405940022F6
:1030200069461B480694FFF74EFA08B1FDF78BFC82
:10303000042269461648FFF746FA08B1FDF783FCFB
:10304000082269461248FFF73EFA08B1FDF77BFCFB
:103050000C2269460E48FFF736FA08B1FDF773FCFB
:103060000794089409944FF400500A94CDE90B405A
:1030700007A907480E94FEF785FF08B1FDF763FC2A
:103080000348FFF79FF916B010BD00000000014093
:10309000C001002010B58EB0002407940894099454
:1030A0000A940B941C2168460C94FDF7B8FA2A4840
:1030B0004FF08041C0E90014202181604FF452613B
:1030C000C0E903148461FEF7CFFF08B1FDF73BFCB4
:1030D0004FF48050079007A91F48FFF76BF808B11D
:1030E000FDF731FC1C48FFF754FA08B1FDF72BFC43
:1030F0000B940BA918480C94FEF76EFF08B1FDF76E
:1031000022FC6020CDE900040294002269461248A6
:103110000494FFF7D8F908B1FDF715FC04226946BD
:103120000D48FFF7D0F908B1FDF70DFC08226946FC
:103130000948FFF7C8F908B1FDF705FC0C226946FC
:103140000548FFF7C0F908B1FDF7FDFB0248FFF79E
:1031500039F90EB010BD00000802002010B58EB085
:1031600000240794089409940A940B941C2168463F
:103170000C94FDF754FA2A482849C0E900144FF688
:10318000FF71C0E9024104618461FEF76DFF08B17F
:10319000FDF7D9FB4FF48050079007A92048FFF7AF
:1031A00009F808B1FDF7CFFB1D48FFF7F2F908B1A8
:1031B000FDF7C9FB0B940BA919480C94FEF70CFF03
:1031C00008B1FDF7C0FB6020CDE9000402940022A5
:1031D000694613480494FFF776F908B1FDF7B3FB8D
:1031E000042269460E48FFF76EF908B1FDF7ABFB04
:1031F000082269460A48FFF766F908B1FDF7A3FB04
:103200000C2269460648FFF75EF908B1FDF79BFB03
:103210000348FFF7D7F80EB010BD000000040040CF
:10322000500200201FB50021104800910191029129
:103230000D4A039102605322C0E901214FF47A72D2
:10324000C0E903218161FEF70FFF08B1FDF77BFBA9
:103250004FF48050009069460448FEF7ABFF002809
:1032600001D0FDF770FB1FBD004001409802002017
:103270000C4810B50A4901604FF4E131416000216A
:1032800081600C22C160C0E904128161C161FFF755
:10329000BAF9002803D0BDE81040FDF754BB10BDBB
:1032A000004C0040E00200200C4810B50A490160C3
:1032B0004FF4E1314160002181600C22C160C0E91E
:1032C00004128161C161FFF79EF9002803D0BDE8B7
:1032D0001040FDF738BB10BD00500040280300200F
:1032E0000C4810B50A4901604FF4E13141600021FA
:1032F00081600C22C160C0E904128161C161FFF7E5
:1033000082F9002803D0BDE81040FDF71CBB10BDBA
:1033100000100140700300200C4810B50A490160FC
:103320004FF4E1314160002181600C22C160C0E9AD
:1033300004128161C161FFF766F9002803D0BDE87E
:103340001040FDF700BB10BD00440040B803002052
:103350000C4810B50A4901604FF4E1314160002189
:1033600081600C22C160C0E904128161C161FFF774
:103370004AF9002803D0BDE81040FDF7E4BA10BDBB
:1033800000480040000400200C4810B50A490160C4
:103390004FF4E1314160002181600C22C160C0E93D
:1033A00004128161C161FFF72EF9002803D0BDE846
:1033B0001040FDF7C8BA10BD0014014048040020B9
:1033C000FEE7FEE70148FEF70BBC0000F4C2012057
:1033D00010B5806B0021C187C186FEF7FDFB10BDD3
:1033E00010B5806B01684A6822F003024A60416DA3
:1033F00041F010014165012180F85110FEF7ECFB0E
:1034000010BD10B5806BFEF7BAFD10BD38B505468E
:10341000846BFDF7FFFE024628680068C00523D4D0
:103420002068416821F0200141602068416821F056
:10343000020141606421204600F01AF818B1606D65
:1034400040F020006065A068002118B92068C268BB
:1034500080680090E186012084F85100606D18B109
:103460002046FEF7B9FB38BD2046FEF787FD38BD84
:10347000F8B515460E460B4600920446012202217D
:1034800000F02CF8A0B9134813490068B0FBF1F024
:103490004FF47A71484300906068B0F5827F0DD197
:1034A0003346002280212046009500F017F870B1C5
:1034B000606D40F0200060650320F8BD009830B1D9
:1034C000401E009020688068C0430006F6D50020AA
:1034D000F8BD00000C00002000366E012DE9F84315
:1034E0001E46914688460446089DFDF793FE401B04
:1034F000351AFDF78FFE074626480068C0F3CB302B
:1035000068430AE0701C09D0FDF784FEC01BA84286
:103510000FD275B10098B8B3401E00902068816842
:1035200038EA010033D000214945EBD10020BDE845
:10353000F8832068416821F0E00141606068B0F5DF
:10354000827F0BD1A068B0F5004F02D0B0F5806F3C
:1035500004D12068016821F040010160A06AB0F543
:10356000005F09D12068016821F4005101602068E2
:10357000016841F400510160012084F851000020ED
:1035800084F850000320D2E7FFE70025C6E70121B9
:10359000CAE700000C00002001201EF063F8FBE7E2
:1035A00010B54FF0E020006923F0CAFA012803D0DB
:1035B000BDE8104022F0F8BF10BD000030B593B058
:1035C00030216846FDF72BF814210CA8FDF727F8E9
:1035D0001D480025016841F080510160006800F03D
:1035E000805011901948016841F4804101600068E1
:1035F000022400F4804011900120039010200490D8
:10360000009406940820CDE90750A820CDE90904CC
:1036100004200B906846FEF729F908B172B6FEE760
:103620000CA90F2081E831004FF4A0500F904FF407
:103630008050109005210CA8FEF70CF8002801D04E
:1036400072B6FEE713B030BD403802400070004053
:103650000248016841F470010160704788ED00E0A4
:103660000148FEF716BE000090040020F0B5026885
:10367000274B284D284E294F294C4FF0804C98421B
:1036800009D0604507D0A84205D0B04203D0B84267
:1036900001D0A04204D122F0700E4A6842EA0E0224
:1036A00098421BD0604519D0A84217D0B04215D01F
:1036B000B84213D0A04211D01A4DA8420ED01A4DD4
:1036C000A8420BD0194DA84208D0194DA84205D0E8
:1036D000184DA84202D0184DA84203D122F44075DB
:1036E000CA682A434D6922F080022A438D68C56268
:1036F0000D688562984201D0A04201D10969016339
:10370000016841F004010160012141610260F0BDE6
:10371000000001400004004000080040000C004090
:1037200000040140004001400044014000480140C5
:1037300000180040001C00400020004010B58468C4
:1037400042EA032224F47F440A432243826010BDEC
:10375000826822F070020A4342F0070181607047DC
:10376000F0B5036A026A22F00102026242688469CB
:10377000124E24F073050C682C4323F002058B686D
:103780002B430D4DA84201D0B04205D123F00807CC
:10379000CB683B4323F00403A84201D0B04205D1DB
:1037A0004D6922F4407215438A692A43426084615C
:1037B000496841630362F0BD00000140000401401C
:1037C000F0B5026A036A23F0100303624368846958
:1037D0000D6824F4E64444EA05248D6822F02002B2
:1037E00042EA05120F4D104EA84201D0B04206D158
:1037F000CF6822F0800242EA071222F04002A8427B
:1038000001D0B04207D14D6923F4406343EA8503F8
:103810008D6943EA8503436084614968816302627C
:10382000F0BD00000000014000040140F0B5026A54
:10383000036A23F4807303624368C46922F400724C
:1038400024F073050C68124E2C438D6842EA052261
:103850000E4DA84201D0B04206D1CF6822F40062DA
:1038600042EA072222F48062A84201D0B04207D186
:103870004D6923F4405343EA05138D6943EA051368
:103880004360C4614968C1630262F0BD0000014049
:103890000004014030B5046A026A22F480520262D8
:1038A0004268C3690D6823F4E64343EA05238D6843
:1038B00024F4005444EA0534084DA84202D0084DCF
:1038C000A84204D14D6922F4804242EA8512426046
:1038D000C36149680164046230BD0000000001401A
:1038E0000004014010B5036A046A24F00104046274
:1038F000846924F0F00444EA021423F00A020A4323
:103900008461026210BD10B5036A046A24F01004D9
:103910000462846923F0A00324F4704444EA023270
:1039200043EA01118261016210BD000070B50446D6
:1039300000680169E26821F4405111430161216985
:10394000A068E26908436169114308432168CA68B5
:1039500049F20C639A430243CA6020684169A26934
:1039600021F440711143416131492068884202D0FD
:103970003049884202D1FDF737FF01E0FDF724FF0F
:10398000E2690023192164253226B2F5004F6268EE
:1039900028D0A0FB0101930F9200FCF7E5FC014643
:1039A000B0FBF5F06FF01802504301EB800006EB1E
:1039B0000010B0FBF5F000F0F002B1FBF5F002EB07
:1039C0000012B1FBF5F06FF01803584301EB8000D3
:1039D00006EB0010B0FBF5F000F00F00216810447A
:1039E000886070BDA0FB010192185B41FCF7BCFC34
:1039F0000146B0FBF5F00201B1FBF5F06FF01803E2
:103A0000584301EB800006EBC000B0FBF5F000F07E
:103A1000F80002EB4002B1FBF5F0584301EB8000E7
:103A200006EBC000B0FBF5F000F00700D6E70000A1
:103A30000010014000140140FEE70907090E0028AC
:103A400004DB00F1E02080F80014704700F00F0064
:103A500000F1E02080F8141D704770B50446002581
:103A60006FF02F0608E02068411C2160007805EB0C
:103A7000850106EB410145182068007800F004F844
:103A80000028F0D1284670BD3038092801D801201F
:103A9000704700207047000010B54421074800F02F
:103AA000E9FC00221E2106481CF030FC054CA060F9
:103AB00001F088FD0020207010BD00000862002089
:103AC000795600085400002070B5B1F90030B2F901
:103AD0000040A34200DC23460380B1F90250B2F952
:103AE0000240A54200DD2C464480B1F90460B2F9E1
:103AF0000450AE4200DA35468580B1F90610B2F9BD
:103B00000620914200DB1146C1800120AB4201DC5E
:103B10008C4200DD002070BDF8B50D460446B0F9BA
:103B20000000B1F900101646884247DBB4F90210D4
:103B3000B5F90220914241DBB4F90410B5F9042033
:103B400091423BDCB4F90610B5F90620914235DC10
:103B500096B3ADF800006088ADF8020032466946C1
:103B6000284600F099F8002827D0A088ADF800007A
:103B70006088ADF8020032466946284600F08CF8AD
:103B800000281AD02088ADF80000E088ADF80200C7
:103B900032466946284600F07FF800280DD0A088FC
:103BA000ADF80000E088ADF80200324669462846CC
:103BB00000F072F8002800D00120F8BD0020F8BD08
:103BC000B0F90020B1F904309A4213DCB0F90420B6
:103BD000B1F900309A420DDBB0F90220B1F906309C
:103BE0009A4207DCB0F90600B1F90210884201DB05
:103BF0000120704700207047F8B50D460446B0F923
:103C00000400B1F900101646884243DBB4F90600FF
:103C1000B5F9021088423DDBB4F90000B5F9041093
:103C2000884237DCB4F90210B5F90620914231DC44
:103C300076B3ADF800006088ADF802003246694600
:103C4000284600F029F818BBA088ADF8000060886D
:103C5000ADF8020032466946284600F01DF8B8B9B2
:103C60002088ADF80000E088ADF8020032466946D1
:103C7000284600F011F858B9A088ADF80000E08897
:103C8000ADF8020032466946284600F005F808B152
:103C90000020F8BD0120F8BD2DE9FC4114460E4678
:103CA000B1F90020B0F9001005468A423ADBB5F9B7
:103CB0000400824236DCB6F90270B5F90220974260
:103CC00030DBB5F906309F422CDC002C75DD401A44
:103CD0009A1A401C521C00B212B200EBD07002EBD8
:103CE000D27240105210904200DB1046844200DD38
:103CF0000446ADF80010288800222044ADF80400E6
:103D00006888ADF80200688831462044ADF80600A6
:103D10006846FFF7C1FF40B1BDF804002044ADF88C
:103D200004003FE00020BDE8FC81E8880022001B81
:103D3000ADF80200E888ADF8060031466846FFF7A6
:103D4000ABFF28B1BDF804002044ADF8040011E039
:103D5000A8880022001BADF80000A888ADF8040078
:103D600031466846FFF798FF50B1BDF80000001BD0
:103D7000ADF80000BDF80200001BADF8020016E02F
:103D80006888ADF80200688800222044ADF806007B
:103D900031466846FFF780FF70B1BDF80000001B98
:103DA000ADF80000BDF806002044ADF8060031462D
:103DB000684619F0B5FFB6E7FFE70120B3E710B595
:103DC000B1F90040B2F900309C4200DA234603808A
:103DD000B1F90240B2F902309C4200DA2346438036
:103DE000B1F90440B2F904309C4200DD23468380DF
:103DF000B1F90610B2F90620914200DC1146C180EB
:103E000010BD00002DE9F0418AB007461CF024FAED
:103E10000026A14C054600960FB1F86801E00FF0AE
:103E2000D1FA6060006919F077FE6068406908B1F6
:103E300019F072FE6068C06919F06EFE6068006A71
:103E400019F06AFE60680169F1B319F0FFFF1EF016
:103E500031FC6068B0F8501199B30168097C89079A
:103E600015D50FF00DFB401E07B260680FF0C2FAC7
:103E7000401E03B20022114601A800970DF05CF924
:103E8000606801A90268D26B516004F0FFF86068B5
:103E90004FF48071303015F09DFB6068202100F5F3
:103EA000987015F097FB6068A0F8506128461CF0E8
:103EB000CDF9009060680068436A13B122680099E8
:103EC000984715F0CBF900E007E000F031F900F079
:103ED00003F9724D6F692FB13FE0A0F850610AB04D
:103EE000BDE8F08114F087FF14F086F80746002241
:103EF0007F2119F02AFD0EF07DFC01460022384694
:103F000019F012FD0EF0C9FE01460022384619F0E4
:103F100071FD00220321384619F062FD00220321C1
:103F2000384619F04EFD00220321384619F04EFDA7
:103F300000220321384619F04EFD002203213846A5
:103F400019F053FD56A1384614F0D6FE00231A4648
:103F50000621384615F014FF6F6128681CF076F9C9
:103F60004FF4967840450CD2206841F2883188425F
:103F700034D96868009908446860A868401CA86043
:103F80002CE01CF069F928606068406828B100687E
:103F90004FF47A71B1FBF0F000E02120696809B9B3
:103FA00001216960A968F1B14FF47A7251436A68DE
:103FB000B1FBF2F46E60AE60844200D90446286919
:103FC00020442861E868401CE8601CF0D1F9C0F189
:103FD0006403224633A1384614F0C5FE2E4D083541
:103FE0006C6814B137E00446E4E714F004FF14F001
:103FF00003F8044600227F2119F0A7FC0EF0FAFB1B
:1040000001460022204619F08FFC0EF046FE0146C4
:104010000022204619F0EEFC00220321204619F070
:10402000DFFC00220321204619F0CBFC00220321F3
:10403000204619F0CBFC00220321204619F0CBFCCE
:1040400017A1204614F058FE00231A4604212046EA
:1040500015F096FE6C6028681CF0F8F840457FF675
:104060003EAF1CF0F9F8286002A815F08FF904990A
:104070000298401A820A514200EB81206621B0FB6F
:10408000F1F39DF821109DF82000CDE9000109A170
:10409000204614F068FE22E73C000020ACC301205B
:1040A0003F0000002575204650530A257525252020
:1040B0004350550025752E2575206B42207573657C
:1040C0006420282564202525290A256425252066C5
:1040D0007261672E0000000070B50A4D002400BF19
:1040E000C4EBC40655F8260008B115F02BF905EB12
:1040F00086001C2115F06EFA641CE4B2042CEFD388
:1041000070BD0000E4620020084949680AE04A687E
:10411000824202D00A68824203D10A7E42F0010242
:104120000A7649690029F2D1704700007CC001205D
:10413000704700000421014800F09CB9FC61002098
:104140002021014800F096B9146200202DE9FF41BA
:104150000446DDE90A671D004FF0000002D1B6F504
:10416000807F2BD0039001900290ADF80C1000904E
:10417000ADF80410ADF80A20ADF80E203B463246EB
:104180002946684619F02CFD3B463246294601A8CF
:1041900019F026FD3B463246294602A819F020FDBB
:1041A0003B463246294603A819F01AFDBDF9000026
:1041B000BDF90430984209DA054608E02080491E1E
:1041C0006080A180521EE280BDE8FF811D46BDF9DE
:1041D0000820BDF90C108A4201DA164600E00E46AE
:1041E000B54203DA984206DB184604E08A4201DA57
:1041F000104600E00846801E2080BDF90030BDF961
:104200000420934201DD1D4600E01546BDF908007B
:10421000BDF90C10884201DD064600E00E46B542AD
:1042200005DD934201DD194604E0114602E08842B3
:1042300000DD0146891CA180BDF90230BDF90620D0
:10424000934201DA1D4600E01546BDF90A00BDF9AA
:104250000E10884201DA064600E00E46B54205DA45
:10426000934201DA194604E0114602E0884200DA7E
:104270000146891E6180BDF90230BDF906209342D6
:1042800001DD1D4600E01546BDF90A00BDF90E101E
:10429000884201DD064600E00E46B54205DD934248
:1042A00001DD194604E0114602E0884200DD0146C6
:1042B000891CE18088E700002DE9F04115460E4693
:1042C0000746114C1BF0C8FF80462B463246394644
:1042D000204613F099F920B10020A062E06950B1A6
:1042E00010E02C21204615F075F94FF00040A06237
:1042F0000020BDE8F08140461BF0A8FFE06108B94E
:104300000120E0612046F4E73862002010B5142156
:10431000074800F0AFF813F03DF940B105490160DE
:1043200005494160054981600549C16010BDFEE74E
:1043300020620020BD6F010839730108B5740108BF
:10434000896F01087FB50E46040003D10FF03AF8DB
:1043500004002CD00FF0AAF8002828D094F82800E8
:10436000400724D4002506B3ADF80050ADF8025044
:1043700020460FF03FF8401EADF8040020460FF035
:104380007FF8401EADF806006A46314602A8FFF7E6
:104390009BFB00280BD02068017C890708D5DDE94C
:1043A0000001C4E90C01012029E0A4F850517FBDAF
:1043B00082690AB102A9904700260AE004EBC6010F
:1043C000002202A83031FFF7A7FB0028EFD1761CAE
:1043D000B6B2B4F85001B042F0D880B2202804D26E
:1043E00004EBC00002A9303004E0A4F8505104F1FD
:1043F000300069460CF0EEFDB4F85001401CA4F802
:10440000500160680028D2D01CF060F87FBD70B504
:10441000054600F012F804460CE02146284600F05C
:104420001EF806462146284600F071F8204614F092
:1044300089FF3446002CF0D170BD002800D04068C0
:10444000704700B503460022FFF7F7FF03E0184668
:10445000521C00F004F80100F9D1104600BD0068BC
:10446000091D40587047006840587047002800D028
:104470008068704700224260C91C21F003018260FD
:104480000160704770B504460068083014F0CEFE35
:10449000050013D00146002220461DF051F82946A0
:1044A000204662681DF046F8616819B12A46204628
:1044B0001DF046F86560A06800B9A560284670BD8B
:1044C00070B504460068083014F0B0FE050013D043
:1044D0000146002220461DF02DF829462046A268FC
:1044E0001DF02EF8A16819B12A4620461DF022F8C9
:1044F000A560606800B96560284670BD28B1416854
:1045000009B9806808B1002070470120704770B574
:1045100004000DD0FFF791FF00228842204608D109
:10452000FFF79DFF6060011E01D000221EE0A26027
:1045300070BDFFF79BFF8842206808440AD10168DC
:10454000A16029B12046BDE8704000221CF0F2BFF6
:10455000626070BD05682046FFF781FF064602468F
:10456000294620461CF0E6FF2A4631462046BDE893
:1045700070401CF0E5BF10B50446006882680AB1BF
:104580002146904720680068002801D02060F5E7A8
:1045900010BD8068002801D0B0F91600704780680F
:1045A000002801D0807E8009704770B51646054608
:1045B0000C4651EA06001AD0284615F05BFDA868A3
:1045C00001233246018A21440182A868418A31448C
:1045D00041822146284618F083F800220B21284604
:1045E00011F09CFF012803D1284617F0D2FF0120CB
:1045F00070BD77B581B00E46050017D0612217F067
:1046000025FB040012D0206880B128463146622282
:1046100017F01CFB10F0FF0208D023682046039916
:1046200098470090BDF80000ADF80C00039804B066
:1046300070BD00002DE9F047074692B0408C1A9EED
:1046400040F00400788490463A8499468A4632893C
:10465000384617F0FBFA0546A7F8209032895146F4
:10466000384617F0F3FA0446788CA54220F004008F
:10467000788403D12904B1EB044F68D0A7F82080D7
:1046800032895146384617F0E1FA05468046A7F8C8
:104690002090514638460AF025FF318900682A46A5
:1046A0001AF03AFD30890B2823D147F6FF794D45A2
:1046B00001D04C451DD1384617F083FC00EBD0707B
:1046C0004510384616F085FB00EBD0704010C84509
:1046D00006D1691C431C994200DA00E0194688465D
:1046E0004C4506D1691C421C914201DA6C1C00E069
:1046F00014461948FFF7C6FE05002BD02F60C5E908
:1047000003843089A8806846C5F808A00BF07AFFBA
:104710001248FF21CDE90050114802901148039042
:1047200000200890CDE9090130880B9070889DF831
:10473000421040420C90F0680790002060F30001A6
:104740008DF842103069069068460BF0CFFF12B02A
:10475000BDE8F087FEE700002C620020DD5902086A
:10476000C55B0208215B020814210148FFF782BEE5
:104770002C6200202DE9F84F002590468946064618
:104780002C460427E5E000BFF16807EBC400085899
:1047900082017AD480B230EA090211D05FF00002BF
:1047A00030EA08000ED0002082426ED051F834A0CA
:1047B0006A46102150461AF021FA002871D103E010
:1047C0000122EDE70120EFE76A46112150461AF079
:1047D00015FA002865D16A46122150461AF00EFAE1
:1047E00000285ED16A46132150461AF007FA0028C5
:1047F00057D16A46152150461AF000FA002850D1C8
:104800006A46142150461AF0F9F9E8BB6A460A21B3
:1048100050461AF0F3F9B8BB6A466A2150461AF0BE
:10482000EDF988BB6A466B2150461AF0E7F958BB90
:104830006A46012150461AF0E1F928BB6A46042174
:1048400050461AF0DBF9F8B96A46022150461AF0D0
:10485000D5F9C8B96A46032150461AF0CFF998B97C
:104860006A46052150461AF0C9F968B96A46062118
:1048700050461AF0C3F938B96A46322150461AF048
:10488000BDF908B96A4601E00BE061E06D215046D0
:104890001AF0B4F928B96A466C2150461AF0AEF9FC
:1048A00010B10320BDE8F88F6A46682150461AF01F
:1048B000A5F9E8BB6A46692150461AF09FF9B8BBD2
:1048C0006A466D2150461AF099F988BB6A466C21F8
:1048D00050461AF093F958BB6A46372150461AF0F1
:1048E0008DF928BB6A46382150461AF087F9F8B985
:1048F0006A46352150461AF081F9C8B96A46402106
:1049000050461AF07BF998B96A46452150461AF08C
:1049100075F968B96A46412150461AF06FF938B9FD
:104920006A46422150461AF069F908B96A4600E021
:104930000AE0432150461AF061F928B96A46492134
:1049400050461AF05BF908B1022501E005B90125CE
:10495000641C708CC0F3C500A0423FF615AF28461A
:10496000A0E7000001484068704700003C000020BC
:104970000549002048600861C86088600860486197
:104980000249086048607047ACC301204400002021
:10499000C0F30410072800D907207047A0F57F4115
:1049A000FF3905D0002804D0702803D208490AE056
:1049B0001F2070470749703880B2096829B1064A3C
:1049C0005268904201D2085C704700207047000096
:1049D000D874020874000020D8C0012010B5182136
:1049E0000348FFF747FD03490120087010BD000090
:1049F000D8610020E0C001202DE9F04190460C462E
:104A0000050015D0FBF74BFD0A4F06462146BA6854
:104A1000284690470446BA682819414690470146FF
:104A2000701A03E06218AA5C2A55641CA042F9D2ED
:104A3000BDE8F081780000202DE9F041094D904655
:104A40000E466A681C46074619469047306020B1FA
:104A500020686A68384400219047C8F80000BDE823
:104A6000F0810000780000202DE9F04F87B08A46E1
:104A7000DDE910581F4693460446002105B1298000
:104A80005CB12078002809D0BAF1000F05D00026CB
:104A900018F0060F15D0002004E0002007B0BDE894
:104AA000F08F401C215C0A2904D00D2902D0002976
:104AB000F7D100E0401C002DF0D04FF0FF312980ED
:104AC000ECE75FEA887001D541F6FF778946084632
:104AD0008DF81410049127E00498CDF8189068B36D
:104AE0004FF0000C05AA06ABCDF80CC0CDF8008045
:104AF000CDE9013220443B465A4651461BF04AFE5E
:104B000006997A1A314417B20EB288B10499014459
:104B1000049120780A280BD00D2809D0605C0A285F
:104B20000FD00D280DD00846205C08B1002FD3DC33
:104B3000049848B105B12E800498AFE74FF0010CFE
:104B4000D0E7481C0490F3E7064A04A920465268BF
:104B50009047002DF0D001460022504611F0EBFDA9
:104B600006B2E8E7780000202DE9F04117468846B4
:104B700006001ED0002F1CD0FBF791FC04463846DF
:104B8000FBF78DFC050014D00B4A2C44414692687B
:104B900030469047411903E0621BB25C3255641EF7
:104BA000A142F9D930442A463946BDE8F04114F013
:104BB000D3BCBDE8F081000078000020002302781B
:104BC000232902D0012A0DD00FE02AB10021012AA9
:104BD00004D0022A04D008E0012101E0017004E0C1
:104BE000017001E0202902D00123184670470221FC
:104BF000F6E72DE9F0410E46804602460021334695
:104C000008461CF005F804460027401C14F00EFB73
:104C1000050008D02F5533464246611C1BF0F8FFB3
:104C20002846BDE8F081FEE72DE9F0471E46144610
:104C30000D468246DDF8209015E000BF4FEA54088B
:104C400008FB0657394650464A469047002808DD7B
:104C500044F30000C0EB540407EB0605A4F1010483
:104C600001E005DA4446002CE8D12046BDE8F08793
:104C70003846FBE72DE9FC5F9B460CAB8A46814634
:104C8000DDE9116093E81210DDE90F575FEA8078E3
:104C90004FF030031AD45EB15FEAC07808D000F05C
:104CA0000C0858EA0C0803D0761E01E00B55641C72
:104CB000BC4204D2202CF9D301E00B55641C5FEAFE
:104CC000C07803D0B44201D2202CF6D35FEAC0688A
:104CD00025D55FEA40580AD44CB1BC4201D0B44259
:104CE00005D1641E03D0102D03D1641E04E0102DE5
:104CF00002D0022D0AD00EE0850603D4202C1ED24D
:104D0000782506E0202C1AD2582502E0202C16D255
:104D100062250D55641C202C11D20B55641C202CCF
:104D20000DD2BCF1000F01D02D2306E0430701D5C1
:104D30002B2302E0030702D520230B55641CCDE989
:104D400000BAC846154681468B46AA46800714D14C
:104D5000274607E02A46DDE900316D1C2020C446C5
:104D6000E0477F1CB742F5D307E02A466D1C641E5E
:104D7000DDE900311BF80400C047002CF5D15FEAE3
:104D8000897006D409E02A46DDE900316D1C202037
:104D9000C047A5EB0A00B042F5D32846BDE8FC9F0A
:104DA0002DE9F04F8FB099468B46DDE91818DDE903
:104DB0001C63DDE91A4792468646002209B923F0B2
:104DC0001003580507AD00D5C9B1B1FBF4F004FBE1
:104DD0001010C0B20A2801D2303009E05FEA836CBB
:104DE00002D54FF0410C01E04FF0610C60440A38ED
:104DF000B1FBF4F1A854521C09B1202AE5D3CDF837
:104E00000880CDE90563CDE90052CDE903474B4663
:104E1000524659467046FFF72DFF0FB0BDE8F08FA0
:104E20002DE9FF4F8FB01CACDDE9239594E8030812
:104E300020AC94E8C004002450EA010201D125F01E
:104E400010056A050DF11C0802D550EA010217D0C1
:104E500032463B46FBF788FAD2B20A2A01D23032F8
:104E600006E0AB0601D5412300E061231A440A3A6B
:104E700008F80420641C50EA010201D0202CE7D37A
:104E8000CDE90084CDF808B0CDE90595CDE9036AF8
:104E90000FAF97E80F00FFF7EDFE13B0BDE8F08FFE
:104EA0009A4200D288547047704700002DE9FF4FA6
:104EB00089B005460A9800249246002800D1FE4D8C
:104EC0008FE1252804D02246641C53460A990BE240
:104ED000491C4FF0000808460C9101782B2919D085
:104EE00004DC202919D0232904D119E02D290ED062
:104EF000302909D00026C8B2FEF7C6FDB0B10CA813
:104F0000FEF7ABFD06461FE048F001010AE048F05D
:104F1000020107E048F0040104E048F0080101E064
:104F200048F01001401C88460C90D6E70C99087890
:104F30002A2809D1169840C81690002E02DA48F0A7
:104F400002087642491C0C910C984FF0000B017836
:104F50002E2919D1401C0C9048F480680078FEF787
:104F600093FD20B10CA8FEF778FD83460CE00C9A67
:104F700010782A2808D1169802C81690002900DC5B
:104F80000021521C8B460C920C9801786C290AD097
:104F900004DC68290FD06A2919D128E0742929D0A6
:104FA0007A2914D126E0401C0C90017848F48078CE
:104FB0006C291CD00BE0401C0C90017848F0800854
:104FC000682904D148F04001401C88460C900246F4
:104FD0000078692822D015DC62281FD00DDC252836
:104FE00071D050281AD058287FF46DAF16E048F4DD
:104FF0000071E9E748F48071E6E7632878D0642817
:10500000F2D10BE0732874D004DC6F2806D070282E
:10501000EAD103E0752801D07828E5D178280DD0B1
:1050200058280BD070280BD0502809D06F2816D0E4
:10503000622816D00A2128F0100016E0102107E09F
:105040005078102148F48878562804D1521C0C92CC
:105050001078582807D01078502804D006E008218E
:1050600009E0022107E048F0200080461078692816
:1050700003D0642801D028F00C085FEA485001D51D
:1050800028F00108107869281ED064281CD0562802
:1050900064D05FEA885072D5169804ABC01D002218
:1050A00083E806080292CDE9076820F0070053461E
:1050B000F0E80212CDE900121690224628460A991D
:1050C000FFF7AEFE89E00AE15FEA885024D5169822
:1050D00004AFC01D20F00703F3E80202169300237B
:1050E00087E80A08CDE90768002A03DA012102E00F
:1050F00080E0A6E000210023029119461B1A91418D
:1051000001DA114603E00021404261EB02015346FF
:105110002246CDE90001D1E75FEAC85004D51698D0
:1051200004C80FE0524215E05FEA486003D51698C4
:1051300010F8042B06E05FEA0860F0D5169830F806
:10514000042B12B21690CDE9021BCDE90468D00FF2
:10515000002AE7DDCDE9002053461EE01698AAEBB1
:10516000040202C816904868006800900A980B680C
:1051700001192846FFF79AFE04442FE0FFE75FEA93
:10518000C8500CD5CDE9021BCDE904681698002162
:10519000534604C8CDE900211690224619E05FEA83
:1051A000486003D5169810F8042B08E05FEA086001
:1051B000169803D530F8042B92B200E004C816907C
:1051C0000020CDE90020CDE9021BCDE9046853465B
:1051D000224628460A99FFF7E3FD04460C98401C36
:1051E0000C900C99087800287FF46BAE54457DD262
:1051F00022467DE001275FEA887006D509E0224655
:10520000641C534620200A99A84738467F1CB042A8
:10521000F5D316992246641C11F8040B16915346D7
:105220000A99A8475FEA887006D4D7E72246641C2B
:10523000534620200A99A84738467F1CB042F5D330
:10524000CCE7169850F8049B16904B46BBF1000033
:1052500001D0014601E04FF0FF31484600E0401C1C
:1052600002780AB1491EFAD2C71A5FEA485003D53C
:1052700058465F4500D307465FEA887006D512E0BE
:105280002246641C534620200A99A84738467F1CB2
:10529000B042F5D307E000BF224609F10109641CC2
:1052A00053460A99A84799F8000040B15FEA48516F
:1052B000F2D5BBF1010B01E0A94E0008ECD25FEA88
:1052C000887006D48AE72246641C534620200A9937
:1052D000A84738467F1CB042F5D37FE706E0224658
:1052E000641C534625200A99A84777E7AAF10102D2
:1052F000534600200A99A8470DB02046BDE8F08F1C
:1053000010B502004FF000000CD04B1E194200D027
:10531000FEE70A44521E9A43B2F5803F02D20C2A9D
:1053200001D9104610BD0C2010BD08444A1E401E75
:105330009043114200D0FEE7704700002DE9F04194
:105340000F4601210025044641862E460BE01B49ED
:10535000FBF78CF910B16D1CADB202E0608E401C01
:105360006086761CB6B257F8260010B10178002985
:10537000EDD1208EA8421ED0A06A002610B113F0F5
:10538000E1FFA662E06A10B113F0DCFFE662E8001C
:1053900013F04CFFA06238B1680013F047FFE062E1
:1053A00018B1A16A11B102E0FEE7FEE7002569002D
:1053B00014F010F92586BDE8F0810000A419010859
:1053C0002DE9F84F8146407A0F4600F00700022889
:1053D00019D010468046974200DD3A461646032013
:1053E0002A4C2B4A00EB460020F00305A068116808
:1053F0001035411A636805EB010C9C4505D24168E4
:1054000021F0004124E00846E4E79D4219D8924685
:105410004FF0FF3B48196168884210D90022694665
:105420001C48CDF800B00AF097FD002269461A48E2
:105430000AF092FDA168DAF80000091AEAE7A0680C
:10544000DDE7284613F0F2FEC0B1416841F00041AB
:1054500088EA6702416089EA02010160416801F05F
:105460004041491C31F0804141608681A0F80E80A6
:1054700005D500F110018160BDE8F88FFEE7A16855
:1054800001F1100229448260A160F5E790C001207B
:105490007000002035E20008B9FF000870B586B042
:1054A00000228DF808208DF80C208DF81020444C37
:1054B00090F83C20142302F00302A5784FF4B47650
:1054C000012A23D0022A5FD0AA4211D010F8265F09
:1054D00005EB051505EB4505B5FBF3F525704078A3
:1054E00000EB001000EB4000B0FBF3F06070A27026
:1054F00004AA03A8CDE9000201EB41004FF6FF71B9
:1055000001EA400002AB627821781AE0AA4210D08A
:10551000858C05EB45056D02B5FBF6F5A58090F889
:10552000270000EB001000EB4000B0FBF3F06070D0
:10553000A27004AA03A8CDE90002C9B202AB627846
:105540003CE008F08AFB9DF810209DF80C10D30871
:10555000BDF800209DF8080063F30402ADF80020B8
:105560008A08BDF8001062F34A11ADF80010C108B6
:10557000BDF8000061F3CF20ADF8000080B20090CC
:10558000BDF8000006B070BDAA4210D0858C05EBB6
:1055900045056D02B5FBF6F5A58090F8260000EBF9
:1055A000001000EB4000B0FBF3F02070A27004AAE2
:1055B00003A8CDE90002CAB2217802ABA088C0E7F7
:1055C000F800002010B5084C012020700748FEF7B5
:1055D00034FF0028A06803D0BDE810401AF076BF61
:1055E000BDE810401AF066BF540000200862002099
:1055F00010B5044690F84200A16B820709D4B4F8B4
:1056000040204AB1A2F57F43FF3B1BD0521EA4F8B5
:105610004020B4F84020AAB909B1820712D521462A
:105620001448FEF774FFFFF7CDFFE16809B120468B
:105630008847216909B1204688472046BDE81040C7
:1056400013F080BEE26B52422263002911D0820720
:1056500002D4626B524222634210521C62F3410038
:1056600084F84200A26A206A2262A062E06AE162D3
:10567000A06310BD0862002070B5304D68681AF054
:10568000E5FD0646687880F00100687047E000207C
:10569000287094F842006978C0F380028A4242D0B0
:1056A00061F3820084F84200216B8A19030719D440
:1056B000002917DC002A15DBC00709D1616939B15F
:1056C00020468847216A01442162A16A0844A062F9
:1056D000A16809B12046884794F8420040F00800CC
:1056E00084F84200206B8019206316D4E16A884256
:1056F00000DD2163E169204688470146606A8842EF
:1057000004D0616262680AB120689047D4E90B0155
:10571000814202DB2046FFF76BFF287818B108486A
:10572000FEF78BFE03E021460548FEF798FE0400D5
:10573000ADD11AF091FD686070BD000054000020EA
:105740000862002070B5044640680D4608B1FFF7B6
:10575000F9FF2268002A04D029462046BDE870409F
:10576000104770BD89B20BF09ABB89B20BF0D3BB66
:105770002DE9FF4F99B09846DDE926B12D981646E0
:105780008A464FF00009042811D0052811D00628B8
:1057900012D0142870D101270225002418FB06F02E
:1057A0000E901A98401E0D90701E069051E1002731
:1057B000F2E701270325F0E701270225FFF7D2F8DA
:1057C0000068D0F83890E8E7289860430BEB202277
:1057D000299860430AEB202110124FEA212E7DD434
:1057E0001A9B98427ADABEF1000F77DBB64575DA7C
:1057F000D2B2CBB2802A05DAC2F17F024FF0FF317C
:10580000520003E001215200A2F580720992802B20
:1058100005DAC3F17F034FF0FF325B0003E00122A2
:105820005B00A3F580730A930EFB080C199B0CFB1D
:10583000053307934318119372D4DDF834C06345E0
:105840006EDC1EEB02036BD4DDF818C0634567DC29
:10585000DDF81CC011FB05C1CDE915C112FB08F133
:1058600001FB05C10C91D7B32D99052905D0142949
:105870000BD0062955D066E0EFE0159880780790A8
:105880000C9881781698807810E0199A0E990EFB82
:1058900008FC02EB41010A180EFB08111CF802007B
:1058A0000790119803FB08F3085C995C079A9142F2
:1058B0000AD00A9A11FB02F20A99C1F5807307997E
:1058C00011FB0321C1F30721079A90420DD0099AD9
:1058D00010FB02F20998C0F5807301E02FE035E07B
:1058E000079810FB0320C0F3072008442C994008B8
:1058F000085527D015980178407801EB0020ADF8C5
:105900000C000C980178407801EB0020ADF81000F5
:1059100016980178407801EB0020ADF8080023E0EC
:105920004CE0159801881FFA89F0814207D00C9944
:105930000988814203D016990988814203D12C99A4
:105940000020085583E0FF210846CEE7159800881F
:10595000ADF80C0016980088ADF808000888ADF87E
:1059600010002C98FF210155BDF80C00BDF8101057
:10597000884209D1BDF80810884205D12B98BDF89E
:105980000C1000EB440017E00A98C2B2DDE90310E6
:105990000DF0F8F804900998C2B2DDE902010DF0AB
:1059A000F1F87F22029004990DF0ECF800902B980A
:1059B000BDF8001000EB4400018048E0079B93F81D
:1059C00000C05B780CEB0323DDF8ACC09BB22CF875
:1059D0001430DDF8B4C0BCF1050F06D0BCF1060FE1
:1059E00006D0BCF1140F09D10AE0079B9B780FE0A9
:1059F0001FFA89FC634501D1002309E0FF2307E07A
:105A0000199B0EFB083C0E9B00EB43031CF8033074
:105A100008B9002905DBDDF834C0604503D1002951
:105A200001DD09980AE0BEF1000F01D1002A04DB74
:105A300006998E4508D1002A06DD0A98C0F1FF00BC
:105A400010FB03F0010A00E000212C980155641CB2
:105A500024B22A988442FFF6B7AE1DB0BDE8F08F9D
:105A600010B5818F92B00446A9B168460AF0CAFD0C
:105A70000B480121CDE90040A08F0B900020089039
:105A8000CDE90901074807900748039068460AF0E6
:105A90002DFE12B010BD12B0BDE810401CF04EBB80
:105AA000B5210208C3060108B721020810B5044653
:105AB000406882080AD0496821F00301091D0844A2
:105AC0006060204600F042F8204610BDFEE74068C6
:105AD000103120F00300884201D3012070470020DC
